:020000022000DC
:10600000000001203D6202009562020097620200DA
:10601000996202009B6202009D6202000000000083
:106020000000000000000000000000009F6202006D
:10603000A162020000000000A3620200A56202004B
:1060400099830200AB62020019880200AF6202006D
:10605000B1620200B36202009D860200B7620200D4
:10606000B9620200BB620200BD620200BF620200B0
:10607000C1620200C3620200C5620200C762020080
:10608000C962020039700200CD620200CF620200D4
:10609000D5700200D3620200C99C0200D7620200E0
:1060A000D9620200DB620200DD620200DF620200F0
:1060B000E1620200E3620200A7620200A76202003E
:1060C000E5620200E7620200E9620200EB620200A0
:0C60D000ED620200EF620200F1620200CB
:1060DC00364937480A1A02D0072291438D46354972
:1060EC0035480A1A06D00722914381F30988022207
:1060FC0082F3148831483249324A00F045F832486C
:10610C003249334A00F040F832483349334A00F000
:10611C003BF833483349344A00F036F833483449B5
:10612C00344A00F031F834483449354A00F02CF840
:10613C0034483549354A00F027F8354835490022AE
:10614C0000F02DF834483549002200F028F8344886
:10615C003449091A082903DB00220260043001606B
:10616C00314A90471F482049884205D002680430C4
:10617C0003B4904703BCF7E700208646EC460020AA
:10618C0000212A4A9047FEE7884207D0521A05D0D0
:10619C00037801300B700131013AF9D17047884214
:1061AC0002D002700130FAE77047000000000120B5
:1061BC0000E00020000001200000012054B102008A
:1061CC00AC430020545A0020F4620200F462020036
:1061DC006AA1020054B10200AC430020AC43002081
:1061EC0028A3020028A3020028A3020028A302006F
:1061FC0028A3020028A3020028A3020028A302005F
:10620C0054B10200FCC70200545A0020545A00201A
:10621C00545A00207C6900207C6900207C69002095
:10622C007C6900207C69002061620200BD8B020049
:10623C000F484FF00701884385460E4880470E48AB
:10624C00016841F470010160BFF34F8FBFF36F8F92
:10625C00FFF73EBF09480A490A4A884207D0521A3A
:10626C0005D0037801300B700131013AF9D1704738
:10627C0000000120297F020088ED00E0E4A202006A
:10628C0068430020AC430020FEE7FEE7FEE7FEE794
:10629C00FEE7FEE7FEE7FEE7FEE7FEE7FEE7FEE7CA
:1062AC00FEE7FEE7FEE7FEE7FEE7FEE7FEE7FEE7BA
:1062BC00FEE7FEE7FEE7FEE7FEE7FEE7FEE7FEE7AA
:1062CC00FEE7FEE7FEE7FEE7FEE7FEE7FEE7FEE79A
:1062DC00FEE7FEE7FEE7FEE7FEE7FEE7FEE7FEE78A
:0862EC00FEE7FEE7FEE700BF3C
:1062F4007047000007B5044B0093044A402300F0A4
:1063040032F803B05DF804FB15630200555A00200F
:106314002DE9F84389461446B2B10F4B0F4E0325BD
:10632400002743F00108224609EB0701002002F090
:106334003BFD0744241A48B933782BB14FF47A4013
:10634400C047013D02D13570BDE8F88301233370A5
:10635400002CE8D1F8E700BF30A30200545A002013
:10636400704702F055BDF0B595B01C461646084678
:106374000D4601F0BCFC1A9B0D93CDE90864002482
:106384002346082205A928460A948DF82C400C942B
:1063940001F0E9FC079B0293BDF81830ADF80C300E
:1063A400BDF81A30ADF80E309DF814308DF8114058
:1063B40003F00302012A1DD1BDF81440059EC3F366
:1063C400C203C4F383148DF81030A20008230EA96D
:1063D400284601F0C8FCC6F3952608AB0093224674
:1063E40002AB0EA9304600F065FB284601F083FCA1
:1063F40015B0F0BD022AF8D1BDF81640C3F3C203AC
:10640400A4098DF810300827082C264628BF082632
:106414003B4632460EA9284601F0A5FCA41B08AB56
:1064240002AA31460EA8374400F0A8FB002CEBD199
:10643400DBE7000010B5054CFFF793FF042120466D
:1064440000F0A8FA0123637210BD00BFAC43002022
:10645400037813F0030F03F0040202D012B91046BC
:106464007047B2B103F00303012B03D0022B09D010
:10647400012070470A6800880232C0F38310024486
:106484000A60F5E70B684288023303EB92130B6052
:10649400EEE70B684288013303EB92130288F4E7BA
:1064A4002DE9F04F89B00546861C08A8484C019296
:1064B40000230F4600F8113D00F0F6FF23683B600F
:1064C400D4E901231344226801339B1A04F21C47C4
:1064D40004F5836A04F21448B3421AD3019A0023E0
:1064E400002A6DD0012262F3010343F0040365F333
:1064F40089132168A2689DF80F000A4003320E44F4
:1065040044F82230266000F0F3FF012009B0BDE812
:10651400F08F0121384601F083F8504601F096F8D7
:10652400404601F093F80DF120096068D4F808B0F2
:1065340049F8100D00EA0B00033004EB80004946D3
:10654400FFF786FF049BB0B90BEA030204EB820257
:10655400D16805919A1C013303EA0B0B04EB8B0CF5
:1065640001F00303012B0492DCF80CB020D0022BC1
:1065740004D083460BE00BEA0300DDE7BDF81630D8
:106584009B0903334FEA1B4B02EB930304934046EE
:1065940001F05FF808B1049B63605946384601F086
:1065A4003FF8D4E901231344226801339B1A93E78B
:1065B400BDF81430C3F383134FEA1B4B1344E5E7D0
:1065C400022262F3010343F0040365F39F5390E74F
:1065D400685B002008B50E4B0E48FF229A6000222B
:1065E400C3F81824C3E90022C3F8142483F8202430
:1065F40001F036FB38B9084A084B09499B1ADB08F5
:1066040002469A4200D108BD21F822200132F8E75F
:10661400685B0020A4A202001CA20200A4A2020043
:106624006843002030B50B4C79B10B4A0B49121B5F
:10663400D20800239A4201D1002030BD01EB83052A
:106644006D88854202D00133F4E7034654F83300E1
:10665400F3E700BF1CA20200A4A2020068430020CA
:10666400094B013903EBC000032909D8DFE801F025
:106674000A02040604207047007970474079704785
:1066840000207047022070471CA20200034BD3E98C
:106694000030C31A58425841704700BF685B00205D
:1066A4002DE9F04387B0FFF7F1FF0746002840F0DB
:1066B400F5807B4DC5F81804BFF34F8F6868AC684C
:1066C4000DF1180848F8100D2040033005EB800048
:1066D4004146FFF7BDFE029B064600285FD104EA4F
:1066E4000302991C013305EB8202234005EB83036B
:1066F400D268DB68049302F00303022B0392029135
:1067040062D1BDF80E3067484FEA9318B8F1500FC4
:10671400C14628BF4FF0500969F38F1309F10801EE
:10672400ADF80E3001F0B4FA0746002800F0A4805A
:1067340001F0DDFA334603A90822384601F0EAFAEB
:10674400029924EA01060136B600B14535D95FFA4B
:1067540089F97EB3F6B2A9EB0609214003315FFA49
:1067640089F4B146504E05EB810108234A46384668
:1067740001F0D0FA36B109F1080322463146384611
:1067840001F0C8FA029B08F1030803EB9803029393
:10679400D5F81834002B4AD1D5F8104458E02A68AB
:1067A4009A4204D86A60384607B0BDE8F08304EA28
:1067B40003008AE73C493446D7E7214003310823E4
:1067C4004A4605EB8101DAE7012B55D1BDF80C30BF
:1067D4003448C3F38311062928BF062161F38913C2
:1067E40002318900ADF80C3001F052FA0746002856
:1067F40042D001F07CFA3346082203A9384601F05E
:1068040089FABDF80C20C2F38312B31C96424FEAF6
:106814008303BDD202994A1C21400331029205EB45
:1068240081010422384601F075FA0136E9E7384659
:1068340001F061FAFFF72AFF80F00100C7B2B2E766
:10684400637A23B1236839461B68204698476468F5
:10685400002CF5D1384601F04EFA06A800F8114D87
:1068640000F022FED5F818340BB9029B6B609DF83A
:10687400070000F03DFEDDE7D5F8104444B90B4BAA
:106884000B491888000440F0020000F06BF8D1E7CF
:10689400236820469B6898476468EFE7002782E7EF
:1068A400685B0020A4A20200745B00207C430020EB
:1068B40044A302002DE9F74F284C80460F46924628
:1068C40001A9012218469B46D4F80890FFF7E8FD79
:1068D40088B3019D0026A91C5E4506EB010234D154
:1068E40000211F4800F071FE80F310006A1C02EAC8
:1068F400090204EB8202000405EA0903033340EAB7
:106904001840D06014F8232068F3C50204F823204B
:1069140034F8232066F3891224F8232054F8232022
:10692400012167F39F2244F8232061F301026FF3EE
:10693400820204F8232094F820341BB1FFF7B0FE40
:106944000028FBD103B0BDE8F08F09EA020204EB92
:1069540082025AF82630D3600136BDE7685B002016
:10696400845F002000231A46FFF7A4BF13B502ACCE
:10697400012344F8042D2246FFF79CFF02B010BD0A
:1069840007B5CDE9002302236A46FFF793FF03B05E
:106994005DF804FB0F4A30B5D2F8104400232146B9
:1069A40041B90372D2F810444CB9C2F810044160E2
:1069B400184630BD0D7A9D4205D04968F0E76268FB
:1069C40042606060F4E701330A2BE8D14FF0FF33F3
:1069D400EEE700BF685B0020084A38B50123D2F80F
:1069E400104482F820341D4604B938BD236865720A
:1069F40020465B6898476468F6E700BF685B002040
:106A0400037A052B10B50C460FD0437A23B1084AFC
:106A14000849204600F07EFE0749204600F07AFE31
:106A24002046BDE8104000F06ABE002AF8D0F3E723
:106A34009FA3020020AA0200C1A30200C38873B569
:106A440004460D4633B1144A00921449144A2846A8
:106A540000F060FE217A05291CD0637A4BB1A0882E
:106A6400FFF7FEFD0F4B104953F82020284600F095
:106A740051FE227A0D4BA08853F822600021FFF7C3
:106A8400D1FD0B4903463246284602B0BDE87040AA
:106A940000F040BE02B070BD9FA30200ACA3020090
:106AA400A4A302006CA3020020AA0200D0A3020047
:106AB400C4A302002DE9F04385B01F460C9D0023BA
:106AC40006460C46904695F80C902B73294638469A
:106AD400FFF7B4FFB8F1060F09D8DFE808F0041295
:106AE400181F283340003146284600F013FE0022C8
:106AF40029463846FFF784FF85F80C9005B0BDE8B9
:106B0400F08322683146284600F004FEEFE7D4E91A
:106B140000233146284600F0FDFDE8E7A368009312
:106B24003146D4E90023284600F0F4FDDFE7E368AA
:106B34000193A36800933146D4E90023284600F06A
:106B4400E9FDD4E723690293E3680193A368009302
:106B54003146D4E90023284600F0DCFDC7E7636929
:106B6400039323690293E3680193A3680093314676
:106B7400D4E90023284600F0CDFDB8E708292DE923
:106B8400F84F80460E4617461C4636D8002593F823
:106B94000C901D7319461046FFF750FFDFF87CA0D8
:106BA400DFF87CB0AE422AD918F8052059462046B1
:106BB40000F0B0FD0135082DF4D11649DFF864B0BA
:106BC400204600F0A7FD0025AE421DD918F805A007
:106BD400504603F015FA002814BF52462E22594697
:106BE400204600F097FD0135082DEDD10122214604
:106BF4003846FFF705FF84F80C90BDE8F88F51463E
:106C0400204600F087FDD5E70349204600F082FDC9
:106C1400E9E700BF9AA3020098A3020096A302002A
:106C240090A302009CA302002DE9F04F3B4F89B0D2
:106C340000263B4B1B78F5B2AB4202D809B0BDE845
:106C4400F08F384B196811F835000124A0F12002A7
:106C5400C0F1200304FA02F924FA03F349EA030910
:106C6400D7E9002304FA00F8CDE9042302EA080274
:106C740003EA0903134301EBC50B4CD0DDE90423FC
:106C840022EA080223EA0903C7E90023079101F075
:106C9400F9FC0799844611F83500A0F12002C0F1EF
:106CA400200324FA03F304FA02F21A4304FA00F369
:106CB40000931D4B0192DDE90045D3E90023144004
:106CC4001D4022462B465FFA8CF40025CDE904458D
:106CD400049CA0F12005AC400394049CC0F1200165
:106CE40024FA01F1039C0C4304990394814002911A
:106CF400DDE90245AB4208BFA2420CD19BF801106A
:106D04004B1E59425941A1EB0C02DBF804305142AD
:106D1400514103B1984701368BE700BFC05F0020A3
:106D24008C5F0020C85F0020B85F00202DE9F84F79
:106D34000646244800F0A8FB002841D10123A6F10F
:106D44002001C6F1200203FA01FB23FA02F203FA3E
:106D540006FA1D4BD3E900014BEA020B00EA0A08CC
:106D640001EA0B0958EA09021F4623D1304601F013
:106D740089FC164BB8B1D3E9000140EA0A0441EAA0
:106D84000B05C3E90045D7E900234BEA0305104B83
:106D94000C4819684AEA0204C7E900450022BDE824
:106DA400F84F00F02DBBD3E9000120EA0A0421EAE0
:106DB4000B05E6E720EA0A0421EA0B05C3E90045CE
:106DC400BDE8F88F945F0020C05F0020B85F00200A
:106DD400905F0020042A2DE9F34105460C4616462F
:106DE4003AD901F065FBD8B11C4B1D491D601D4B00
:106DF400DFF884801C701C4B00221E600023C1E954
:106E040000231A49C1E90023013CE4B20026032708
:106E1400FF2C0CD1164A1748002100F0DFFA03E0DA
:106E240001F00EFB0028DFD002B0BDE8F08123B2F0
:106E340005EBC30201A992788DF8052015F83300FB
:106E44008DF8066042468DF8047001F03BFB013C6E
:106E5400E4B20028DCD0E7E70720E5E7C85F0020BC
:106E6400B85F00208C5F0020905F0020C05F00208E
:106E74002D6C020030A40200316D020070B5084D83
:106E8400084E00242B789C4201D3002070BD336847
:106E9400012113F8340001F08DFB0134F2E700BF47
:106EA4008C5F0020C85F002070B5094D094E002496
:106EB4002B789C4204D30848BDE8704000F0E4BA43
:106EC400336813F8340001F0BBFB0134F0E700BF72
:106ED4008C5F0020C85F0020945F00201FB5002154
:106EE400039001AA44F20100CDE9011100F004F875
:106EF40005B05DF804FB000010B572B6FFF76CFD39
:106F0400FFF7CEFB0028FBD1104C11492088000468
:106F140040F00100FFF726FD0E4B1B68DB0700D590
:106F240000BE20880C49000440F00200FFF71AFD5F
:106F3400BFF34F8F09490A4BCA6802F4E062134356
:106F4400CB60BFF34F8F00BFFDE700BF7C43002041
:106F540034A40200F0ED00E040A4020000ED00E0E3
:106F64000400FA05094A537891780133DBB2994257
:106F740008BF0023117899421FBF0370507818236B
:106F840003FB002014BF043000207047CC5F0020B6
:106F940073B5054602A8002400F8014D0E4600F022
:106FA40083FA0DF10600FFF7DDFF90B106700A4B7E
:106FB4009DF8062045605A709DF8070000F098FA85
:106FC40024B9064B4FF48012C3F80021204602B0C6
:106FD40070BD0424F0E700BFCC5F002000E100E0B6
:106FE400024B4FF43C6043F00103184750A40200E5
:106FF40038B50C4B0C4C4FF40032C3F880200125FB
:107004004FF48033C4F84833C4F808336560FFF79D
:10701400E7FF064BA56000241C60FFF7E1FF044B6B
:107024001C7038BD00E100E000100140E860002061
:10703400D9600020F8B51F4B1F491B680025C1F813
:107044004051C1F84451C1F84851C1F84C51C1F8FC
:107054000051C1F804514BB3D1F8044517490968EC
:10706400641A24F07F442F461A68A24209D8A41A4D
:1070740015441A7CDE691AB11F74D3E905209047C0
:10708400AEB90F4B0F4A197813788B4205D10133EF
:10709400DBB2022B08BF0023137012780A4B43F8AB
:1070A40022500A4B4FF48012C3F80021F8BD334636
:1070B400DAE700BFEC60002000100140E860002027
:1070C400E4600020E5600020DC60002000E100E0D6
:1070D4002DE9F74F9E4A9F49137809789E4D9942AE
:1070E4003CD00133DBB2022B08BF002313709B4951
:1070F40012789B4B0F6853F822003B1823F07F4310
:1071040000220B602B6816461446944613B942B10C
:107114002B6006E0196881420ED902B12B60091A6E
:1071240019604FF001082B68DFF83CA20093002798
:10713400BEB9DFF83CB260E0401A0C44D968C3F829
:1071440000C0D3F81CE031B13A1922F07F42C3E900
:107154000121DE611E4601227346D7E70026B046B0
:10716400E1E73446F6697D4A63681268DFF804C2D1
:10717400A068991A21F07F41614500F2A58001447D
:107184002160012222742A680023C4E90133E361E7
:10719400002A40F0A2802C60CAE75A1C9BF8021017
:1071A400D2B291428BF8002004BF00228BF8002059
:1071B400182202FB03B32A6819799C68022974D047
:1071C40003297ED0012918D1217CB1B9DA68626023
:1071D4001A69A2605A699B69A361624BE2601B78D9
:1071E400002BC0D06160BEE79C4200F093809946BA
:1071F400DB69002BF8D1002323749BF800309BF843
:1072040001209A42C9D12B682FB9009A934202D126
:10721400B8F1000F43D0002B79D0D3F800A0524D21
:107224004E4BD5F804751C68DFF84C813E1B98F86A
:10723400003026F07F4603369BB94FF48033C5F8FF
:107244004433C5F80433494B4FF400324FF001097D
:10725400C3F880211A60C5F80090FFF7C1FE88F8D2
:107264000090B2452CBF5444A41924F07F44C5F8BF
:107274004045D5F80435DB1B23F07F43E41B03337F
:1072840024F07F44A3420AD9D5F80435C5F8403523
:10729400FFF7A6FE354B4FF40032C3F80021314B03
:1072A40000221A7003B0BDE8F08F13469146A0E7A0
:1072B4001174D2690123002AFAD1002B9DD02A60CF
:1072C4009BE700231946F6E7D31A23F07F43834252
:1072D40034BFC31A0023236053E72168136899421B
:1072E40013D8591A1160E26155E7091AD8691A4688
:1072F40038B1034618688842F7D3401A1860184614
:1073040013462160E061DC6112E71346F2E7FFF700
:107314006FFEC4E74C450DD1D3692B6053B90F48B8
:1073240001920121CAF8081003600E4B1970FFF78F
:1073340057FE019AE1692368C9F81C1011B1086865
:1073440003440B602B689A4218BF012753E700BF20
:10735400E4600020E5600020EC600020E86000208C
:10736400DC600020D86000200010014000E100E053
:10737400CC5F0020FEFF7F00D960002008B5FFF736
:1073840037FE104B00200B2218809A700E4B1860A9
:107394000E4B18700E4B18700E4B4FF48012E021F8
:1073A400C3F8802183F814131A6002F18042A2F515
:1073B4006F22C2F8080583F81113074BD2F804258D
:1073C4001A6008BDCC5F0020EC600020E46000205F
:1073D400E560002000E100E0E8600020074B9B78B6
:1073E4004BB132B128B10368187C20B959745A6181
:1073F4007047072070470820704700BFCC5F00200B
:107404002DE9F7431D4FBB7805460E4690469BB3C6
:1074140090B304292ED9436973B3437C02A8002492
:10742400012B00F8014D0CBF8946A14600F03CF841
:107434000DF10600FFF796FDD0B101230370104B48
:107444004560D3F80435C0E90498C0E902369DF8D4
:1074540006307B709DF8070000F04AF824B9094B08
:107464004FF48012C3F80021204603B0BDE8F08336
:107474000424EFE70724F7E70824F5E7CC5F0020AE
:107484000010014000E100E0064A92783AB130B1C0
:10749400426922B1002202740221FFF779BD08205B
:1074A400704700BFCC5F002070B5EFF3108672B652
:1074B4000C4A946801239CB993600B4B0B4DD3F891
:1074C400801029401160C3F88050D3F884105160B3
:1074D4004FF0FF32C3F88420047006B962B670BD61
:1074E4000370FAE7F060002000E100E0FC06FFBD55
:1074F400084B9A6810B55AB150B9EFF3108172B6BF
:10750400054A1C6814605C685460986001B962B6EE
:1075140010BD00BFF060002000E100E037B550E886
:10752400023F1FFAA3F5C488A54202BFBFF32F8F01
:1075340000220DE0C48925448489A54228BF2D1B5F
:10754400C3EA054540E80254002CE8D14FF001029B
:107554008DF803200193019B9DF803200B6002F03A
:10756400FF0322B14B880068184403B030BD1846AD
:10757400FBE70A884B889A4209D150E8022FC2EAF5
:10758400224240E80223002BF7D10120704700205B
:10759400704701F01F024B090121914000EB830069
:1075A40000F01DB801F01F0301229A404B0900EBC3
:1075B4008300D14300F029B84B0901F01F0150F8B2
:1075C4002300C84000F00100704750E8002F0B462C
:1075D40040E8003C9CF0000FF7D11046704750E89B
:1075E400003F43EA010240E8002C9CF0000FF6D172
:1075F4001046704750E8002F02EA010340E8003CBF
:107604009CF0000FF6D11046704750E8003F03EAA3
:10761400010240E8002C9CF0000FF6D110467047A0
:1076240050E8003F03EB010240E8002C9CF0000FFF
:10763400F6D11046704750E8003FA3EB010240E842
:10764400002C9CF0000FF6D1104670470121FFF783
:10765400C6BF0021FFF7CEBF10B590B1D0E901231A
:1076640001689B1ADBB20A60013BDBB2FF2B0268A4
:1076740002D10020107110BD11684C1C14600B70F5
:10768400F2E70E20F7E737B5054602A8002400F814
:10769400014DFFF709FF2A686B68116899420ED9FA
:1076A400481E106011F8014CEB68A98A01FB0434F0
:1076B400AB6811791B1ADBB2994238BF13719DF87C
:1076C4000700FFF715FF204603B030BD37B5054668
:1076D40002A8002300F8013D0C46FFF7E5FE2A68E6
:1076E4001368591C1160E968641AA98AB4FBF1F49F
:1076F4001C709DF80700FFF7FBFE03B030BD8268E5
:1077040010B504462AB1436901680069984700230B
:10771400A36010BD0EB403B5039929B102AA04AB4A
:1077240042F8043D00F06AF802B05DF804EB03B0DF
:107734007047826830B40468551C8560A154D0E950
:1077440001329A4202D330BCFFF7D9BF30BC704734
:107754002DE9F84F9946DDE90A43174682468846E3
:107764000A460126BA420FD24E4538BF4E4613F0A0
:10777400010B01D164B900240125B9F1010F1AD913
:1077840009F1FF397D43F8E7B2FBF7F20136E9E787
:107794009B070ED5B9F1000F0CBF30252025A6425A
:1077A400EAD2013C29465046FFF7C3FF002CF6D12C
:1077B400E1E72025F3E7B8FBF5F39F42E2D9DFF8D0
:1077C4003890B8FBF5F3504619F8031005FB1388FD
:1077D400FFF7AFFFB5FBF7F5002DF2D1BBF1000FBA
:1077E40002D00CB1A64201D3BDE8F88F2021504647
:1077F400013CFFF79EFFF4E756A402002DE9F74F82
:10780400054690460E46002900F03A8116F8011B01
:10781400002958D0252940F0D180002702E047F004
:1078240001071646324612F8013B2D2BF7D0302BB8
:1078340004D02B2B05D147F00407F2E747F00207E9
:10784400EFE700242A2B06F101021BD1D8F80030FF
:10785400191D1B68C8F800101C44164633782E2BDB
:107864001CD101364FF0000A314611F8012BA2F168
:107874003000092814D80A2303FB0A23A3F1300A91
:107884000E46F1E712F8013CA3F130010929E5D8CD
:107894000A2101FB0434303C1646D3E74FF0000ABA
:1078A400324612F8011B01F0FB0068281646F8D096
:1078B400692916D054D8582970D00ED825297DD0DE
:1078C4003378002BA2D12B7B002B00F0D9802846E3
:1078D40003B0BDE8F04FFFF712BF632968D06429F5
:1078E400EED1D8F80020D2F80090111D89EAE9728F
:1078F400C8F80010A2EBE9724FF0010B092A61DC11
:10790400D34538BFD3462CB1B9F1000F01DB790759
:1079140000D5013CBA0702D5BAF1000F04D0FB0729
:1079240002D4002C54D10024B9F1000F58DAC9F163
:1079340000092D212846FFF7FCFE07F00302022A66
:1079440005D1BAF1000F02D1002C4DD10024CDE9AC
:10795400004753460A2249462846FFF7F9FEAFE797
:10796400732954D016D87029AAD1D8F800301A1D1A
:10797400C8F80020302128461C68FFF7DAFE782179
:107984002846FFF7D6FE00220823CDE9003221461F
:107994001022E1E775292FD0782991D1D8F8001069
:1079A4000A1DC8F80020CDE90047534610222CE0F8
:1079B400D8F800301A1D1978C8F800202846FFF7B7
:1079C400B8FE7DE70A230BF1010B92FBF3F295E776
:1079D400A345A9D220212846013CFFF7AAFEA0E72F
:1079E4007807AAD52B21A5E7A345B0D23021284694
:1079F400013CFFF79EFEA7E7D8F80010CDE9004749
:107A04000A1DC8F8002053460A220968A4E7D8F8DA
:107A140000301A1DC8F80020F907D3F8009012D5D9
:107A24004F46A7EB090B17F8011B41B9A345BFF457
:107A340047AF20212846013CFFF77BFEF6E72846A6
:107A4400FFF777FEEDE7B9F1000F17D0484602F0D3
:107A54005AFB0746BC4200D954B909F1FF3919F859
:107A6400011F00293FF42CAF2846FFF762FEF6E71A
:107A740020212846013CFFF75CFEEBE74F46E9E78F
:107A840003B0BDE8F08F29DF704728DF704770B579
:107A940003689D6886B004460E466DB11422002129
:107AA400684602F0DBFAA3680593237901962BB1AB
:107AB400012B0DD06846A84706B070BD01238DF890
:107AC400003023690293E368039363690493F1E745
:107AD40002238DF80030E3681B030293F5E70000EE
:107AE400034B187A0122B0FA80F05A7440097047A7
:107AF400FC60002070B5244D244E2B7A2C463BB9F3
:107B040023492448FFF70AFD306008B9686070BD56
:107B14000223237233681A7972B1012A24D01846D9
:107B24000321FFF7B4FF0023237263601849194847
:107B3400BDE87040FFF71DBDD3E90520121AB2F568
:107B4400805F28BF4FF48052D3E903159208012ABD
:107B5400014438BF01222844FFF795FF50B1112892
:107B6400DDD101232372D2E7D3E903021044FFF7E6
:107B74008CFFF3E7237C002BC9D10146BDE870409C
:107B8400022000F009B800BFFC600020146100204E
:107B940010610020B843002038B5831E012B45D85E
:107BA400234C237A002B41D0022B09D1032830D057
:107BB400204B1B680022E2601A793AB1012A22D0D4
:107BC400637C7BBBBDE83840FFF794BFD3E9051263
:107BD4008D1AB5F5805F94BF521902F580529A61EF
:107BE4009142EDD102284FF0000308BF19462372D9
:107BF400104B18BF0D211868FFF749FF0E490F48B5
:107C0400FFF7B7FCDCE71A6901321A615B699A4233
:107C1400E7E7E3680133082B01D8E360D0E70023EA
:107C2400E360DFE7BDE8384002F022B838BD00BFAA
:107C3400FC6000201461002010610020B843002083
:107C440000F0FD03012B08D1044B00225A74421E9C
:107C5400504250411874FFF74DBF7047FC6000203C
:107C6400FFF7FABCF8B546790146721E05460023B3
:107C740093422D6803D30024A64202D8F8BD0133F1
:107C8400F6E70F682846FFF721FD01343946F3E78C
:107C94002DE9F843868ACD1C0746FFF7F4FC043E21
:107CA40035440446B5FBF6F5F0B14FF48073EDB2FC
:107CB4008380C680013D076081464FF00008A845D7
:107CC40012D23846FFF7DFFC064648B16379013328
:107CD400637108F10108C9F8000007608146EEE706
:107CE4002046FFF7BFFF34462046BDE8F883012154
:107CF4000430FFF795BC10B5012104460430FFF7AA
:107D04009AFC10F0FF0F04D12046BDE81040FFF7A5
:107D1400A9BF10BD2DE9F843C7880546181D88463C
:107D2400B0FBF7F4164607FB14003CB9A7EB0009B7
:107D3400B14528BFB14626B9BDE8F8832D68013C9A
:107D4400F3E70430A6EB09064A4608EB040128448D
:107D540002F05BF9B7424C442D68B9464FF000007D
:107D640028BFB146E7E72DE9F843C7888846191DBF
:107D74000546B1FBF7F4164607FB14113CB9A7EB13
:107D84000109B14528BFB14626B9BDE8F8832D687D
:107D9400013CF3E704312944A6EB09064A4608EB03
:107DA400040002F032F9B7424C442D68B9464FF052
:107DB400000128BFB146E7E741DF7047064B10B525
:107DC40000241C70054B1C60BFF35F8F04490548F9
:107DD40000F030F8204610BD20610020246100200E
:107DE40084A402001861002007B502A8002300F84B
:107DF400013DFFF759FBF1EE103A23F09F03E1EE4A
:107E0400103ABFF35F8F0A4B4022C3F884219DF8D8
:107E14000700FFF76DFB01F03BFF20B1FFF7CCFF3C
:107E240003B05DF804FB20BF40BF20BFF8E700BFEC
:107E340000E100E00B684A684360934208BF0023F6
:107E4400016008BF43607047436843B102689168AA
:107E540052680B449342436004BF0023436070475D
:107E64000D4930B5A1F594720225914201D8002044
:107E74000EE08B1ADB1093FBF5F302EBC30452F80C
:107E84003330834205D802D204F10802EDE760687A
:107E940030BD2146E9E700BFD4A5020008B5FFF7CD
:107EA400DFFF024B002808BF184608BD99A4020052
:107EB4000C4B1B78062B10D10B4B1B681A070CD1EB
:107EC4000A4B186800F0F003302B08D000F0E000F3
:107ED400A0F14003584258417047002070470120E8
:107EE400704700BFE00F00F0E40F00F0E80F00F06F
:107EF400094B1B78062B0CD1084B1B681A0708D1B9
:107F0400074B186800F0F000A0F1300358425841C4
:107F140070470020704700BFE00F00F0E40F00F04E
:107F2400E80F00F008B5FFF7C3FF28B17D4B7E4A88
:107F34001B68C3F304231360FFF7DAFF10B17B4B14
:107F44007B4A1A60FFF7B4FF28B17A4B7A4A1B6860
:107F5400C3F342331360FFF7CBFF20B1774AD368F2
:107F640023F08073D360FFF7A3FF40B14FF0804349
:107F74000022C3F80C21C3F81021C3F83825FFF7F9
:107F8400B7FF10B16E4B03221A60FFF7B1FF40B187
:107F94006C4B05221A6001229A6700229A603F22E4
:107FA4005A60694B1B78062B50D1684B1B68190724
:107FB4004CD1674B1B6803F0F003502B46D14FF0B4
:107FC4008052644BD2F80414C3F82015D2F8081474
:107FD400C3F82415D2F80C14C3F82815D2F81014D9
:107FE400C3F82C15D2F81414C3F83015D2F81814A9
:107FF400C3F83415D2F81C14C3F84015D2F8201471
:10800400C3F84415D2F82414C3F84815D2F8281438
:10801400C3F84C15D2F82C14C3F85015D2F8301408
:10802400C3F85415D2F83414C3F86015D2F83814D0
:10803400C3F86415D2F83C14C3F86815D2F8401498
:10804400C3F86C15D2F84424C3F87025FFF730FF49
:1080540028B1414B414A1B6803F04F031360FFF7FB
:1080640027FF48B14FF08043D3F80024D20744BF20
:108074006FF00102C3F80024394B1B68062B08D1AA
:10808400384B1B68062B01BF374A136843F48063DF
:108094001360364AD2F8883043F47003C2F888304B
:1080A400BFF34F8FBFF36F8F4FF01023D3F800222D
:1080B400002A03DBD3F80432002B2FDA2C4B0122E5
:1080C400C3F80425D3F80024002AFBD04FF0102273
:1080D4001521C2F80012D3F80024002AFBD04FF077
:1080E40010231522C3F80422214B1A46D3F8001496
:1080F4000029FBD00021C3F80415D2F80034002B6A
:10810400FBD0BFF34F8F19491A4BCA6802F4E062DF
:108114001343CB60BFF34F8F00BFFDE7164B174AE5
:108124001A6008BD240300104035014074C00740A4
:108134000DF0ADBA440200103C050040F0ED00E043
:10814400A005004010560040E00F00F0E40F00F0DE
:10815400E80F00F000C0004058020010E40E004098
:1081640030010010340100103C17004000ED00E025
:1081740000E001400400FA05CC4300200090D00345
:10818400044B1A5C012393404FF0A042C2F80C3513
:10819400704700BF8EA90200044B1A5C0123934070
:1081A4004FF0A042C2F80835704700BF8EA9020004
:1081B40008B50020FFF7F0FF0120FFF7EDFF0220D4
:1081C400FFF7EAFF0320BDE80840FFF7E5BFC20759
:1081D40008B501460CD54FF0A0430322C3F8442749
:1081E400C3F84827C3F84C27C3F85027FFF7E0FF2C
:1081F4008B070AD54FF0A0430C22C3F83427C3F8E9
:108204003827C3F83C27C3F8402708BD38B5084CC5
:1082140004F108030546002818BF1C4623682BB147
:108224001A6822605B6828469847F7E738BD00BFA4
:108234003061002020B9054B01225A70FFF7E6BFD8
:10824400012802D1014A9070F8E7704728610020A4
:1082540020B9034B01225A70FFF7D8BF704700BF03
:108264002861002038B50B4C237883B90A48636031
:10827400A3602361E36000F05FF8054601F008FDA8
:1082840008B900F067F801232370284638BD852516
:10829400FBE700BF286100203982020037B502A83D
:1082A4000023094C00F8013DFFF7FEF8E368013BA9
:1082B400E360E56815B900F061F8A5709DF8070062
:1082C400FFF716F903B030BD28610020012813B56B
:1082D40009D003D303281BD002B010BD0F4B0122D9
:1082E400C3F88020F8E702A800230D4C00F8013DF4
:1082F400FFF7DAF823780BB9FFF7B4FFE3689DF8CA
:1083040007000133E3600123A370FFF7F1F8E3E70B
:1083140000F020F8FFF7C2FFDEE700BF00E100E055
:108324002861002000F18040002382B003600368CC
:108334000193019B02B07047054A13792BB90121BF
:10834400106011715371184670478520704700BF43
:108354003C610020084B1A68D20706D4E02283F857
:1083640000230122C3F880211A604FF080430122C8
:10837400C3F81825704700BF00E100E0044B012258
:108384001A604FF08042D2F81834DB03FBD47047F4
:108394000C000040124B1B6810B573B14FF4807091
:1083A400FFF7C0FF4FF080430122C3F808230D4BB1
:1083B400587910B95A711B6898470B4B1B6873B1F5
:1083C4004FF48270FFF7AEFF4FF080430222C3F8F0
:1083D4000823044B01201B68BDE81040184710BD5A
:1083E400000100403C6100200401004000F1804095
:1083F40000F5C040002382B0036003680193019B31
:1084040002B07047800000F1A040D0F8003723F498
:108414004033C0F80037D0F8003743EA0141C0F8D0
:1084240000177047054B4FF0FF32072843F8202010
:1084340084BF1B1883F84820704700BF44610020A4
:1084440010B5174C94F8583043BBFF21E2180133A0
:10845400202B82F83010F9D10021C8B2FFF7E2FFD7
:1084640001310C29F9D1042200210E4801F0F6FD56
:108474000D4BE02283F806234022C3F880214FF4F9
:10848400BE701A60FFF7B2FF084B4FF00042C3F80A
:108494000423012384F85830002010BD0820FCE791
:1084A400446100209861002000E100E00060004089
:1084B400034B93F85800003018BF0120704700BFE9
:1084C40044610020F0B5394D2C18944694F930409D
:1084D400002C68DA8E78C6F34006002E15BF002300
:1084E400082308270C27BB4201D10420F0BD55F80E
:1084F400232001324FEA830441D12F1845F823C0C9
:1085040087F8303016B9EA1882F848008A78560796
:1085140016D4D70735D5820002F1A042D2F80067FD
:1085240026F00206C2F80067214FC60800F0070CC7
:10853400012202FA0CF217F806C042EA0C02BA55FC
:108544008A780E7812F0020224D004F1804303F5F5
:10855400C0430002D3F8102522F4473222F44072BB
:10856400C3F810253604D3F8102500F4F85006F4A7
:10857400403630431043C3F810050020B6E70133FA
:10858400B1E74E7800F5E0724FF0A047B60047F827
:108594002260C9E7083B2B4493F8500040EA861652
:1085A40083F85060E9E70820A0E700BF4461002099
:1085B4009861002038B5204C251895F93020072AF9
:1085C40018DD224492F848309B09032B0DD14FF05B
:1085D400A043D3F81035C34013F0010F0CBF0221A0
:1085E4000321BDE83840FFF70DBF012B14BF032161
:1085F4000221F6E7D3B2072B1CD8930003F1804382
:1086040003F5C043D3F8100540F00100C3F810058A
:1086140002F14000800080B2FFF7E8FE51B195F905
:10862400303054F823302BB1012303FA02F2034B08
:10863400C3F8042338BD00BF44610020006000403B
:108644000E4B034493F93020072A02DD0021FFF783
:10865400D9BED3B2072B10D8930003F1804303F59E
:10866400C043D3F8101521F00101C3F810150123FC
:1086740003FA02F2024BC3F8082370474461002056
:10868400006000404FF0A043D3F8103523FA00F007
:1086940000F00100704700002DE9FF470024584A0C
:1086A400584E594D019401211368A2F5C040012B85
:1086B40080B206D1D6F804330B4202D0FFF796FEFF
:1086C4000C430432AA424FEA4101EDD14F4B1B68DF
:1086D400012B0AD14FF4BE70FFF788FE4FF0A04380
:1086E40044F00044D3F81035019314F0FF0F1AD06E
:1086F400474F00250126344210D0AB0003F18043DC
:1087040003F5C043D3F81005D3F8101557F82530F6
:10871400C0F30420C1F3014103B198470135082D8A
:108724004FEA4606E7D1002C66DA00224FF0FF3309
:10873400CDE90223DFF8D8900127002634464FF014
:10874400A04809EB060393F95020531C45D0D2B23C
:1087540022F0C005E90804A8084402F0070310F851
:1087640004CC07FA03F31CEA030F36D009EB050C1B
:1087740092099CF930C059F82CA0BAF1000F0AD123
:10878400032A2AD10DF1080E1EF801C04CEA030C8D
:108794000EF801C001E0032AF4D005F5E07110F8E9
:1087A4000C0C58F821101842C1F3014105D00229DC
:1087B40013D1032A0BD1114604E003290DD1032A56
:1087C40005D102212846FFF71DFE0134E4B2BAF1B7
:1087D400000F02D011462846D0470136042EB0D1EE
:1087E40054B14FF0A043019AD3F81035934203D00B
:1087F4000193029B0393A0E704B0BDE8F08700BF98
:108804000061004000600040206100407C61004045
:1088140044610020014B1B68184700BFA061002081
:10882400032812D8012A0BD1012908D100F10E0224
:10883400D2B200EB40000C4B1A54002070470022C7
:108844000129F6D009D3022901D007207047064B2D
:1088540000EB400018444270EFE7034B00EB40008C
:1088640018448270E9E700BFA861002008B501221E
:1088740002210020FFF7D4FF08B1072810D10722F6
:1088840002210120FFF7CCFF08B1072808D10021FD
:108894000A220846FFF7C4FF10B1072808BF0020CA
:1088A40008BD00000388102B10B502D0112B1ED078
:1088B40010BD1A4C2168B1B901220846FFF7B0FF78
:1088C40008B1072824D1072202210120FFF7A8FFBD
:1088D40008B107281CD1042202210020FFF7A0FFC1
:1088E40008B1072814D1236801332360E0E70B4A59
:1088F4001368013B1360002BDAD1FFF7B7FF0028A0
:10890400D6D0074B1B68002BD2D0BDE810401847C7
:10891400034B1B68002BE6D09847E4E7B8610020BE
:10892400B461002075DF704776DF70478ADF7047D7
:108934008BDF70478FDF704708B5FFF7F9FF0A4BED
:108944000A4918880A4A000440F00300FEF70EF8AA
:1089540008490948FFF7EAFF08B1FEF7BFFA00200B
:10896400BDE80840FFF70CBC7C430020DDAA0200F0
:10897400B4AA0200385A0020A6AA020003881F2BBA
:1089840037B5044600F0878038D8112B49D01D2B09
:1089940062D0102B30D1474BA28818884649000476
:1089A40040F00300FDF7E2FFA388072B02D9002063
:1089B400FEF794FAA1884148002200EB011001F06F
:1089C40079F808B1FEF78AFAA1883D4B4FF4337069
:1089D40000FB013000F0AEFC112802D008B1FEF714
:1089E4007DFA0120FFF7CCFB00F0E0FA08284FF0F5
:1089F400000011D1FFF7D0FB03B030BD3B2B54D0A6
:108A0400562B52D0212BF7D102A9002321F8043D83
:108A14008088FFF78FFF43E0FFF7B2FBFFF78CFF7F
:108A2400EAE7244BA28818882649237A000440F0F8
:108A34000300FDF7A5FF00F0B9FA38B9FEF734FAE0
:108A440008B1FEF74BFA0120FFF7A6FBFFF774FF0E
:108A54000020FFF795FBCFE71B490020FFF766FFD7
:108A640008B1FEF73BFA134DA18C206A092200F0ED
:108A7400EDF92B8815491B04024643F00300FDF76A
:108A840075FF288894F91B201149000440F0030065
:108A9400FDF76CFFB0E700F108018088FFF742FFA3
:108AA4000028A9D0FEF71AFAA6E71321A088FFF739
:108AB4003BFFF5E77C430020B4A9020008620020D4
:108AC400D8430020E8A90200385A00201AAA02005C
:108AD40023AA02000146034B408803EB001000F078
:108AE400D1BE00BF086200200D28F8B50D461BD189
:108AF400104E002443F20207294606EB041000F04E
:108B0400ADFF30F0080301D0B84211D10134082C74
:108B1400F2D1094B0949188800042A4640F00300A1
:108B2400BDE8F840FDF722BFBDE8F840FEF7D6B92E
:108B3400F8BD00BF086200207C4300202CAA02007C
:108B440070B50D78012D06460C4602D0022D17D0C3
:108B540070BD164B4A8818881549000440F003007C
:108B6400FDF704FFFEF78AF908B1FEF7B7F93046BE
:108B740000F048FF0028EBD0BDE87040FEF7AEB926
:108B84000A4B4A8818880B790A49000440F003000C
:108B9400FDF7F6FE237928461BB1BDE87040FFF7C8
:108BA400EFBABDE87040FFF7F7BA00BF7C4300207E
:108BB40043AA020075AA020007B54FF40041002041
:108BC400FDF708FD08B1FEF789F9FDF733FCFEF760
:108BD400D5FB08B1FEF782F90120FFF7F8FA40F25D
:108BE400666201212748FEF7F5F808B1FEF776F929
:108BF400FFF7E4F808B1FEF771F900F0C5FF08B11A
:108C0400FEF76CF902AC002344F8043D0120214630
:108C140001F088F808B1FEF761F9204601F02EF959
:108C240008B1FEF75BF90021174800F005FD08B113
:108C3400FEF754F9154800F043FB08B1FEF74EF96E
:108C4400134B144E01930025214606EB051000F04A
:108C540071FE08B1FEF742F90135082DF4D100F098
:108C6400A3F90D4B0D491888000440F00300FDF7EB
:108C740079FEFFF761FEFDF713FD0028FBD1FFF736
:108C8400B3F8F8E7D0430020BC610020D98A020081
:108C9400458B0200086200207C430020C2AA020027
:108CA4000369C1688B429DBF8268D21802F1FF320A
:108CB40003F1FF3394BF501A581A70472DE9F0415D
:108CC400D0E902670446F61B40689642884615467A
:108CD400384405D901F099F93D44E560BDE8F081D7
:108CE4003246AD1B01F091F92A4608EB0601606893
:108CF40001F08BF9F1E72DE9F843C568064689468A
:108D040017464FF000083469B3687068A54228BF5D
:108D1400E418013C621B5C1BBC4228BF3C469442E5
:108D240028BF144649462844224601F06EF9B36828
:108D34002544AB4208BF00253F1BA044A144F56075
:108D4400E1D14046BDE8F88310B5114C114AA26147
:108D54000223C4E90433104BE361A2644FF40073AB
:108D64000E4A2362E264002310220D49A362E01D2F
:108D74006362E362A3656365E365226501F0A1F9BB
:108D84000849204601F09DF92023A37110BD00BFBE
:108D9400A862002000AB02003063002020630020A2
:108DA40009AB02000DAB0200F8B5184C182300FB08
:108DB400033503FB00402544C46A012C0F461646C4
:108DC40011D003D3022C1BD000240AE02846FFF75D
:108DD40067FF864205D8324639462846FFF76EFFBC
:108DE40034462046F8BD2846FFF75AFF86423446EB
:108DF40028BF0446224639462846FFF75FFFF0E7BE
:108E04002846BDE8F840FFF776BF00BFA8620020FF
:108E1400FFF79ABF70B5C0B14AB116880024B442B6
:108E240003D305196D789D4208D0A14201D80020D2
:108E34000BE0055D01352C44A4B2F0E7A142F6D95C
:108E4400A31C1380005D013880B270BD37B502AC3D
:108E5400002324F8023D134622460546FFF7DAFFB5
:108E640010B1BDF80600284403B030BD78220021BB
:108E7400014801F0F3B800BF3065002073B50191DB
:108E8400019C06466CB100252C46294601A8FEF734
:108E940093FB18B106EB440301349D800135142D76
:108EA400F3D13046346002B070BD00002DE9F043C8
:108EB40003888488112B8DB0064640D01A2B43D0EA
:108EC400102B16D1294DAB680CA8DB4340F8303D7C
:108ED40055F8041FFEF799FB009901A8FFF7CEFF90
:108EE4000027019B9F4207D3132C18D90420FDF7B8
:108EF400F5FF0DB0BDE8F08301AB03EB47034FF082
:108F04000008B3F8049005EB0800494608F104088A
:108F1400FEF748FBB8F1740FF5D10137E1E72146BC
:108F24001348FEF736FB21461248FEF732FBF37B6B
:108F3400012BDED010482146FEF72BFBD9E70C4865
:108F44002146FEF72FFBD4E7057A0C482D09012DA5
:108F5400214606D9FEF71DFB022D21460848F0D014
:108F6400EAE7FEF71FFB21460548EAE730650020E3
:108F740038650020346500203C65002040650020F1
:108F84004465002073B502AE002446F8040D25465E
:108F940021463046FEF710FB00B101350134142C94
:108FA400F6D1284602B070BDFFF760BF07B5074B86
:108FB40002A8DA6840F8042D9968FEF726FB0198A8
:108FC400FFF7E0FF03B05DF804FB00BF306500204D
:108FD4009BDF70479DDF70479EDF704730B50C4BB9
:108FE4000C4A19680023994201D100200CE002EBDD
:108FF4008304A5788478A54207D132F823500488E5
:10900400A54202D1044B186830BD0133EBE700BF21
:10901400B0650020B8680020A865002070B590F8FD
:10902400C63216467622A0B002FB03000D46FFF7B7
:10903400D5FF044660B17C22002101A801F00EF89E
:1090440001238DF80430ADF80660029501A8A0470D
:1090540020B070BD2DE9F74F90F8C6B24FF0760AF4
:1090640080460BFB0A00CDE90012FFF7B7FF8146EB
:1090740048B3164F3D68052D25D8154C019AEE01CD
:10908400A0190AFB0B8142805246043000F0BDFF58
:10909400009B63B10023A35526440135C6F87C9098
:1090A4000C4E3D60326895420DD1002506E0022346
:1090B400F1E704EBC5100135C36F984733689D424F
:1090C400F7D300233B6003B0BDE8F08FB468002001
:1090D400B4650020B065002037B590F8C53290F82B
:1090E400C6220C46BBB1013B7621DBB251431225AB
:1090F40005FB031303445B8A0133ADF80430762384
:1091040003FB020201A91389ADF806302046FFF7DC
:1091140061FF03B030BD762303FB0203DB88ECE779
:1091240038B54FF433720D460021044600F096FF23
:10913400114AA4F8CA5200231360104A84F8C932B1
:109144001268226084F8C63284F8C53222460121AE
:109154002846FFF73DFF112806D020B9012384F8E3
:10916400C73284F8C80238BD012284F8C72284F8C3
:10917400C8221846F7E700BFB4680020B86800208A
:1091840070B50C4690F8C922174901320968D2B269
:109194008A42034680F8C9224FF0000521D290F894
:1091A400C61280F8C5520131C9B280F8C6127620C1
:1091B40011FB00F00D4E1A1856F821101950012118
:1091C40015712046FFF704FF014648B183F8C752E2
:1091D40022461846FFF722FF054B03221A705C80D3
:1091E40070BD80F8C752F7E7B0650020B86800206A
:1091F400B46500202DE9F74F90F8C64290F8C56297
:10920400762314FB03F700EB07084FF0120C98F8D1
:1092140004E01CFB0673741C0A337445034419D020
:1092240006EBC6056D0044193C4405EB07090EF135
:10923400FF3A00271C3406EB070B5FFA8BF5AE45AB
:109244000DD9DA451D891CD1B8F808309D422AD1C0
:10925400002321E01B89B8F80800834205D10123CB
:109264000B70002003B0BDE8F08F0133ADF804307B
:10927400ADF8060000230B70104601A9FFF7ACFE01
:10928400F0E70CFB07F309EB030B83440135BBF850
:1092940022B05D450DD1234490F8C552013580F8C4
:1092A400C5520137C7E70135ADF80450ADF80630B3
:1092B400E0E70BF1FF3BADF80450ADF806B0D9E799
:1092C40058B1074A00231360064A01211170064A67
:1092D4001360064A1060184670470E20704700BF9E
:1092E400B0650020AC650020B4680020A8650020AB
:1092F40010B5044680B10C4B1B787BB1FFF76EFEB2
:1093040070B90A4A1368052B0CD80949246841F836
:1093140023400133136010BD0E20FCE70820FAE758
:109324000020F8E70420F6E7AC650020B0650020D3
:10933400B868002050B1084A12784AB1074A126846
:1093440032B190F8C7322BB9FFF7EABE0E2070474E
:109354000820704711207047AC650020B0650020DC
:109364002DE9F7430C460546C8B1C1B18C4B1B78B7
:10937400ABB10388302B35D014D8112B00F0008109
:1093840094F8C8325BB12B88303B1F2B07D8AB88CD
:10939400B4F8CA12994202D12046FFF7C1FE03B0C5
:1093A400BDE8F083322B42D0332BE9D18288B1F867
:1093B400CA329342E4D1C68891F8C6C291F8C57204
:1093C400002E00F0A280762101FB0C4C7B1C9CF843
:1093D400041000268B428DF8076000F0C68084F8E4
:1093E400C53289E08388B1F8CA229A42C8D1C688B6
:1093F400A6B991F8C632C068762113FB01F3E118CF
:10940400E0502B69C1F8063020461146FFF764FE90
:1094140001460028B4D084F8C7624BE000212046FE
:10942400FFF718FEA9882046FFF7AAFEA8E782885E
:10943400B1F8CA329342A3D1C388002B59D191F811
:10944400C602762310FB03F001EB000CA97A9CF80A
:10945400043019440629C8BF062100F10A0E12205F
:109464008CF8041010FB03E105F10C0860184FF0B0
:1094740000099CF804108B4208F10A0800F112005C
:1094840022D31220013B00FB034373441889BCF828
:10949400083098422DD206292BD084F8C5122046D4
:1094A4001146FFF719FE014600283FF469AF002377
:1094B40084F8C732AA882046FFF7B0FD394B03224F
:1094C4001A70AA885A805BE74746013357F80A1D89
:1094D40040F8121C796840F80E1C398920F80A1CDF
:1094E40020F8089C20F8069C20F8049C20F8029C94
:1094F400BFE7002684F8C5620DF107012046FFF797
:1095040079FE0146002833D085E7762303FB0CF16E
:10951400122303FB0713B0F80AE023447645BFF493
:1095240052AFC189A1F52451082908D8DFE801F018
:1095340014170507070707071A0081899982998A72
:1095440039B1D98A29B1198B19B1598B00297FF402
:109554003AAF01360630E1E78189D982EFE78189A4
:109564001983ECE781895983E9E701238DF80730F2
:109574009DF80730002B3FF403AFAA8801214EE782
:109584008288B1F8CA329A427FF4FAAE002381F895
:10959400C73281F8C8324FF6FF73A1F8CA32EFE63A
:1095A400AC650020B465002090DF7047A5DF7047EC
:1095B400B5DF7047F0B585B00023ADF80810ADF8FD
:1095C4000A106A4602A9074603930093ADF80430D3
:1095D400FFF7EAFF064618B3134C2588FEF75EFC36
:1095E4002D0445F0010503463A4610492846FDF787
:1095F400C7F9BDF80020BDF8023002B933B12088A4
:109604000B49000440F00100FDF7BAF9BDF804204D
:1096140032B120880749000440F00100FDF7A6F9A3
:10962400304605B0F0BD00BF9443002020AB0200DB
:109634006AAB0200A9AB020010B5A0B14FF017133A
:1096440003601B238164037100F14004172100228D
:10965400C18001818272C272037343730830A042D5
:10966400F6D1002010BD0E20FCE700002DE9F341E7
:109674008588072D0C4617D80388232B4FEAC50786
:1096840000F0BB8013D8102B29D0112B5AD03C44A6
:10969400A37A4BB1E1882846FFF788FF002840F001
:1096A400B3800123A072E37202B0BDE8F0813A2BCB
:1096B40053D0552B6ED0242BE9D1CB19027A5A738F
:1096C4008B6C002BE3D00021ADF804104DF67A2109
:1096D400ADF80010ADF802508DF8042089E0C37B8A
:1096E4000A79CE19012B327313D0022B14D0F188CE
:1096F40033898B4205D22846FFF758FF70B90123FE
:10970400F372317B737B8B42C1D22846FFF752FF41
:10971400BDE70B88F380EAE74B88FBE7112802D109
:109724000123B372EDE7404BB3F80080FEF7B6FBBC
:109734004FEA084848F0010802463C494046FDF714
:1097440015F9DEE7CB191722DA801A8100229A7202
:10975400DA721B221A735A7399E7CE194389F28875
:10976400934228BF1346172B8A6C38BF17233381C3
:1097740062B1F17A51B140F67721ADF80010ADF83D
:109784000250ADF804306946204690470023F37236
:10979400B3727CE7C388CE19172BF18838BF17231F
:1097A4008B4228BF0B4633810023B3722846FFF750
:1097B400FFFE68B11C4BB3F80080FEF76FFB4FEA65
:1097C400084848F00108024619494046FDF7CEF81A
:1097D400F37A002B7FF45BAFA36C002B3FF457AFFD
:1097E40040F67722ADF800203289ADF80250ADF88A
:1097F400042069462046984749E7CB19017A1B7B28
:10980400994228BF194680E711283FF44DAF064B13
:109814001C88FEF743FB240444F001040246034978
:109824002046FDF7A3F83FE794430020FFAB020076
:1098340030AC0200A1DF7047A3DF704762DF7047DE
:1098440070B50D4A0D4D12682B6893420ED00C4929
:1098540014245C430E19085BB27842B9B188FFF74F
:10986400E9FF18B9013303F007032B6070BD083416
:109874002144FFF7E1FFF4E77469002070690020D8
:10988400D06800202DE9FF470B780246002B3DD11C
:109894008C8841F22350844238D18C79107B8442E5
:1098A40034D101208DF8040091F808804888BDF86F
:1098B4000C70BDF80A50BDF80840ADF806001E460D
:1098C4009C46184641F2245941F2255A804520D835
:1098D400BCF1000F01D0ADF80C700EB1ADF80A5018
:1098E4000BB1ADF8084011884FF6FF73994209D0C7
:1098F40053683BB953882BB90298BDF80C30C2F8B1
:109904000200D380936801A91046984704B0BDE8CB
:10991400F087B1F80EE0CE4507D0D64502D1CF8A04
:109924004FF0010C01301231D0E70123CD8A0C8BAA
:109934001E46F7E7F0B5174A87B002AC03460E4659
:1099440002F1100C274610685168254603C50832F9
:1099540062452C46F7D1D3B1CEB13268BAB14FF6D5
:10996400FF700021C3E900019A6003F10C0138463D
:10997400FFF764FF48B91B7B8DF8063006A841F257
:10998400235320F8143DFFF7B3FC07B0F0BD0E20BD
:10999400FBE700BF6CAC02001FB50B4641B338B304
:1099A4000288382A26D0392A0BD0112A20D181885E
:1099B4001A88914202BF4FF6FF710022C3E90012D8
:1099C40016E0098882888A4212D1448999888C4297
:1099D4000ED1C18901290BD10221ADF80620027CE8
:1099E4008DF804108DF8082001A99A68184690474C
:1099F40004B010BD0A8883889A42F9D1FFF720FF8A
:109A0400F6E7000038B508B305884FF6FF739D42AA
:109A14001ED0104A448811680F484B1C03F00703FA
:109A2400136014224A4383180221D981111D014471
:109A34005C8119610024012185529C81197219717C
:109A44005C719970FFF7FCFE204638BD0E20FCE7E0
:109A54000820FAE774690020D0680020F8B500B344
:109A640007884FF6FF739F421DD0104A104D1468AB
:109A7400C088631C03F00703136014226243AB180D
:109A840001265881101D28441861002402201872F0
:109A9400DE819C8119719E70AF52FFF7D1FE204682
:109AA400F8BD0E20FCE70820FAE700BF7469002027
:109AB400D068002040B1018022B11368C0F80230A0
:109AC4009388C380002070470E20704710DF7047D2
:109AD40011DF704713B5044609496846FEF7AAF931
:109AE400019808B902B010BDD0E90031204698476A
:109AF40018B16846FEF7A8F9F2E71120F2E700BFB3
:109B04008CAC020013B5044607496846FEF792F987
:109B1400019B0BB902B010BD2046D3E90021904748
:109B24006846FEF791F9F3E7A4AC02000B4A92F8F9
:109B340016335B09012B08D9042B06D0084B99680E
:109B440039B94FF480031360704742F20200FDF705
:109B5400C5B91A6842F480021A60704700E100E057
:109B6400F0600020064B9A6822B11A6822F4800241
:109B74001A607047034B4FF48002C3F8802070478B
:109B8400F060002000E100E0F7B51B4F3C788CBB8F
:109B94001A4E012520463570FFF79CFF112826D068
:109BA4002046FFF7AFFF164B1868019002A800F893
:109BB400054DFDF779FC134901A8FFF787FF04461B
:109BC400B0FA80F0400938709DF80300FDF790FC6E
:109BD4006CB90D4B34701C700C4BE02283F81623C7
:109BE40083F81523FFF7A2FF2846FFF78BFF2046D3
:109BF40003B0F0BD0824FAE77969002078690020F1
:109C040086AC0200FD6E02007A69002000E100E0EB
:109C1400F7B5154F3B7813B3144E01203070FFF79E
:109C240059FF11284FF000051BD00220FFF76AFFEF
:109C340002A800F8015DFDF737FCFFF749FF044671
:109C44009DF807003D70FDF753FC2CB93470FFF705
:109C540089FF0320FFF756FF204603B0F0BD082418
:109C6400FAE72C46F8E700BF7969002078690020FC
:109C7400054B1B7833B1054B1B780BB1FFF7C8BFFD
:109C8400FFF782BF082070477869002079690020B7
:109C9400014B1878704700BF7969002007B508495F
:109CA4006846FEF7C7F8019B13B903B05DF804FBDF
:109CB400D3E9002090476846FEF7C6F8F3E700BFF3
:109CC40098AC0200FFF7EABF60DF704769DF7047B6
:109CD40061DF704730B5114B1B7891B0E3B1104D83
:109CE40034240DF1020103A8ADF80240FFF7F0FFA0
:109CF40070B9294601A8FEF79DF8029B002BF0D00D
:109D040003A8D3E90021904701A8FEF79DF8F4E7E2
:109D1400052801D0FDF7E2F811B030BD7B690020C1
:109D2400E4AE020030B5054685B00C46002900F0CB
:109D340094804B4B0B600C22002101A800F08EF99B
:109D440008238DF8063022688DF80450062301A9F3
:109D54002020ADF80830FFF7B9FF58B1414B1D88FA
:109D6400FEF79CF82D0445F0010502463E492846BD
:109D7400FCF7FCFD0C22002101A800F06FF9002380
:109D84008DF8053008238DF806302268012301A9D7
:109D940040208DF80730FFF799FF58B1314B1D88EB
:109DA400FEF77CF82D0445F0010502462F492846AC
:109DB400FCF7DCFD0C22002101A800F04FF9012082
:109DC40022688DF8040001A9FFF780FF58B1254BE4
:109DD4001D88FEF763F82D0445F001050246244969
:109DE4002846FCF7C3FD0C22002101A800F036F937
:109DF4004FF4B0632268019301A9A120FFF766FF25
:109E040058B1184B1D88FEF749F82D0445F001059B
:109E1400024618492846FCF7A9FD0C22002101A896
:109E240000F01CF99DF8043022686FF3000301A9C7
:109E3400A0208DF80430FFF749FF60B1094B1C885E
:109E4400FEF72CF8240444F0010402460A49204693
:109E5400FCF78CFD002005B030BD0E20FBE700BFF1
:109E640068430020A0430020B8AC0200FEAC02000E
:109E74004AAD020096AD0200E7AD0200F8B5044613
:109E84000768FFF721FF2368BB42054620D91A4E15
:109E94001A493088000440F00200FCF763FD308862
:109EA4002368174900043A4640F00200FCF768FDB5
:109EB4004FF080533088D3F80C31226811499B024B
:109EC40003F1005300049A1A40F00200FCF74EFD1F
:109ED40025B90D4B01221A702846F8BD064B2846B9
:109EE4001C88FDF7DBFF240444F001040246074903
:109EF4002046FCF73BFDEFE7A04300203AAE02000A
:109F040069AE02009AAE02007B690020C4AE020072
:109F14004BDF70471FB50D4C01A8FFF7F9FF70B96F
:109F2400214602A8FDF786FF039B002BF4D001987D
:109F3400D3E90021904702A8FDF786FFF4E705283E
:109F440001D0FCF7CBFF04B010BD00BFFCAE020093
:109F54007F2805D8034B185C034B5B5C18407047A3
:109F64000020704714AF020094AF0200A0F1610317
:109F7400192B98BF20387047A0F14103192B98BFC3
:109F8400203070477F2805D8034B185C034B5B5C7B
:109F9400184070470020704714AF020094AF0200CD
:109FA400A0F16103192B98BF20387047A0F1410339
:109FB400192B98BF203070477F299ABF0170012068
:109FC4006FF02E0070475AB10A787F2A0AD800B180
:109FD4000260002119605960501A18BF01207047AF
:109FE400002070476FF02E007047000008B5034B47
:109FF4005B689B681B68984708BD00BF405A0020F7
:10A0040008B50921FFF7F2FF08BD844640EA0103C1
:10A0140013F0030F18D18446202A0BD32DE9F0073F
:10A02400B1E8F807A0E8F807A2F12002202AF7D245
:10A03400BDE8F007042A07D351F8043B40F8043B79
:10A04400A2F10402042AF7D2002A05D011F8013B38
:10A0540000F8013B013AF9D1604670478446002A72
:10A064002DD010F0030F04D000F8011B013A26D0C4
:10A07400F7E7C9B241EA012141EA0141202A12D39A
:10A08400A2F120022DE9F0030B460C460D460E46C4
:10A094000F4688468946A0E8FA03203AFBD2BDE879
:10A0A400F00320320BD0042A05D340F8041B043AF1
:10A0B40005D0042AF9D200F8011B013AFBD160460D
:10A0C4007047024610F0030F16D111F0030F13D19D
:10A0D4002DE9F0004FF001374FF0803351F8044B75
:10A0E400A4EB070525EA04051D4002D142F8044B00
:10A0F400F4E7A1F10401F0BC11F8013B02F8013BC3
:10A10400002BF9D1704700F1010110F0030F11D0B9
:10A1140010F8012B002A23D010F0030F0AD010F8F6
:10A12400012B002A1CD010F0030F03D010F8012BD0
:10A13400002A15D02DE970004FF001324FF0803322
:10A1440050F8044BA4EB020525EA04051D4000D198
:10A15400F6E7A0F1040070BC10F8012B002AFBD133
:06A16400A0EB01007047B2
:10A16C009D7B0200000000005582020000000000F0
:10A17C00B18E020000000000A9880200000000005F
:10A18C0065930200D843002065930200A44600208A
:10A19C006593020070490020659302003C4C00203E
:10A1AC0065930200084F002065930200D4510020F3
:10A1BC0065930200A0540020659302006C570020A8
:10A1CC0071960200BC6100209D990200086200207B
:10A1DC009D990200186200209D99020028620020BF
:10A1EC009D990200386200209D990200486200206F
:10A1FC009D990200586200209D990200686200201F
:10A20C009D99020078620020818902000000000004
:10A21C0098A90200000000009EA9020000000000A6
:10A22C00A5A9020000000000A9A90200000000007E
:10A23C00AEA902000000000055A3020000000303B9
:10A24C0073A402000000000359A3020000000003E5
:10A25C0014AB0200000003037CAC020000000303FB
:10A26C0092A90200000000005FAC02000000030392
:10A27C0066A4020000000303B0AC0200000003035C
:10A28C00F0AE02000000030308AF0200000003035D
:08A29C0090A402000000000084
:10A2A400985A0020605B0020685B0020A05A0020C0
:08A2B4008443002018000000A3
:10A2BC00457C020000000000D1820200000000007A
:10A2CC00D99C020000000000199F02000000000051
:08A2DC00E57A02000000000019
:10A2E400000000000000000000000000000000006A
:10A2F400000000000000000000000000000000005A
:10A304000000000000000000000000000000000049
:10A314000000000000000000000000000000000039
:04A324000000000035
:10A3280000000000000000000338FDD8704700005E
:10A33800F962020065630200F56202004261636B24
:10A34800656E647320666C7573686564006170700F
:10A358000062616C6C6F632E6C6F675F6D656D700A
:10A368006F6F6C009FA30200E4A30200A4A3020085
:10A37800ECA30200F4A30200FCA3020004A4020060
:10A388000CA4020014A402002025303278002020FA
:10A3980020007C002563001B5B306D001B5B313B9C
:10A3A80033316D0025734C6F67732064726F707062
:10A3B8006564202825642925730D0A003C25733E11
:10A3C8002025733A20000000000000003AA4020093
:10A3D8001CA4020024A4020029A402001B5B313B38
:10A3E80033306D001B5B313B33326D001B5B313BFF
:10A3F80033336D001B5B313B33346D001B5B313BEA
:10A4080033356D001B5B313B33366D001B5B313BD5
:10A4180033376D007761726E696E6700696E666FBB
:10A428000064656275670000945F0020466174618E
:10A438006C206572726F720053797374656D207247
:10A4480065736574000000000338FDD8704730312B
:10A4580032333435363738394142434445466E72D3
:10A46800665F6673746F72616765006174666966BA
:10A478006F2E6D5F6669666F000000007CA10200A8
:10A488007CA10200040000007077725F6D676D7434
:10A4980000556E6B6E6F776E206572726F722063F7
:10A4A8006F64650000000000D4A5020001000000F0
:10A4B800E0A5020002000000FEA502000300000063
:10A4C8001FA602000400000032A6020005000000DA
:10A4D80043A602000600000057A60200070000007D
:10A4E8006FA602000800000087A60200090000000D
:10A4F8009FA602000A000000B8A602000B00000098
:10A50800D0A602000C000000E7A602000D00000023
:10A51800FBA602000E0000000DA702000F000000BD
:10A528001CA702001000000030A702001100000064
:10A5380047A702001200000056A7020013000000FF
:10A548006BA70200800000007FA7020081000000C6
:10A55800A0A7020082000000BCA702008300000040
:10A56800D8A7020084000000F6A7020085000000BA
:10A5780017A80200860000003CA802009000000016
:10A5880053A802009100000071A802009200000088
:10A598008FA8020000820000A4A802000182000027
:10A5A800C2A8020002820000DEA8020000840000A7
:10A5B800FAA80200018400001EA90200028400001B
:10A5C80048A90200038400006DA902004E52465FAC
:10A5D80053554343455353004E52465F4552524FDD
:10A5E800525F5356435F48414E444C45525F4D4974
:10A5F8005353494E47004E52465F4552524F525FA1
:10A60800534F46544445564943455F4E4F545F4562
:10A618004E41424C4544004E52465F4552524F52BD
:10A628005F494E5445524E414C004E52465F45528A
:10A63800524F525F4E4F5F4D454D004E52465F455B
:10A6480052524F525F4E4F545F464F554E44004E44
:10A6580052465F4552524F525F4E4F545F535550CA
:10A66800504F52544544004E52465F4552524F5245
:10A678005F494E56414C49445F504152414D004E4E
:10A6880052465F4552524F525F494E56414C4944DB
:10A698005F5354415445004E52465F4552524F5203
:10A6A8005F494E56414C49445F4C454E475448001B
:10A6B8004E52465F4552524F525F494E56414C49A1
:10A6C800445F464C414753004E52465F4552524FF5
:10A6D800525F494E56414C49445F44415441004EF3
:10A6E80052465F4552524F525F444154415F53496D
:10A6F8005A45004E52465F4552524F525F54494D9B
:10A70800454F5554004E52465F4552524F525F4E88
:10A71800554C4C004E52465F4552524F525F464F81
:10A728005242494444454E004E52465F4552524FAC
:10A73800525F494E56414C49445F41444452004E91
:10A7480052465F4552524F525F42555359004E523E
:10A75800465F4552524F525F434F4E4E5F434F55EF
:10A768004E54004E52465F4552524F525F52455327
:10A778004F5552434553004E52465F4552524F5231
:10A788005F4D4F44554C455F4E4F545F494E4954B9
:10A7980049414C495A4544004E52465F4552524F32
:10A7A800525F4D555445585F494E49545F4641499B
:10A7B8004C4544004E52465F4552524F525F4D55EC
:10A7C8005445585F4C4F434B5F4641494C45440004
:10A7D8004E52465F4552524F525F4D555445585F51
:10A7E800554E4C4F434B5F4641494C4544004E52F1
:10A7F800465F4552524F525F4D555445585F434F3F
:10A808004E445F494E49545F4641494C4544004EC9
:10A8180052465F4552524F525F4D4F44554C455F2B
:10A82800414C52454144595F494E495449414C496C
:10A838005A4544004E52465F4552524F525F535458
:10A848004F524147455F46554C4C004E52465F4576
:10A8580052524F525F4150495F4E4F545F494D50DD
:10A868004C454D454E544544004E52465F45525264
:10A878004F525F464541545552455F4E4F545F45D0
:10A888004E41424C4544004E52465F4552524F524B
:10A898005F494F5F50454E44494E47004E52465F10
:10A8A8004552524F525F4452565F5457495F455282
:10A8B800525F4F56455252554E004E52465F4552D2
:10A8C800524F525F4452565F5457495F4552525F48
:10A8D800414E41434B004E52465F4552524F525FE4
:10A8E8004452565F5457495F4552525F444E414364
:10A8F8004B004E52465F4552524F525F424C455FA5
:10A90800495053505F52585F504B545F5452554E04
:10A918004341544544004E52465F4552524F525FA0
:10A92800424C455F495053505F4348414E4E454C59
:10A938005F414C52454144595F455849535453006F
:10A948004E52465F4552524F525F424C455F495006
:10A9580053505F4C494E4B5F444953434F4E4E450D
:10A9680043544544004E52465F4552524F525F424F
:10A978004C455F495053505F504545525F52454AD8
:10A9880045435445440011121314636C6F636B0004
:10A99800434C4F434B004750494F54450050525386
:10A9A800005541525400554152544500436F6E6E54
:10A9B800656374696F6E20307825782065737461DB
:10A9C800626C69736865642C207374617274696E53
:10A9D8006720444220646973636F766572792E003C
:10A9E8004C42532063656E7472616C206C696E6BA7
:10A9F800203078257820646973636F6E6E656374A0
:10AA080065642028726561736F6E3A203078257806
:10AA18002900446174613A20257300525353493A1E
:10AA2800202564004C4253207772697465204C4598
:10AA380044207374617465202564004C45442042A9
:10AA48007574746F6E2073657276696365206469C6
:10AA580073636F7665726564206F6E20636F6E6EC8
:10AA68005F68616E646C652030782578004C696E8B
:10AA78006B20307825782C20427574746F6E2073A3
:10AA880074617465206368616E676564206F6E2009
:10AA98007065657220746F20307825780000000199
:10AAA800A000500000000000000000004E6F72641B
:10AAB80069635F426C696E6B79004D756C74696C83
:10AAC800696E6B206578616D706C65207374617256
:10AAD8007465642E005374617274207363616E6EC2
:10AAE800696E6720666F7220646576696365206E9B
:10AAF800616D652025732E005465726D696E616CF9
:10AB0800005254540053454747455200626C655FF4
:10AB180064625F646973630073645F626C655F6736
:10AB280061705F646174615F6C656E6774685F759E
:10AB3800706461746528292028726571756573745D
:10AB480029206F6E20636F6E6E656374696F6E2067
:10AB5800307825782072657475726E656420257367
:10AB68002E0054686520726571756573746564207C
:10AB780054582F5258207061636B6574206C656E51
:10AB880067746820697320746F6F206C6F6E67201C
:10AB980062792025752F2575206F63746574732E6F
:10ABA8000054686520726571756573746564206307
:10ABB8006F6D62696E6174696F6E206F662054589C
:10ABC80020616E64205258207061636B6574206C3C
:10ABD800656E6774687320697320746F6F206C6F7B
:10ABE8006E67206279202575206D6963726F7365C1
:10ABF800636F6E64732E0073645F626C655F676178
:10AC08007474635F65786368616E67655F6D74759A
:10AC18005F72657175657374282920726574757221
:10AC28006E65642025732E0073645F626C655F67D0
:10AC3800617474735F65786368616E67655F6D746E
:10AC4800755F7265706C7928292072657475726EEB
:10AC580065642025732E006E72665F626C655F679F
:10AC68006174740023D1BCEA5F782315DEEF1212F9
:10AC780000000000626C655F6C62735F6300010036
:10AC880000070000DCA20200E4A2020008000000A5
:10AC9800CCA20200DCA2020008000000BCA2020054
:10ACA800CCA20200080000006E72665F7364680040
:10ACB80073645F626C655F6366675F736574282998
:10ACC8002072657475726E656420257320776865D7
:10ACD8006E20617474656D7074696E6720746F207E
:10ACE80073657420424C455F434F4E4E5F43464761
:10ACF8005F4741502E0073645F626C655F636667EF
:10AD08005F73657428292072657475726E65642096
:10AD18002573207768656E20617474656D70746939
:10AD28006E6720746F2073657420424C455F4741FD
:10AD3800505F4346475F524F4C455F434F554E5413
:10AD48002E0073645F626C655F6366675F7365742A
:10AD580028292072657475726E65642025732077C2
:10AD680068656E20617474656D7074696E672074AF
:10AD78006F2073657420424C455F434F4D4D4F4ED5
:10AD88005F4346475F56535F555549442E007364E9
:10AD98005F626C655F6366675F73657428292072FC
:10ADA800657475726E6564202573207768656E20FA
:10ADB800617474656D7074696E6720746F20736553
:10ADC8007420424C455F47415454535F4346475FA4
:10ADD800415454525F5441425F53495A452E0073BF
:10ADE800645F626C655F6366675F736574282920BA
:10ADF80072657475726E6564202573207768656E58
:10AE080020617474656D7074696E6720746F207347
:10AE1800657420424C455F47415454535F4346474D
:10AE28005F534552564943455F4348414E47454461
:10AE38002E00496E73756666696369656E74205283
:10AE4800414D20616C6C6F636174656420666F723C
:10AE58002074686520536F66744465766963652E4F
:10AE6800004368616E6765207468652052414D2013
:10AE78007374617274206C6F636174696F6E20669D
:10AE8800726F6D203078257820746F20307825789F
:10AE98002E004D6178696D756D2052414D207369A2
:10AEA8007A6520666F72206170706C69636174697D
:10AEB8006F6E20697320307825782E0073645F6286
:10AEC8006C655F656E61626C6528292072657475B2
:10AED800726E65642025732E000000007CA10200BC
:10AEE8001CA20200080000006E72665F7364685F4F
:10AEF800626C65006CA102007CA1020008000000E1
:10AF08006E72665F7364685F736F63002020202031
:10AF180020202020206828282828202020202020C1
:10AF28002020202020202020202020204810101021
:10AF38001010101010101010101010108484848439
:10AF480084848484848410101010101010818181EE
:10AF58008181810101010101010101010101010159
:10AF680001010101010101101010101010828282EC
:10AF78008282820202020202020202020202020229
:10AF88000202020202020210101010200007032021
:10AF980004170201085710408000000048B1020061
:10AFA8000CB0020020B1020053756E004D6F6E00A8
:10AFB80054756500576564005468750046726900E9
:10AFC80053617400000000004A616E00466562002B
:10AFD8004D617200417072004D6179004A756E00D2
:10AFE8004A756C0041756700536570004F637400C3
:10AFF8004E6F76004465630000000000414D00502C
:10B008004D00000044B1020040B1020040B102000E
:10B0180040B1020040B1020040B1020040B102005C
:10B0280040B1020040B1020040B10200FFFFFFFF43
:10B03800FFFFFFFFFFFFFFFFFFFF000080B00200E0
:10B04800B0AF0200BCB00200D0AF020004B00200F2
:10B0580064B0020014B1020070B00200256D2F2503
:10B06800642F2579000000002561202562202565D0
:10B07800202554202559000053756E646179004DD0
:10B088006F6E646179005475657364617900576502
:10B09800646E65736461790054687572736461796C
:10B0A80000467269646179005361747572646179EC
:10B0B800000000004A616E7561727900466562722F
:10B0C80075617279004D6172636800417072696CD4
:10B0D800004D6179004A756E65004A756C790041CA
:10B0E80075677573740053657074656D6265720079
:10B0F8004F63746F626572004E6F76656D6265723C
:10B1080000446563656D62657200000025483A2554
:10B118004D3A255300000000559F0200719F020020
:10B128007D9F0200899F0200A59F0200B19F020037
:10B13800BD9F0200CB9F0200000000002E0000000F
:0CB1480043000000504F53495800000025
:10B1540038A302000000000000000000000000000E
:10B1640000000000000000000000000080430020F8
:10B174000090D0030D000300ED8A020000000000DF
:10B1840000000000000000000000000000000000BB
:10B1940000000000000000000000000000000000AB
:10B1A400000000000000000000000000000000009B
:10B1B400000000000000000000000000000000008B
:10B44400000000000000FFFF0000000000000000FA
:10B4540000000000000000000000000000000000E8
:10B4640000000000000000000000000000000000D8
:10B4740000000000000000000000000000000000C8
:10B4840000000000000000000000000000000000B8
:10C7D400000000000000000000000000886200204B
:10C7E4001F000000A4AF0200A4AF0200A4AF020027
:08C7F400A4AF0200A4AF020093
:040000032000623D3A
:00000001FF
