:100000000000012079030000610300006303000089
:1000100065030000670300006903000000000000A2
:100020000000000000000000000000006B03000062
:100030006D030000000000006F030000710300006A
:10004000730300007303000055160000BD16000086
:1000500073030000730300007303000073030000C8
:1000600073030000730300007303000073030000B8
:1000700073030000730300007303000073030000A8
:100080007303000073030000730300007303000098
:100090007303000073030000730300007303000088
:1000A0007303000073030000730300007303000078
:1000B0007303000073030000000000000000000054
:1000C0007303000073030000730300007303000058
:1000D00073030000730300007303000000000000BE
:1000E0000000000000000000000000000000000010
:1000F0000000000000000000000000000000000000
:1001000000000000000000000000000000000000EF
:1001100000000000000000000000000000000000DF
:1001200000000000000000000000000000000000CF
:1001300000000000000000000000000000000000BF
:1001400000000000000000000000000000000000AF
:10015000000000000000000000000000000000009F
:10016000000000000000000000000000000000008F
:10017000000000000000000000000000000000007F
:10018000000000000000000000000000000000006F
:10019000000000000000000000000000000000005F
:1001A000000000000000000000000000000000004F
:1001B000000000000000000000000000000000003F
:1001C000000000000000000000000000000000002F
:1001D000000000000000000000000000000000001F
:1001E000000000000000000000000000000000000F
:1001F00000000000000000000000000000000000FF
:10020000364937480A1A02D0072291438D463549AC
:1002100035480A1A06D00722914381F30988022241
:1002200082F3148831483249324A00F045F83248A6
:100230003249334A00F040F832483349334A00F03B
:100240003BF833483349344A00F036F833483449F0
:10025000344A00F031F834483449354A00F02CF87B
:1002600034483549354A00F027F8354835490022E9
:1002700000F02DF834483549002200F028F83448C1
:100280003449091A082903DB0022026004300160A6
:10029000314A90471F482049884205D002680430FF
:1002A00003B4904703BCF7E700208646EC460020E5
:1002B00000212A4A9047FEE7884207D0521A05D00B
:1002C000037801300B700131013AF9D1704788424F
:1002D00002D002700130FAE77047000000000120F0
:1002E00000E000200000012000000120D82E0000C6
:1002F0000000002034000020D8030000D8030000D4
:100300007A2A0000D82E0000000000200000002003
:10031000C82A0000C82A0000C82A0000C82A000015
:10032000C82A0000C82A0000C82A0000C82A000005
:10033000D82E00000C2F00003400002034000020D4
:1003400034000020B2060020B4060020B4060020CD
:10035000B4060020B4260020A103000045250000BB
:10036000FEE7FEE7FEE7FEE7FEE7FEE7FEE7FEE765
:10037000FEE7FEE7704700BF1048804710484FF087
:100380000701884385460F4880470F48016841F4BC
:1003900070010160BFF34F8FBFF36F8FFFF730BF66
:1003A0000A480B490B4A884207D0521A05D00378F5
:1003B00001300B700131013AF9D17047750300002B
:1003C000000001204D26000088ED00E0C82A000052
:0803D0000000002000000020E5
:1003D800F0B595B01C46164608460D4600F0F5FFE8
:1003E8001A9B0D93CDE9086400242346082205A929
:1003F80028460A948DF82C400C9401F004F8079BC9
:100408000293BDF81830ADF80C30BDF81A30ADF8CD
:100418000E309DF814308DF8114003F00302012AC4
:100428001DD1BDF81440059EC3F3C203C4F3831461
:100438008DF81030A20008230EA9284600F0E3FF2B
:10044800C6F3952608AB0093224602AB0EA93046A8
:1004580000F0C4FB284600F0BCFF15B0F0BD022A2E
:10046800F8D1BDF81640C3F3C203A4098DF81030C3
:100478000827082C264628BF08263B4632460EA9E0
:10048800284600F0C0FFA41B08AB02AA31460EA8FC
:10049800374400F007FC002CEBD1DBE7014B0122CD
:1004A8001A707047750000207047000070B50E4D37
:1004B80006460FCD88B06C460FC495E80F0084E857
:1004C8000F0008A9002E4FF00603084A41F8203D06
:1004D80008BF0022064801F07BF808B100F03CFC98
:1004E800044B1E7008B070BDC82A0000A5040000A7
:1004F800000000203400002007B5044B0093044A94
:100508004023FFF765FF03B05DF804FB1D050000FD
:100518003500002038B50D4B0D4D002018700D48E2
:1005280004782D5DD2B21C4665B1043001F052FF4B
:1005380008B100F011FC084B1A7812B12378002B8F
:10054800FBD038BD0C3001F049FDF1E77500002003
:1005580020060020000000203400002008B50848CC
:10056800084A0378D35C3BB1043001F0CFFE002089
:10057800BDE80840FFF79ABF0C3001F0CBFCF6E766
:1005880000000020200600200120FFF78FBF000098
:1005980008B5FFF7F9FF0421034800F08DFA034B73
:1005A80001225A7108BD00BFA42A000014000020CF
:1005B800037813F0040216D003F00303012B03D0D1
:1005C800022B09D0012070470A6800880232C0F364
:1005D800831002440A60F5E70B684288023303EB94
:1005E80092130B60EEE71046704700002DE9F04FBC
:1005F800484C87B00F460546861C0020019200F043
:1006080003FC23683B60D4E90123134422680133C7
:100618009B1A04F21C4704F5836A04F21448B34297
:1006280019D3019A0023002A6CD0012262F3010336
:1006380043F0040365F389132168A2680A40033272
:100648000E44002044F82230266000F0DFFB012031
:1006580007B0BDE8F08F0121384600F0F9FB50469D
:1006680000F00CFC404600F009FC0DF11809606828
:10067800D4F808B049F8100D00EA0B00033004EB79
:1006880080004946FFF794FF029BB0B90BEA0302CA
:1006980004EB8202D16803919A1C013303EA0B0B25
:1006A80004EB8B0C01F00303012B0292DCF80CB075
:1006B80020D0022B04D083460BE00BEA0300DDE7D1
:1006C800BDF80E309B0903334FEA1B4B02EB930333
:1006D8000293404600F0D5FB08B1029B636059467F
:1006E800384600F0B5FBD4E90123134422680133EE
:1006F8009B1A94E7BDF80C30C3F383134FEA1B4BE6
:100708001344E5E7022262F3010343F0040365F3AF
:100718009F5391E7480100200B4B0C48FF2210B56E
:100728009A600022C3F81824C3E90022C3F81424ED
:1007380083F8202400F002FE044610B9044800F0B3
:100748006DFE204610BD00BF48010020B42A0000FD
:10075800082B000030B50A4C71B10A4A0A49121B2D
:10076800D20800239A4201D1002030BD31F823502D
:10077800854202D00133F5E7034654F83300F4E725
:100788007C2A0000A42A000000000020094B01393F
:1007980003EBC000032909D8DFE801F00A020406C8
:1007A80004207047007970474079704700207047EF
:1007B800022070477C2A0000034BD3E90030C31A9B
:1007C80058425841704700BF480100202DE9F043C6
:1007D80085B0FFF7F1FF0646002840F0F9807D4D0F
:1007E800C5F81804BFF34F8F6868AC6804AF47F8C2
:1007F800100D2040033005EB80003946FFF7D8FE86
:10080800009B18B1D5F81824002A5FD004EA030227
:10081800991C013305EB8202234005EB8303D26860
:10082800DB68029302F00303022B0192009162D16C
:10083800BDF8063068484FEA9318B8F1500FC14622
:1008480028BF4FF0500969F38F1309F10801ADF87B
:10085800063000F08BFD0746002800F0A48000F069
:10086800B4FD01A900230822384600F0C1FD009913
:1008780024EA01060136B600B14535D95FFA89F98F
:100888007EB3F6B2A9EB0609214003315FFA89F479
:10089800B146524E05EB810108234A46384600F01E
:1008A800A7FD36B109F1080322463146384600F063
:1008B8009FFD009B08F1030803EB98030093D5F80C
:1008C8001834002B4BD1D5F810445BE02A689A42C3
:1008D80004D86A60304605B0BDE8F08304EA030036
:1008E80088E73E493446D7E72140033108234A4682
:1008F80005EB8101DAE7012B55D1BDF80430364804
:10090800C3F38311062928BF062161F38913023135
:100918008900ADF8043000F029FD0746002842D0D0
:1009280000F053FD0023082201A9384600F060FDBD
:100938000026BDF80420C2F38312B31C96424FEA86
:100948008303BCD200994A1C21400331009205EB75
:1009580081010422384600F04BFD0136E9E73846AC
:1009680000F037FDFFF728FF80F00100C6B2B1E7BD
:10097800E3685B7923B1236839461B6820469847AA
:10098800E3681C68002CF3D1384600F022FD2046AD
:1009980000F03AFAD5F818340BB9009B6B600020C8
:1009A80000F034FADEE7D5F8104454B90C4B0D4882
:1009B8000D49C01AC008000440F0020000F06EF8AB
:1009C800D0E7236820469B689847E3681C68ECE7F3
:1009D80000267FE748010020B42A000054010020C7
:1009E8007C2A00009C2A0000142B00002DE9F74FF8
:1009F800284C80460F46924601A9012218469B467C
:100A0800D4F80890FFF7F2FD88B3019D0026A91CD1
:100A18005E4506EB010234D100211F4800F0F8F9C9
:100A280080F310006A1C02EA090204EB8202000447
:100A380005EA0903033340EA1840D06014F823207C
:100A480068F3C50204F8232034F8232066F38912DA
:100A580024F8232054F82320012167F39F2244F827
:100A6800232061F301026FF3820204F8232094F833
:100A780020341BB1FFF7AAFE0028FBD103B0BDE864
:100A8800F08F09EA020204EB82025AF82630D3609A
:100A98000136BDE7480100206405002000231A46FE
:100AA800FFF7A4BF13B502AC012344F8042D224676
:100AB800FFF79CFF02B010BD30B50F49D1F81024E4
:100AC800002314463CB9C468237152B9C1F8100414
:100AD8002260184630BDE46825799D4206D0246816
:100AE800F0E7D268116821601060F2E701330A2B41
:100AF800E7D14FF0FF33ECE748010020094A38B549
:100B08000123D2F8104482F820341D4604B938BDB8
:100B1800E3685D71236820465B689847E3681C6852
:100B2800F4E700BF48010020037A052B10B50C46F6
:100B38000FD0437A23B1084A0849204600F0FBF950
:100B48000749204600F0F7F92046BDE8104000F0BC
:100B5800E7B9002AF8D0F3E75F2B0000642B000008
:100B6800842B0000C38873B504460D4633B1144A7C
:100B780000921449144A284600F0DDF9217A052923
:100B88001CD0637A4BB1A088FFF700FE0F4B1049C9
:100B980053F82020284600F0CEF9227A0D4BA08881
:100BA80053F822600021FFF7D5FD0B490346324672
:100BB800284602B0BDE8704000F0BDB902B070BD73
:100BC8005F2B00006F2B0000672B00002C2B000010
:100BD800642B0000942B0000872B00002DE9F043C4
:100BE80085B01F460C9D002306460C46904695F896
:100BF8000C902B7329463846FFF7B4FFB8F1060F5F
:100C080009D8DFE808F00412181F283340003146DD
:100C1800284600F090F9002229463846FFF784FF5D
:100C280085F80C9005B0BDE8F08322683146284667
:100C380000F081F9EFE7D4E900233146284600F0B7
:100C48007AF9E8E7A36800933146D4E900232846F7
:100C580000F071F9DFE7E3680193A3680093314678
:100C6800D4E90023284600F066F9D4E72369029303
:100C7800E3680193A36800933146D4E9002328462A
:100C880000F059F9C7E76369039323690293E3689E
:100C98000193A36800933146D4E90023284600F065
:100CA8004AF9B8E708292DE9F84F80460E46174655
:100CB8001C463AD8002593F80C901D731946104627
:100CC800FFF750FFDFF884A0DFF884B0AE422ED9DA
:100CD80018F805205946204600F02DF90135082D51
:100CE800F4D11849DFF86CB0204600F024F94FF031
:100CF800000A564520D918F80A507E2D03D82846F0
:100D080001F026FE00B92E252A465946204600F055
:100D180012F90AF1010ABAF1080FEAD101222146B3
:100D28003846FFF701FF84F80C90BDE8F88F51466C
:100D3800204600F000F9D1E70349204600F0FBF80F
:100D4800E7E700BF5A2B0000582B0000562B000085
:100D5800502B00005C2B00001FB50021039001AA56
:100D680044F20100CDE9011100F004F805B05DF886
:100D780004FB000010B572B6FFF7C0FEFFF726FDB2
:100D88000028FBD1104B114C1149E41AE408240443
:100D980044F00100FFF782FE0E4B1B68DB0700D50D
:100DA80000BE0D4944F00200FFF778FEBFF34F8FF5
:100DB8000A490B4BCA6802F4E0621343CB60BFF3E5
:100DC8004F8F00BFFDE700BF7C2A00009C2A00006F
:100DD800F32B0000F0ED00E0FF2B000000ED00E039
:100DE8000400FA0572B6024A1368013313607047AB
:100DF80004060020034A1368013B136003B962B676
:100E0800704700BF04060020FFF7ECBFFFF7F2BFF2
:100E180050E8002F0B4640E8003C9CF0000FF7D14B
:100E28001046704750E8003F43EA010240E8002CB2
:100E38009CF0000FF6D11046704750E8002F02EAE8
:100E4800010340E8003C9CF0000FF6D110467047C3
:100E580050E8003F03EB010240E8002C9CF0000F33
:100E6800F6D11046704750E8003FA3EB010240E876
:100E7800002C9CF0000FF6D1104670470121FFF7B7
:100E8800D1BF0021FFF7D9BF10B590B1D0E9012338
:100E980001689B1ADBB20A60013BDBB2FF2B0268D8
:100EA80002D10020107110BD11684C1C14600B7029
:100EB800F2E70E20F7E738B504460020FFF7A4FF55
:100EC800226863681168994213D9481E106011F8A6
:100ED800015CE368218A01FB0535A36811791B1AB7
:100EE800DBB2994200D213710020FFF78FFF28462A
:100EF80038BD0025F8E738B5054600200C46FFF751
:100F080083FF2A681368591C1160E968641A298AE2
:100F1800B4FBF1F41C700020BDE83840FFF776BF41
:100F2800826810B504462AB1436901680069984788
:100F38000023A36010BD0EB403B5039929B102AA1A
:100F480004AB42F8043D00F073F802B05DF804EB1E
:100F580003B070470A2938B504460D4602D10D2161
:100F6800FFF7F8FFA3682268591CA160D554D4E99B
:100F780001329A4204D32046BDE83840FFF7D0BF7B
:100F880038BD00002DE9F84F9946DDE90A431746B8
:100F9800824688460A460126BA420FD24E4538BFD5
:100FA8004E4613F0010B01D164B900240125B9F1B3
:100FB800010F1AD909F1FF397D43F8E7B2FBF7F2BF
:100FC8000136E9E79B070ED5B9F1000F0CBF3025B4
:100FD8002025A642EAD2013C29465046FFF7BAFF2F
:100FE800002CF6D1E1E72025F3E7B8FBF5F39F42A3
:100FF800E2D9DFF83890B8FBF5F3504619F803103A
:1010080005FB1388FFF7A6FFB5FBF7F5002DF2D116
:10101800BBF1000F02D00CB1A64201D3BDE8F88F96
:1010280020215046013CFFF795FFF4E70C2C000007
:101038002DE9F74F054690460E46002900F03A8103
:1010480016F8011B002958D0252940F0D180002727
:1010580002E047F001071646324612F8013B2D2BF5
:10106800F7D0302B04D02B2B05D147F00407F2E73B
:1010780047F00207EFE700242A2B06F101021BD1F3
:10108800D8F80030191D1B68C8F800101C44164613
:1010980033782E2B1CD101364FF0000A314611F857
:1010A800012BA2F13000092814D80A2303FB0A23D4
:1010B800A3F1300A0E46F1E712F8013CA3F1300122
:1010C8000929E5D80A2101FB0434303C1646D3E748
:1010D8004FF0000A324612F8011B01F0FB006828A5
:1010E8001646F8D0692916D054D8582970D00ED889
:1010F80025297DD03378002BA2D12B7B002B00F043
:10110800D980284603B0BDE8F04FFFF709BF63292F
:1011180068D06429EED1D8F80020D2F80090111DCB
:1011280089EAE972C8F80010A2EBE9724FF0010BE6
:10113800092A61DCD34538BFD3462CB1B9F1000F79
:1011480001DB790700D5013CBA0702D5BAF1000FD7
:1011580004D0FB0702D4002C54D10024B9F1000FAD
:1011680058DAC9F100092D212846FFF7F3FE07F0E8
:101178000302022A05D1BAF1000F02D1002C4DD189
:101188000024CDE9004753460A2249462846FFF77E
:10119800F9FEAFE7732954D016D87029AAD1D8F828
:1011A80000301A1DC8F80020302128461C68FFF7B7
:1011B800D1FE78212846FFF7CDFE00220823CDE98D
:1011C800003221461022E1E775292FD0782991D1E4
:1011D800D8F800100A1DC8F80020CDE9004753468A
:1011E80010222CE0D8F800301A1D1978C8F8002011
:1011F8002846FFF7AFFE7DE70A230BF1010B92FBB0
:10120800F3F295E7A345A9D220212846013CFFF730
:10121800A1FEA0E77807AAD52B21A5E7A345B0D260
:1012280030212846013CFFF795FEA7E7D8F80010C3
:10123800CDE900470A1DC8F8002053460A2209686C
:10124800A4E7D8F800301A1DC8F80020F907D3F829
:10125800009012D54F46A7EB090B17F8011B41B9AF
:10126800A345BFF447AF20212846013CFFF772FE93
:10127800F6E72846FFF76EFEEDE7B9F1000F17D045
:10128800484601F0C6FB0746BC4200D954B909F1EB
:10129800FF3919F8011F00293FF42CAF2846FFF742
:1012A80059FEF6E720212846013CFFF753FEEBE7FD
:1012B8004F46E9E703B0BDE8F08F2DE9F047B0F8F5
:1012C80006904479D2F800A09DF8208009FB04F428
:1012D800043C06460AEB0300A0420F4688BFA4EB75
:1012E800030A191DC2F800A0B1FBF9F509FB151195
:1012F8004DB9A9EB0104544528BF5446BAF1000F73
:1013080004D1BDE8F0873668013DF1E704317B1967
:1013180070182246B8F1000F0ED001461846AAEB05
:10132800040A01F01AFBD145254436684C464FF0B3
:10133800000128BF5446E1E71946F0E7FFF7A4BDCE
:10134800F8B546790146721E0546002393422D687A
:1013580003D30024A64202D8F8BD0133F6E70F688C
:101368002846FFF7C8FD01343946F3E72DE9F8436D
:10137800068ACD1C0746FFF79EFD043E3544044609
:10138800B5FBF6F5F0B14FF48073EDB28380C680FB
:10139800013D076081464FF00008A84512D2384643
:1013A800FFF789FD064648B163790133637108F197
:1013B8000108C9F8000007608146EEE72046FFF7FC
:1013C800BFFF34462046BDE8F88301210430FFF70B
:1013D8003FBD10B5012104460430FFF744FD10F06D
:1013E800FF0F04D12046BDE81040FFF7A9BF10BD8C
:1013F8001FB504AC44F8042D002200922246FFF7E2
:101408005CFF04B010BD1FB504AC44F8042D0122E4
:1014180000922246FFF751FF04B010BD83680022F6
:101428005A609A60C3E90422DA601A6070470000C3
:101438001FB503788DF8003003798DF804304379AF
:101448008DF8053083688DF80630C3688DF807304D
:101458000369029343690393054A064B684653F8A8
:10146800213052F82110984705B05DF804FB00BF01
:101478000806002010060020024B4FF4807043F04D
:1014880001031847202C00002DE9F0479146077802
:10149800324A42F82790324A42F827304B7B80463E
:1014A8000C4663B30868496882008B0002F1A042C9
:1014B80003F1A04340F20C65C2F800570126C3F8B7
:1014C80000574FF0A04506FA00F006FA01F1C5F8FA
:1014D8000805C5F8081540F20D61C2F80017C3F8F1
:1014E8000017FFF7C9FF4FF0000AD5F81025636809
:1014F80022FA03F3DB070FD5BAF1000F1FD1B9F1B8
:10150800000F3B46174A214608F1040008BF002295
:10151800BDE8F04700F070B9236806FA03F3C5F890
:101528000C35FFF7A9FF236806FA03F3C5F8083559
:101538000AF1010AFFF7A0FFBAF1090FD5D16368D4
:1015480001254FF0A04605FA03F3C6F80C35FFF75E
:1015580093FF63689D40C6F80855D0E71006002041
:1015680008060020391400001FB503788DF80030F4
:101578004368019383688DF80830C3680393054A6C
:10158800054B684653F8213052F82110984705B0AA
:101598005DF804FB180600201C0600201FB5037820
:1015A8008DF800304368019383688DF80830C3686C
:1015B8000393054A054B684653F8213052F8211029
:1015C800984705B05DF804FB180600201C060020AB
:1015D800F0B5194B067891F81DE043F82620174B13
:1015E80094460A6943F82620154B03F806E00C4692
:1015F80007460FCC89B06D460FC594E80F0085E803
:101608000F000496BEF1000F0AD0BCF1000F0D4A7E
:10161800694608BF0022381D00F0B6FD09B0F0BDCC
:10162800BCF1000F084A694608BF002207F10C0008
:1016380000F0B6FBF2E700BF1C06002018060020E9
:101648002006002071150000A5150000014B1B683D
:10165800184700BF2406002038B50A4B98420D46AB
:101668000CD10020FFF7D0FB074B1C7914B90122DD
:101678001D601A710020FFF7C9FB0CB9002038BDA6
:101688001120FCE70020004024060020034B98426C
:1016980001BF034B00221A601A71704700200040F6
:1016A800240600200023435082B043580193019B35
:1016B80002B07047F0B54C4A4C4CD2F8243187B090
:1016C8001546A3B14FF492711046FFF7EBFFD2F81D
:1016D800043163B9A368C2F808330223A360A3687E
:1016E800C2F8043301231362536107B0F0BDD5F883
:1016F8000431002B49D03E4F3B484FF48271FFF72D
:10170800D1FF0FCF01AE0FC63B68336094F82E307F
:101718007BB1237B012B0CBFD5F83C25D5F84C2594
:101728000292022B304B0CBFD3F83C35D3F84C3522
:1017380003934FF4B0712C48FFF7B4FF4FF4AE7128
:101748002948FFF7AFFF94F8303013B194F82E30E2
:101758003BB1254B0022C3F80022A260254AC3F8FA
:101768000823214AD2F8C434C2F8C4349A0736D5BB
:1017780001238DF8003094F830300BB984F82F30FD
:10178800D4E9003168469847AFE74FF4A47116488A
:10179800FFF788FF237B83B9154F0FCF01AE0FC624
:1017A8003B68336094F83030002BDAD1C5F800324A
:1017B800A360104BC5F80833D3E74FF40073C5F89E
:1017C800003240F20223A36003F1CE73C5F8083358
:1017D800A368C5F804330123AB602B6285E713F0D7
:1017E800040318BF0223C4E7003000402C06002081
:1017F8003806002002029C012DE9F84F0579334C88
:101808004FF0340808FB05F804EB08069B4696F8E9
:101818002D3081460F469246002B52D12C49006844
:10182800FFF71AFF00284ED139687B7B86F83230E3
:1018380001F5E0724FF0A043B060C6F804B086F836
:101848002F0086F8300040F20C6644F808A043F8F0
:1018580022607A6802F5E07C43F82C60D9F8003001
:10186800C3F80815C3F80C25BA68C3F82425BAF1DB
:10187800000F1ED01B0B59B200293A7BB4BF154E7E
:1018880001F16046DBB2B8BF03F00F074FEA42121E
:10189800A8BF06F56146D2B2B4BFF25586F8002358
:1018A80003F01F03012202FA03F349090A4A42F826
:1018B8002130342303FB0544012384F82D30BDE88F
:1018C800F88F0820FBE71120F9E700BF2C0600205D
:1018D800BD16000014ED00E000E100E002680379A5
:1018E8000621C2F80015044A342101FB0323022211
:1018F80083F82D20704700BF2C0600202DE9F843FF
:10190800CB6803F06043B3F1005F0D46904603D007
:1019180010221046BDE8F8830779964E0468964B66
:10192800C4F808334FF0340C0CFB076C9CF82F30CC
:101938002BB1DCF80830C4F804331122E9E712F0BF
:10194800140F0CBF012300238CF82F308946B9E807
:101958000F000CF10C0EAEE80F00D9F80030CEF8ED
:101968000030C8F300138CF830306B78C4F8883531
:101978004FF482712046FFF795FE4FF49271FFF7FE
:1019880091FE18F0010318BF0123C4F8503518F070
:10199800020318BF0123C4F840352B78032B00F24B
:1019A800C780DFE803F087AF68022B6903F0604364
:1019B800B3F1005FACD14FF48073EA68C4F8003229
:1019C8006B68C4F844254FF4A871C4F84835FFF78C
:1019D80069FE4FF4B071FFF765FE4FF4A471FFF78D
:1019E80061FE01232362A360D4F85031002BFBD0A1
:1019F8004FF4A8712046FFF755FEAB682A69C4F872
:101A08004425C4F84835342303FB07635B4A9A60CE
:101A18004FF482730821002218F0080F04D12878A7
:101A280003281CBF01206050342179437018715875
:101A3800002940F08280012523441968002900F01C
:101A480089803421D4F8C434C4F8C43401FB07664F
:101A5800002186F82F10002B3FF45BAF13F0020F24
:101A680048F2012208BF032213F0040F48F20223B0
:101A780018BF1A464DE76B68EA68C4F84425C4F8ED
:101A880048352B6903F06042B2F1005F7FF440AF44
:101A9800AA68C4F834354FF48453C4F83825C4F818
:101AA8000032342303FB076340F202229A600123C9
:101AB8002362ADE76B68EA68C4F8442518F0200F84
:101AC800C4F848354FF0340310D003FB07634FF4D4
:101AD8008072C4F80022294A9A604FF4A471FFF773
:101AE800E1FD4FF4A4730122226293E74FF40072E0
:101AF80003FB0763C4F8002240F202229A604FF405
:101B08008273F0E76B68EA68C4F83425C4F838359E
:101B18004FF48053C4F80032342303FB076340F2C8
:101B280002229A600123236200214FF4827372E734
:101B38004FF48273082107226EE718F0040F1CBFC8
:101B48004FF400738360342303FB0766B368C4F85B
:101B58000433DEE6D4F8241100293FF46EAF4FF4C5
:101B680092712046FFF79EFD25624FF482736561EE
:101B780062E700BF2C06002002029C01000204005C
:101B8800F0B587B004460F4615460021142201A877
:101B98001E4600F00BFF9DF830308DF80570002BC5
:101BA80014BF2022002201A9204602960495FFF7BF
:101BB800A5FE07B0F0BDF0B587B004460F46154640
:101BC800002112220DF106001E4600F0EFFE01234F
:101BD800002201A920468DF804308DF80570029680
:101BE8000495FFF78BFE07B0F0BD0023435082B089
:101BF80043580193019B02B070470A4610B54FF451
:101C08008E71FFF7F2FF136A9168C95C136A01339A
:101C18001362C0F81C1510BD8B690A4610B54FF445
:101C2800847123B9FFF7E1FFD0F8183510BDFFF72D
:101C3800DCFF536AD168D0F81805C854536A0133D9
:101C48005362F3E71FB501238DF80030044BCDE94B
:101C58000110D3E900126846904705B05DF804FB0F
:101C68006006002030B54C4AD2F8043313F4007FE4
:101C780085B015464FD0D2F82431002B4BD04FF405
:101C880092711046FFF7B1FF4FF40173C2F80833A1
:101C9800424B93F8291009B9012151603E490222AB
:101CA8008DF80020D1F88024C1F8802403929A6925
:101CB8000292DA6801920022C3E906226846D3E953
:101CC800001290473448D0F81C315BB133490A6A96
:101CD8004B699A420A464BD291F82830002B47D1DB
:101CE800FFF78BFF2C4AD2F8443193B14FF4A2711D
:101CF8001046FFF77AFF294B93F8291009B1012103
:101D080011609A692AB100229A61586AD968FFF766
:101D180099FF05B030BDD5F804335B07D2D5D5F8A7
:101D28000831002BCED01D4C1B482146FFF774FF0D
:101D3800636AA2699A422346C4D1E269E1684AB15A
:101D48002369E3600023606AA261E3616362FFF7CD
:101D580079FFB7E794F829200AB901226A600E4A88
:101D68004FF40170C2F8080300229A61586AEEE73E
:101D78004FF48E710848FFF738FF51690029B1D038
:101D88000023029191688DF80030019153616846F3
:101D9800D2E900139847A5E700200040600600201C
:101DA8002DE9F843564F047991462C2202FB047220
:101DB800064692F82A200D46002A40F09A8051499A
:101DC8000068FFF749FC8046002840F095802968A4
:101DD8003368481C0BD04FF0A04001228A40C0F85D
:101DE800082501F5E0724FF0030C40F822C068683E
:101DF800421C1FBF00F5E0724FF0A04C4FF0000EE0
:101E08004CF822E0AA6995F814C0C3F824256A7D25
:101E1800BCF1010F4CEA0202C3F86C25C3F81405A3
:101E2800C3F80C151DD1AA68511C1FBF02F5E0713B
:101E38004FF0A0404FF0000C40F821C0E968481C62
:101E48000BD04FF0A04C01208840CCF8080501F5D4
:101E5800E0704FF0030E4CF820E0C3F80815C3F803
:101E680010252C236343FA18C2F804902A69FA5003
:101E7800B9F1000F2AD04FF48E7130682D7FFFF72B
:101E8800B4FE30684FF4A271FFF7AFFE32681E4B04
:101E9800C2F80433120B51B20029A8BF01F1604007
:101EA8004FEA4513BABF194802F00F0500F5614023
:101EB800DBB2B4BF435580F8003302F01F020123A0
:101EC80003FA02F24909124B43F82120336804222D
:101ED800C3F800252C2303FB04730022C3E9062260
:101EE80083F829205A61012283F82A204046BDE858
:101EF800F8834FF00808F9E74FF01108F6E700BF3C
:101F0800600600206D1C00008000020014ED00E057
:101F180000E100E0F8B5047900682D4D0023C0F811
:101F280000352C2303FB04535B6873B1294BC0F8BD
:101F38000833020B53B201215B0902F01F0201FAB8
:101F480002F22033244941F82320D0F80C65D0F858
:101F58001415D0F80835D0F810254FF0FF37BE42D9
:101F6800C0F8147518BF06F5E076C0F80C75C0F80F
:101F78000875C0F810751EBF4FF0A0474FF0020C4F
:101F880047F826C04E1C1FBF4FF0A04601F5E07170
:101F9800022746F82170511C1FBF4FF0A04102F5DF
:101FA800E072022641F822605A1C1FBF03F5E07355
:101FB8004FF0A042022142F82310FFF767FB2C23C1
:101FC80003FB0454002384F82A306360F8BD00BF83
:101FD800600600208402020000E100E02DE9F843D9
:101FE800224F06794FF02C0909FB06748046656973
:101FF800002D37D16261A16025624FF48E710068AF
:1020080084F82850FFF7F1FDD8F800000123836019
:102018002146FFF7F2FD6368A1462BBBD8F80050B4
:10202800226A63699A4212D3D8F80030D3F81C2187
:10203800002AFBD00122DA6000202C2303FB06765D
:1020480000237361BDE8F88394F8283043B9D5F8C4
:102058001C31002BF8D049462846FFF7CEFDDFE7B4
:102068000F20EAE71120EDE72846EBE7600600209D
:102078000023435082B043580193019B02B070473C
:102088001FB501238DF80030044BCDE90110D3E9C9
:1020980000126846904705B05DF804FB8C060020E6
:1020A8007FB5374AD2F82461002E48D010464FF445
:1020B8009271FFF7DDFF02238DF80030D2F88034EB
:1020C800C2F880340393D2F83C3502932D4BDA687A
:1020D80001920022C3E906226846D3E9001290471C
:1020E800274AD2F844317BB14FF4A2711046FFF76A
:1020F800BFFF244B996939B10021C3E90611D9689A
:10210800D2F83C05FFF7BCFF1D4AD2F82031A3B135
:102118004FF490711046FFF7ABFF1A4B596961B144
:10212800D2F84C150291002299688DF8002001918F
:102138005A616846D3E90012904704B070BDD2F8DE
:102148001031002BCCD04FF488711046FFF790FF68
:102158000C4BD2F83C0599698842C1D1DC69D96831
:1021680064B1D2F8005225F02005C2F800521A696D
:102178009C61DA60DE61FFF783FFB1E79C61FAE7F3
:10218800002000408C0600202DE9F8435A4F0679BC
:102198009146242202FB0672044692F820200D463E
:1021A800002A40F0A28055490068FFF755FA80469A
:1021B800002840F09D8029682368481C0BD04FF008
:1021C800A04001228A40C0F8082501F5E0724FF0CE
:1021D800030C40F822C06868421C1FBF00F5E0727B
:1021E8004FF0A04C4FF0000E4CF822E0AA6995F889
:1021F80014C0C3F824256A7DBCF1010F4CEA020221
:10220800C3F86C25C3F80C15C3F814051DD1AA68CA
:10221800511C1FBF02F5E0714FF0A0404FF0000CB9
:1022280040F821C0E968481C0BD04FF0A04C0120B1
:102238008840CCF8080501F5E0704FF0030E4CF823
:1022480020E0C3F80815C3F8102524237343FA18AF
:10225800C2F804902A69FA50B9F1000F34D04FF44B
:10226800887120682D7FFFF703FF4FF49071206875
:10227800FFF7FEFE4FF492712068FFF7F9FE206821
:102288004FF4A271FFF7F4FE22681D4BC2F8043325
:10229800120B51B20029A8BF01F160404FEA451363
:1022A800BABF184802F00F0500F56140DBB2B4BFB1
:1022B800435580F8003302F01F02012303FA02F2AB
:1022C8004909114B43F8212023680822C3F8002547
:1022D800242303FB06730022C3E906225A61012264
:1022E80083F820204046BDE8F8834FF00808F9E756
:1022F8004FF01108F6E700BF8C060020A920000067
:102308001003020014ED00E000E100E0F8B50479E4
:1023180000682D4D0023C0F80035242303FB045327
:102328005B6873B1294BC0F80833020B53B2012123
:102338005B0902F01F0201FA02F22033244941F836
:102348002320D0F80C65D0F81415D0F80835D0F84B
:1023580010254FF0FF37BE42C0F80C7518BF06F5C0
:10236800E076C0F81475C0F80875C0F810751EBF7F
:102378004FF0A0474FF0020C47F826C04E1C1FBF75
:102388004FF0A04601F5E071022746F82170511C74
:102398001FBF4FF0A04102F5E072022641F822600B
:1023A8005A1C1FBF03F5E0734FF0A042022142F808
:1023B8002310FFF76BF9242303FB0454002384F84C
:1023C80020306360F8BD00BF8C06002010030200B7
:1023D80000E100E001F06043B3F1005F2DE9F04156
:1023E800074632D11C4B0679242505FB063598464D
:1023F8006C6964BB6A61A96000684FF49071FFF76B
:1024080037FE4FF4AC713868FFF732FE3B686A69F3
:10241800A968C3F84415C3F8482501229A606A6878
:10242800BAB9D3F82011D3F8582149B9002AF8D0FD
:102438000F20242303FB068600237361BDE8F08187
:10244800002A14BF0F200020F3E71020F6E7112020
:10245800F4E72046F2E700BF8C06002008B50378B1
:102468008BB90379012B0BD1074B08480849C01ACF
:10247800C008084B00041A7840F00300FEF712FB6E
:10248800054B01221A7008BD7C2A00009C2A000016
:10249800762C0000B0060020B106002030B585B0CB
:1024A80004AC012324F8043D0023009322460223B0
:1024B80024210F48FFF764FB08B1FEF74DFC0D4AD5
:1024C80015461378002BFCD0002313708DF80C30C0
:1024D80000932246012324210548FFF751FB08B148
:1024E800FEF73AFC2B78002BFCD005B030BD00BFBE
:1024F8004C2C0000B10600201FB51B211A22CDE983
:1025080000124FF0CC720023029202220393694614
:102518008DF80C200648074AFEF7B6FF08B1FEF70B
:102528001BFC0548FFF7DAF905B05DF804FB00BFAE
:10253800482C0000652400004C2C00000021F8B550
:102548000846FEF7E9F808B1FEF706FCFEF720F8A2
:102558001848194B1949C01AC008000440F0030074
:10256800FEF79CFAFEF732F90028FBD1FFF7C4FF0B
:10257800134C144E144FFFF791FF44F001044FF42D
:10258800FA754FF47A40A047013DFAD120BF33785D
:10259800002BFBD0002333703A46012324210B483B
:1025A800FFF709FB08B1FEF7D7FBFEF70FF9002884
:1025B800FBD1E4E79C2A00007C2A0000582C00008C
:1025C800402C0000B1060020B00600204C2C000072
:1025D8000C4B1B78062B10D10B4B1B681A070CD120
:1025E8000A4B186800F0F003302B08D000F0E00028
:1025F800A0F140035842584170470020704701201D
:10260800704700BFE00F00F0E40F00F0E80F00F0A3
:10261800094B1B78062B0CD1084B1B681A0708D1ED
:10262800074B186800F0F000A0F1300358425841F9
:1026380070470020704700BFE00F00F0E40F00F083
:10264800E80F00F008B5FFF7C3FF28B17D4B7E4ABD
:102658001B68C3F304231360FFF7DAFF10B17B4B49
:102668007B4A1A60FFF7B4FF28B17A4B7A4A1B6895
:10267800C3F342331360FFF7CBFF20B1774AD36827
:1026880023F08073D360FFF7A3FF40B14FF080437E
:102698000022C3F80C21C3F81021C3F83825FFF72E
:1026A800B7FF10B16E4B03221A60FFF7B1FF40B1BC
:1026B8006C4B05221A6001229A6700229A603F2219
:1026C8005A60694B1B78062B50D1684B1B68190759
:1026D8004CD1674B1B6803F0F003502B46D14FF0E9
:1026E8008052644BD2F80414C3F82015D2F80814A9
:1026F800C3F82415D2F80C14C3F82815D2F810140E
:10270800C3F82C15D2F81414C3F83015D2F81814DD
:10271800C3F83415D2F81C14C3F84015D2F82014A5
:10272800C3F84415D2F82414C3F84815D2F828146D
:10273800C3F84C15D2F82C14C3F85015D2F830143D
:10274800C3F85415D2F83414C3F86015D2F8381405
:10275800C3F86415D2F83C14C3F86815D2F84014CD
:10276800C3F86C15D2F84424C3F87025FFF730FF7E
:1027780028B1414B414A1B6803F04F031360FFF730
:1027880027FF48B14FF08043D3F80024D20744BF55
:102798006FF00102C3F80024394B1B68062B08D1DF
:1027A800384B1B68062B01BF374A136843F4806314
:1027B8001360364AD2F8883043F47003C2F8883080
:1027C800BFF34F8FBFF36F8F4FF01023D3F8002262
:1027D800002A03DBD3F80432002B2FDA2C4B01221A
:1027E800C3F80425D3F80024002AFBD04FF01022A8
:1027F8001521C2F80012D3F80024002AFBD04FF0AC
:1028080010231522C3F80422214B1A46D3F80014CA
:102818000029FBD00021C3F80415D2F80034002B9E
:10282800FBD0BFF34F8F19491A4BCA6802F4E06214
:102838001343CB60BFF34F8F00BFFDE7164B174A1A
:102848001A6008BD240300104035014074C00740D9
:102858000DF0ADBA440200103C050040F0ED00E078
:10286800A005004010560040E00F00F0E40F00F013
:10287800E80F00F000C0004058020010E40E0040CD
:1028880030010010340100103C17004000ED00E05A
:1028980000E001400400FA051C0000200090D0036D
:1028A8007F2805D8034B185C034B5B5C18407047C6
:1028B80000207047982C0000182D0000A0F161033B
:1028C800192B98BF20387047A0F14103192B98BFE6
:1028D800203070477F2805D8034B185C034B5B5C9E
:1028E8001840704700207047982C0000182D0000F1
:1028F800A0F16103192B98BF20387047A0F141035C
:10290800192B98BF203070477F299ABF017001208A
:102918006FF02E0070475AB10A787F2A0AD800B1A2
:102928000260002119605960501A18BF01207047D1
:10293800002070476FF02E007047000008B5034B69
:102948005B689B681B68984708BD00BF2000002093
:1029580008B50921FFF7F2FF08BD844640EA0103E4
:1029680013F0030F18D18446202A0BD32DE9F00762
:10297800B1E8F807A0E8F807A2F12002202AF7D268
:10298800BDE8F007042A07D351F8043B40F8043B9C
:10299800A2F10402042AF7D2002A05D011F8013B5B
:1029A80000F8013B013AF9D1604670478446002A95
:1029B8002DD010F0030F04D000F8011B013A26D0E7
:1029C800F7E7C9B241EA012141EA0141202A12D3BD
:1029D800A2F120022DE9F0030B460C460D460E46E7
:1029E8000F4688468946A0E8FA03203AFBD2BDE89C
:1029F800F00320320BD0042A05D340F8041B043A14
:102A080005D0042AF9D200F8011B013AFBD160462F
:102A1800704700F1010110F0030F11D010F8012BDD
:102A2800002A23D010F0030F0AD010F8012B002A37
:102A38001CD010F0030F03D010F8012B002A15D07A
:102A48002DE970004FF001324FF0803350F8044BFD
:102A5800A4EB020525EA04051D4000D1F6E7A0F124
:102A6800040070BC10F8012B002AFBD1A0EB010078
:022A78007047A5
:102A7C00262C0000000000002A2C000000000000A2
:102A8C002F2C000000000000342C0000000000007F
:082A9C00252B000000000303DC
:102AA400E82A000000000000F42A000014000020BE
:102AB4007800002040010020480100208000002010
:042AC40018000000F6
:102AC800FFFFFFFFFFFFFFFFFFFFFFFFFFFFFFFF0E
:102AD80000000000000000000000D6010601000010
:102AE8000105000065050000B104000075617274FD
:102AF8005F6C6F675F6261636B656E640000000006
:102B08006C0500207F000000EC0500204261636B2B
:102B1800656E647320666C757368656400617070B7
:102B2800000000005F2B0000A82B0000672B0000AE
:102B3800B02B0000B82B0000C02B0000C82B0000F1
:102B4800D02B0000D82B0000202530327800202020
:102B580020007C002563001B5B306D002573001B83
:102B68005B313B33316D0025734C6F6773206472A2
:102B78006F70706564202825642925730D0A003C50
:102B880025733E2025733A20000000000000000055
:102B9800F92B0000E02B0000E82B0000ED2B0000D3
:102BA8001B5B313B33306D001B5B313B33326D00B7
:102BB8001B5B313B33336D001B5B313B33346D00A2
:102BC8001B5B313B33356D001B5B313B33366D008E
:102BD8001B5B313B33376D007761726E696E67003E
:102BE800696E666F00646562756700466174616C42
:102BF800206572726F720053797374656D20726507
:102C080073657400303132333435363738394142E0
:102C180043444546000000000338FDD87047505231
:102C280053005457494D0055415254005541525490
:102C380045000000000000000338FDD87047000080
:102C4800000000000030004000000000010000000B
:102C58000D0A5457492073656E736F722065786149
:102C68006D706C6520737461727465642E005465B0
:102C78006D70657261747572653A202564204365CC
:102C88006C7369757320646567726565732E0000DF
:102C980020202020202020202068282828282020C4
:102CA800202020202020202020202020202020201C
:102CB80048101010101010101010101010101010D4
:102CC8008484848484848484848410101010101074
:102CD80010818181818181010101010101010101CD
:102CE8000101010101010101010101101010101081
:102CF800108282828282820202020202020202029E
:102D08000202020202020202020202101010102045
:102D18000007032004170201085710408000000034
:102D2800CC2E0000902D0000A42E000053756E00DC
:102D38004D6F6E00547565005765640054687500E2
:102D48004672690053617400000000004A616E0019
:102D5800466562004D617200417072004D617900F4
:102D68004A756E004A756C004175670053657000BE
:102D78004F6374004E6F76004465630000000000E6
:102D8800414D00504D000000C82E0000C42E000028
:102D9800C42E0000C42E0000C42E0000C42E000063
:102DA800C42E0000C42E0000C42E0000C42E000053
:102DB800FFFFFFFFFFFFFFFFFFFFFFFFFFFF000019
:102DC800042E0000342D0000402E0000542D000079
:102DD800882D0000E82D0000982E0000F42D00003A
:102DE800256D2F25642F25790000000025612025F9
:102DF80062202565202554202559000053756E64EE
:102E08006179004D6F6E6461790054756573646112
:102E180079005765646E65736461790054687572EA
:102E280073646179004672696461790053617475ED
:102E380072646179000000004A616E756172790000
:102E48004665627275617279004D6172636800410E
:102E58007072696C004D6179004A756E65004A753B
:102E68006C79004175677573740053657074656D8E
:102E7800626572004F63746F626572004E6F7665AB
:102E88006D62657200446563656D6265720000007D
:102E980025483A254D3A255300000000A92800008E
:102EA800C5280000D1280000DD280000F92800000E
:102EB80005290000112900001F290000000000005A
:102EC8002E00000043000000504F534958000000F6
:102ED800000000000020004000000000002000402A
:102EE8000000000000000000FF0000000090D00378
:102EF800282D0000282D0000282D0000282D000076
:042F0800282D000070
:04000003000003797D
:00000001FF
