:020000022000DC
:1060000000F0032059620200896202008B620200E4
:106010008D6202008F6202009162020000000000A7
:106020000000000000000000000000009362020079
:10603000956202000000000097620200996202006F
:106040009D6202009F620200A1620200A362020040
:10605000A5620200A762020061710200AB62020049
:10606000AD620200AF620200F5670300B362020096
:10607000B5620200B7620200B9620200BB620200B0
:10608000BD620200459E0300C9B80200C36202005F
:106090006D9E0300C762020035FB0300CB62020065
:1060A000CD620200CF620200D1620200D362020020
:1060B000D5620200D76202009B6202009B6202006E
:1060C000D9620200DB620200DD620200DF620200D0
:1060D000E1620200E3620200E5620200E7620200A0
:1060E000E9620200EB620200ED6202009B620200C4
:1060F0009B620200F16202009B620200EF620200FA
:10610000354936480A1A02D0072291438D46344950
:1061100034480A1A06D00722914381F309880222E3
:1061200082F3148830483149314A00F043F831484D
:106130003149324A00F03EF831483249324A00F0E3
:1061400039F832483249334A00F034F8324833499A
:10615000334A00F02FF833483349344A00F02AF824
:1061600033483449344A00F025F834483449002291
:1061700000F02BF833483449002200F026F8334869
:106180003349091A082903DB002202600430016048
:106190001F482049884205D00268043003B4904764
:1061A00003BCF7E700208646EC4600200021294A80
:1061B0009047FEE7884207D0521A05D00378013095
:1061C0000B700131013AF9D17047884202D0027058
:1061D0000130FAE77047000000F0032000E80320D8
:1061E00000F0032000F0032024170400C832002030
:1061F00080340020F4620200F4620200F0FE03002A
:1062000024170400C8320020C8320020FCFF03001D
:10621000FCFF0300FCFF0300FCFF0300FCFF030086
:10622000FCFF0300FCFF0300FCFF03002417040035
:10623000DC180400803400208034002080340020EA
:10624000336C0020346C0020346C0020346C00204F
:10625000347000203D69020008484FF00701884370
:106260008546074880470748016841F4700101608E
:10627000BFF34F8FBFF36F8FFFF742BF00F00320D4
:1062800031A0030088ED00E0FEE7FEE7FEE7FEE751
:10629000FEE7FEE7FEE7FEE7FEE7FEE7FEE7FEE7D6
:1062A000FEE7FEE7FEE7FEE7FEE7FEE7FEE7FEE7C6
:1062B000FEE7FEE7FEE7FEE7FEE7FEE7FEE7FEE7B6
:1062C000FEE7FEE7FEE7FEE7FEE7FEE7FEE7FEE7A6
:1062D000FEE7FEE7FEE7FEE7FEE7FEE7FEE7FEE796
:1062E000FEE7FEE7FEE7FEE7FEE7FEE7FEE7FEE786
:0462F000FEE700BF06
:1062F40041DF704776DF70477ADF70477CDF704795
:10630400012925D0A1B1102932D14FF0A0434FF477
:106314008032C3F80C254FF40042C3F808254FF42B
:106324008042C3F808254FF40052C3F8082570478B
:106334001A4B1A7811461F2A07D902F01F01184A6E
:1063440001238B40C2F80C3570474FF0A042F7E7A9
:10635400124B1A7811461F2A07D902F01F01104A5E
:1063640001238B40C2F8083570474FF0A042F7E78D
:106374000A4B19700A461F290DD901F01F0208495A
:1063840001239340C1F808354FF0A0434FF4803205
:10639400C3F8082570474FF0A041F1E7803400208E
:1063A4000003005008B504F0F9F908BD2DE9F041E7
:1063B40088B004AF64212D4800F0D4FD09F0CCFB73
:1063C400A0B92B4B1B78BBB101F09AF8294B1B6881
:1063D40013F4804F46D0284B1B68032B42DDE8465C
:1063E4008AB00DF1100C6646002326E0234A4FF4D0
:1063F400BB7113F013FFE4E7214A3B1D07CA83E88E
:106404000700184600F048FD0028DDD01B4A40F282
:10641400811113F003FFD7E7C25C4FEA121E590043
:10642400184C256815F80EE006F813E002F00F0288
:1064340001312468A25C725401330F2BECD9002380
:106444008CF82030104BD3F80435CDF808C00F4A2F
:1064540001920F4A009240F285120E49042006F080
:1064640033FAC5461037BD46BDE8F081E96602003F
:106474008134002088330020843300204401040048
:10648400FCFF03008C33002000B00040AC0104008A
:10649400BC010400A401040000B583B09DF80430DD
:1064A400012262F3030362F3071302A800F8043D18
:1064B40011220549FFF722FF10B903B05DF804FB70
:1064C40013F09EFEF9E700BF3000040008B513F096
:1064D40097FE08BD00B583B0037823B1012B0BD020
:1064E40003B05DF804FB3B214088FFF703FF00285D
:1064F400F6D013F085FEF3E7094B1B6813F4804FC5
:10650400EED0084B1B68032BEADD074BD3F80435A8
:10651400064A0092F0220649042006F0D5F9DFE786
:10652400883300208433002000B00040E4000400DD
:10653400A401040000B58BB00023ADF80830782323
:10654400ADF80430C823ADF806304FF4C873ADF885
:106554000A3001A8FFF7D0FEC0B9002306930793C1
:1065640001AB039340F6CD4304934FF4803305937A
:1065740003238DF81830084B0893084B099303A89C
:1065840013F04CF928B90BB05DF804FB13F038FE96
:10659400E3E713F035FEF6E7D9640200D1640200A4
:1065A40000B585B0204B1B6813F4804F03D01F4BFC
:1065B4001B68032B1DDCFFF76FFFFFF7BBFF03A86E
:1065C4000EF012FB184B1B6813F4804F03D0174BCB
:1065D4001B68032B18DC00214FF4F03000F037FD6A
:1065E4000422C8214FF4F03000F03CFD05B05DF802
:1065F40004FB0F4BD3F804350E4A0092FB220E49DC
:10660400042006F061F9D6E7094BD3F80435BDF848
:106614000C200192094A009240F203120649042018
:1066240006F052F9D7E700BF8833002084330020F6
:1066340000B0004010010400A40104002C01040077
:1066440010B50C460D2000F0E5FC207010BD0000D4
:1066540010B582B004461C4B1B6813F4804F03D062
:106664001A4B1B68032B17DCA4B9174B1B6813F4D4
:10667400804F03D0154B1B68032B19DC0D2000F051
:10668400C9FC80F00101C9B20D2000F0CFFC104814
:1066940000F0FEFA02B010BD0E4BD3F804350190A1
:1066A4000D4A0092B8220D49042006F00DF9DBE7EB
:1066B400084BD3F804350A4A0092C0220749042043
:1066C40006F002F9DAE700BF8833002084330020A3
:1066D400C832002000B000400C000400A4010400F3
:1066E400200004003038042800D9704708B5FFF7AB
:1066F400AFFF08BD00B58FB0184BDB680EA941F899
:10670400143D04220AA800F05FFDD0B92022002124
:10671400684619F086FB01238DF8003007238DF8B5
:1067240003308DF808300AAB03930D4B04930D4BE3
:1067340008930D49684609F0D3F940B90FB05DF8E4
:1067440004FB0A4A4FF48A7113F068FDDEE7074A36
:1067540040F21D1113F062FDF0E700BFFCFF0300DF
:106764002D6902008968020081340020440104007C
:1067740000B585B0314A042146F2010006F088F8DC
:106784002F4B1B6813F4804F03D02E4B1B68032B35
:106794002CDC13F06DFBA8BB00F094FC4FF0A0437D
:1067A4004FF40042C3F80C25274800F0ABFC78BB3B
:1067B40019F030F990BB254B93F816335B09072B7E
:1067C4002FD104A9002341F8043D012012F070FEEA
:1067D40068BB03A812F0BEFE60BBFFF75DFEFFF7C7
:1067E400A9FEFFF787FF05B05DF804FB184BD3F84B
:1067F4000435184A00924FF4AA721749042006F08F
:1068040063F8C6E7154A4FF4AB7113F007FDC3E70D
:10681400124A40F25D1113F001FDC9E713F0F0FCD8
:10682400C9E70F4A6421032013F0F8FCC9E713F009
:10683400E7FCCEE713F0E4FCCFE700BF69C8020031
:1068440088330020843300205566020000E100E014
:1068540000B0004044000400A4010400440104000A
:106864007C00040008B50021044800F033FA00B9A4
:1068740008BD034A9A2113F0D1FCF9E7C83200207D
:106884004401040000B583B00C4B1B6813F4804F23
:1068940003D00B4B1B68032B04DCFFF7E3FF03B0AF
:1068A4005DF804FB074BD3F80435074A009240F225
:1068B4000B120649042006F007F8EEE7883300209F
:1068C4008433002000B00040A8000400A4010400A8
:1068D40000B583B00F4B1B6813F4804F03D00E4BED
:1068E4001B68032B0ADC0322C8214FF4F03000F0AC
:1068F400B9FB09F043F903B05DF804FB074BD3F887
:106904000435074A0092A8220649042005F0DCFF5A
:10691400E9E700BF883300208433002000B0004042
:10692400C8000400A401040008B503781C2B00D09F
:1069340008BDFFF7CDFFFBE708B5FFF719FFEFF33D
:10694400108572B6174B9B689BB9164A0123936056
:10695400154BD3F88010154801401160C3F880002E
:10696400D3F8841051604FF0FF32C3F88420002420
:1069740000E0012405B962B6FFF718FD094B9B68D6
:106984006BB164B9EFF3108172B6064B1868064A0E
:1069940010605868506000229A6001B962B6FFF72F
:1069A400A7FCFCE7606A002000E100E0FC06FFBDF4
:1069B40030B583B0044615461C4B1B6813F4804F56
:1069C40003D01B4B1B68032B11DCA36B04F13C01AC
:1069D4002046984794F83C302B7094F83D306B7007
:1069E400236C0BB1626C6AB16B6003B030BD114BA8
:1069F400D3F80435104A0092AA221049042005F065
:106A040063FFE2E713F0AEFAA16C13F0B1FA4FF4AE
:106A14007A7303FB00F0C00B236C834203D310B1E1
:106A2400181A6860E1E700236B60DEE78833002012
:106A34008433002000B0004030020400210204002E
:106A440010B588B00446436CEBB9036C1BB190F8E5
:106A54003D20012A17D194F83D2084F83C208DF87C
:106A640018208DF81920079306A9204618F0B2FEC5
:106A740094F84C303BB9636B94F83C10204698472B
:106A8400012384F84C30104B1B6813F4804F03D05F
:106A94000E4B1B68042B01DC08B010BD0C4BD3F863
:106AA400043594F83C2094F83D10206C0490606CFC
:106AB400039002910192074A00928522064905201B
:106AC40005F002FFE8E700BF88330020843300208C
:106AD40000B000407402040021020400F0B583B049
:106AE4000446036B186813F027FA636C8BBB236CA2
:106AF4006BB35E0CDD034FF47A72002315F5FA7064
:106B040046F1000119F018F8B0F1807F35D204285D
:106B14003CD9236B22460146186813F0EFF9054669
:106B240013F020FAA06495B11C4B1B6813F4804F3A
:106B34000DD01B4B1B68002B09DD1A4BD3F8043511
:106B4400194A009268221949012005F0BDFE03B0DC
:106B5400F0BD226B15685F0CDE034FF47A720023DC
:106B640016F5FA7047F1000118F0E6FF22460146D7
:106B7400284613F0C3F90546D5E7236B22466FF088
:106B84007F41186813F0BAF90546C9E7236B22461A
:106B94000521186813F0B2F90546C1E788330020CF
:106BA4008433002000B00040540204002102040099
:106BB400F0B583B0044617461E46089D1A4B1B6861
:106BC40013F4804F03D0194B1B68032B1BDC0023E9
:106BD40084F84C303B7884F83D300EB373686364BA
:106BE400336823642046FFF72BFF2046FFF776FF28
:106BF4003DB194F83C302B7094F83D306B70236CAD
:106C04006B6003B0F0BD0A4BD3F8043512780192DF
:106C1400084A0092CC220849042005F055FED6E724
:106C2400002363642364DDE7883300208433002079
:106C340000B000403C020400210204002DE9304869
:106C44000446436CABB9056CBDB14FEA554C4FEAF1
:106C5400C53B4FF47A7200231BF5FA704CF1000126
:106C640018F06AFFB0F1807F0CD3A5F2FF152564FC
:106C740003E000234364FFF7E3FE2046FFF72EFF03
:106C8400BDE83088002323642046FFF7D9FEF4E7EB
:106C940010B582B00446836B00F13C01984794F828
:106CA4003C3084F83D30002363642364236B18680C
:106CB40013F042F994F83C308DF8003094F83D30EC
:106CC4008DF80130236C01936946204618F082FD4B
:106CD40002B010BDA0B110B504460D4AC262426BA9
:106CE4008AB1826B8AB118F03FFD034608B1184699
:106CF40010BD084A0021206B13F0EAF80346F6E7BA
:106D04000E23184670470E23F1E70E23EFE700BF6A
:106D14004C020400416C0200324B1B78002B5FD004
:106D240000B585B0012804D0032847D005B05DF82C
:106D340004FB04A9002341F8083D012012F0B8FB2C
:106D440048BB02A812F006FC40BB04A9012341F889
:106D5400043D0DF106000EF07FFC10BBBDF80600EB
:106D64000EF018F90DF105010EF066FAE0B90AF01B
:106D740063F99DF8051000200AF09CFAB8B903F0F5
:106D840073FCC0B9174B00221A70174B1B68002BF9
:106D9400CCD09847CAE713F033FAD2E713F030FAAD
:106DA400D3E713F02DFAD9E713F02AFADFE7784690
:106DB40000F074FBE3E713F023FAE3E718F02AFE8C
:106DC40058B90A4B93F816335B09072BAED0084A1F
:106DD4006421032013F022FAA8E713F011FAF0E774
:106DE400704700BFA5340020A834002000E100E073
:106DF4007C00040008B5084B01221A7003F086FCDD
:106E040018B918F04DFE18B908BD13F0F9F9F8E7F0
:106E140013F0F6F9F8E700BFA534002008B5032302
:106E2400002203494968034814F006F808BD00BF6E
:106E3400A8340020EC36002008B50378072B0DD0C9
:106E44000A2B16D0022B00D008BD104B1B7813B9A7
:106E5400FFF7E4FFF8E7FFF7CDFFF5E710220C4B4F
:106E640099680C4814F072F80028EDD013F0C8F9B2
:106E7400EAE78168C06808F0E2FD18B9034B012213
:106E84001A70E1E713F0BCF9F8E700BFA43400205E
:106E9400A8340020EC36002010B586B00446214A00
:106EA40003AB07CA03C323F8022B120C1A701E4B40
:106EB40094E8070083E80700002A31D01B491C48E6
:106EC40013F09EFF034610B1184606B010BD194BCF
:106ED400009303AB154A1649174813F04DFF0346B8
:106EE4000028F1D1154815F013FB0146124813F0A0
:106EF4006FFF03460028E7D1114813F0F5FA034663
:106F04000028E1D10E4813F025FB01460A4813F08E
:106F14005FFF03460028D7D1FFF780FF0346D3E77E
:106F24000723D1E7B4020400A8340020B4340020BD
:106F3400203800203D6E0200EC360020D4340020BE
:106F44009C36002008B5064B1B683BB110F04EFD83
:106F5400002803DB024B1B689847F7E708BD00BF16
:106F64006038002010B50C46144B1860144A0121F7
:106F7400144812F0ADFFA0B9610CE00341F26F7246
:106F840000238B4208BF824210D24FF47A7200234E
:106F940018F0D2FD014600220B4812F0AFFF38B9B9
:106FA40010BD0A4A462113F039F9E5E70521F2E755
:106FB400064A472113F032F9F2E700BF6038002097
:106FC400496F0200C002040064380020C4020400B7
:106FD40008B50D4B1B6873B14FF0A042D2F80435CD
:106FE4000A4909684B40C2F80435074A1368013B53
:106FF400136023B108BD002013F002F9ECE7044844
:1070040012F09AFFF6E700BF843800208838002089
:107014008C3800204FF0A043D3F80425012303FA51
:1070240000F002420CBF18460020704739B9012312
:1070340003FA00F04FF0A043C3F80805704701239A
:1070440003FA00F04FF0A043C3F80C05704721B9D0
:107054004FF0A043C3F8080570474FF0A043C3F8AE
:107064000C05704712B11346132900D8704770B548
:10707400114A10605B00013B104A136000264D0C5E
:10708400CC034FF47A72002314F5FA7045F1000131
:1070940018F052FD32460146094812F02FFF48B954
:1070A4004FF0A042D2F804350349096823EA0103EA
:1070B400C2F8043570BD00BF883800208438002031
:1070C4008C38002008B50D230BE04FF0A04103F5E8
:1070D400E072032041F8220001229A40C1F80825F9
:1070E4000133102BF1D9054A0121054812F0F0FEB5
:1070F40000B908BD13F084F8FBE700BFD56F0200A8
:1071040020030400F0B1104A1060002309E00F4A84
:10711400D25C02F5E0724FF0A0410D4841F8220024
:107124000133032BF3D90B4B4FF00042C3F8042374
:107134000020C3F87C01084BE02283F80623402298
:107144001A6070470E207047AC38002024030400F6
:107154000C0003000060004000E100E010B50024D2
:10716400144BC3F87C410EE043F23333994208D9FF
:10717400114BD3F80425114B1A60114B1B682046A0
:1071840098470134E4B2032C12D84FF0A043D3F84B
:1071940010250C4B195D01238B409343F1D0074B11
:1071A4001B68054AD2F80425991ADDD5D11ADBE704
:1071B40010BD00BF0060004000B00040B0380020A7
:1071C400AC38002024030400082A10D838B514462B
:1071D400054618F0FDFDC4F108020021281918F035
:1071E40020FE044B03CBA860E960002038BD0920D1
:1071F400704700BF6000001072DF704773DF704794
:1072040074DF70472DE9F047A2B0074688469146DF
:10721400314C0026C4F80660E68130490B78C3EB94
:1072240043102F4D054425602E4A0244A2601F22BC
:10723400A280A281013303F001030B704FF03C0ADA
:107244005246314613A818F0ECFD06238DF84F3052
:10725400ADF8487001238DF84A30ADF85C3012AABD
:107264001892ADF83C70ADF84090CDF844800DEB29
:107274000A021D928DF8783052463146684618F05D
:10728400D0FD02238DF80030221D294613A812F0E8
:1072940005F890B9104B03F10C029968684611F097
:1072A400FDFF68B9104A0C491048FFF7A5FF0828EC
:1072B40009D070B922B0BDE8F08712F0A1FFE9E768
:1072C40012F09EFFEEE7002203490848FFF794FFFF
:1072D400EFE712F095FFEDE7F8380020B43800200E
:1072E400B8380020083900201C330020183300204F
:1072F400034B00EB800042009A819960704700BF05
:107304001C33002008B50121054B1878FFF776FFE0
:1073140010B904F011F908BD12F072FFF9E700BFCB
:107324001833002008B5044B1878FFF769FF00B93B
:1073340008BD12F065FFFBE71833002006207047F4
:1073440000B587B041F20103984245D020D944F2F8
:107354000103984256D044F2020398426DD1454B42
:107364001B6813F4804F1ED0434B1B68002B1ADD9F
:10737400424BD3F80435108803905268029201916D
:107384003F4A00925F223F49012005F09DFA0AE03E
:10739400012852D1374B1B6813F4804F03D0364B6E
:1073A4001B68002B0BDC4FF0A0434FF4F032C3F802
:1073B4001825C3F80C25EFF3108372B653E02F4B56
:1073C400D3F80435029201912F4A009254222D4998
:1073D400012005F079FAE6E7264B1B6813F4804F89
:1073E400E1D0254B1B68002BDDDD244BD3F804359D
:1073F40002920191254A009257222249012005F068
:1074040063FAD0E71B4B1B6813F4804FCBD01A4BA5
:107414001B68002BC7DD194BD3F8043510680490A2
:1074240050680390029192680192194A009269226D
:107434001449012005F048FAB5E70E4B1B6813F414
:10744400804FB0D00C4B1B68002BACDD0B4BD3F83A
:10745400043501910F4A00926D220A49012005F07A
:1074640033FAA0E730BF0C4B1B78002BFAD107B0DE
:107474005DF804FB883300208433002000B0004012
:10748400C80304007503040088030400A403040073
:10749400E80304000C0404003433002000B583B076
:1074A4000023ADF80030054B01936A46014644F2CF
:1074B4000200FFF745FF03B05DF804FB0804040075
:1074C40010B40346044C006859689A68DB680FC41A
:1074D4005DF8044B704700BF48390020064B074A4B
:1074E40092E8030083E803000833443292E803007F
:1074F40083E80300704700BF483900206000001093
:107504000048704748390020002308E0074901EB90
:10751400C30000224280426001F8332001331F2B54
:10752400F4D9034B00221A60704700BF5839002079
:10753400583A002030B405460F4B1B6800240AE07B
:107544001F230E4A12F83300A0B102EBC302528883
:10755400AA4207D001341F2C0BD85A1E002BEFD09F
:107564001346EEE7054A02EBC30252688A42F1D1A0
:1075740000E0002030BC7047583A00205839002001
:1075840030B40A4A13680A4C04EBC3056880696086
:10759400012104F833100B441360202B01D030BCBC
:1075A4007047134600221A60F9E700BF583A0020DA
:1075B40058390020C0F30C038B4202D3C91A084483
:1075C4007047C91A0844A0F500507047C37D002BCA
:1075D40042D083780A7802F0800203F07F031343D9
:1075E4000B7002780B7803F07F0343EAC2130B702D
:1075F4000378002B41D030B44378082B14BF002209
:1076040001224B7803F07F0343EAC2134B70858851
:1076140003F08003C5F3861423434B708A7802F089
:10762400030242EA8502D2B28A70857902F0FC0232
:10763400C5F3C10422438A70CB7803F01F0343EAE5
:107644004513DBB2CB70C27903F0E00302F01F02F2
:107654001343CB7030BC704783780A7802F0BF02C2
:107664009B0103F0400313430B70C27803F0C00383
:1076740002F03F0213430B70B3E770470023032B60
:1076840022DC10B402E00133032B19DC0F4C6C2212
:1076940002FB034292F84420012AF4D16C2202FB3B
:1076A4000342948AC2899442EDD1084C6C2202FBB5
:1076B400034292888A42E6D16C2202FB034000E036
:1076C40000205DF8044B704700207047D03A00203A
:1076D400002300E00133032B13DC0B496C2202FB73
:1076E400031292F84420022AF4D16C2202FB031202
:1076F400918A828A9142EDD103486C2202FB0300F5
:1077040070470020704700BFD03A002008B108201D
:10771400704704207047000038B505460C46CB6915
:107724005B78C370CB691B7883F001038370CB69EA
:107734004362087B022814D0FFF7E8FF6870E27AFE
:1077440032B9A18AC0F10F03994201DC082831D073
:10775400A18A0346C0F10F00814207DC42B3012233
:1077640005E0154B987DFFF7D1FFE7E701222A706A
:1077740062B1A28A13440B33104A82FB0312DB1753
:10778400C3EB6203013BEB710023AB710023EB7588
:1077940005F10C0294E8030082E80300A2692A625E
:1077A4002289AA82A27AAA75226AAA62184638BDD8
:1077B4000022DCE70720FAE7B83A0020ABAAAA2A9D
:1077C40030B403460C460978817000214162A168F7
:1077D4000B2903D8217BF1B1012100E001211970AB
:1077E4000020587029B1A1680731C9080139D9713D
:1077F40098710121D97503F10C0504F1100103C935
:1078040085E80300E1899982A1691962217F99754C
:107814009A6230BC70470021E1E700000021164B5A
:107824001B688B4226D90023144A02EBC10252681A
:107834009A421DD910B4114A52F8312002EBC30404
:1078440012F8332082420DD001330C4A02EBC102FC
:1078540052689A42EFD80131074B1B688B4205D915
:107864000023F2E760685DF8044B70470020FAE7F4
:107874000131D4E7002070475C3A0020603A0020D0
:1078840070B58CB006460D4614462C22002101A882
:1078940018F0C7FA0E238DF80430ADF808604FF0E5
:1078A400000365F300038DF80A308DF80B4001A83E
:1078B40001F0F8F80CB070BD30B58DB005460C463B
:1078C4002C22002101A818F0ACFA0F238DF8043003
:1078D40002958DF80C4001A801F0E4F80DB030BD1C
:1078E40000B58DB048B913F1020F06D001228DF80E
:1078F4000420029301A801F0D5F8034B186803F0A3
:1079040011FF0DB05DF804FB6C3A00202DE9F04145
:10791400054688460378BBB10D4B1C68621C1A608F
:1079240004F00704AB8A0B4F07EBC4067380A988E5
:10793400A869FFF73FFE7060EB6903F00103737001
:1079440007F83480BDE8F0817846FFF7A7FDE3E748
:10795400B43A0020743A002070B5064603784BB15F
:10796400B58A347F04F00104B188B069FFF722FEC0
:10797400002304E07846FFF791FDF1E70133072B7C
:1079840015D80C4A02EBC30252688242F6D1094A66
:1079940002EBC3025288AA42F0D1064A02EBC302A8
:1079A4005278A242EAD1034800EBC30000E0002071
:1079B40070BD00BF743A0020F0B40D684C688F6845
:1079C400CE68D5601461576196610D694C69D561C3
:1079D40014620378DB091370D17DF9B1037803F0E5
:1079E4007F0393700023537013789BB143789B01FA
:1079F40003F4FE53817843EA910393808378DB0098
:107A040003F01803C17843EA51139371C37803F068
:107A14001F03D37100235362F0BC70470178C1F394
:107A240080119170017801F03F01D17043B190F958
:107A34000130002B02DB04235370D5E70823FBE756
:107A440004235370D0E770B50C461E4603788BB1FF
:107A540004252A44A26000F10C032360836A636056
:107A6400204604F0C1F9024610B923691D4435606B
:107A7400104670BD0125ECE72DE9F0418EB00D46AE
:107A840016461C46804600282DD0002D2FD0002CF1
:107A940031D0636A0233059304F10C00A378002B00
:107AA4002DD00121627801AF3B46082A14BF002281
:107AB400012203F07CFF0697CDF81C80B2B2ADF82A
:107AC40020200B9515440C9563788DF83430237B76
:107AD400022B16D00023ADF8283005A803F05FFF71
:107AE4000EB0BDE8F0817846FFF7D8FCCDE77846C4
:107AF400FFF7D4FCCBE77846FFF7D0FCC9E70221B7
:107B0400D0E723692BB1236909931023ADF82830FA
:107B1400E3E77846FFF7C2FCF5E72DE9F04186B0CC
:107B240004460D46C37D002B3ED0082605FB06F80F
:107B3400E379AB423AD0A5716B46324601A920469F
:107B4400FFF781FF074648BB4DB994F84F3033B96E
:107B5400A369C3F30C03A380012384F84F30E37DAE
:107B64007BB994F84E3063B92DBBB4F846106278F3
:107B740023468A1AA16E0846FFF77EFF012384F884
:107B84004E3005992046FFF721FDA16E324641444F
:107B9400009818F01DF901A804F040F9B7FA87F02D
:107BA400400906B0BDE8F0810C26BFE7B4F8466092
:107BB400A6EB0806BFE77846FFF770FCD5E770B57B
:107BC400054690F84C40002605E00136631C85F814
:107BD4004C300134E4B2EB79A3420AD3AA6C0123FA
:107BE400A3401A42F5D121462846FFF796FF002804
:107BF400EBD1304670BDF0B587B045781544C37DF0
:107C0400DBB10B239D4221D816460F4604466B4632
:107C14002A4601A9FFF717FF0546C0B90599204672
:107C2400FFF7D4FCE37D53B132463946009818F08F
:107C3400CFF801A804F0F2F809E00F23E2E72346A5
:107C4400324600993846FFF717FFF2E70925284620
:107C540007B0F0BD10B5044690F84430012B0ED1A6
:107C6400237B012B0FD00C4BDB68A36303F0AAF832
:107C7400A16B014404F12C0003F034F810BD7846E4
:107C8400FFF70CFCECE7A37D034AD168126902FB01
:107C94000313A363EAE700BFB83A002038B5002411
:107CA40000E00134032C13D80A4A6C2303FB042399
:107CB40093F84430012BF4D16C2505FB04252846A8
:107CC400FFF77DFF0028ECD02846FFF7C3FFE8E765
:107CD40038BD00BFD03A002038B5044690F844308F
:107CE400022B02D07846FFF7D9FB054B1D6803F041
:107CF40069F8411904F12C0002F0F4FF38BD00BF0B
:107D0400B83A002038B5044690F84430022B02D02B
:107D14007846FFF7C3FB084B5D7D5A689B6803FBFD
:107D2400052503F04FF8411904F14C0002F0DAFF85
:107D3400012384F8643038BDB83A002010B50446F5
:107D44000D4B1B68806E984704F12C0002F0B2FFC3
:107D540094F84430022B0AD06C220021204618F0FB
:107D640060F8002084F8440002F078F810BD04F1B3
:107D74004C0002F09FFFEFE7703A002010B5044674
:107D84000121FFF7C3FD2046FFF7D8FF10BD10B552
:107D94008CB0044690F84430012B02D07846FFF7AB
:107DA4007DFB01238DF80430236D029301A800F0BC
:107DB40079FE2046FFF7C2FF0CB010BD2DE9F0415B
:107DC40004460E4615461F46531EDBB2012B46D809
:107DD400A36E13B17846FFF761FB2E4B1B68384640
:107DE4009847A066002852D03346224606F1200167
:107DF400D3F80080D3F804E0D3F808C0D868C2F8F8
:107E04000080C2F804E0C2F808C0D0601033103219
:107E14008B42EDD1186859689B681060516093607B
:107E24000023A364A4F84670B188B069FFF7C2FBCD
:107E3400A061012D17D06FF00103A362002384F821
:107E44006430154B6365E465144B6363E46301209C
:107E540002F004F884F844500120BDE8F08178462B
:107E6400FFF71CFBB4E70E4B1B7D84F84D30002359
:107E740084F84E3084F84F3084F84C30B36A23656C
:107E84006FF00103A362074B6363E463DFE7002041
:107E9400E3E700BF683A0020EB890200D17F0200CB
:107EA400B83A0020DD7F020030B583B0C3790133D6
:107EB400C27D92B1082505FB03F582B14FF48073AE
:107EC400AB422AD21E4B1B6813F0040F36D01D4B55
:107ED4001B68002B06DC00242DE00C25EBE74FF497
:107EE400C073EDE7184BD3F804350195174A009297
:107EF40040F263221649012004F0E6FC00241AE053
:107F0400144C6C2303FB02442B46022201462046F8
:107F1400FFF754FF78B900240DE00022032A09DC9E
:107F24000C4B6C2404FB023494F84430002BE7D04F
:107F34000132F3E70024204603B030BD0024FAE701
:107F4400883300208433002000B00040A0040400E3
:107F540093040400D03A002030B585B00D460446A1
:107F6400A8B100212046FFF7D1FC2946206DFFF778
:107F7400A3FC2046FFF7E2FE0F4B1B6813F0040F2F
:107F840003D00E4B1B68032B05DC05B030BD7846CF
:107F9400FFF784FAE5E70A4BD3F8043594F8442054
:107FA40002950192074A00924FF4D67206490420C2
:107FB40004F08AFCE9E700BF883300208433002002
:107FC40000B00040280404009304040008B50846E7
:107FD4000021FFF7C1FF08BD10B50C4691F84430ED
:107FE400012B09D194F84D307BB9237B012B07D0A9
:107FF4002046FFF7CCFE10BD7846FFF74FFAF1E7B5
:1080040001212046FFF7A8FFF5E7013B84F84D3036
:10801400002384F84C302046FFF7D1FDEBE7000045
:10802400062900D0704770B582B0034601788901F3
:1080340001F4FE5140789D78DC78240444EA056418
:108044001D7944EA05245B791C4341EA90011046FA
:10805400FFF714FB0546B8B1866C2643866444B327
:10806400037853B3EB795A1C01239340013B9E429E
:1080740027D0002385F84C302846FFF7A0FD28467A
:10808400FFF7E8FD02B070BD104B1B6813F0040F3E
:10809400F8D00F4B1B68012BF4DD0E4BD3F80435DD
:1080A4000D4A009240F2B9420C49022004F00CFC43
:1080B400E8E70321FFF750FFE4E77846FFF7EEF91E
:1080C400D0E72846FFF763FEDCE700BF88330020D3
:1080D4008433002000B00040B4040400930404007E
:1080E4002DE9F04389B080460F4614461E46957824
:1080F4000DB32846FFF792FB8146C8B18DF80050B6
:10810400236A0693A38AADF80E3004AB04F10C0283
:1081140092E8030083E80300A37D8DF81C30CDF8BA
:108124000480029723788DF80C3031466846C8479E
:1081340009B0BDE8F083FFF773FFF9E700B585B038
:1081440000238DF80F3098B10346084602330B60C4
:108154000DF10F0103F027FC9DF80F3043B10D4BD7
:108164001B6813F0040F03D00B4B1B68032B04DCB8
:108174009DF80F0005B05DF804FB084BD3F80435F7
:10818400074A009240F2EB220649042004F09CFBCB
:10819400EEE700BF883300208433002000B00040A5
:1081A400F4040400930404002DE9F0438FB0044662
:1081B4000E4615461F46D0F81890037823B18188DF
:1081C4004846FFF7F7F9A06104F10C00A378002BEF
:1081D4003AD0012162780DF128084346082A14BFD9
:1081E4000022012203F0E3FBC4F81890CDF80880C4
:1081F40003966378EA1A92B2ADF8102032440892DA
:1082040007978DF824300023ADF81830237B022B18
:108214001CD0A3786BB3237B022B1BD025460023F1
:1082240045F8243F2A46E178206A0DF055FD606A3E
:1082340098B101A9FFF782FF00283AD12A46E178D4
:10824400206A0DF049FDF2E70221C3E71023ADF8DF
:108254001830DEE723690593E0E7237B022B2CD15A
:1082640004F10C01E0890DF0E5FD0028D3D10520CF
:1082740020E000236362237B012B0DD021460023E1
:1082840041F8243FA08A0DF044FD01A9606AFFF77C
:1082940055FFA0B100200DE004F12401E0890DF0A8
:1082A40038FD01A9606AFFF749FF0028E6D00020E5
:1082B40000E000200FB0BDE8F0830520FAE70520B8
:1082C400F8E7000070B5F0B00D4614461E4610AB3A
:1082D4000A4601462046FFF767FFA0B11F4B1B6803
:1082E40013F0040F37D01E4B1B68052B33DD1D4BD9
:1082F400D3F804351C4A00924FF4A5621B490620AA
:1083040004F0E2FA27E003AB01228DF80C20A28AE4
:10831400ADF80E20002204928DF8142010AA0692C3
:108324006278AD1AADF81C5008AA93E8030082E8FD
:1083340003000AAB04F10C0292E8030083E8030093
:10834400A37D8DF83830236A0C93636A0D930F96DE
:1083540005A800F0A7FB70B070BD00BF88330020F3
:108364008433002000B00040180504009304040086
:1083740010B5D47D14B9FFF7A5FF10BDFFF7B0FE0B
:10838400FBE700002DE9F04385B004AF43781344C4
:10839400C47D94B14FF480749C4273D3EFF3108C7A
:1083A40072B60024032C10DC3B4E6C2505FB0465DF
:1083B40095F8445025B10134F4E74FF4C074EBE769
:1083C40035466C2606FB045400E00024BCF1000F83
:1083D40000D162B6002C5AD015460E460146012241
:1083E4002046FFF7EBFC002853D02A463146A06E06
:1083F40017F0EEFC294B1B6813F0040F3AD0284BFE
:108404001B68032B36DD6D46B4F846E04FEA4E0395
:108414000833DB08A5EBC3039D460DF11008C446E1
:10842400002312E0A26ED25C4FEA121959001D48D3
:10843400066816F809600CF8136002F00F020131A7
:108444000068825C0CF8012001337345EAD30023F1
:1084540008F81E30144BD3F80435CDF80880134ABD
:108464000192134A009240F2F7321249042004F0B8
:108474002BFAAD462046FFF7A2FB2046FFF7EAFBA6
:10848400002000E009200437BD46BDE8F083042045
:10849400F9E70420F7E700BFD03A00208833002032
:1084A400843300208C33002000B00040E404040036
:1084B400BC0104009304040070B504460D4616463E
:1084C400808A01F091FF01281AD1237BD3B1022BBA
:1084D4000BD094F91630002B16DB237853B93246AF
:1084E40029462046FFF787FB0BE02369002BF0D1D8
:1084F400102006E0324629462046FFF743FF00E0FD
:10850400102070BD1020FCE70720FAE708B50549E4
:10851400054800F04FF800B908BD7846FEF7BEFFE5
:10852400FAE700BFA1FC03000DFC030010B5FFF740
:10853400EDFF4FF4D8720021134817F072FC05F0D8
:1085440059FB0024114B1C6040222146104817F0AF
:1085540068FC104B104A1A60104A5A604CF25032B0
:108564009A600F49D9601A6104221A759C75082211
:108574005A750C4803F0B6F80B4B18600B4B1C6093
:108584000B4805F03DFC10BDD03A0020B43A002061
:10859400743A0020B83A002080969800F04902000E
:1085A40020A10700A18702006C3A00205C3A002059
:1085B400E578020008B50346B0FA80F040090A469F
:1085C400B1FA81F14909884210D14BB1EFF310801F
:1085D40072B608490B60084B1A6048B962B606E0E7
:1085E400002AF3D1FFF792FF002000E00E2008BD1F
:1085F4000020FCE7683A0020703A0020C0B110B5B2
:108604008CB004460369B3B1C369B3B18369B3B130
:10861400014601A8FFF780F8034610B118460CB0D4
:1086240010BDA28A216901A8FFF746FF0346F5E7BA
:108634000E23184670470E23F0E70E23EEE70E23B1
:10864400ECE7D0B110B58CB004464068B8B1A2696B
:10865400BAB1207C022816D0B8B194F90020002ABF
:1086640015DB0A46214601A8FFF7AAF8A26861684B
:1086740001A8FFF721FF0CB010BD0E2070470E209B
:10868400F9E70E20F7E71020F5E71020F3E70720BD
:10869400F1E70000037B012B01D00020704710B5E7
:1086A4008AB000228388C3F386148DF800409B00AF
:1086B4008DF801300B0E8DF802300B0C8DF8033061
:1086C4000B0A8DF804308DF805100623049301235A
:1086D4008DF81830838AADF81A3007928DF8082087
:1086E400CDF80CD0036A08938DF81420C389ADF833
:1086F4001630837D43B98DF824206FF0010102A860
:10870400FFF79FFF0AB010BD024B5B7D8DF824304C
:10871400F3E700BFB83A002038B500240BE01E4A46
:108724006C2303FB0423DB795A1C01239340013B94
:108734009D4228D00134032C2CD8174A6C2303FB08
:10874400042393F84430022BF4D16C2303FB042359
:1087540093F86430022BEDD16C2000FB0420816C73
:10876400FFF798FF0028E5D10B4A6C2303FB04F3C1
:10877400D11881F864008D6CD35C002BCFD178467E
:10878400FEF78CFECBE7044B6C2000FB0430FFF7B4
:10879400F5FACFE738BD00BFD03A002008B5FFF79F
:1087A4007DFAFFF7B9FF012008BD00002DE9F04173
:1087B40082B007460E46144698461046FEF788FFD8
:1087C400054620B1A28883889A4210D312D8204645
:1087D400FFF7C2F8B8B103784BB123787BB1E179E4
:1087E4004B1C0121994001392046FFF753FF02B089
:1087F400BDE8F0810521FFF7AFFB0025E7E77846E8
:10880400FEF74CFEEBE7002D4FD0464B1B6813F0F0
:10881400040F03D0444B1B68032B55DC2846FFF799
:108824005BFA2B7B012B5DD0AA6CA17901238B40D1
:108834001A42DCD11343AB64A279EB799A4259D042
:10884400E37D002B61D00823B34260D1AB6EA079E5
:10885400E27D002A60D008243246394604FB003009
:1088640017F0B6FAAC6C2B78002B57D0EB795A1C66
:1088740001239340013B9C42B9D1022385F8643023
:10888400A96C2846FFF706FF044643462A46B5F876
:108894004610A86EFFF76CFD002CA8D1002385F8C4
:1088A40064302846FFF76AFAA1E72046FFF7FCFA8E
:1088B40005460028A9D100212046FFF7EBFE02213E
:1088C4000020FEF7F9FF92E7184BD3F80435A2799C
:1088D4000192174A009240F2A7221649042003F09D
:1088E400F3FF9BE795F86430002B9DD12846FFF7F2
:1088F40009FA99E79BB2E27D2AB1082203FB0263DD
:10890400A5F84630A2E70C22F8E70C239CE70421E3
:108914002846FFF721FB6AE70C249DE77846FEF71B
:10892400BDFDA3E7883300208433002000B000405D
:1089340008050400930404002DE9F0418EB00028DA
:108944004DD00546002A4CD0984614460F460022C6
:108954000C920D920CA960880DF06CFA20B90026D7
:1089640030460EB0BDE8F081226902F00102E168F0
:10897400208905F00BF908B10026F1E7226902F01D
:108984000102E168208905F0CDF80646C0B901AAC4
:1089940021462846FFF710F804AB0EAA12E903009B
:1089A40083E8030002F05CFE9DF8043083B1434683
:1089B40001AA391F281DFFF7F9FE02F071FECFE767
:1089C4002169002201F001012089FEF759FFC7E760
:1089D400434601AA791E681CFFF7CAFCEDE70E2680
:1089E400BEE70E26BCE710B50C4691F84430022BC6
:1089F4000BD1022384F86430A16C2046FFF74AFEB1
:108A040010B9002384F8643010BD7846FEF746FDA3
:108A1400EFE70000F8B500B30546164B1F68F7B939
:108A24000E463C46B4420ED205EBC4035B68CBB1A0
:108A340015F8340010F0800F16D1B8B1FEF7EEFE31
:108A4400B0B90134EEE70C4B43F8375003EBC703DE
:108A54005E607B1C074A136002E00E2700E00427D7
:108A64003846F8BD0E27FBE70B27F9E70F27F7E792
:108A74000F27F5E75C3A0020603A0020084B19689C
:108A840061B110B501E021463CB10C680B79002BB3
:108A9400F9D0034803F081FEF5E710BD704700BF2D
:108AA400843C002038B5054630B1104B1C68ACB18D
:108AB4000F4B01221A7004E07846FEF7EFFCF4E74E
:108AC40024683CB12379002BFAD154F8043C28469D
:108AD4009847F5E7064B1B78022B00D038BDFFF70B
:108AE400CDFF034B00221A70F8E700BF843C00203E
:108AF400803C002010B5044630B100232372211DB0
:108B0400034803F01FFE10BD7846FEF7C7FCF4E7E8
:108B1400843C002010B5044650B10A4B1B78013B3D
:108B2400DBB2012B08D9211D074803F036FE10BD26
:108B34007846FEF7B3FCF0E7024B02221A700123D9
:108B44002372F4E7803C0020843C00200A88836878
:108B54009B5A07339BB223F0030313449BB202884E
:108B6400043A934200D900230B80704710B582B0B9
:108B740004468368CB1A02A921F8023DFFF7E6FFF9
:108B8400BDF80630A068184402B010BD008804384F
:108B940080B2704743888268D018D1520123837011
:108BA4007047826800239370438083807047073145
:108BB40089B221F0030189B2428883889A4204D29F
:108BC4009B1A99421CDC0020704710B59A420FD9B9
:108BD4000488A41AA14215D98B4215D3032C03D9B6
:108BE4008368134404229A7000234380184606E0E5
:108BF400826813449B784BB9FFF7D3FF002010BD64
:108C0400042070470020FAE70420F8E70420F6E780
:108C140038B504460D468368828813448B4202D0DB
:108C24007846FEF73BFC0023AB70211D2046FFF77E
:108C34008DFFA288A36813449B78042B00D038BD11
:108C44000023A380FBE710B50C46836842881344D5
:108C54008B4202D07846FEF721FC0023A37010BD9E
:108C640070B5064615460C46002944D0002E46D061
:108C7400B4F1005F08D94FF08053D3F80C3103F5F9
:108C84000023B4EB832F0ED3B4F5000F08D94FF0B3
:108C94008053D3F80C3103F50053B4EB832F02D384
:108CA4007846FEF7FBFB6B1E2344B3F1005F08D943
:108CB4004FF08052D2F80C2102F50022B3EB822F40
:108CC4000ED3B3F5000F08D94FF08052D2F80C211F
:108CD40002F50052B3EB822F02D37846FEF7DEFB97
:108CE400042D10D9358000237380B380B460043D13
:108CF4002580A37070BD7846FEF7D0FBB6E77846B2
:108D0400FEF7CCFBB4E77846FEF7C8FBEAE738B5D4
:108D14000446A0B16288A36813449B78012B12D047
:108D2400A388A1681944EFF3108572B68B78032BDE
:108D34000DD02046FFF735FF05B962B638BD784639
:108D4400FEF7ACFBE6E77846FEF7A8FBE8E720462B
:108D5400FFF70CFFA368C31A638000238370EBE75B
:108D6400F8B50E4615460446C0B1DEB16288A36864
:108D740013449B78012B19D0E5B12046FFF706FF79
:108D8400A84219D329462046FFF711FF0746A0B988
:108D940029462046FFF7FEFE30600EE07846FEF7D7
:108DA4007DFBE2E77846FEF779FBDFE77846FEF7DE
:108DB40075FBE1E7092700E009273846F8BD70B5DF
:108DC4000C4616460546B8B1D4B1A378012B1BD185
:108DD4002388B3421CD3FEB126800223A370E91872
:108DE4002846FFF7B3FE6A88AB889A4203D0AB6883
:108DF400134400229A7070BD7846FEF74FFBE3E7F8
:108E04007846FEF74BFBE0E77846FEF747FBDFE7E3
:108E14007846FEF743FBDEE77846FEF73FFBDBE7E9
:108E240038B50D46044668B185B1A288A3681344D9
:108E34009A78042A0ED09A78022A13D0032A16D0DC
:108E4400052013E07846FEF729FBEDE77846FEF7A8
:108E540025FBEAE7211D2046FFF778FEA288A368D8
:108E64001344E8E703229A702B60002038BD78464B
:108E7400FEF714FB0020F9E710B5044658B1A088AA
:108E8400A16801448B78042B09D08878022814BF88
:108E94000020012010BD7846FEF700FBEFE72046D6
:108EA400FFF764FE0146F0E710B5044618B1A08848
:108EB400A168014407E07846FEF7F0FAF7E7204698
:108EC400FFF754FE01468878C31EDBB2012BF6D9A6
:108ED400022814BF0020012010BD38B50C460546F9
:108EE40050B16CB1A378012B0ED0032B11D12146C4
:108EF4002846FFF78DFE38BD7846FEF7CFFAF0E737
:108F04007846FEF7CBFAEDE721462846FFF79BFEAD
:108F1400F1E77846FEF7C2FAEDE7000008B5064B24
:108F2400986800221A605A609A60DA601A615A617D
:108F34009A6104F04DFC08BD883C002000B585B062
:108F44000A4BDB6802228DF8002001934FF4805312
:108F54000293074A6946012001F0AAF918B10020DA
:108F640005B05DF804FB0120FAE700BF883C00204F
:108F7400A43C002000B585B00A4B1B6802228DF882
:108F8400002001934FF480530293074A694601205D
:108F940001F08EF918B1002005B05DF804FB012042
:108FA400FAE700BFA83C0020A43C0020164BDA6876
:108FB400137951795B1A03F57F2303F6FF7302EBF0
:108FC40003339A4205D002F580520F4BDA60032036
:108FD400704700B585B00D4B1B6801208DF800006B
:108FE40001930B4B0393042302930A4A694601F04D
:108FF4005FF918B1002005B05DF804FB024B0122B3
:109004001A760220F7E700BF883C0020A83C002025
:10901400AC3C0020A43C002000B585B00C4BDA68C1
:109024000C4B1B68043301208DF80000019203935C
:1090340040F6FC730293084A694601F039F928B9ED
:109044000120034B187605B05DF804FB0020FAE715
:10905400883C0020A83C0020A43C002000B585B03A
:109064000A4B1B6801208DF800000193084B039301
:1090740004230293074A694601F01AF918B1002043
:1090840005B05DF804FB0120FAE700BFA83C00200E
:10909400943C0020A43C002010B584B0114BDA6845
:1090A4001478114B1B68043301208DF800000193E0
:1090B400039202940D4A694601F0FAF880B90A4B0A
:1090C4001B6804F0FC041C440434064B5C61D9683E
:1090D4000A780A441A6100225A76012004B010BDAD
:1090E4000020FBE7883C0020A83C0020A43C002092
:1090F40008B50023092B09D8064A52F823208242D6
:1091040001D00133F6E7044A536002E07846FEF7E3
:10911400C5F908BD44050400883C002010B5214B66
:10912400DB6853B11F4B1B7E5BB91E4B5B68092B7D
:1091340015D97846FEF7B2F911E07846FEF7AEF994
:10914400F0E77846FEF7AAF9EFE7164B00225A60DB
:10915400012C01D0032C23D1124B1B7E03BB114BDA
:109164005A68114B53F822309847044602280DD010
:109174000328EAD00128EBD10A4A5368013353602B
:10918400092BE5D97846FEF789F9E1E7054B1B7E03
:109194001BB1044B02221A70DAE7FFF7BFFED7E7D0
:1091A40010BD00BF883C002044050400104B1B6820
:1091B4001B685A1E12F1030F18D8C3F30B020AB12D
:1091C4000020704710B50B4AD36000231376537602
:1091D4000124147093600848FFF78AFF074920466A
:1091E40001F054F8FFF79AFF204610BD00207047A5
:1091F400A83C0020883C0020418F02000592020018
:1092040008B50B78032B06D00B4B1B78012B06D02B
:10921400022B0BD008BD084B00221A76F4E7064B4C
:109224001B7E002BF6D1FFF779FFF3E70B78032BB6
:10923400F0D1FFF773FEEDE7883C002000B585B060
:10924400174BDB6818784FF6FF7203F5805118440A
:1092540004F08CFDF0B10246114BD9680B780B4435
:10926400984219D00E4B5B7E93B10E4B01208DF8C2
:10927400000001920393042302930B4A694601F010
:1092840017F858B90120064B187605B05DF804FBB1
:10929400064BEBE70120F8E70120F6E70020F4E7AE
:1092A400883C0020AC070400A43C0020A80704006C
:1092B40008B5104BDB681878002203F58051184478
:1092C40004F054FD08B1012008BD0A4BDA68137993
:1092D40051795B1A03F57F2303F6FF7302EB033323
:1092E4009A4205D002F58052024BDA600320EBE784
:1092F4000220E9E7883C0020F0B585B0524BDE68D7
:1093040072793379591E8A4200F0968006F58051AD
:109314000D780D444D490968081D0F7907449B1ABF
:1093240003F57F2303F6FF731B0303F580531E44E9
:109334006B88013B9BB247F6FE6293425CD92C4694
:1093440016E07846FEF7AAF815E024F47F6424F0CA
:109354000F0404F5805423781C44A64247D9A5423F
:1093640047D26388013B9BB247F6FE62934211D910
:109374002388002BE5D0238804EB830323F47F6246
:1093840022F00F029342E0D06288B2F5FE4FDCD0A7
:109394001C46E2E725462FE07846FEF77FF815E005
:1093A40024F47F6424F00F0404F5805423781C44CF
:1093B400A64220D9A5423BD26388013B9BB247F623
:1093C400FE62934211D92388002BE5D0238804EB55
:1093D400830323F47F6222F00F029342E0D0628879
:1093E400B2F5FE4FDCD01C46E2E7254604E000253A
:1093F40002E0002500E00025E5B1144B19686A88F5
:1094040001F58051384604F0B1FC0746B8B101209B
:109414000D4B18768DF8000001950D4B0393042332
:1094240002930C4A694600F043FF50B92C46CAE740
:109434000025E1E7012000E0012005B0F0BD012096
:10944400FBE70020F9E700BF883C0020A83C00208F
:10945400A4070400A43C00202DE9F04186B06A4B27
:109464001B692BB1684B5B6933B14FF0000848E0CE
:109474007846FEF713F8F5E77846FEF70FF8F4E7B9
:109484007846FEF70BF815E025F47F6525F00F0507
:1094940005F580552B781D44AE421CD9AC421ED232
:1094A4006B88013B9BB247F6FE62934211D92B882D
:1094B400002BE5D02B8805EB830323F47F6222F095
:1094C4000F029342E0D06A88B2F5FE4FDCD01D460D
:1094D400E2E72C4600E000241CB1009445E000249F
:1094E400FAE700230093019B002B68D14FF0010899
:1094F40024B1628847F6FF739A4202D1424B01229B
:109504005A76414B5B7E002B7AD1B8F1000F75D1AE
:109514003D4B5A6922F47F6727F00F07BF1A07F5FE
:1095240080571C69DE68337972799B1A03F57F23AF
:1095340003F6FF731B0303F580531E4400230193BA
:109544006388013B9BB247F6FE629342C5D9254628
:10955400ADE77846FDF7A2FF22E024F47F6424F00F
:109564000F0404F5805423781C44A642BBD92388F5
:10957400019A02EB83029742B5D9009B634023F41E
:109584007F6323F00F03002BADD16388013B9BB2B3
:1095940047F6FE618B42A6D801922388002BD8D0CF
:1095A400238804EB830323F47F6222F00F029342A7
:1095B400D3D06288B2F5FE4FCFD01C46D5E7124A0D
:1095C400526901208DF808000392009A05920493D1
:1095D4000E4A02A900F06CFE70B90B49019B23F0FE
:1095E40003024B6913444B6114B1074B1C617FE7C1
:1095F4007846FDF753FFF8E7002002E0012000E081
:10960400012006B0BDE8F081883C0020A43C002085
:1096140008B54FF010235B69B3F1FF3F03D04FF05F
:1096240010235B6963B94FF080525169136903FBDE
:1096340001F3A3F58053054A1360FFF7B7FD08BD96
:109644004FF010235B69A3F58053F2E7A83C002098
:10965400024B1878003018BF01207047883C002066
:1096640010B504460E4B1B78ABB92378032B02D0FC
:109674007846FDF713FF0A4B9C60E268DA6000222B
:109684005A601A76012018705A76064900F0FEFDD9
:10969400FFF744FD10BD7846FDF700FFE5E700BF86
:1096A400883C002005920200014B1868704700BFF7
:1096B400A83C002010B5044680B163681BB1236840
:1096C4000BB1A36813B97846FDF7E8FEA3685A1EE8
:1096D400134207D10023E360236110BD7846FDF7F0
:1096E400DDFEEAE77846FDF7D9FEF3E7F8B5F8B111
:1096F4000446F9B18268FAB1EFF3108572B60269D3
:1097040080680244E668B24203D1C5B962B6042552
:1097140013E027686368013830401A4600FB037081
:1097240016F056FBE3680133E36055B962B604E012
:109734000E2502E00E2500E009252846F8BD042583
:10974400FBE70025F9E770B5F0B104468268EAB199
:10975400EFF3108572B60669C268964210D00846C7
:1097640021686268A368013B1E4006FB021108B130
:1097740016F02EFB23690133236165B962B606E056
:109784003DB962B6052502E00E2500E0092528460C
:1097940070BD0525FBE70025F9E70000C0F30B03C6
:1097A40033BB39B301F6FF71090B134B0222C3F823
:1097B4000425114BD3F80034002BFAD000220AE020
:1097C4000D4BC3F808050C4BD3F80034002BFAD02A
:1097D40000F5805001328A42F2D3074B0022C3F8CD
:1097E4000425054BD3F80034002BFAD00020704731
:1097F400102070470920704700E0014010F0030F6B
:109804002FD111F0030F2FD182B312F0030F2FD1F8
:1098140010B49208174B0124C3F80445154BD3F830
:109824000034002BFAD002E0043004312246541EE6
:1098340052B10B68B3F1FF3FF6D003600D4BD3F880
:109844000034002BFAD0EFE70A4B0021C3F80415CB
:10985400084BD3F80034002BFAD010465DF8044BC3
:1098640070471022104670471022FBE70922F9E7DF
:109874000922F7E700E001400180002343804260B1
:109884007047000038B5124C4FF480552A46002129
:10989400204616F0C6FA0F4B1C600AE0002228216D
:1098A4002046FFF7E9FF2388083323446360303DF3
:1098B4001C46502DF2D8083D05D00022A9B22046FE
:1098C400FFF7DAFF38BD7846FDF7E8FDF5E700BF9E
:1098D400B03C0020B04C002008B508220221084802
:1098E40003F0F7FD38B1074A91684160127B0272B8
:1098F40003F028FE08BD044803F042FFFAE700BF66
:10990400BC4C0020084D0020483300200E4B1B782F
:10991400CBB910B50D4B5C6804F50054B4F1807FED
:1099240000D910BD04220121094803F0D2FD30B151
:109934004460054A0121117003F004FEF1E7054873
:1099440003F01EFFEDE770471C4D0020084D00207A
:10995400BC4C00203833002010B5044608B1A047A1
:1099640010BD7846FDF79AFDF9E7000008B501211E
:109974000C4803F00FFE20B902210A4803F00AFE46
:1099840028B1094803F0FCFEFFF7C0FF08BD074AF1
:109994000023136053609360D3601361044A13700F
:1099A400F2E700BFBC4C002068330020084D0020C3
:1099B400E04C002000B58DB004918DF80820039090
:1099C4000CA8022300F82C3DFFF76CF80DB05DF8ED
:1099D40004FB000010B58CB00C4682B94B88012BF7
:1099E40020D1134B1B7833B16268124B5A60104B71
:1099F40000221A7016E07846FDF750FDF4E7032ABA
:109A040012D12C22002101A816F00BFA10238DF894
:109A140004300394084BDA6805921B69069301A885
:109A2400FFF740F80CB010BD7846FDF737FDE8E7C6
:109A34001C4D0020084D0020BC4C002038B503F01C
:109A4400B7FE28B901F0D6FE0028F8D020BFF6E70B
:109A540001F006FE002211461A4803F094FC00258A
:109A64002C4605E0051D02460021164803F08BFC38
:109A740030B14388012BF5D0022BF4D1041DF2E759
:109A8400A4B19DB12268104B9A6022791A73AC423A
:109A940001D9237993B12A680B4B1A600A4B1A68CF
:109AA4005A60FFF733FF01F0FBFD38BD064B00227F
:109AB4001A609A601A73FFF70FFFEFE7024B002258
:109AC4001A60EBE7BC4C0020084D002008B503F0F9
:109AD400B1FEA0F5805008BD00B587B00023009307
:109AE40001930293039304930593FFF7EFFF009010
:109AF40001230193064B03936946064803F0FAFDDC
:109B040010B907B05DF804FB034803F039FEF8E729
:109B1400D9990200BC4C00205833002010B50B4BDF
:109B240000241C605C609C60DC601C6101F04AF9EC
:109B3400074B5860074A9A60074ADA601C615C6107
:109B4400064B1C70FFF7C8FF10BD00BF084D002076
:109B5400E44C0020999C0200008793031D4D0020D3
:109B640008B5084B1B7803B108BD0748074B0360D1
:109B740000F010FE064801F077F8024B01221A703B
:109B8400F2E700BFB84C0020FC4C0020C59D020049
:109B9400E44C002038B501F063FD174B1B7B13BB6D
:109BA400154B9B7B23BB144B1A8A41F282639A4266
:109BB40004D8124B1B78A3B1012300E00123CBB1DD
:109BC4000D4D01232B7300242C82AB680133AB6051
:109BD400FFF782FEA9682A7B01392046FFF7EAFED7
:109BE40002E00023EBE7082401F05AFD204638BDCB
:109BF4000824F9E70824F7E7084D00201D4D00204C
:109C040010B501F02DFD214B5B7B9BB11F4B9B7B62
:109C1400F3B91E4B1A8A41F282639A4204D81C4B50
:109C24001B782BB1012300E001239BB1012302E047
:109C34000023FAE700231C461BB3144B00225A737B
:109C44001B7B4BB1012B0ED07846FDF727FC18E0A7
:109C54000023F0E70023EEE7FFF79CFF88B1784686
:109C6400FDF71CFC0DE0094B0020186058601873C8
:109C7400188202469968FFF79DFEFFF72DFEFFF755
:109C840045FE01F00DFD204610BD00BF084D00202B
:109C94001D4D002008B5214B1B7B7BB1012B20D02F
:109CA4007846FDF7FBFB1D4A138A013313821B4BD5
:109CB4005B8A13B1013B194A538208BD174B1A8AB8
:109CC40041F282639A4204D8154B1B783BB10123BD
:109CD40000E00123002BE6D0FFF792FFE7E7002323
:109CE400F8E70E4B1B8A41F28262934204D80C4A75
:109CF400127872B1012200E00122002AD3D042F28C
:109D0400B012934207D9054B01225A73FFF778FF2B
:109D1400CDE70022F1E7FFF773FFC4E7084D002009
:109D24001D4D002038B5254B1B7B002B36D1044636
:109D3400224B5B8A33BB1AB9204B9B688B4205D3F9
:109D440002B31E4B9B6801338B421BD21B4B9B6897
:109D54002A338B4224D3194B9B7B0BBB174DA96031
:109D64002B606B602B8242F606526A826B732B73F4
:109D7400FFF7B2FDFFF7CAFD2A7BA9682046FFF76B
:109D840019FE0DE062B10D4B9B6801338B4207D184
:109D94000A4B01225A73FFF733FF01E0012B00D075
:109DA40038BD002AFCD1054B9B688B42F8D1034B8C
:109DB40001225A73FFF724FFF2E700BF084D002089
:109DC4000378042B00D0704743681B78002BFAD02B
:109DD40010B58468027E437E012A14BF002201224A
:109DE400416904F11000FFF79DFF10BD10B5184B39
:109DF4001A685B689A4225D20446154B1B7B012BDB
:109E040013D0144B9A4212D2114B1A685B68403B30
:109E14009A4214D2EFF3108072B60D4A1368591C9B
:109E24001160236090B962B610BD0B4BEAE7084B92
:109E340001225A73FFF7E4FE0028EBD1E4E7FFF7B1
:109E440065FDE7E7FFF762FD0F20EDE70020EBE794
:109E5400084D0020FFFF7F0000E0FF0008B568B94F
:109E64000C4B1B6893B10B4A1368013B136063B935
:109E7400094B00229A73FFF7C3FE06E0064B01224A
:109E84009A73044A13680133136008BD7846FDF7DA
:109E940005FBE8E7B44C0020084D002000B58DB068
:109EA400ADF808008DF8102003910CA8032300F8E6
:109EB4002C3DFEF7F7FD0DB05DF804FB014B9868EF
:109EC400704700BF084D0020054B1B7B012B02D0BF
:109ED400034B98687047024B98680138704700BF7D
:109EE400084D0020044B9B68584010F0010F00D02F
:109EF400013B1846704700BF084D0020014B187BFA
:109F0400704700BF084D002038B50A4B1B7873B961
:109F1400084B01221A70084DA8602973FFF7DCFC76
:109F240000242C606C60FFF7F1FC204638BD08204B
:109F3400FCE700BFE04C0020084D00202DE9F04173
:109F4400002724E02449BC2303FB04F3CA5A01324A
:109F5400CA520221284602F067FA01360221284635
:109F640002F032FA80B11C4ABC2303FB0423D3F869
:109F74000880B8F1000FE5D0BC2303FB04F3D25AE8
:109F840001463846C047DDE78EB90137FFB2022FDC
:109F94001FD83C46BC2303FB07F308330E4D1D4476
:109FA40004350221284602F00FFA0026DAE70021E0
:109FB400284602F0A1FA0828E7D1074BBC2202FB8D
:109FC4000434A368002BE0D00022044938469847A3
:109FD400DBE70120BDE8F081284D00206C0504007A
:109FE40008B5082383731023437300F11C034361F2
:109FF4000323037300F1180303610C3002F04EFADB
:10A0040008BD000008B50378012B06D0022B06D04A
:10A014007846FDF743FA002000E0292008BD0148F6
:10A02400FCE700BF084C010008B50278012A07D0FC
:10A03400022A13D07846FDF731FA4FF4FA7308E098
:10A0440083685B1A9B0803EB830003EBC00303F5EF
:10A05400FA730748984228BF184608BD83685B1AFC
:10A06400180B044B03FB00F303F5FA73F1E700BF8D
:10A07400A0860100084C010010B5044601210C30F3
:10A0840002F0A2F9A0B10D4AC4F89C200022C4F841
:10A09400A0206168FFF7C8FFC4F8A800C4F8AC406A
:10A0A400012384F8B83004F19C000CF011FC00B9D1
:10A0B40010BD7846FDF7F2F9FAE700BFC1A102002E
:10A0C400F8B506460C46174615680378012B18D1D7
:10A0D4001249A1FB043149098900B468641B8C420C
:10A0E40000D30C468CB1706825F00305F168224654
:10A0F40029442844FFF782FB58B93B681C443C6060
:10A10400F8BD7846FDF7CAF9E2E77846FDF7C6F9E7
:10A11400E9E77846FDF7C2F9EFE700BF7D0CCEC74B
:10A12400F8B507460C46164615680378022B16D177
:10A13400114BA3FB04231B0C1B03BC68641B9C4234
:10A1440000D31C467CB1786825F0030521462844D9
:10A15400FFF724FB58B933681C443460F8BD7846D3
:10A16400FDF79CF9E4E77846FDF798F9EBE77846C4
:10A17400FDF794F9EFE700BFEB0661C538B5054676
:10A184000C4611462378012B06D0022B0FD07846BB
:10A19400FDF784F9002304E0021D2046FFF790FF39
:10A1A400A3686868984214BF0020012038BD021DCE
:10A1B4002046FFF7B5FFA368F3E700002DE9F84355
:10A1C4000F46D1F8A850234B1B7863B90646A5F572
:10A1D400FA7501F10C090121484602F0F5F88046B0
:10A1E40040B1002422E00CF0AFFB002387F8B83024
:10A1F400BDE8F8837846FDF751F9F2E70CF0A4FBCB
:10A204000121484602F010F900237B6087F8B8303A
:10A21400114B186801F086FA3846FFF72DFFE7E77F
:10A224004046FFF7EFFE2044A8420CD82A1B4146C3
:10A234003846FFF7A3FF0028E0D100F0C3FD841BDC
:10A24400EED5341AECE70CF07FFB3846FFF714FF29
:10A25400CEE700BF244D0020204D002010B5084853
:10A2640001F040FA074B1860002406E0064BBC20BE
:10A2740000FB0430FFF7B4FE0134022CF6D910BD04
:10A28400419F0200204D0020284D002038B504468F
:10A294000D46022805D8054BBC2202FB0434A560F8
:10A2A40038BD7846FDF7FAF8F5E700BF284D0020E1
:10A2B4002DE9F84306460C461746022816D8CCB1B9
:10A2C4002378012B1AD0022B3ED16368C3F30B030E
:10A2D400002B31D1A368C3F30B03002B30D1A36847
:10A2E400002B34D17846FDF7D9F830E07846FDF7F5
:10A2F400D5F8E4E77846FDF7D1F8E1E7636813F0B1
:10A30400030F0DD1E36813F0030F0DD1A36813F00D
:10A31400030F0DD1A368D3B97846FDF7BFF816E053
:10A324007846FDF7BBF8EDE77846FDF7B7F8EDE7BB
:10A334007846FDF7B3F8EDE77846FDF7AFF8C9E7DF
:10A344007846FDF7ABF8CAE77846FDF7A7F8EFF3D0
:10A35400108872B6BC2505FB06F505F10803204DEF
:10A364001D4404350021284602F02EF8814668B3C6
:10A374000021284602F058F820686168A268E36862
:10A38400C9F80000C9F80410C9F80820C9F80C304D
:10A394002FB1134ABC2303FB06235B883B80104A7E
:10A3A400BC2303FB06235A8801325A8093F8B83041
:10A3B40073B90C4B1B780BB100200AE0084BBC208E
:10A3C40000FB0630FFF758FE002002E0042000E006
:10A3D4000020B8F1000F00D162B6BDE8F88300BFD9
:10A3E400284D0020244D002018B1830B024AD05C74
:10A3F40070470020704700BF7C05040012DF7047DF
:10A4040000B583B01378A3B1042B14D1072110F83D
:10A41400013C163B152B31D8DFE803F059303030BE
:10A424003030303030303030303030303030302E2A
:10A434000F3A517DEBE70021E9E7022901D0072912
:10A444001CD110F8021C013901F04EFDB0B1264BAD
:10A454001B6813F0400F11D0244B1B68012B0DDD3A
:10A46400234BD3F804350190224A00928A222249D0
:10A47400022002F029FA01E0022902D003B05DF8BB
:10A4840004FB10F8021C0139C9B212F063F8F5E7B5
:10A494000229F3D110F8021C0139C9B203F0D8FB28
:10A4A4000028EBD0104B1B6813F0400FE6D00F4B85
:10A4B4001B68012BE2DD0E4BD3F8043501900F4AE3
:10A4C40000929D220C49022002F0FEF9D6E7018891
:10A4D4004FF6E4639942D1D110F8021C03390230DB
:10A4E400FCF72CFFCAE700BF883300208433002028
:10A4F40000B00040140604000706040040060400EF
:10A5040070B58AB00CF064FF58B3064600238DF88A
:10A51400103005AC05460FCD0FC42B682360727D47
:10A52400052A04D9337D03F00F03072B20D1184BE0
:10A534001B689BB104AB0393337DC3F303038DF812
:10A544000430737D062B1DD9063B8DF8053006F1CA
:10A554001D0302930E4B1B6801A8984730460CF06C
:10A5640017FF0CF04FFF80F00100C0B20AB070BDBD
:10A57400307D04AB063A06F11D0100F00F000BF02C
:10A58400FDFCD4E700238DF805300293E2E700BF19
:10A59400604F002070B582B02F4B1B78002B52D136
:10A5A400002854D0067A0F2E01D0072E51D104462C
:10A5B400C06870B1FCF784FF0DF10700FFF71EFFC0
:10A5C4000546002840D19DF80730012B04D0022510
:10A5D4003AE0FCF783FFEFE7FCF796FF00F032FB6D
:10A5E400304601F005F8E07800F050F900F00AFF79
:10A5F4000CF02CF919480CF0A1FF0BF05DFEFFF7ED
:10A604002DFE04F083FB00F04DFD05F0C7F9204654
:10A6140001F0D2FB2046FDF789FF03F0EDFE204652
:10A62400FFF730F9FCF78AFE18B1062801D0054679
:10A634000AE00B480BF084FC0A4B00221A60064B1C
:10A6440001221A7000E00825284602B070BD0E25CC
:10A65400FAE70725F8E700BF5D4F002005A50200D3
:10A6640078330020604F002030B583B0204B1B7836
:10A67400002B35D01F4B1B78002B33D100F0E8FEA4
:10A68400C0B90CF005F9044668BB0CF041FE01F0BA
:10A69400A5FBFCF753FE0546F0B106281CD0164B6B
:10A6A4001B6813F4804F21D0144B1B68012B05DC6D
:10A6B400044618E07846FCF7F1FEE2E7104BD3F8C5
:10A6C400043501900F4A00924FF4C4720E490220DF
:10A6D40002F0FAF82C4606E0064B01221A7002E05A
:10A6E400082400E00824204603B030BD0446FAE7FD
:10A6F4005D4F00205C4F002088330020843300200D
:10A7040000B00040980504000706040010B5094B8A
:10A714001B785BB10CF0CCF8044640B90CF00EFE8B
:10A7240000F000FF034B00221A7000E008242046CA
:10A7340010BD00BF5C4F002030B583B004460D4609
:10A744000E4B1B6813F4804F03D00D4B1B68062B74
:10A7540005DC29462046FDF751FF03B030BD094B07
:10A76400D3F80435084A0192084A00924FF4D7728C
:10A774000749072002F0A8F8EBE700BF8833002060
:10A784008433002000B0004080050400C0010400B0
:10A794000706040008B5FEF7ADF908BD08B500F0DA
:10A7A40007FE002008BD08B506F0AAFC08BD00009D
:10A7B400064A136801331360B3F1704F02D0034BA0
:10A7C40018687047134601221A60F8E7644F0020A6
:10A7D40010B5044618B100232360636010BD7846A9
:10A7E400FCF75CFEF7E738B50C46054668B184B162
:10A7F40000236360EFF3108372B62A686AB16A6853
:10A8040054606C6003B962B638BD7846FCF746FE06
:10A81400EDE77846FCF742FEEAE72C60F1E710B575
:10A82400044658B1EFF3108372B6206808B1426849
:10A834002260226832B103B962B610BD7846FCF7D3
:10A844002DFEEFE76260F6E710B5044608B1206814
:10A8540010BD7846FCF722FEF9E735DF70470000AB
:10A8640008B54FF0FF30FFF7F8FFBFF34F8F0549EE
:10A87400CA6802F4E062044B1343CB60BFF34F8F0A
:10A8840000BFFDE700ED00E00400FA05072814D836
:10A89400DFE800F0080C1504110F0A066420704765
:10A8A40014207047FA2070471E2070474FF4FA7046
:10A8B4007047322070474B207047FA20704796202B
:10A8C40070470000024B5868103840B2704700BF10
:10A8D40000ED00E0034600280FDB5B11084A52F844
:10A8E4002330424200F01F0002F01F0258BF5042C2
:10A8F40023FA00F000F00100704700F11F03ECE7B9
:10A9040000E100E046DF7047F8B504460D464B1EF3
:10A91400DBB2012B09D8002222616261A261E261EB
:10A924002046FFF7EFFF012616E07846FCF7B6FD58
:10A93400F1E7CA5CC8185200D2B2407842EAD01299
:10A94400CA5401339BB20E2BF3DDCB7B5B00CB737C
:10A95400002F08DB0136F6B2AE420BD8214611F9BE
:10A96400207F0023EFE794F82F3083F0870384F8E7
:10A974002F30EFE7F8BD2DE9F04190B084460C4646
:10A9840096461F4602F10F0636111FFA86F804ADEB
:10A994000068DCF80410DCF80820DCF80C300FC583
:10A9A4000EF00F05B8F1000F02D085B1002300E0CE
:10A9B400002398466BB1012104A8FFF7A5FFB8F165
:10A9C400000F1BD0B0B20138000110230EE00123A8
:10A9D400EFE70221F0E7013B9BB22218D25C10A9F9
:10A9E400194411F8101C4A400DF80320002BF2D131
:10A9F40000250C950D950E950F9534E0B1B20139F3
:10AA0400ADB22A4604EB0111684615F0E1F9802342
:10AA14000DF805306B1C03E000220DF80320013310
:10AA24000F2BF9DD10230AE0013B9BB21DF8032034
:10AA340010A9194411F8101C4A400DF80320002BEA
:10AA4400F2D1D5E7013B9BB210AA1A4412F8102C9C
:10AA54002118C95C4A4008A9CA54002BF2D104A8A1
:10AA6400FFF750FF0135B3B2013BAB4202DD2801D1
:10AA74001023F2E710230AE0013B9BB210AAD1187D
:10AA840011F8402C11F8101C4A4008A9CA54002B94
:10AA9400F2D104A8FFF736FF0CAC0FCC3860796014
:10AAA400BA60FB6010B0BDE8F08100000A4B1B687F
:10AAB400834207D0084B1B6853B15A69824205D0C0
:10AAC4001346F9E74269044B1A6001E042695A618E
:10AAD40000230370704700BF6C4F002010B504467C
:10AAE400134B1B684BB14068114B1B685B68C31A5E
:10AAF400002B02DB0E4B19680DE00D4B1A686261E6
:10AB04001C600B4A938801339BB2938063B1012389
:10AB1400237010BD19464B691BB15A68121A002ADA
:10AB2400F8DB63614C61ECE77846FCF7B7FCEEE7D1
:10AB34006C4F002038B5054619E06369214A13605B
:10AB44000023636193889BB2591E89B291800BB331
:10AB5400A3681BB302232370A3682169284698477E
:10AB640000F030F905462378DBB2022B1AD0154BDE
:10AB74001B6833B3134B1B685B685B1B642B20D5CA
:10AB8400104B1C682378DBB2012BD6D07846FCF737
:10AB940085FCD2E77846FCF781FCD9E77846FCF7D8
:10ABA4007DFCD7E7E26812B900232370DFE763680E
:10ABB400134463605B1B642BF9D42046FFF78EFFBC
:10ABC400D5E738BD6C4F002008B5124B1B6873B134
:10ABD400104B1B685B68C31A13F1640F08D402237B
:10ABE4000D4A00F16401012000F0B0F870B908BD0D
:10ABF400084B19680223084A4968012000F0A6F8A6
:10AC04000028F4D07846FCF749FCF0E77846FCF7D6
:10AC140045FCECE76C4F002039AC020008B500F0AD
:10AC2400D1F8FFF787FF00F0CDF8FFF7CDFF012043
:10AC340008BD000008B5024B186800F073FD08BD9C
:10AC4400684F002008B5054B00221A605A6004487A
:10AC540000F048FD034B186008BD00BF6C4F002096
:10AC640021AC0200684F002010B5044600F02EFE0F
:10AC740080B19CB1A368ABB12378DBB2012B15D0B2
:10AC8400002363612046FFF729FF00F09BF8FFF7DC
:10AC94009BFF10BD7846FCF701FCEAE77846FCF719
:10ACA400FDFBE7E77846FCF7F9FBE5E77846FCF7B8
:10ACB400F5FBE5E710B5044600F008FE50B16CB1B1
:10ACC4002046FFF7F3FE0023636100F07BF8FFF7F3
:10ACD4007BFF10BD7846FCF7E1FBF0E77846FCF714
:10ACE400DDFBEDE738B504460D4600F0EFFD70B12D
:10ACF4008CB12046FFF7DAFE0023636165602046CD
:10AD0400FFF7ECFE00F05EF8FFF75EFF38BD784613
:10AD1400FCF7C4FBECE77846FCF7C0FBE9E700006E
:10AD240010B4094B00F15002002443F8224000F112
:10AD340010040122A240C3F8042300F5A87043F8CC
:10AD440020105DF8044B704700800040022825D88D
:10AD540038B533F0030423D1EFF31085124C25608A
:10AD640072B6124C44F82020114A42F82010114ABD
:10AD74001354114B002243F82020104B1B7833B19D
:10AD84000F4B1B68CA1A07D41146FFF7C9FF064BBD
:10AD9400186838B962B604E05A1AF5E70720704714
:10ADA4000A2038BD0020FCE7984F0020784F00208F
:10ADB4008C4F0020744F0020A04F0020844F0020AF
:10ADC400884F0020EFF310820C4B1A6072B60C4BC4
:10ADD4001B787BB10B4B0022C3F84C210122DA64AF
:10ADE400D3F84C05084B1B681844044B1B6803B983
:10ADF40062B67047054B1868F7E700BF984F00200C
:10AE0400844F002000800040884F00209C4F002089
:10AE140070B5002418E01F4B002243F824200123BE
:10AE240003FA05F51C4BC3F80853FFF7CBFF1B4B84
:10AE34001B5D13F0020F21D0B04704F15003164AF2
:10AE4400002142F823100134022C21D804F15003CC
:10AE5400114A52F82330002BF5D0D2F8043304F110
:10AE64001005EB4013F0010FEDD00A4B53F82460AA
:10AE7400002ED0D17846FCF711FBCCE701463046D2
:10AE840000F0DAFB0028D8D07846FCF707FBD4E7BB
:10AE940070BD00BF784F002000800040744F002038
:10AEA40070B50546002414E0981A27E05E1A29E0DC
:10AEB4002946184600F0C0FB002836D12A4B53F827
:10AEC40024302BB101221A60274B002243F824209E
:10AED4000134022C3AD8254B04F5A872002143F81A
:10AEE400221004F1500243F8221053F82230204B70
:10AEF40053F824201F4B1B68D01AD5D405F17801D0
:10AF0400CE1AD3D4864214D91B4B53F82430002BC9
:10AF1400D4D0194A002142F82410184A125D12F0C4
:10AF2400020FC5D028469847C8E77846FCF7B6FA1A
:10AF3400C4E7114B53F82430002BC9D0E0B2511BA5
:10AF440002D4FFF7EDFEC3E7A91AFAE70C4B1B681E
:10AF54001BB90C4B4FF480721A60064B1D600A4BF0
:10AF640001221A7070BD00BFA04F00200080004075
:10AF74008C4F0020884F0020784F0020744F002011
:10AF8400984F002000E100E0844F0020002300E0FF
:10AF94000133022B0ED80F4AD25C12F0010FF7D006
:10AFA40000220C49CA540C4941F823200B4941F8AA
:10AFB4002320EDE70A4B18600A4B00221A700A4B53
:10AFC4004FF0FF32C3F80823084B4FF48072C3F8E4
:10AFD40080217047744F0020784F0020A04F00203C
:10AFE4009C4F0020844F00200080004000E100E0DE
:10AFF40030DF704731DF704710B402684368A2EB5A
:10B004007312846883EAF4330360C1680C444460B7
:10B01400114481601344C36018465DF8044B7047C3
:10B0240070B582B00D46064608B100240BE07846A0
:10B03400FCF734FAF9E79DF807103019FFF7DAFF47
:10B044009DF807301C44A5420DD90DF10700FFF708
:10B05400CFFF9DF80730002BF7D02A1B9342EAD983
:10B064008DF80720E7E702B070BD000030B583B06B
:10B074000546002402A840F8044D0421FFF7D0FF40
:10B08400074B2B60019B6B60AB60EB6003E02846D1
:10B09400FFF7B2FF0134132CF9D903B030BD00BF60
:10B0A400ED5EEAF1704748DF704749DF70474ADFD9
:10B0B400704700002DE9F00F1F4BD3F804650027FB
:10B0C400837AA3BB1D4BD3E90023B41A24F07F4A2F
:10B0D4004FF0000B4FEA4A124FEA4B13B2EB0A024D
:10B0E40063EB0B03590241EAD2514FEA422C0D465D
:10B0F4001CEB0A0145EB0B024FEA821949EA9169FC
:10B104004FEA81181346B8EB010269EB03031AEB0B
:10B1140002044BEB0305E30B43EA45424368134443
:10B124004360064BC3E90067BDE8F00F7047002396
:10B1340083720268F2E700BF00B0004010500020A4
:10B1440010B504460023C3600361FFF7B3FF23680F
:10B15400084A926822600121217503B9064B991AA5
:10B16400A161B1F57A7F01D39A4202D94FF47A737F
:10B17400A36110BDF84F002080969800094B03226C
:10B184001A75094A9A611A6840F6D8639A4204D833
:10B19400054B40F6D8629A607047034B43F2B062A5
:10B1A4009A607047D84F0020F84F002008B50B4B29
:10B1B4001B78012B05D0022B0BD07846FCF76EF9D7
:10B1C40003E00223037501238372044B00221A70E7
:10B1D40008BD03230375024B8361F6E70950002081
:10B1E400F84F002038B50546002404750123437246
:10B1F4004068FFF755FE0BF013FC6B682A68134494
:10B204000A490968283101FB02F1094AA2FB01211C
:10B21400A3EB91410323074A78392046FFF796FDB3
:10B2240000B938BD7846FCF739F9FAE7F44F002045
:10B2340083DE1B4381B1020010B50C4631B10369B2
:10B24400013303618269036813440360C3680133F3
:10B25400C36001220275826952088261012B0DD0FC
:10B26400022B19D082690368134417498B4222D8F0
:10B2740040F6D7639A4221D800231DE0B2F5FA7F45
:10B2840005D040F6D8639A42ECD88361EAE7002CF3
:10B29400F7D100238361E5E70369022B06D0012B74
:10B2A400E0D1002CDED100238361DBE70268064B8A
:10B2B4009B1A8361D6E7002313B110BD0123FBE77A
:10B2C400FFF790FFF9E700BF80969800437A1BB917
:10B2D4000E4B00221A70704710B504460BF0BCFBED
:10B2E4006068226810440A4B1B68283303FB02F38E
:10B2F400084AA2FB0323A0EB93407838FFF746FEED
:10B3040000236372014B00221A7010BD0850002004
:10B31400F44F002083DE1B4308B5224B01221A722E
:10B32400214B1B7813B1214B1B781BB31D4B0022FF
:10B334001A7504281AD8DFE800F00314110C07006A
:10B344001848FFF7FDFE1EE001211648FFF774FFC1
:10B3540019E000211348FFF76FFF14E00BF01AFB0C
:10B3640011E0FFF755FD0BF049FB0CE07846FCF7C4
:10B3740095F808E0FFF726FD0A4B5A68801A186012
:10B384001846FFF713FF074B1B7D023BDBB2012B73
:10B3940004D9044800230372143008BD0148FFF7A0
:10B3A40095FFF6E7D84F00200950002008500020F0
:10B3B40008B5043803280DD8DFE800F00D19090298
:10B3C400FFF773FE30B17846FCF768F802E0784680
:10B3D400FCF764F808BD0A4840F6D8638360FFF7B9
:10B3E40066FE0028F6D07846FCF758F8F2E70448E1
:10B3F400FFF75DFE0028EDD07846FCF74FF8E9E74B
:10B40400F84F002010B40D4A00231370137101216A
:10B41400517143F2B064946043F69824D460084AAE
:10B424001060084A1370084A1370084A1372537262
:10B434001360917253605DF8044B7047F84F00201D
:10B44400F44F00200850002009500020D84F00205D
:10B4540008B50648FFF727FE034608B1184608BD9D
:10B464000348FFF724FE0346F8E700BF1DB30200BC
:10B47400F84F0020084B1B7D032B09D0074B1B788A
:10B48400012B07D0022B01D0002070470120704708
:10B494000120704701207047D84F00200950002038
:10B4A400014B5868704700BFD84F00200E4B5B7AA1
:10B4B4000BB90020704710B50B4B5C681A68144434
:10B4C4000A4B1B68283303FB02F3094AA2FB03233C
:10B4D400A4EB9344783CFFF775FC0346201A00D490
:10B4E40010BD181BFCE700BFD84F0020F44F00200C
:10B4F40083DE1B43014B187A704700BFD84F0020EE
:10B50400EFF3108372B6054A527A22B1044A4FF41B
:10B514008071C2F8001103B962B67047D84F002099
:10B5240000E100E008B5034B01221A70FFF7E8FFC1
:10B5340008BD00BF0950002008B5034B02221A7051
:10B54400FFF7DEFF08BD00BF0950002008B5094B16
:10B554001B782BB148B9084B1B7813B1012300E0C9
:10B564000023044A107013B908BD0023F9E7FFF75C
:10B57400C7FFF9E7085000200950002008B50378F8
:10B58400012B10D013B1022B06D008BD4368002B49
:10B59400FBD080689847F8E74368002BF5D0C16872
:10B5A40080689847F1E74368002BEED0806898479D
:10B5B400EBE70000044B1B780F2B04D0034B4FF434
:10B5C4008022C3F8002170475C51002000E100E0B4
:10B5D40010B501460548FEF789F820B90446FFF77F
:10B5E400E9FF204610BD0424FBE700BF18500020EB
:10B5F40010B50C4C20700C480C4B036010234360B6
:10B604008360FEF757F80A48FFF7E2F823780F2B18
:10B6140007D05B01DBB2074A82F812334FF4802370
:10B62400136010BD5C510020185000202C500020E5
:10B634006051002000E100E030B585B00C460546BD
:10B6440048B100238DF80030019502946846FFF755
:10B65400BFFF05B030BD7846FBF720FFF1E70000DF
:10B6640010B5EFF3108472B60A490A68531C0B60D4
:10B6740042B9094A12780F2A04D0084A4FF48021AB
:10B68400C2F8801013B104B962B610BD7846FBF756
:10B6940005FFF8E72C5100205C51002000E100E098
:10B6A40010B5EFF3108472B60B4B1B687BB10A4ADA
:10B6B4001368013B13603BB9084B1B780F2B03D075
:10B6C400074B4FF480221A6004B962B610BD784665
:10B6D400FBF7E4FEEBE700BF2C5100205C51002097
:10B6E40000E100E010B5044680B10C4B1B68082B48
:10B6F40010D8EFF3108272B6084B1868411C196019
:10B70400074B43F8204002B962B610BD7846FBF7F8
:10B71400C5FEEAE77846FBF7C1FEEAE730510020B0
:10B724003451002038B504460D4B1B68834213D9AD
:10B73400EFF3108572B661090A4A04F01F0401236D
:10B7440003FA04F452F82130234342F82130FFF77E
:10B7540031FF05B962B638BD7846FBF79FFEE7E7CF
:10B76400305100205851002070B50D46164604464D
:10B7740058B175B1EFF3108372B6A560E66000228C
:10B784002274246003B962B670BD7846FBF786FE66
:10B79400EFE77846FBF782FEECE7000038B5044695
:10B7A40090B1A368A3B1EFF3108572B6237C9BB963
:10B7B4000123237421460948FFF715F8FFF7FAFE21
:10B7C400002005B962B638BD7846FBF767FEE8E7A6
:10B7D4007846FBF763FEE6E71120F2E760510020AC
:10B7E40010B5044608B1207C10BD7846FBF756FE20
:10B7F400F9E7000070B584B02C4B1B7823B9012500
:10B804002A4B1D7000240AE07846FBF747FEF6E752
:10B81400274B53F8243098470646F0B10134254BA2
:10B824001B68A3421ED96109234A52F8213004F04F
:10B834001F00C34013F0010FF0D0EFF3108672B66F
:10B84400012303FA00F052F8213023EA000342F8FE
:10B854002130002EDCD162B6DAE72046FFF762FF22
:10B864003546DBE71548FEF7DAFF07E0A368E06832
:10B874009847002323741148FEF7D1FF50B10468A0
:10B88400237C002BF2D17846FBF708FEEEE76846EE
:10B89400FFF774FE69460A48FDF755FF0028F6D005
:10B8A400024B00221A70284604B070BD6851002073
:10B8B40034510020305100205851002060510020A4
:10B8C4001850002008B5FFF795FF08BD00B583B0F8
:10B8D400FEF7F8FF8DF807009DF807305BB213F10F
:10B8E400100F18D09DF807305BB2002B21DB03F159
:10B8F400604303F5614393F800335B090093154BF0
:10B904001B78009A934220D0009A934217D30020C8
:10B9140003B05DF804FB0F4B1B780F2B07D01220EC
:10B92400FEF7D8FF08B90120F2E70020F0E7012074
:10B93400EEE703F00F03084AD35C5B09DEE712204D
:10B94400FEF7C8FF18B10020E2E70120E0E701207C
:10B95400DEE700BF5C51002014ED00E046DF7047D5
:10B9640070B58CB003460E4615466C46006859689F
:10B974009A68DB680FC430687168B268F3680FC4F2
:10B984006846FFF7EBFF08AC0FCC28606960AA603B
:10B99400EB600CB070BD08B5FEF7EDFF08BD08B54F
:10B9A40002F01FF808BD08B502F055F808BD38B517
:10B9B400032900F29380DFE801F00235356719703E
:10B9C400817A5A7861F306025A70C17AD2B261F36D
:10B9D400C7125A70C168C1F3074201F47F4422437D
:10B9E400090401F47F010A4300219A70C2F3072479
:10B9F400DC70120C1A710489220A42EA0422A3F8A8
:10BA04000520D971197201690A0202F47F0242EA1F
:10BA14000162080A00F47F40024342EA1162C3F85B
:10BA2400092038BD1970597801F0800162F3C711FB
:10BA34005970C168C1F3074201F47F4422430904E9
:10BA440001F47F010A439A70C2F30721D970120CE2
:10BA54001A7101890A0A42EA0122A3F805204188E1
:10BA64000A0A42EA0122A3F8072001690A0202F441
:10BA74007F0242EA0162080A00F47F40024342EA7C
:10BA84001162C3F80920CCE7197000245C70C16806
:10BA9400C1F3074201F47F452A43090401F47F01FD
:10BAA4000A439A70C2F30721D970120C1A710189E2
:10BAB4000A0A42EA0122A3F80520DC711C7201691A
:10BAC4000A0202F47F0242EA0162080A00F47F409B
