:020000022000DC
:1060000000F0002035620200656202006762020053
:10601000696202006B6202006D6202000000000013
:106020000000000000000000000000006F6202009D
:1060300071620200000000007362020075620200DB
:10604000796202007B6202007D6202007F620200D0
:106050008162020083620200E96A02008762020034
:10606000896202008B620200514103008F620200CC
:106070009162020093620200956202009762020040
:1060800099620200C1700300B5B002009F62020075
:10609000E9700300A362020025680200A762020003
:1060A000A9620200AB620200AD620200AF620200B0
:1060B000B1620200B36202007762020077620200FE
:1060C000B5620200B7620200B9620200BB62020060
:0C60D000BD620200BF620200C16202005B
:1060DC00354936480A1A02D0072291438D46344975
:1060EC0034480A1A06D00722914381F30988022208
:1060FC0082F3148830483149314A00F043F8314872
:10610C003149324A00F03EF831483249324A00F007
:10611C0039F832483249334A00F034F832483349BE
:10612C00334A00F02FF833483349344A00F02AF848
:10613C0033483449344A00F025F8344834490022B5
:10614C0000F02BF833483449002200F026F833488D
:10615C003349091A082903DB00220260043001606C
:10616C001F482049884205D00268043003B4904788
:10617C0003BCF7E700208646EC4600200021294AA4
:10618C009047FEE7884207D0521A05D003780130B9
:10619C000B700131013AF9D17047884202D002707C
:1061AC000130FAE77047000000F0002000E8002002
:1061BC0000F0002000F00020C8DF0300C8320020EF
:1061CC00AC330020C4620200C462020008CD03009C
:1061DC00C8DF0300C8320020C8320020C0CD030045
:1061EC00C0CD0300C0CD0300C0CD0300C0CD030063
:1061FC00C0CD0300C0CD0300C0CD0300C8DF030039
:10620C00ACE00300AC330020AC330020AC330020F6
:10621C0024690020246900202469002024690020BE
:10622C00246D0020DD66020008484FF0070188430A
:10623C008546074880470748016841F470010160B2
:10624C00BFF34F8FBFF36F8FFFF742BF00F00020FB
:10625C005568030088ED00E0FEE7FEE7FEE7FEE789
:10626C00FEE7FEE7FEE7FEE7FEE7FEE7FEE7FEE7FA
:10627C00FEE7FEE7FEE7FEE7FEE7FEE7FEE7FEE7EA
:10628C00FEE7FEE7FEE7FEE7FEE7FEE7FEE7FEE7DA
:10629C00FEE7FEE7FEE7FEE7FEE7FEE7FEE7FEE7CA
:1062AC00FEE7FEE7FEE7FEE7FEE7FEE7FEE7FEE7BA
:0862BC00FEE7FEE7FEE700BF6C
:1062C40041DF704700B585B01D4B1B6813F4804F48
:1062D40003D01C4B1B68032B19DC03A80CF066F9D4
:1062E400174B1B6813F4804F03D0164B1B68032B0A
:1062F40018DC00214FF4F01000F098FB0422C821B0
:106304004FF4F01000F09EFB05B05DF804FB0E4B5B
:10631400D3F804350D4A00929B220D49042005F060
:1063240033FEDAE7084BD3F80435BDF80C200192AC
:10633400084A00929F220649042005F025FED8E76A
:106344001C3300201833002000B000409CCE030012
:1063540092CE0300B8CE030070B50F4C20460DF06A
:1063640061FC122120460DF086FC98B105460B4CC9
:106374000FCCC5F81100C5F81510C5F81920C5F8DB
:106384001D302388A5F82130FF232B7129460248AC
:106394000DF0B0FC70BD00BFEC330020D0CD030085
:1063A40000B587B008F0E5FCD8B91D4B1B78EBB1FC
:1063B400FFF7D2FF1B4B1B6813F4804F03D01A4B1B
:1063C4001B68032B21DC00214FF4F01000F02EFB9E
:1063D4000222C8214FF4F01000F034FB07B05DF83E
:1063E40004FB124ACC2110F0FBFEDEE7104A03AB9B
:1063F40007CA83E80700184600F0B2FA0028D7D08D
:106404000A4AD72110F0ECFED2E70A4BD3F8043540
:10641400094A0092DB220949042005F0B5FDD2E7C0
:10642400883400201C3300201833002048CE030099
:10643400C0CD030000B0004020CF030092CE030083
:106444002DE9F04399B008AF04464FF0A0434FF450
:106454000032C3F808250022C3F80C2581684A6875
:1064640091F90D300078CD7B0E7C91F811C091F834
:1064740012E091F81380097D0691CDF81480CDF8CF
:1064840010E0CDF80CC002960195009027493846DB
:1064940015F0FEFF264B1B6813F4804F38D0254BB4
:1064A4001B68032B34DD6D4694F801E04FEA4E037C
:1064B400083303F47E73ADEB030D0DF12008C446DD
:1064C400002312E06268D25C4FEA121959001A489C
:1064D400066816F809600CF8136002F00F02013127
:1064E4000068825C0CF8012001337345EAD3002371
:1064F40008F81E30114BD3F80435CDF80880019705
:106504000F4A009259220F49042005F03DFDAD4683
:106514004FF0A0434FF40032C3F80C250022C3F817
:1065240008254437BD46BDE8F08300BFD0CE030044
:106534001C330020183300202033002000B000401A
:1065440018CF030092CE030000B583B00F4B1B6835
:1065540013F4804F03D00E4B1B68032B0ADC032279
:10656400C8214FF4F01000F06DFA08F08FFC03B06E
:106574005DF804FB074BD3F80435074A00928B22DD
:106584000649042005F000FDE9E700BF1C330020A4
:106594001833002000B000402CCE030092CE03003C
:1065A40008B503781C2B00D008BDFFF7CDFFFBE72F
:1065B40008B54023024A002102480DF077FC08BDCB
:1065C400AC330020EC33002000B58BB02422002132
:1065D40001A815F0ABFF01238DF8043007238DF8D3
:1065E40007308DF80C300A4B05930A4901A808F0CE
:1065F40015FC38B9084803F0CBFCFFF7D9FF0BB002
:106604005DF804FB054AAE2110F0EAFDF2E700BF95
:10661400A5650200883400204564020048CE0300CA
:1066240000B585B010F062FD20BB00F03BFA214AB2
:1066340004214FF4804005F08BFC1F4B1B6813F4BE
:10664400804F03D01D4B1B68032B18DC1C4BD868F0
:10665400039000F0F3F8E8B9FFF7B6FF164B1B6898
:1066640013F4804F03D0154B1B68032B17DC05B0C4
:106674005DF804FB134ABD2110F0B2FDD5E7124BBF
:10668400D3F80435114A0092C1221149042005F0BF
:106694007BFCDBE70B4AC42110F0A2FDDCE70A4BCC
:1066A400D3F804350B4A0092C7220949042005F0A7
:1066B4006BFCDCE729BF02001C33002018330020E8
:1066C400C0CD030048CE030000B00040E4CD030079
:1066D40092CE030010CE030008B5FFF7A1FFEFF33D
:1066E400108572B6174B9B689BB9164A01239360B9
:1066F400154BD3F88010154801401160C3F8800091
:10670400D3F8841051604FF0FF32C3F88420002482
:1067140000E0012405B962B6FFF742FE094B9B680D
:106724006BB164B9EFF3108172B6064B1868064A70
:1067340010605868506000229A6001B962B6FFF791
:10674400BFFDFCE7B867002000E100E0FC06FFBDE8
:106754004BDF704710DF704760DF704769DF7047B9
:1067640010B588B0274B1B6813F4804F03D0264B19
:106774001B68032B10DC254B0793079A0692002312
:1067840003930493059303A90120FFF7E7FF04464D
:1067940068B1204608B010BD1D4BD3F804351D4A1E
:1067A40000924B221C49042005F0EEFBE3E7002392
:1067B40004930593F8230393069A03A9A120FFF7F2
:1067C400CDFF04460028E4D106A8FFF7C5FF044620
:1067D400069A079B9A42DCD00A4B1B6813F4804F3D
:1067E400D7D0094B1B68012BD3DD094BD3F80435F3
:1067F40001920A4A00926D220749022005F0C4FB67
:10680400C7E700BF1C33002018330020C832002023
:1068140000B00040B8CF03009FCF0300CCCF0300EB
:1068240000B583B002E0019803F0ACFB01A8FFF7C8
:106834008FFF0028F7D003B05DF804FB00B585B0E6
:1068440003901F4B1B6813F4804F03D01D4B1B6830
:10685400032B1FDC1C4903A8FFF77CFF0346A8B9E0
:106864001A4BE02283F8162393F816335B09012BA5
:1068740020D9042B21D0164B9B68B3B1144A13685A
:1068840043F480031360FFF76BFF0346184605B01B
:106894005DF804FB0F4BD3F804350F4A00927522C0
:1068A4000E49042005F070FBD4E7084B4FF4800236
:1068B4001A60E8E742F20203E8E742F20203E5E77E
:1068C4001C33002018330020596B020000E100E063
:1068D400B867002000B0004008D003009FCF030039
:1068E40008B50123002203494968034811F0EEF872
:1068F40008BD00BF8C3400208036002008B5037822
:10690400072B10D00A2B19D0022B00D008BD114B35
:106914001B782BB1104B1B68002BF7D09847F5E779
:10692400FFF7DEFFF2E710220B4B99680B4811F0DA
:1069340057F90028EAD010F0A7F8E7E78168C068A3
:1069440008F01BFA18B9034B01221A70DEE710F0A5
:106954009BF8F8E7893400208C340020803600202E
:1069640010B586B00446194A03AB07CA03C323F81B
:10697400022B120C1A70164B94E8070083E80700E8
:106984000AB31449144811F085F8034610B11846A7
:1069940006B010BD114B009303AB0E4A0E491048CC
:1069A40011F034F803460028F1D10E4812F0FAFB36
:1069B40001460B4811F056F803460028E7D1FFF7CB
:1069C4008FFF0346E3E70723E1E700BF24D003007A
:1069D4008C34002098340020B43700200169020070
:1069E40080360020B834002008B50D4B1B6873B105
:1069F4004FF0A042D2F804350A4909684B40C2F866
:106A04000435074A1368013B136023B108BD002015
:106A140010F03AF8ECE7044810F0CCFBF6E700BFBE
:106A2400F4370020F8370020FC37002021B94FF05C
:106A3400A043C3F8080570474FF0A043C3F80C0502
:106A44007047000012B11346132900D8704770B57F
:106A5400114A10605B00013B104A136000264D0C84
:106A6400CC034FF47A72002314F5FA7045F1000157
:106A740015F08CFB32460146094810F07DFB48B9FD
:106A84004FF0A042D2F804350349096823EA010310
:106A9400C2F8043570BD00BFF8370020F437002079
:106AA400FC37002008B511230BE04FF0A04103F59B
:106AB400E072032041F8220001229A40C1F808251F
:106AC4000133142BF1D9054A0121054810F03EFB8E
:106AD40000B908BD0FF0D8FFFBE700BFED69020065
:106AE40030D0030010B50024144BC3F87C410EE0F1
:106AF40043F23333994208D9114BD3F80425114B8F
:106B04001A60114B1B68204698470134E4B2032CE9
:106B140012D84FF0A043D3F810250C4B195D012374
:106B24008B409343F1D0074B1B68054AD2F80425E8
:106B3400991ADDD5D11ADBE710BD00BF0060004013
:106B440000B00040203800201C38002034D003005E
:106B54000620704700B587B041F20103984245D042
:106B640020D944F20103984256D044F202039842D9
:106B74006DD1454B1B6813F4804F1ED0434B1B68EB
:106B8400002B1ADD424BD3F8043510880390526869
:106B9400029201913F4A00925F223F49012005F091
:106BA400F3F90AE0012852D1374B1B6813F4804FE4
:106BB40003D0364B1B68002B0BDC4FF0A0434FF483
:106BC400F012C3F81825C3F80C25EFF3108372B63E
:106BD40053E02F4BD3F80435029201912F4A0092CF
:106BE40054222D49012005F0CFF9E6E7264B1B6816
:106BF40013F4804FE1D0254B1B68002BDDDD244BC3
:106C0400D3F8043502920191254A00925722224971
:106C1400012005F0B9F9D0E71B4B1B6813F4804F32
:106C2400CBD01A4B1B68002BC7DD194BD3F80435A6
:106C34001068049050680390029192680192194A76
:106C4400009269221449012005F09EF9B5E70E4B24
:106C54001B6813F4804FB0D00C4B1B68002BACDDC9
:106C64000B4BD3F8043501910F4A00926D220A4967
:106C7400012005F089F9A0E730BF0C4B1B78002BED
:106C8400FAD107B05DF804FB1C3300201833002050
:106C940000B00040D0D003007FD0030090D00300A8
:106CA400ACD00300F0D0030014D10300C83200209C
:106CB40000B583B00023ADF80030054B01936A465C
:106CC400014644F20200FFF745FF03B05DF804FB00
:106CD40010D1030010B40346044C006859689A6844
:106CE400DB680FC45DF8044B704700BF24380020F4
:106CF400064B074A92E8030083E803000833443252
:106D040092E8030083E80300704700BF24380020A2
:106D1400600000100048704724380020002308E079
:106D2400074901EBC30000224280426001F833208E
:106D340001331F2BF4D9034B00221A60704700BFA4
:106D4400343800203439002030B405460F4B1B681A
:106D540000240AE01F230E4A12F83300A0B102EB0C
:106D6400C3025288AA4207D001341F2C0BD85A1EE2
:106D7400002BEFD01346EEE7054A02EBC30252683C
:106D84008A42F1D100E0002030BC70473439002041
:106D94003438002030B40A4A13680A4C04EBC305A3
:106DA40068806960012104F833100B441360202BC0
:106DB40001D030BC7047134600221A60F9E700BFC7
:106DC4003439002034380020C0F30C038B4202D342
:106DD400C91A08447047C91A0844A0F500507047FE
:106DE400C37D002B42D083780A7802F0800203F03E
:106DF4007F0313430B7002780B7803F07F0343EA9D
:106E0400C2130B700378002B41D030B44378082BA5
:106E140014BF002201224B7803F07F0343EAC2131C
:106E24004B70858803F08003C5F3861423434B70AD
:106E34008A7802F0030242EA8502D2B28A70857926
:106E440002F0FC02C5F3C10422438A70CB7803F03C
:106E54001F0343EA4513DBB2CB70C27903F0E003AE
:106E640002F01F021343CB7030BC704783780A785A
:106E740002F0BF029B0103F0400313430B70C2787E
:106E840003F0C00302F03F0213430B70B3E77047F3
:106E94000023032B22DC10B402E00133032B19DCA2
:106EA4000F4C6C2202FB034292F84420012AF4D1D5
:106EB4006C2202FB0342948AC2899442EDD1084CAD
:106EC4006C2202FB034292888A42E6D16C2202FBC6
:106ED400034000E000205DF8044B70470020704739
:106EE400AC390020002300E00133032B13DC0B49F1
:106EF4006C2202FB031292F84420022AF4D16C2281
:106F040002FB0312918A828A9142EDD103486C22DA
:106F140002FB030070470020704700BFAC3900201B
:106F240008B10820704704207047000038B50546B2
:106F34000C46CB695B78C370CB691B7883F0010383
:106F44008370CB694362087B022814D0FFF7E8FF03
:106F54006870E27A32B9A18AC0F10F03994201DC68
:106F6400082831D0A18A0346C0F10F00814207DC12
:106F740042B3012205E0154B987DFFF7D1FFE7E707
:106F840001222A7062B1A28A13440B33104A82FB95
:106F94000312DB17C3EB6203013BEB710023AB71FC
:106FA4000023EB7505F10C0294E8030082E803006A
:106FB400A2692A622289AA82A27AAA75226AAA628C
:106FC400184638BD0022DCE70720FAE79439002090
:106FD400ABAAAA2A30B403460C4609788170002172
:106FE4004162A1680B2903D8217BF1B1012100E0A2
:106FF400012119700020587029B1A1680731C9080E
:107004000139D97198710121D97503F10C0504F185
:10701400100103C985E80300E1899982A169196215
:10702400217F99759A6230BC70470021E1E7000026
:107034000021164B1B688B4226D90023144A02EB0D
:10704400C10252689A421DD910B4114A52F8312033
:1070540002EBC30412F8332082420DD001330C4AF0
:1070640002EBC10252689A42EFD80131074B1B6808
:107074008B4205D90023F2E760685DF8044B704742
:107084000020FAE70131D4E70020704738390020A6
:107094003C39002070B58CB006460D4614462C22AF
:1070A400002101A815F042FA0E238DF80430ADF842
:1070B40008604FF0000365F300038DF80A308DF883
:1070C4000B4001A801F0F8F80CB070BD30B58DB0DC
:1070D40005460C462C22002101A815F027FA0F239F
:1070E4008DF8043002958DF80C4001A801F0E4F805
:1070F4000DB030BD00B58DB048B913F1020F06D004
:1071040001228DF80420029301A801F0D5F8034B65
:10711400186803F0FDFE0DB05DF804FB483900204B
:107124002DE9F041054688460378BBB10D4B1C6838
:10713400621C1A6004F00704AB8A0B4F07EBC40609
:107144007380A988A869FFF73FFE7060EB6903F0BC
:107154000103737007F83480BDE8F0817846FFF7C7
:10716400A7FDE3E7903900205039002070B50646AA
:1071740003784BB1B58A347F04F00104B188B06957
:10718400FFF722FE002304E07846FFF791FDF1E7C4
:107194000133072B15D80C4A02EBC3025268824212
:1071A400F6D1094A02EBC3025288AA42F0D1064A38
:1071B40002EBC3025278A242EAD1034800EBC300B7
:1071C40000E0002070BD00BF50390020F0B40D680D
:1071D4004C688F68CE68D5601461576196610D69FB
:1071E4004C69D56114620378DB091370D17DF9B160
:1071F400037803F07F0393700023537013789BB1DB
:1072040043789B0103F4FE53817843EA910393800E
:107214008378DB0003F01803C17843EA51139371B8
:10722400C37803F01F03D37100235362F0BC70478B
:107234000178C1F380119170017801F03F01D170A0
:1072440043B190F90130002B02DB04235370D5E7DE
:107254000823FBE704235370D0E770B50C461E46A1
:1072640003788BB104252A44A26000F10C03236047
:10727400836A6360204604F0ADF9024610B92369BD
:107284001D443560104670BD0125ECE72DE9F04141
:107294008EB00D4616461C46804600282DD0002D83
:1072A4002FD0002C31D0636A0233059304F10C0013
:1072B400A378002B2DD00121627801AF3B46082A28
:1072C40014BF0022012203F068FF0697CDF81C804A
:1072D400B2B2ADF820200B9515440C9563788DF867
:1072E4003430237B022B16D00023ADF8283005A8B8
:1072F40003F04BFF0EB0BDE8F0817846FFF7D8FCF1
:10730400CDE77846FFF7D4FCCBE77846FFF7D0FC0F
:10731400C9E70221D0E723692BB12369099310231C
:10732400ADF82830E3E77846FFF7C2FCF5E72DE92E
:10733400F04186B004460D46C37D002B3ED008269E
:1073440005FB06F8E379AB423AD0A5716B463246A9
:1073540001A92046FFF781FF074648BB4DB994F8C1
:107364004F3033B9A369C3F30C03A380012384F81A
:107374004F30E37D7BB994F84E3063B92DBBB4F83C
:107384004610627823468A1AA16E0846FFF77EFFEC
:10739400012384F84E3005992046FFF721FDA16EA4
:1073A40032464144009815F098F801A804F02CF9ED
:1073B400B7FA87F0400906B0BDE8F0810C26BFE7B4
:1073C400B4F84660A6EB0806BFE77846FFF770FC02
:1073D400D5E770B5054690F84C40002605E0013627
:1073E400631C85F84C300134E4B2EB79A3420AD330
:1073F400AA6C0123A3401A42F5D121462846FFF77F
:1074040096FF0028EBD1304670BDF0B587B04578C3
:107414001544C37DDBB10B239D4221D816460F468C
:1074240004466B462A4601A9FFF717FF0546C0B973
:1074340005992046FFF7D4FCE37D53B13246394623
:10744400009815F04AF801A804F0DEF809E00F23CB
:10745400E2E72346324600993846FFF717FFF2E782
:107464000925284607B0F0BD10B5044690F844300D
:10747400012B0ED1237B012B0FD00C4BDB68A363B4
:1074840003F0A0F8A16B014404F12C0003F02AF8E6
:1074940010BD7846FFF70CFCECE7A37D034AD168E6
:1074A400126902FB0313A363EAE700BF94390020C7
:1074B40038B5002400E00134032C13D80A4A6C23A5
:1074C40003FB042393F84430012BF4D16C2505FB12
:1074D40004252846FFF77DFF0028ECD02846FFF757
:1074E400C3FFE8E738BD00BFAC39002038B5044617
:1074F40090F84430022B02D07846FFF7D9FB054BB5
:107504001D6803F05FF8411904F12C0002F0EAFF52
:1075140038BD00BF9439002038B5044690F8443093
:10752400022B02D07846FFF7C3FB084B5D7D5A68F7
:107534009B6803FB052503F045F8411904F14C0051
:1075440002F0D0FF012384F8643038BD9439002060
:1075540010B504460D4B1B68806E984704F12C004F
:1075640002F0A8FF94F84430022B0AD06C220021C8
:10757400204614F0DBFF002084F8440002F078F881
:1075840010BD04F14C0002F095FFEFE74C390020E8
:1075940010B504460121FFF7C3FD2046FFF7D8FFCD
:1075A40010BD10B58CB0044690F84430012B02D0C5
:1075B4007846FFF77DFB01238DF80430236D029399
:1075C40001A800F079FE2046FFF7C2FF0CB010BD01
:1075D4002DE9F04104460E4615461F46531EDBB204
:1075E400012B46D8A36E13B17846FFF761FB2E4BEF
:1075F4001B6838469847A066002852D03346224676
:1076040006F12001D3F80080D3F804E0D3F808C0D1
:10761400D868C2F80080C2F804E0C2F808C0D0609C
:10762400103310328B42EDD1186859689B68106092
:10763400516093600023A364A4F84670B188B069D4
:10764400FFF7C2FBA061012D17D06FF00103A36205
:10765400002384F86430154B6365E465144B63635D
:10766400E463012002F004F884F844500120BDE8EA
:10767400F0817846FFF71CFBB4E70E4B1B7D84F8C2
:107684004D30002384F84E3084F84F3084F84C3069
:10769400B36A23656FF00103A362074B6363E4637A
:1076A400DFE70020E3E700BF44390020FF81020048
:1076B400E577020094390020F177020030B583B0F9
:1076C400C3790133C27D92B1082505FB03F582B16C
:1076D4004FF48073AB422AD21E4B1B6813F0040F85
:1076E40036D01D4B1B68002B06DC00242DE00C2536
:1076F400EBE74FF4C073EDE7184BD3F8043501956D
:10770400174A009240F263221649012004F03CFC1F
:1077140000241AE0144C6C2303FB02442B4602227F
:1077240001462046FFF754FF78B900240DE00022FB
:10773400032A09DC0C4B6C2404FB023494F8443017
:10774400002BE7D00132F3E70024204603B030BD1C
:107754000024FAE71C3300201833002000B0004056
:10776400A4D1030095D10300AC39002030B585B015
:107774000D460446A8B100212046FFF7D1FC294656
:10778400206DFFF7A3FC2046FFF7E2FE0F4B1B68BA
:1077940013F0040F03D00E4B1B68032B05DC05B05C
:1077A40030BD7846FFF784FAE5E70A4BD3F8043591
:1077B40094F8442002950192074A00924FF4D6723D
:1077C4000649042004F0E0FBE9E700BF1C33002075
:1077D4001833002000B0004030D1030095D10300DD
:1077E40008B508460021FFF7C1FF08BD10B50C46D7
:1077F40091F84430012B09D194F84D307BB9237BA7
:10780400012B07D02046FFF7CCFE10BD7846FFF7CA
:107814004FFAF1E701212046FFF7A8FFF5E7013B06
:1078240084F84D30002384F84C302046FFF7D1FD16
:10783400EBE70000062900D0704770B582B003461C
:107844000178890101F4FE5140789D78DC782404A4
:1078540044EA05641D7944EA05245B791C4341EA42
:1078640090011046FFF714FB0546B8B1866C264319
:10787400866444B3037853B3EB795A1C01239340D1
:10788400013B9E4227D0002385F84C302846FFF761
:10789400A0FD2846FFF7E8FD02B070BD104B1B6841
:1078A40013F0040FF8D00F4B1B68012BF4DD0E4BC3
:1078B400D3F804350D4A009240F2B9420C49022033
:1078C40004F062FBE8E70321FFF750FFE4E77846A2
:1078D400FFF7EEF9D0E72846FFF763FEDCE700BFC9
:1078E4001C3300201833002000B00040B8D103003E
:1078F40095D103002DE9F04389B080460F46144624
:107904001E4695780DB32846FFF792FB8146C8B111
:107914008DF80050236A0693A38AADF80E3004ABA9
:1079240004F10C0292E8030083E80300A37D8DF8C0
:107934001C30CDF80480029723788DF80C30314642
:107944006846C84709B0BDE8F083FFF773FFF9E75D
:1079540000B585B000238DF80F3098B10346084672
:1079640002330B600DF10F0103F013FC9DF80F308F
:1079740043B10D4B1B6813F0040F03D00B4B1B6872
:10798400032B04DC9DF80F0005B05DF804FB084BE5
:10799400D3F80435074A009240F2EB22064904204A
:1079A40004F0F2FAEEE700BF1C3300201833002085
:1079B40000B00040F8D1030095D103002DE9F04355
:1079C4008FB004460E4615461F46D0F8189003782B
:1079D40023B181884846FFF7F7F9A06104F10C0050
:1079E400A378002B3AD0012162780DF12808434690
:1079F400082A14BF0022012203F0CFFBC4F8189018
:107A0400CDF8088003966378EA1A92B2ADF8102094
:107A14003244089207978DF824300023ADF81830CB
:107A2400237B022B1CD0A3786BB3237B022B1BD0AC
:107A34002546002345F8243F2A46E178206A0BF0C6
:107A4400F9FD606A98B101A9FFF782FF00283AD1D5
:107A54002A46E178206A0BF0EDFDF2E70221C3E744
:107A64001023ADF81830DEE723690593E0E7237BA4
:107A7400022B2CD104F10C01E0890BF089FE0028C3
:107A8400D3D1052020E000236362237B012B0DD09A
:107A94002146002341F8243FA08A0BF0E8FD01A908
:107AA400606AFFF755FFA0B100200DE004F1240146
:107AB400E0890BF0DCFD01A9606AFFF749FF0028AB
:107AC400E6D0002000E000200FB0BDE8F0830520E0
:107AD400FAE70520F8E7000070B5F0B00D4614464B
:107AE4001E4610AB0A4601462046FFF767FFA0B1C9
:107AF4001F4B1B6813F0040F37D01E4B1B68052B5C
:107B040033DD1D4BD3F804351C4A00924FF4A562B3
:107B14001B49062004F038FA27E003AB01228DF854
:107B24000C20A28AADF80E20002204928DF81420B5
:107B340010AA06926278AD1AADF81C5008AA93E810
:107B4400030082E803000AAB04F10C0292E803008C
:107B540083E80300A37D8DF83830236A0C93636AAD
:107B64000D930F9605A800F0A7FB70B070BD00BF81
:107B74001C3300201833002000B000401CD2030046
:107B840095D1030010B5D47D14B9FFF7A5FF10BD3E
:107B9400FFF7B0FEFBE700002DE9F04385B004AF2A
:107BA40043781344C47D94B14FF480749C4273D3DE
:107BB400EFF3108C72B60024032C10DC3B4E6C25C2
:107BC40005FB046595F8445025B10134F4E74FF4FE
:107BD400C074EBE735466C2606FB045400E0002431
:107BE400BCF1000F00D162B6002C5AD015460E46E7
:107BF400014601222046FFF7EBFC002853D02A4619
:107C04003146A06E14F069FC294B1B6813F0040F75
:107C14003AD0284B1B68032B36DD6D46B4F846E09A
:107C24004FEA4E030833DB08A5EBC3039D460DF171
:107C34001008C446002312E0A26ED25C4FEA121967
:107C440059001D48066816F809600CF8136002F024
:107C54000F0201310068825C0CF801200133734586
:107C6400EAD3002308F81E30144BD3F80435CDF8BA
:107C74000880134A0192134A009240F2F7321249E3
:107C8400042004F081F9AD462046FFF7A2FB20460C
:107C9400FFF7EAFB002000E009200437BD46BDE8F9
:107CA400F0830420F9E70420F7E700BFAC39002093
:107CB4001C330020183300202033002000B0004083
:107CC400E8D1030018CF030095D1030070B5044632
:107CD4000D461646808A01F091FF01281AD1237BB4
:107CE400D3B1022B0BD094F91630002B16DB23787A
:107CF40053B9324629462046FFF787FB0BE0236938
:107D0400002BF0D1102006E0324629462046FFF72A
:107D140043FF00E0102070BD1020FCE70720FAE7C5
:107D240008B50549054800F04FF800B908BD784684
:107D3400FEF7BEFFFAE700BF61C30300CDC2030034
:107D440010B5FFF7EDFF4FF4D8720021134814F07B
:107D5400EDFB05F0AFFA0024114B1C6040222146D4
:107D6400104814F0E3FB104B104A1A60104A5A6092
:107D74004CF250329A600F49D9601A6104221A7584
:107D84009C7508225A750C4803F0A2F80B4B186036
:107D94000B4B1C600B4805F093FB10BDAC39002065
:107DA40090390020503900209439002080969800A2
:107DB400F049020020A10700B57F020048390020E5
:107DC40038390020F970020008B50346B0FA80F093
:107DD40040090A46B1FA81F14909884210D14BB1F0
:107DE400EFF3108072B608490B60084B1A6048B96B
:107DF40062B606E0002AF3D1FFF792FF002000E00C
:107E04000E2008BD0020FCE7443900204C39002036
:107E1400C0B110B58CB004460369B3B1C369B3B142
:107E24008369B3B1014601A8FFF780F8034610B196
:107E340018460CB010BDA28A216901A8FFF746FFBD
:107E44000346F5E70E23184670470E23F0E70E238A
:107E5400EEE70E23ECE7D0B110B58CB004464068D1
:107E6400B8B1A269BAB1207C022816D0B8B194F98D
:107E74000020002A15DB0A46214601A8FFF7AAF8CC
:107E8400A268616801A8FFF721FF0CB010BD0E20A5
:107E940070470E20F9E70E20F7E71020F5E71020D1
:107EA400F3E70720F1E70000037B012B01D000205A
:107EB400704710B58AB000228388C3F386148DF806
:107EC40000409B008DF801300B0E8DF802300B0C36
:107ED4008DF803300B0A8DF804308DF80510062355
:107EE400049301238DF81830838AADF81A30079271
:107EF4008DF80820CDF80CD0036A08938DF814206F
:107F0400C389ADF81630837D43B98DF824206FF012
:107F1400010102A8FFF79FFF0AB010BD024B5B7D71
:107F24008DF82430F3E700BF9439002038B50024DD
:107F34000BE01E4A6C2303FB0423DB795A1C012348
:107F44009340013B9D4228D00134032C2CD8174A7E
:107F54006C2303FB042393F84430022BF4D16C23E9
:107F640003FB042393F86430022BEDD16C2000FB57
:107F74000420816CFFF798FF0028E5D10B4A6C239D
:107F840003FB04F3D11881F864008D6CD35C002BDF
:107F9400CFD17846FEF78CFECBE7044B6C2000FB78
:107FA4000430FFF7F5FACFE738BD00BFAC39002045
:107FB40008B5FFF77DFAFFF7B9FF012008BD0000FF
:107FC4002DE9F04182B007460E4614469846104605
:107FD400FEF788FF054620B1A28883889A4210D311
:107FE40012D82046FFF7C2F8B8B103784BB1237812
:107FF4007BB1E1794B1C0121994001392046FFF7FF
:1080040053FF02B0BDE8F0810521FFF7AFFB002567
:10801400E7E77846FEF74CFEEBE7002D4FD0464BE2
:108024001B6813F0040F03D0444B1B68032B55DC6F
:108034002846FFF75BFA2B7B012B5DD0AA6CA17954
:1080440001238B401A42DCD11343AB64A279EB7950
:108054009A4259D0E37D002B61D00823B34260D10A
:10806400AB6EA079E27D002A60D0082432463946FE
:1080740004FB003014F031FAAC6C2B78002B57D091
:10808400EB795A1C01239340013B9C42B9D1022352
:1080940085F86430A96C2846FFF706FF044643467A
:1080A4002A46B5F84610A86EFFF76CFD002CA8D13F
:1080B400002385F864302846FFF76AFAA1E72046D2
:1080C400FFF7FCFA05460028A9D100212046FFF756
:1080D400EBFE02210020FEF7F9FF92E7184BD3F8DC
:1080E4000435A2790192174A009240F2A722164958
:1080F400042003F049FF9BE795F86430002B9DD1E1
:108104002846FFF709FA99E79BB2E27D2AB10822D3
:1081140003FB0263A5F84630A2E70C22F8E70C2320
:108124009CE704212846FFF721FB6AE70C249DE71E
:108134007846FEF7BDFDA3E71C330020183300206A
:1081440000B000400CD2030095D103002DE9F041AA
:108154008EB000284DD00546002A4CD098461446CF
:108164000F4600220C920D920CA960880BF010FBB4
:1081740020B9002630460EB0BDE8F081226902F035
:108184000102E168208905F061F808B10026F1E7F1
:10819400226902F00102E168208905F023F806460D
:1081A400C0B901AA21462846FFF710F804AB0EAA6D
:1081B40012E9030083E8030002F048FE9DF804304E
:1081C40083B1434601AA391F281DFFF7F9FE02F0C7
:1081D4005DFECFE72169002201F001012089FEF74D
:1081E40059FFC7E7434601AA791E681CFFF7CAFC7A
:1081F400EDE70E26BEE70E26BCE710B50C4691F857
:108204004430022B0BD1022384F86430A16C204645
:10821400FFF74AFE10B9002384F8643010BD784695
:10822400FEF746FDEFE70000F8B500B30546164B30
:108234001F68F7B90E463C46B4420ED205EBC403A0
:108244005B68CBB115F8340010F0800F16D1B8B1CB
:10825400FEF7EEFEB0B90134EEE70C4B43F83750AD
:1082640003EBC7035E607B1C074A136002E00E2722
:1082740000E004273846F8BD0E27FBE70B27F9E793
:108284000F27F7E70F27F5E7383900203C3900209E
:10829400084B196861B110B501E021463CB10C6886
:1082A4000B79002BF9D0034803F0D7FDF5E710BD97
:1082B400704700BF603B002038B5054630B1104B15
:1082C4001C68ACB10F4B01221A7004E07846FEF72B
:1082D400EFFCF4E724683CB12379002BFAD154F87D
:1082E400043C28469847F5E7064B1B78022B00D040
:1082F40038BDFFF7CDFF034B00221A70F8E700BF2B
:10830400603B00205C3B002010B5044630B10023E4
:108314002372211D034803F075FD10BD7846FEF756
:10832400C7FCF4E7603B002010B5044650B10A4B8B
:108334001B78013BDBB2012B08D9211D074803F050
:108344008CFD10BD7846FEF7B3FCF0E7024B022229
:108354001A7001232372F4E75C3B0020603B002089
:108364000A8883689B5A07339BB223F003031344A0
:108374009BB20288043A934200D900230B807047D1
:1083840010B582B004468368CB1A02A921F8023DD5
:10839400FFF7E6FFBDF80630A068184402B010BD30
:1083A4000088043880B2704743888268D018D1525C
:1083B4000123837070478268002393704380838015
:1083C4007047073189B221F0030189B2428883885A
:1083D4009A4204D29B1A99421CDC0020704710B5C3
:1083E4009A420FD90488A41AA14215D98B4215D3F5
:1083F400032C03D98368134404229A700023438016
:10840400184606E0826813449B784BB9FFF7D3FF04
:10841400002010BD042070470020FAE70420F8E78C
:108424000420F6E738B504460D4683688288134471
:108434008B4202D07846FEF73BFC0023AB70211D33
:108444002046FFF78DFFA288A36813449B78042B72
:1084540000D038BD0023A380FBE710B50C46836829
:10846400428813448B4202D07846FEF721FC002355
:10847400A37010BD70B5064615460C46002944D0BD
:10848400002E46D0B4F1005F08D94FF08053D3F8E2
:108494000C3103F50023B4EB832F0ED3B4F5000F96
:1084A40008D94FF08053D3F80C3103F50053B4EBE3
:1084B400832F02D37846FEF7FBFB6B1E2344B3F1F4
:1084C400005F08D94FF08052D2F80C2102F5002247
:1084D400B3EB822F0ED3B3F5000F08D94FF08052BF
:1084E400D2F80C2102F50052B3EB822F02D3784666
:1084F400FEF7DEFB042D10D9358000237380B38092
:10850400B460043D2580A37070BD7846FEF7D0FBAF
:10851400B6E77846FEF7CCFBB4E77846FEF7C8FB2F
:10852400EAE738B50446A0B16288A36813449B788F
:10853400012B12D0A388A1681944EFF3108572B6F9
:108544008B78032B0DD02046FFF735FF05B962B6B3
:1085540038BD7846FEF7ACFBE6E77846FEF7A8FBA5
:10856400E8E72046FFF70CFFA368C31A63800023E3
:108574008370EBE7F8B50E4615460446C0B1DEB18C
:108584006288A36813449B78012B19D0E5B1204677
:10859400FFF706FFA84219D329462046FFF711FF2B
:1085A4000746A0B929462046FFF7FEFE30600EE0DC
:1085B4007846FEF77DFBE2E77846FEF779FBDFE7D6
:1085C4007846FEF775FBE1E7092700E009273846FE
:1085D400F8BD70B50C4616460546B8B1D4B1A378BB
:1085E400012B1BD12388B3421CD3FEB12680022366
:1085F400A370E9182846FFF7B3FE6A88AB889A424D
:1086040003D0AB68134400229A7070BD7846FEF71D
:108614004FFBE3E77846FEF74BFBE0E77846FEF7CF
:1086240047FBDFE77846FEF743FBDEE77846FEF7D5
:108634003FFBDBE738B50D46044668B185B1A28837
:10864400A36813449A78042A0ED09A78022A13D085
:10865400032A16D0052013E07846FEF729FBEDE740
:108664007846FEF725FBEAE7211D2046FFF778FE52
:10867400A288A3681344E8E703229A702B600020C1
:1086840038BD7846FEF714FB0020F9E710B5044620
:1086940058B1A088A16801448B78042B09D088784C
:1086A400022814BF0020012010BD7846FEF700FB0D
:1086B400EFE72046FFF764FE0146F0E710B50446F5
:1086C40018B1A088A168014407E07846FEF7F0FAE3
:1086D400F7E72046FFF754FE01468878C31EDBB255
:1086E400012BF6D9022814BF0020012010BD38B593
:1086F4000C46054650B16CB1A378012B0ED0032B68
:1087040011D121462846FFF78DFE38BD7846FEF785
:10871400CFFAF0E77846FEF7CBFAEDE72146284694
:10872400FFF79BFEF1E77846FEF7C2FAEDE700009B
:1087340008B5064B986800221A605A609A60DA609D
:108744001A615A619A6104F0A3FB08BD643B0020DE
:1087540000B585B00A4BDB6802228DF80020019336
:108764004FF480530293074A6946012001F0AAF9A5
:1087740018B1002005B05DF804FB0120FAE700BF42
:10878400643B0020803B002000B585B00A4B1B6889
:1087940002228DF8002001934FF480530293074A7C
:1087A4006946012001F08EF918B1002005B05DF88A
:1087B40004FB0120FAE700BF843B0020803B00203B
:1087C400164BDA68137951795B1A03F57F2303F6A4
:1087D400FF7302EB03339A4205D002F580520F4B2C
:1087E400DA600320704700B585B00D4B1B6801208B
:1087F4008DF8000001930B4B0393042302930A4A60
:10880400694601F05FF918B1002005B05DF804FB7A
:10881400024B01221A760220F7E700BF643B0020D6
:10882400843B0020883B0020803B002000B585B0BD
:108834000C4BDA680C4B1B68043301208DF80000E4
:108844000192039340F6FC730293084A694601F0CF
:1088540039F928B90120034B187605B05DF804FBFB
:108864000020FAE7643B0020843B0020803B00208A
:1088740000B585B00A4B1B6801208DF800000193F8
:10888400084B039304230293074A694601F01AF93B
:1088940018B1002005B05DF804FB0120FAE700BF21
:1088A400843B0020703B0020803B002010B584B046
:1088B400114BDA681478114B1B68043301208DF8CE
:1088C40000000193039202940D4A694601F0FAF8FC
:1088D40080B90A4B1B6804F0FC041C440434064BA6
:1088E4005C61D9680A780A441A6100225A76012028
:1088F40004B010BD0020FBE7643B0020843B002053
:10890400803B002008B50023092B09D8064A52F8F9
:108914002320824201D00133F6E7044A536002E087
:108924007846FEF7C5F908BD48D20300643B002031
:1089340010B5214BDB6853B11F4B1B7E5BB91E4B3B
:108944005B68092B15D97846FEF7B2F911E0784631
:10895400FEF7AEF9F0E77846FEF7AAF9EFE7164B13
:1089640000225A60012C01D0032C23D1124B1B7E10
:1089740003BB114B5A68114B53F8223098470446F5
:1089840002280DD00328EAD00128EBD10A4A536803
:1089940001335360092BE5D97846FEF789F9E1E7FD
:1089A400054B1B7E1BB1044B02221A70DAE7FFF75A
:1089B400BFFED7E710BD00BF643B002048D20300D0
:1089C400104B1B681B685A1E12F1030F18D8C3F30F
:1089D4000B020AB10020704710B50B4AD360002384
:1089E400137653760124147093600848FFF78AFFC6
:1089F4000749204601F054F8FFF79AFF204610BDBE
:108A040000207047843B0020643B0020558702000F
:108A1400198A020008B50B78032B06D00B4B1B7880
:108A2400012B06D0022B0BD008BD084B00221A766E
:108A3400F4E7064B1B7E002BF6D1FFF779FFF3E733
:108A44000B78032BF0D1FFF773FEEDE7643B0020B6
:108A540000B585B0174BDB6818784FF6FF7203F545
:108A64008051184404F0E2FCF0B10246114BD9687D
:108A74000B780B44984219D00E4B5B7E93B10E4B8E
:108A840001208DF8000001920393042302930B4A02
:108A9400694601F017F858B90120064B187605B05D
:108AA4005DF804FB064BEBE70120F8E70120F6E74D
:108AB4000020F4E7643B00209CD40300803B0020AA
:108AC40098D4030008B5104BDB681878002203F52E
:108AD4008051184404F0AAFC08B1012008BD0A4BD7
:108AE400DA68137951795B1A03F57F2303F6FF7370
:108AF40002EB03339A4205D002F58052024BDA604E
:108B04000320EBE70220E9E7643B0020F0B585B0E1
:108B1400524BDE6872793379591E8A4200F096808E
:108B240006F580510D780D444D490968081D0F79EB
:108B340007449B1A03F57F2303F6FF731B0303F516
:108B440080531E446B88013B9BB247F6FE629342FE
:108B54005CD92C4616E07846FEF7AAF815E024F412
:108B64007F6424F00F0404F5805423781C44A64247
:108B740047D9A54247D26388013B9BB247F6FE62C0
:108B8400934211D92388002BE5D0238804EB830377
:108B940023F47F6222F00F029342E0D06288B2F5A0
:108BA400FE4FDCD01C46E2E725462FE07846FEF770
:108BB4007FF815E024F47F6424F00F0404F5805456
:108BC40023781C44A64220D9A5423BD26388013BAA
:108BD4009BB247F6FE62934211D92388002BE5D05D
:108BE400238804EB830323F47F6222F00F02934271
:108BF400E0D06288B2F5FE4FDCD01C46E2E72546A1
:108C040004E0002502E0002500E00025E5B1144B56
:108C140019686A8801F58051384604F007FC074654
:108C2400B8B101200D4B18768DF8000001950D4B5D
:108C34000393042302930C4A694600F043FF50B99E
:108C44002C46CAE70025E1E7012000E0012005B039
:108C5400F0BD0120FBE70020F9E700BF643B0020E2
:108C6400843B002094D40300803B00202DE9F04194
:108C740086B06A4B1B692BB1684B5B6933B14FF00B
:108C8400000848E07846FEF713F8F5E77846FEF763
:108C94000FF8F4E77846FEF70BF815E025F47F6546
:108CA40025F00F0505F580552B781D44AE421CD9DF
:108CB400AC421ED26B88013B9BB247F6FE629342E4
:108CC40011D92B88002BE5D02B8805EB830323F4E3
:108CD4007F6222F00F029342E0D06A88B2F5FE4F21
:108CE400DCD01D46E2E72C4600E000241CB10094D1
:108CF40045E00024FAE700230093019B002B68D190
:108D04004FF0010824B1628847F6FF739A4202D1FA
:108D1400424B01225A76414B5B7E002B7AD1B8F14B
:108D2400000F75D13D4B5A6922F47F6727F00F0776
:108D3400BF1A07F580571C69DE68337972799B1A6C
:108D440003F57F2303F6FF731B0303F580531E44CF
:108D5400002301936388013B9BB247F6FE62934272
:108D6400C5D92546ADE77846FDF7A2FF22E024F4F5
:108D74007F6424F00F0404F5805423781C44A64235
:108D8400BBD92388019A02EB83029742B5D9009B91
:108D9400634023F47F6323F00F03002BADD163887A
:108DA400013B9BB247F6FE618B42A6D80192238811
:108DB400002BD8D0238804EB830323F47F6222F0B2
:108DC4000F029342D3D06288B2F5FE4FCFD01C4637
:108DD400D5E7124A526901208DF808000392009ADF
:108DE400059204930E4A02A900F06CFE70B90B4977
:108DF400019B23F003024B6913444B6114B1074BED
:108E04001C617FE77846FDF753FFF8E7002002E096
:108E1400012000E0012006B0BDE8F081643B0020A1
:108E2400803B002008B54FF010235B69B3F1FF3F8E
:108E340003D04FF010235B6963B94FF0805251693E
:108E4400136903FB01F3A3F58053054A1360FFF78D
:108E5400B7FD08BD4FF010235B69A3F58053F2E71B
:108E6400843B0020024B1878003018BF0120704763
:108E7400643B002010B504460E4B1B78ABB9237835
:108E8400032B02D07846FDF713FF0A4B9C60E2687F
:108E9400DA6000225A601A76012018705A76064960
:108EA40000F0FEFDFFF744FD10BD7846FDF700FF1E
:108EB400E5E700BF643B0020198A0200014B1868F3
:108EC400704700BF843B002010B5044680B163683E
:108ED4001BB123680BB1A36813B97846FDF7E8FE0C
:108EE400A3685A1E134207D10023E360236110BD17
:108EF4007846FDF7DDFEEAE77846FDF7D9FEF3E7AD
:108F0400F8B5F8B10446F9B18268FAB1EFF3108507
:108F140072B6026980680244E668B24203D1C5B9F8
:108F240062B6042513E027686368013830401A46A6
:108F340000FB037013F0D1FAE3680133E36055B921
:108F440062B604E00E2502E00E2500E0092528465D
:108F5400F8BD0425FBE70025F9E770B5F0B1044638
:108F64008268EAB1EFF3108572B60669C268964268
:108F740010D0084621686268A368013B1E4006FBC6
:108F8400021108B113F0A9FA23690133236165B909
:108F940062B606E03DB962B6052502E00E2500E0A2
:108FA4000925284670BD0525FBE70025F9E70000E3
:108FB400C0F30B0333BB39B301F6FF71090B134B39
:108FC4000222C3F80425114BD3F80034002BFAD045
:108FD40000220AE00D4BC3F808050C4BD3F800340B
:108FE400002BFAD000F5805001328A42F2D3074BAD
:108FF4000022C3F80425054BD3F80034002BFAD023
:1090040000207047102070470920704700E001409D
:1090140010F0030F2FD111F0030F2FD182B312F0F0
:10902400030F2FD110B49208174B0124C3F8044541
:10903400154BD3F80034002BFAD002E0043004318D
:109044002246541E52B10B68B3F1FF3FF6D00360C1
:109054000D4BD3F80034002BFAD0EFE70A4B002174
:10906400C3F80415084BD3F80034002BFAD010468B
:109074005DF8044B70471022104670471022FBE73E
:109084000922F9E70922F7E700E001400180002303
:10909400438042607047000038B5124C4FF480554D
:1090A4002A460021204613F041FA0F4B1C600AE0C7
:1090B400002228212046FFF7E9FF238808332344B0
:1090C4006360303D1C46502DF2D8083D05D0002287
:1090D400A9B22046FFF7DAFF38BD7846FDF7E8FD70
:1090E400F5E700BF8C3B00208C4B002008B508221C
:1090F4000221084803F04DFD38B1074A91684160E8
:10910400127B027203F07EFD08BD044803F098FE52
:10911400FAE700BF984B0020E44B0020DC3200202B
:109124000E4B1B78CBB910B50D4B5C6804F500549D
:10913400B4F1807F00D910BD04220121094803F055
:1091440028FD30B14460054A0121117003F05AFD35
:10915400F1E7054803F074FEEDE77047F84B002093
:10916400E44B0020984B0020CC32002010B504467C
:1091740008B1A04710BD7846FDF79AFDF9E7000055
:1091840008B501210C4803F065FD20B902210A4805
:1091940003F060FD28B1094803F052FEFFF7C0FF59
:1091A40008BD074A0023136053609360D3601361C2
:1091B400044A1370F2E700BF984B0020FC320020F1
:1091C400E44B0020BC4B002000B58DB004918DF819
:1091D400082003900CA8022300F82C3DFFF76CF83C
:1091E4000DB05DF804FB000010B58CB00C4682B9DC
:1091F4004B88012B20D1134B1B7833B16268124B7F
:109204005A60104B00221A7016E07846FDF750FDA4
:10921400F4E7032A12D12C22002101A813F086F9C5
:1092240010238DF804300394084BDA6805921B6907
:10923400069301A8FFF740F80CB010BD7846FDF77F
:1092440037FDE8E7F84B0020E44B0020984B002062
:1092540038B503F00DFE28B901F0C2FE0028F8D09D
:1092640020BFF6E701F0F2FD002211461A4803F090
:10927400EAFB00252C4605E0051D024600211648A0
:1092840003F0E1FB30B14388012BF5D0022BF4D17C
:10929400041DF2E7A4B19DB12268104B9A602279B3
:1092A4001A73AC4201D9237993B12A680B4B1A6023
:1092B4000A4B1A685A60FFF733FF01F0E7FD38BD27
:1092C400064B00221A609A601A73FFF70FFFEFE74C
:1092D400024B00221A60EBE7984B0020E44B00207D
:1092E40008B503F007FEA0F5805008BD00B587B0AF
:1092F4000023009301930293039304930593FFF7D0
:10930400EFFF009001230193064B0393694606483F
:1093140003F050FD10B907B05DF804FB034803F0F7
:109324008FFDF8E7ED910200984B0020EC3200200D
:1093340010B50B4B00241C605C609C60DC601C61FD
:1093440001F040F9074B5860074A9A60074ADA600F
:109354001C615C61064B1C70FFF7C8FF10BD00BFA9
:10936400E44B0020C04B0020AD940200008793031F
:10937400F94B002008B5084B1B7803B108BD07481A
:10938400074B036000F0FAFD064801F06DF8024B4C
:1093940001221A70F2E700BF944B0020D84B002042
:1093A400D9950200C04B002038B501F04FFD174B92
:1093B4001B7B13BB154B9B7B23BB144B1A8A41F2BB
:1093C40082639A4204D8124B1B78A3B1012300E0B4
:1093D4000123CBB10D4D01232B7300242C82AB68E8
:1093E4000133AB60FFF782FEA9682A7B013920466E
:1093F400FFF7EAFE02E00023EBE7082401F046FD54
:10940400204638BD0824F9E70824F7E7E44B002098
:10941400F94B002010B501F019FD214B5B7B9BB18A
:109424001F4B9B7BF3B91E4B1A8A41F282639A420B
:1094340004D81C4B1B782BB1012300E001239BB102
:10944400012302E00023FAE700231C461BB3144B5C
:1094540000225A731B7B4BB1012B0ED07846FDF7CB
:1094640027FC18E00023F0E70023EEE7FFF79CFF5A
:1094740088B17846FDF71CFC0DE0094B002018600C
:1094840058601873188202469968FFF79DFEFFF72B
:109494002DFEFFF745FE01F0F9FC204610BD00BF8C
:1094A400E44B0020F94B002008B5214B1B7B7BB11A
:1094B400012B20D07846FDF7FBFB1D4A138A0133AC
:1094C40013821B4B5B8A13B1013B194A538208BDBB
:1094D400174B1A8A41F282639A4204D8154B1B78BF
:1094E4003BB1012300E00123002BE6D0FFF792FFFC
:1094F400E7E70023F8E70E4B1B8A41F282629342AE
:1095040004D80C4A127872B1012200E00122002A28
:10951400D3D042F2B012934207D9054B01225A73B9
:10952400FFF778FFCDE70022F1E7FFF773FFC4E709
:10953400E44B0020F94B002038B5254B1B7B002B56
:1095440036D10446224B5B8A33BB1AB9204B9B6845
:109554008B4205D302B31E4B9B6801338B421BD253
:109564001B4B9B682A338B4224D3194B9B7B0BBB2D
:10957400174DA9602B606B602B8242F606526A82FB
:109584006B732B73FFF7B2FDFFF7CAFD2A7BA96843
:109594002046FFF719FE0DE062B10D4B9B680133C5
:1095A4008B4207D10A4B01225A73FFF733FF01E0C4
:1095B400012B00D038BD002AFCD1054B9B688B429F
:1095C400F8D1034B01225A73FFF724FFF2E700BFDF
:1095D400E44B00200378042B00D0704743681B78C9
:1095E400002BFAD010B58468027E437E012A14BF92
:1095F40000220122416904F11000FFF79DFF10BD14
:1096040010B5184B1A685B689A4225D20446154B6C
:109614001B7B012B13D0144B9A4212D2114B1A68A4
:109624005B68403B9A4214D2EFF3108072B60D4A45
:109634001368591C1160236090B962B610BD0B4BBE
:10964400EAE7084B01225A73FFF7E4FE0028EBD146
:10965400E4E7FFF765FDE7E7FFF762FD0F20EDE7BD
:109664000020EBE7E44B0020FFFF7F0000E0FF0059
:1096740008B568B90C4B1B6893B10B4A1368013BDE
:10968400136063B9094B00229A73FFF7C3FE06E027
:10969400064B01229A73044A13680133136008BD10
:1096A4007846FDF705FBE8E7904B0020E44B0020EB
:1096B40000B58DB0ADF808008DF8102003910CA80A
:1096C400032300F82C3DFEF7F7FD0DB05DF804FB15
:1096D400014B9868704700BFE44B0020054B1B7B8F
:1096E400012B02D0034B98687047024B98680138ED
:1096F400704700BFE44B0020044B9B68584010F0B7
:10970400010F00D0013B1846704700BFE44B002016
:10971400014B187B704700BFE44B002038B50A4B5F
:109724001B7873B9084B01221A70084DA86029737D
:10973400FFF7DCFC00242C606C60FFF7F1FC204692
:1097440038BD0820FCE700BFBC4B0020E44B0020E0
:109754002DE9F041002724E02449BC2303FB04F352
:10976400CA5A0132CA520221284602F04DFA013681
:109774000221284602F018FA80B11C4ABC2303FBDC
:109784000423D3F80880B8F1000FE5D0BC2303FB11
:1097940004F3D25A01463846C047DDE78EB9013793
:1097A400FFB2022F1FD83C46BC2303FB07F3083348
:1097B4000E4D1D4404350221284602F0F5F9002619
:1097C400DAE70021284602F087FA0828E7D1074B98
:1097D400BC2202FB0434A368002BE0D0002204491D
:1097E40038469847DBE70120BDE8F081044C0020AF
:1097F40070D2030008B5082383731023437300F168
:109804001C0343610323037300F1180303610C3049
:1098140002F034FA08BD000008B50378012B06D025
:10982400022B07D07846FDF743FA002001E04FF4FD
:10983400A97008BD0048FCE7645E010008B5027821
:10984400012A07D0022A13D07846FDF731FA4FF4E3
:10985400FA7308E083685B1A98084FF4A97303FB52
:1098640000F303F5FA730748984228BF184608BD69
:1098740083685B1A180B044B03FB00F303F5FA73BC
:10988400F1E700BFA0860100645E010010B5044644
:1098940001210C3002F088F9A0B10D4AC4F89C20D3
:1098A4000022C4F8A0206168FFF7C8FFC4F8A8002C
:1098B400C4F8AC40012384F8B83004F19C000AF0E9
:1098C400A5FC00B910BD7846FDF7F2F9FAE700BF30
:1098D400D5990200F8B506460C4617461568037874
:1098E400012B18D11249A1FB0431C9098900B468BC
:1098F400641B8C4200D30C468CB1706825F00305C0
:10990400F168224629442844FFF782FB58B93B6892
:109914001C443C60F8BD7846FDF7CAF9E2E7784696
:10992400FDF7C6F9E9E77846FDF7C2F9EFE700BFAE
:10993400EB5DF260F8B507460C46164615680378E9
:10994400022B16D1114BA3FB04231B0C1B03BC6875
:10995400641B9C4200D31C467CB1786825F0030547
:1099640021462844FFF724FB58B933681C4434606B
:10997400F8BD7846FDF79CF9E4E77846FDF798F9D9
:10998400EBE77846FDF794F9EFE700BFB77609BB3C
:1099940038B505460C4611462378012B06D0022B18
:1099A4000FD07846FDF784F9002304E0021D204619
:1099B400FFF790FFA3686868984214BF0020012055
:1099C40038BD021D2046FFF7B5FFA368F3E700008A
:1099D4002DE9F8430F46D1F8A850234B1B7863B9FF
:1099E4000646A5F5FA7501F10C090121484602F075
:1099F400DBF8804640B1002422E00AF043FC002357
:109A040087F8B830BDE8F8837846FDF751F9F2E7F6
:109A14000AF038FC0121484602F0F6F800237B6086
:109A240087F8B830114B186801F072FA3846FFF71E
:109A34002DFFE7E74046FFF7EFFE2044A8420CD88D
:109A44002A1B41463846FFF7A3FF0028E0D100F067
:109A5400B9FD841BEED5341AECE70AF013FC384642
:109A6400FFF714FFCEE700BF004C0020FC4B0020A2
:109A740010B5084801F02CFA074B1860002406E0E2
:109A8400064BBC2000FB0430FFF7B4FE0134022C6B
:109A9400F6D910BD55970200FC4B0020044C002061
:109AA40038B504460D46022805D8054BBC2202FBF6
:109AB4000434A56038BD7846FDF7FAF8F5E700BF31
:109AC400044C00202DE9F84306460C4617460228AC
:109AD40016D8CCB12378012B1AD0022B3ED163685F
:109AE400C3F30B03002B31D1A368C3F30B03002B87
:109AF40030D1A368002B34D17846FDF7D9F830E093
:109B04007846FDF7D5F8E4E77846FDF7D1F8E1E7C4
:109B1400636813F0030F0DD1E36813F0030F0DD145
:109B2400A36813F0030F0DD1A368D3B97846FDF7EA
:109B3400BFF816E07846FDF7BBF8EDE77846FDF789
:109B4400B7F8EDE77846FDF7B3F8EDE77846FDF7AB
:109B5400AFF8C9E77846FDF7ABF8CAE77846FDF7F2
:109B6400A7F8EFF3108872B6BC2505FB06F505F1DE
:109B74000803204D1D4404350021284602F014F842
:109B8400814668B30021284602F03EF820686168E7
:109B9400A268E368C9F80000C9F80410C9F80820ED
:109BA400C9F80C302FB1134ABC2303FB06235B888E
:109BB4003B80104ABC2303FB06235A8801325A8097
:109BC40093F8B83073B90C4B1B780BB100200AE042
:109BD400084BBC2000FB0630FFF758FE002002E0D3
:109BE400042000E00020B8F1000F00D162B6BDE807
:109BF400F88300BF044C0020004C002018B1830BF4
:109C0400024AD05C70470020704700BF80D2030036
:109C140012DF704700B583B01378A3B1042B14D1BD
:109C2400072110F8013C163B152B31D8DFE803F06F
:109C340059303030303030303030303030303030F7
:109C44003030302E0F3A517DEBE70021E9E702294D
:109C540001D007291CD110F8021C013901F03AFD8A
:109C6400B0B1264B1B6813F0400F11D0244B1B6876
:109C7400012B0DDD234BD3F804350190224A0092C9
:109C84008A222249022002F07FF901E0022902D04F
:109C940003B05DF804FB10F8021C0139C9B20FF0DF
:109CA400A3FAF5E70229F3D110F8021C0139C9B26D
:109CB40003F02EFB0028EBD0104B1B6813F0400F71
:109CC400E6D00F4B1B68012BE2DD0E4BD3F80435B5
:109CD40001900F4A00929D220C49022002F054F98F
:109CE400D6E701884FF6E4639942D1D110F8021CFB
:109CF40003390230FCF72CFFCAE700BF1C330020F5
:109D04001833002000B0004010D3030005D3030033
:109D14003CD3030070B58AB00AF0CEFF58B30646B0
:109D240000238DF8103005AC05460FCD0FC42B6809
:109D34002360727D052A04D9337D03F00F03072BBA
:109D440020D1184B1B689BB104AB0393337DC3F341
:109D540003038DF80430737D062B1DD9063B8DF863
:109D6400053006F11D0302930E4B1B6801A89847AA
:109D740030460AF081FF0AF0B9FF80F00100C0B25A
:109D84000AB070BD307D04AB063A06F11D0100F047
:109D94000F0009F0A1FDD4E700238DF805300293EC
:109DA400E2E700BF3C4E002070B582B02F4B1B7819
:109DB400002B52D1002854D0067A0F2E01D0072E42
:109DC40051D10446C06870B1FCF784FF0DF107005F
:109DD400FFF71EFF0546002840D19DF80730012BF0
:109DE40004D002253AE0FCF783FFEFE7FCF796FF87
:109DF40000F028FB304600F0F1FFE07800F046F96F
:109E040000F000FF0AF0D0F919480BF00BF809F044
:109E140001FFFFF72DFE04F08BFA00F043FD04F080
:109E240057FF204601F0BEFB2046FDF789FF03F0F3
:109E34002BFE2046FFF730F9FCF78AFE18B10628FE
:109E440001D005460AE00B4809F028FD0A4B002220
:109E54001A60064B01221A7000E00825284602B059
:109E640070BD0E25FAE70725F8E700BF394E00203C
:109E7400199D02000C3300203C4E002030B583B005
:109E8400204B1B78002B35D01F4B1B78002B33D174
:109E940000F0DEFEC0B90AF0A9F9044668BB0AF076
:109EA400D5FE01F091FBFCF753FE0546F0B1062800
:109EB4001CD0164B1B6813F4804F21D0144B1B6825
:109EC400012B05DC044618E07846FCF7F1FEE2E7D6
:109ED400104BD3F8043501900F4A00924FF4C4722A
:109EE4000E49022002F050F82C4606E0064B0122EF
:109EF4001A7002E0082400E00824204603B030BDB4
:109F04000446FAE7394E0020384E00201C33002066
:109F14001833002000B000409CD2030005D3030096
:109F240030B583B004460D460E4B1B6813F4804FC6
:109F340003D00D4B1B68062B05DC29462046FDF794
:109F440067FF03B030BD094BD3F80435084A0192CA
:109F5400084A00924FF4D7720749072002F014F818
:109F6400EBE700BF1C3300201833002000B0004092
:109F740084D203001CCF030005D3030008B5FEF709
:109F8400C3F908BD08B500F013FE002008BD0000A9
:109F9400014B1860704700BF3C4E00207047000022
:109FA400064A136801331360B3F1704F02D0034BB8
:109FB40018687047134601221A60F8E7404E0020E3
:109FC40010B5044618B100232360636010BD7846C1
:109FD400FCF76EFEF7E738B50C46054668B184B168
:109FE40000236360EFF3108372B62A686AB16A686B
:109FF40054606C6003B962B638BD7846FCF758FE0D
:10A00400EDE77846FCF754FEEAE72C60F1E710B57B
:10A01400044658B1EFF3108372B6206808B1426861
:10A024002260226832B103B962B610BD7846FCF7EB
:10A034003FFEEFE76260F6E710B5044608B120681A
:10A0440010BD7846FCF734FEF9E735DF70473CDF96
:10A054007047000010B504464FF0FF30FFF7F5FFDE
:10A064004FF0FF312046FFF7F2FFBFF34F8F054952
:10A07400CA6802F4E062044B1343CB60BFF34F8F12
:10A0840000BFFDE700ED00E00400FA05072814D83E
:10A09400DFE800F0080C1504110F0A06642070476D
:10A0A40014207047FA2070471E2070474FF4FA704E
:10A0B4007047322070474B207047FA207047962033
:10A0C40070470000024B5868103840B2704700BF18
:10A0D40000ED00E0034600280FDB5B11084A52F84C
:10A0E4002330424200F01F0002F01F0258BF5042CA
:10A0F40023FA00F000F00100704700F11F03ECE7C1
:10A1040000E100E046DF7047F8B504460D464B1EFB
:10A11400DBB2012B09D8002222616261A261E261F3
:10A124002046FFF7EFFF012616E07846FCF7C0FD56
:10A13400F1E7CA5CC8185200D2B2407842EAD012A1
:10A14400CA5401339BB20E2BF3DDCB7B5B00CB7384
:10A15400002F08DB0136F6B2AE420BD8214611F9C6
:10A16400207F0023EFE794F82F3083F0870384F8EF
:10A174002F30EFE7F8BD2DE9F04190B084460C464E
:10A1840096461F4602F10F0636111FFA86F804ADF3
:10A194000068DCF80410DCF80820DCF80C300FC58B
:10A1A4000EF00F05B8F1000F02D085B1002300E0D6
:10A1B400002398466BB1012104A8FFF7A5FFB8F16D
:10A1C400000F1BD0B0B20138000110230EE00123B0
:10A1D400EFE70221F0E7013B9BB22218D25C10A901
:10A1E400194411F8101C4A400DF80320002BF2D139
:10A1F40000250C950D950E950F9534E0B1B20139FB
:10A20400ADB22A4604EB0111684612F066F98023C8
:10A214000DF805306B1C03E000220DF80320013318
:10A224000F2BF9DD10230AE0013B9BB21DF803203C
:10A2340010A9194411F8101C4A400DF80320002BF2
:10A24400F2D1D5E7013B9BB210AA1A4412F8102CA4
:10A254002118C95C4A4008A9CA54002BF2D104A8A9
:10A26400FFF750FF0135B3B2013BAB4202DD2801D9
:10A274001023F2E710230AE0013B9BB210AAD11885
:10A2840011F8402C11F8101C4A4008A9CA54002B9C
:10A29400F2D104A8FFF736FF0CAC0FCC386079601C
:10A2A400BA60FB6010B0BDE8F08100000A4B1B6887
:10A2B400834207D0084B1B6853B15A69824205D0C8
:10A2C4001346F9E74269044B1A6001E042695A6196
:10A2D40000230370704700BF484E002010B50446A9
:10A2E400134B1B684BB14068114B1B685B68C31A66
:10A2F400002B02DB0E4B19680DE00D4B1A686261EE
:10A304001C600B4A938801339BB2938063B1012391
:10A31400237010BD19464B691BB15A68121A002AE2
:10A32400F8DB63614C61ECE77846FCF7C1FCEEE7CF
:10A33400484E002038B5054619E06369214A136088
:10A344000023636193889BB2591E89B291800BB339
:10A35400A3681BB302232370A36821692846984786
:10A3640000F030F905462378DBB2022B1AD0154BE6
:10A374001B6833B3134B1B685B685B1B642B20D5D2
:10A38400104B1C682378DBB2012BD6D07846FCF73F
:10A394008FFCD2E77846FCF78BFCD9E77846FCF7CC
:10A3A40087FCD7E7E26812B900232370DFE763680C
:10A3B400134463605B1B642BF9D42046FFF78EFFC4
:10A3C400D5E738BD484E002008B5124B1B6873B161
:10A3D400104B1B685B68C31A13F1640F08D4022383
:10A3E4000D4A00F16401012000F0B0F870B908BD15
:10A3F400084B19680223084A4968012000F0A6F8AE
:10A404000028F4D07846FCF753FCF0E77846FCF7D4
:10A414004FFCECE7484E002039A4020008B500F0D8
:10A42400D1F8FFF787FF00F0CDF8FFF7CDFF01204B
:10A4340008BD000008B5024B186800F069FD08BDAE
:10A44400444E002008B5054B00221A605A600448A7
:10A4540000F03EFD034B186008BD00BF484E0020CD
:10A4640021A40200444E002010B5044600F024FE4E
:10A4740080B19CB1A368ABB12378DBB2012B15D0BA
:10A48400002363612046FFF729FF00F09BF8FFF7E4
:10A494009BFF10BD7846FCF70BFCEAE77846FCF717
:10A4A40007FCE7E77846FCF703FCE5E77846FCF7AA
:10A4B400FFFBE5E710B5044600F0FEFD50B16CB1BA
:10A4C4002046FFF7F3FE0023636100F07BF8FFF7FB
:10A4D4007BFF10BD7846FCF7EBFBF0E77846FCF712
:10A4E400E7FBEDE738B504460D4600F0E5FD70B135
:10A4F4008CB12046FFF7DAFE0023636165602046D5
:10A50400FFF7ECFE00F05EF8FFF75EFF38BD78461B
:10A51400FCF7CEFBECE77846FCF7CAFBE9E7000062
:10A5240010B4094B00F15002002443F8224000F11A
:10A5340010040122A240C3F8042300F5A87043F8D4
:10A5440020105DF8044B704700800040022825D895
:10A5540038B533F0030423D1EFF31085124C256092
:10A5640072B6124C44F82020114A42F82010114AC5
:10A574001354114B002243F82020104B1B7833B1A5
:10A584000F4B1B68CA1A07D41146FFF7C9FF064BC5
:10A59400186838B962B604E05A1AF5E7072070471C
:10A5A4000A2038BD0020FCE7744E0020544E0020E1
:10A5B400684E0020504E00207C4E0020604E00204B
:10A5C400644E0020EFF310820C4B1A6072B60C4BF1
:10A5D4001B787BB10B4B0022C3F84C210122DA64B7
:10A5E400D3F84C05084B1B681844044B1B6803B98B
:10A5F40062B67047054B1868F7E700BF744E002039
:10A60400604E002000800040644E0020784E002000
:10A6140070B5002418E01F4B002243F824200123C6
:10A6240003FA05F51C4BC3F80853FFF7CBFF1B4B8C
:10A634001B5D13F0020F21D0B04704F15003164AFA
:10A64400002142F823100134022C21D804F15003D4
:10A65400114A52F82330002BF5D0D2F8043304F118
:10A664001005EB4013F0010FEDD00A4B53F82460B2
:10A67400002ED0D17846FCF71BFBCCE701463046D0
:10A6840000F0D0FB0028D8D07846FCF711FBD4E7C3
:10A6940070BD00BF544E002000800040504E00208A
:10A6A40070B50546002414E0981A27E05E1A29E0E4
:10A6B4002946184600F0B6FB002836D12A4B53F839
:10A6C40024302BB101221A60274B002243F82420A6
:10A6D4000134022C3AD8254B04F5A872002143F822
:10A6E400221004F1500243F8221053F82230204B78
:10A6F40053F824201F4B1B68D01AD5D405F17801D8
:10A70400CE1AD3D4864214D91B4B53F82430002BD1
:10A71400D4D0194A002142F82410184A125D12F0CC
:10A72400020FC5D028469847C8E77846FCF7C0FA18
:10A73400C4E7114B53F82430002BC9D0E0B2511BAD
:10A7440002D4FFF7EDFEC3E7A91AFAE70C4B1B6826
:10A754001BB90C4B4FF480721A60064B1D600A4BF8
:10A7640001221A7070BD00BF7C4E002000800040A2
:10A77400684E0020644E0020544E0020504E0020AD
:10A78400744E002000E100E0604E0020002300E051
:10A794000133022B0ED80F4AD25C12F0010FF7D00E
:10A7A40000220C49CA540C4941F823200B4941F8B2
:10A7B4002320EDE70A4B18600A4B00221A700A4B5B
:10A7C4004FF0FF32C3F80823084B4FF48072C3F8EC
:10A7D40080217047504E0020544E00207C4E0020B3
:10A7E400784E0020604E00200080004000E100E030
:10A7F40030DF704731DF704710B402684368A2EB62
:10A804007312846883EAF4330360C1680C444460BF
:10A81400114481601344C36018465DF8044B7047CB
:10A8240070B582B00D46064608B100240BE07846A8
:10A83400FCF73EFAF9E79DF807103019FFF7DAFF45
:10A844009DF807301C44A5420DD90DF10700FFF710
:10A85400CFFF9DF80730002BF7D02A1B9342EAD98B
:10A864008DF80720E7E702B070BD000030B583B073
:10A874000546002402A840F8044D0421FFF7D0FF48
:10A88400074B2B60019B6B60AB60EB6003E02846D9
:10A89400FFF7B2FF0134132CF9D903B030BD00BF68
:10A8A400ED5EEAF1704748DF704749DF70474ADFE1
:10A8B400704700002DE9F00F1F4BD3F80465002703
:10A8C400837AA3BB1D4BD3E90023B41A24F07F4A37
:10A8D4004FF0000B4FEA4A124FEA4B13B2EB0A0255
:10A8E40063EB0B03590241EAD2514FEA422C0D4665
:10A8F4001CEB0A0145EB0B024FEA821949EA916904
:10A904004FEA81181346B8EB010269EB03031AEB13
:10A9140002044BEB0305E30B43EA4542436813444B
:10A924004360064BC3E90067BDE8F00F704700239E
:10A9340083720268F2E700BF00B00040E84E0020D6
:10A9440010B504460023C3600361FFF7B3FF236817
:10A95400084A926822600121217503B9064B991AAD
:10A96400A161B1F57A7F01D39A4202D94FF47A7387
:10A97400A36110BDD44E002080969800094B032299
:10A984001A75094A9A611A6840F6D8639A4204D83B
:10A99400054B40F6D8629A607047034B43F2B062AD
:10A9A4009A607047B44E0020D44E002008B50B4B7B
:10A9B4001B78012B05D0022B0BD07846FCF778F9D5
:10A9C40003E00223037501238372044B00221A70EF
:10A9D40008BD03230375024B8361F6E7E54E0020AF
:10A9E400D44E002038B50546002404750123437273
:10A9F4004068FFF755FE09F0B1FC6B682A68134400
:10AA04000A490968283101FB02F1094AA2FB012124
:10AA1400A3EB91410323074A78392046FFF796FDBB
:10AA240000B938BD7846FCF743F9FAE7D04E002068
:10AA340083DE1B4381A9020010B50C4631B10369C2
:10AA4400013303618269036813440360C3680133FB
:10AA5400C36001220275826952088261012B0DD004
:10AA6400022B19D082690368134417498B4222D8F8
:10AA740040F6D7639A4221D800231DE0B2F5FA7F4D
:10AA840005D040F6D8639A42ECD88361EAE7002CFB
:10AA9400F7D100238361E5E70369022B06D0012B7C
:10AAA400E0D1002CDED100238361DBE70268064B92
:10AAB4009B1A8361D6E7002313B110BD0123FBE782
:10AAC400FFF790FFF9E700BF80969800437A1BB91F
:10AAD4000E4B00221A70704710B5044609F05AFC58
:10AAE4006068226810440A4B1B68283303FB02F396
:10AAF400084AA2FB0323A0EB93407838FFF746FEF5
:10AB040000236372014B00221A7010BDE44E002032
:10AB1400D04E002083DE1B4308B5224B01221A725B
:10AB2400214B1B7813B1214B1B781BB31D4B002207
:10AB34001A7504281AD8DFE800F00314110C070072
:10AB44001848FFF7FDFE1EE001211648FFF774FFC9
:10AB540019E000211348FFF76FFF14E009F0B8FB78
:10AB640011E0FFF755FD09F0E7FB0CE07846FCF730
:10AB74009FF808E0FFF726FD0A4B5A68801A186010
:10AB84001846FFF713FF074B1B7D023BDBB2012B7B
:10AB940004D9044800230372143008BD0148FFF7A8
:10ABA40095FFF6E7B44E0020E54E0020E44E002069
:10ABB40008B5043803280DD8DFE800F00D190902A0
:10ABC400FFF773FE30B17846FCF772F802E078467E
:10ABD400FCF76EF808BD0A4840F6D8638360FFF7B7
:10ABE40066FE0028F6D07846FCF762F8F2E70448DF
:10ABF400FFF75DFE0028EDD07846FCF759F8E9E749
:10AC0400D44E002010B40D4A002313701371012197
:10AC1400517143F2B064946043F69824D460084AB6
:10AC24001060084A1370084A1370084A137253726A
:10AC34001360917253605DF8044B7047D44E00204A
:10AC4400D04E0020E44E0020E54E0020B44E0020FB
:10AC540008B50648FFF727FE034608B1184608BDA5
:10AC64000348FFF724FE0346F8E700BF1DAB0200CC
:10AC7400D44E0020084B1B7D032B09D0074B1B78B7
:10AC8400012B07D0022B01D0002070470120704710
:10AC94000120704701207047B44E0020E54E00208B
:10ACA400014B5868704700BFB44E00200E4B5B7ACE
:10ACB4000BB90020704710B50B4B5C681A6814443C
:10ACC4000A4B1B68283303FB02F3094AA2FB032344
:10ACD400A4EB9344783CFFF775FC0346201A00D498
:10ACE40010BD181BFCE700BFB44E0020D04E00205E
:10ACF40083DE1B43014B187A704700BFB44E00201B
:10AD0400EFF3108372B6054A527A22B1044A4FF423
:10AD14008071C2F8001103B962B67047B44E0020C6
:10AD240000E100E008B5034B01221A70FFF7E8FFC9
:10AD340008BD00BFE54E002008B5094B1B782BB1B8
:10AD440048B9084B1B7813B1012300E00023044ADF
:10AD5400107013B908BD0023F9E7FFF7D1FFF9E735
:10AD6400E44E0020E54E002008B50378012B10D0F6
:10AD740013B1022B06D008BD4368002BFBD08068BA
:10AD84009847F8E74368002BF5D0C1688068984776
:10AD9400F1E74368002BEED080689847EBE70000AA
:10ADA400044B1B780F2B04D0034B4FF48022C3F8C1
:10ADB400002170473450002000E100E010B5014646
:10ADC4000548FEF79DF820B90446FFF7E9FF204641
:10ADD40010BD0424FBE700BFF04E002010B50C4C5E
:10ADE40020700C480C4B0360102343608360FEF713
:10ADF4006BF80A48FFF7E4F823780F2B07D05B01C0
:10AE0400DBB2074A82F812334FF48023136010BD7B
:10AE140034500020F04E0020044F00203850002011
:10AE240000E100E030B585B00C46054648B100238A
:10AE34008DF80030019502946846FFF7BFFF05B016
:10AE440030BD7846FBF734FFF1E7000010B5EFF3AF
:10AE5400108472B60A490A68531C0B6042B9094A45
:10AE640012780F2A04D0084A4FF48021C2F88010C7
:10AE740013B104B962B610BD7846FBF719FFF8E7C1
:10AE8400045000203450002000E100E010B5EFF33E
:10AE9400108472B60B4B1B687BB10A4A1368013BE2
:10AEA40013603BB9084B1B780F2B03D0074B4FF4AF
:10AEB40080221A6004B962B610BD7846FBF7F8FE2A
:10AEC400EBE700BF045000203450002000E100E014
:10AED40010B5044680B10C4B1B68082B10D8EFF357
:10AEE400108272B6084B1868411C1960074B43F86E
:10AEF400204002B962B610BD7846FBF7D9FEEAE7F6
:10AF04007846FBF7D5FEEAE7085000200C500020F5
:10AF140038B504460D4B1B68834213D9EFF31085F3
:10AF240072B661090A4A04F01F04012303FA04F407
:10AF340052F82130234342F82130FFF731FF05B99D
:10AF440062B638BD7846FBF7B3FEE7E70850002049
:10AF54003050002070B50D461646044658B175B100
:10AF6400EFF3108372B6A560E660002222742460B9
:10AF740003B962B670BD7846FBF79AFEEFE77846F0
:10AF8400FBF796FEECE7000038B5044690B1A368E1
:10AF9400A3B1EFF3108572B6237C9BB9012323740C
:10AFA40021460948FFF717F8FFF7FAFE002005B914
:10AFB40062B638BD7846FBF77BFEE8E77846FBF7D8
:10AFC40077FEE6E71120F2E73850002010B504467A
:10AFD40008B1207C10BD7846FBF76AFEF9E7000053
:10AFE40070B584B02C4B1B7823B901252A4B1D70F6
:10AFF40000240AE07846FBF75BFEF6E7274B53F89C
:10B00400243098470646F0B10134254B1B68A3420F
:10B014001ED96109234A52F8213004F01F00C340AD
:10B0240013F0010FF0D0EFF3108672B6012303FA88
:10B0340000F052F8213023EA000342F82130002EB8
:10B04400DCD162B6DAE72046FFF762FF3546DBE77C
:10B054001548FEF7DCFF07E0A368E0689847002383
:10B0640023741148FEF7D3FF50B10468237C002BEE
:10B07400F2D17846FBF71CFEEEE76846FFF774FE54
:10B0840069460A48FDF769FF0028F6D0024B002202
:10B094001A70284604B070BD405000200C500020A7
:10B0A400085000203050002038500020F04E00207E
:10B0B40008B5FFF795FF08BD00B583B0FFF702F8A8
:10B0C4008DF807009DF807305BB213F1100F18D00C
:10B0D4009DF807305BB2002B21DB03F1604303F5DD
:10B0E400614393F800335B090093154B1B78009A76
:10B0F400934220D0009A934217D3002003B05DF806
:10B1040004FB0F4B1B780F2B07D01220FEF7E2FF36
:10B1140008B90120F2E70020F0E70120EEE703F090
:10B124000F03084AD35C5B09DEE71220FEF7D2FF67
:10B1340018B10020E2E70120E0E70120DEE700BFCC
:10B144003450002014ED00E046DF704770B58CB039
:10B1540003460E4615466C46006859689A68DB68D3
:10B164000FC430687168B268F3680FC46846FFF7AB
:10B17400EBFF08AC0FCC28606960AA60EB600CB0F0
:10B1840070BD08B5FEF7F7FF08BD08B501F089FFEB
:10B1940008BD08B501F0BFFF08BD38B5032900F2AA
:10B1A4009380DFE801F0023535671970817A5A78A7
:10B1B40061F306025A70C17AD2B261F3C7125A70AF
:10B1C400C168C1F3074201F47F442243090401F436
:10B1D4007F010A4300219A70C2F30724DC70120C29
:10B1E4001A710489220A42EA0422A3F80520D971BB
:10B1F400197201690A0202F47F0242EA0162080A32
:10B2040000F47F40024342EA1162C3F8092038BDCA
:10B214001970597801F0800162F3C7115970C1683F
:10B22400C1F3074201F47F442243090401F47F017E
:10B234000A439A70C2F30721D970120C1A7101895A
:10B244000A0A42EA0122A3F8052041880A0A42EACE
:10B254000122A3F8072001690A0202F47F0242EAEC
:10B264000162080A00F47F40024342EA1162C3F813
:10B274000920CCE7197000245C70C168C1F307424F
:10B2840001F47F452A43090401F47F010A439A70BB
:10B29400C2F30721D970120C1A7101890A0A42EA11
:10B2A4000122A3F80520DC711C7201690A0202F470
:10B2B4007F0242EA0162080A00F47F40024342EA44
:10B2C4001162C3F80920A2E77846FBF7F1FC9EE778
:10B2D40070B584B00E461446054668B162B10023C9
:10B2E400009301930293039323463246294668460A
:10B2F400FFF747FF04B070BD7846FBF7D9FCEEE7D3
:10B30400F0B585B00F4614461D46064618B112B175
:10B314000BB10B9B13B97846FBF7CAFC6B463A4654
:10B3240031462046FFF72DFF0B9B9DF82820294628
:10B334006846FFF726FF05B0F0BD00002DE9F04791
:10B3440086B000AF884615469946044608B101B157
:10B3540013B97846FBF7ACFC05F1110605F1100AA8
:10B3640005F11803DB086A46A2EBC3039D46254B8F
:10B374001B6807F1180040F8043D6A460421FFF7F2
:10B38400A7FF3B1D102221466846FFF7FAFE2A4616
:10B394004146684611F0A1F801230DF80530EA187A
:10B3A4006B4692B26946381DFFF7EBFE9DF80F30ED
:10B3B40003F07F034C4604F8013B2A46414604A8A7
:10B3C40011F08BF802230DF80A30B6B22346324648
:10B3D4006946381DFFF7D5FE20686168A268E368F6
:10B3E400009001910292039303230DF80A3009F1AE
:10B3F400110332466946381DFFF7C3FE1837BD46B0
:10B40400BDE8F08768D3030070B588B00D460646E2
:10B4140000B3F9B1114C6368039304AA042103A88F
:10B42400FFF756FF04AB102231461846FFF7A9FE7A
:10B43400083494E8030001908DF8081004AB052249
:10B4440001A91846FFF79DFE06AB03CB286069608F
:10B4540008B070BD7846FBF72BFCDBE768D303002C
:10B4640070B586B00D460646F8B1F1B1114C2369AA
:10B47400019302AA04210DEB0100FFF729FF02AB9F
:10B48400102231461846FFF77CFE636906A941F88D
:10B49400183D02AB04221846FFF773FE9DF81730DF
:10B4A40003F03F032B7006B070BD7846FBF700FC39
:10B4B400DCE700BF68D3030010B5044658B1237815
:10B4C4007BB1E368B3F1807F0DD294F90A30002B8D
:10B4D40005DB012006E07846FBF7EAFBEFE70020F6
:10B4E40000E0002010BD0020FCE730B587B0044622
:10B4F400037B8DF8043002688368D27A22B3082271
:10B50400134409330293236803936368049305A9DE
:10B5140001A801F0DBFFE0B1237B012B09D02568F2
:10B52400FEF7DCF8286120680C30FEF769F8054660
:10B5340060B92168059800F028F9059B0933236157
:10B544000025284607B030BD0422D9E702F03AF8B6
:10B55400F7E70425F5E7000030B583B00446012081
:10B5640003F0EAFB054668B1A37A012B15D92378C9
:10B57400012B0AD00A4B1B6823B1A27A6188208967
:10B5840098470546284603B030BD6946608808F0F0
:10B59400FFF80028EED00025F4E70025F2E700BF0D
:10B5A4004450002008B548B14268064B1A60FDF7C4
:10B5B400BFFEFDF74DFE02F071FC08BD014B0022F9
:10B5C4001A60F4E74450002008B5FDF7D3FE02F0FA
:10B5D400A5FC08BD10B5044650B1236863B12368C7
:10B5E4005B696BB1002323732046FFF77EFF10BD18
:10B5F4007846FBF75DFBF0E77846FBF759FBEEE78F
:10B604007846FBF755FBEDE710B5044690B1236986
:10B61400A3B12368B3B123685B69BBB1206900F0AF
:10B624001AF900230246A168206800F072FA01F0BA
:10B63400A1FF10BD7846FBF73BFBE8E77846FBF734
:10B6440037FBE6E77846FBF733FBE4E77846FBF79E
:10B654002FFBE3E770B588B004460E461546837A9F
:10B66400013B8372039005924FF0FF33049301234F
:10B674008DF8183003A8FFF738FF98B1104B1B68FA
:10B6840013F0020F16D00F4B1B68012B12DD0E4B6B
:10B69400D3F804350D4A009291220D49022000F09E
:10B6A40073FC07E02A463146079810F016FF03A8FA
:10B6B400FFF7AAFFA37A0133A37208B070BD00BFDD
:10B6C4001C3300201833002000B00040CCD303000A
:10B6D400C1D3030070B590B000283FD0044616468D
:10B6E4000D4600F0BCF8021B214608A810F0F5FE38
:10B6F4000023009308AB2246294602A800F0C8F9AB
:10B70400044610B1204610B070BD02A8FFF7D4FE65
:10B714000028F7D0079BB3B1294602A800F093F89C
:10B72400C5B2334602AA29460DF12900FCF70EFDE5
:10B73400044602A8FFF710FF48B90599BDF81000A8
:10B74400FBF728FBDEE77846FBF7B2FAE4E72A4684
:10B754000DF1290102A8FFF77DFFEEE70E24D1E7E2
:10B764004B78DB09C3724B7803F07F0383728A78CA
:10B77400CB781B0243EA02430A791343C3604A7934
:10B784008B7943EA02230381704738B50D4604469A
:10B79400002840D0002D42D02889FEF72FFA012836
:10B7A40041D195F90A30002B41DBEB68B3F1807F7E
:10B7B40041D26B69002B42D02B6903F0010223783C
:10B7C40003F07F0343EAC21323706A69127803F01B
:10B7D400800302F07F0213432370EA7A637803F054
:10B7E4007F0343EAC213DBB26370AA7A03F08003D7
:10B7F40002F07F0213436370EB681A0CA2701A0AFA
:10B80400E27023712B891A0A6271A3716B881A0A78
:10B81400E271237238BD7846FBF74AFABAE77846F4
:10B82400FBF746FAB8E77846FBF742FAB9E77846F9
:10B83400FBF73EFAB9E77846FBF73AFAB9E77846F8
:10B84400FBF736FAB8E7C37A1BB90420081A09389B
:10B8540070470820FAE7093870470730704701300D
:10B86400704770B588B004460D4616460023009311
:10B874008DF804300269130203F47F0343EA026380
:10B88400110A01F47F410B4343EA1263CDF80530FA
:10B894002846FFF7E2FF0368CDF8093082888379F0
:10B8A400ADF80D208DF80F30606904AA6946113097
:10B8B400FFF74CFC3046FFF7D2FF04462846FFF75B
:10B8C400CEFF062308E0013B9BB2C25C08A91944E1
:10B8D40011F8101C4A40E254002BF4D108B070BD9A
:10B8E4002DE9F04395B004AF04460D4691461E463B
:10B8F40097F86480002387F83F303B84FB6107F1AD
:10B9040030033B611046FFF7A8FF78613046FFF72C
:10B91400A4FF78623B6E6361324649462046FFF7D6
:10B92400A0FF31462046FFF71BFF2089FEF766F98A
:10B9340001281DD04FF00009B9F1000F4BD0E37A74
:10B94400002B33D00823DBB287F82C30ED1A073DE7
:10B95400ADB23D837B691D44BD62B8F1000F27D0B1
:10B96400B8F1010F3DD07846FBF7A2F9002120E0A1
:10B97400A5F10902E37A2BB108239A4204D24FF0CD
:10B984000009D9E70423F8E7E1682089FBF7DCF92B
:10B99400814610B14FF00009CEE7391D208907F028
:10B9A400F7FE0028C8D14FF00109C5E70423CAE710
:10B9B400002107F1300300222046FFF7EEFB636904
:10B9C4000133FB6007F13F0107F10C00FFF7E1FBD6
:10B9D40097F83F303BB997F83F004437BD46BDE880
:10B9E400F0830321E5E7F379307A40EA03206080AD
:10B9F400FEF704F920701F4B1B6813F0020FEAD006
:10BA04001D4B1B68032BE6DD6C46B7F818C04FEAE4
:10BA14004C030833DB08A4EBC3039D460DF1100E61
:10BA24007546002311E07A6AD25C4FEA1218590075
:10BA34001248066816F8086005F8136002F00F0251
:10BA440001310068825C6A5401336345EBD30023FF
:10BA54000EF81C300A4BD3F80435CDF808E0094A37
:10BA64000192094A0092E6220849042000F08CFA67
:10BA7400A546B0E71C3300201833002020330020F3
:10BA840000B000404CD4030018CF03003DD40300A1
:10BA94002DE9F04784B08846154699469DF83070E4
:10BAA400064618B112B10BB19A4202D17846FBF79F
:10BAB400FFF82878C009FDF71FFE30610023736189
:10BAC40095F800A00AF07F0A0293039301E0029B19
