:100000000000012079030000610300006303000089
:1000100065030000670300006903000000000000A2
:100020000000000000000000000000006B03000062
:100030006D030000000000006F030000710300006A
:10004000D12400007303000015290000552C000086
:10005000730300007303000099270000730300007E
:1000600073030000730300007303000073030000B8
:1000700073030000730300007303000073030000A8
:10008000730300008112000073030000730300007B
:100090001D130000730300007303000073030000CE
:1000A0007303000073030000730300007303000078
:1000B0007303000073030000000000000000000054
:1000C0007303000073030000730300007303000058
:1000D00073030000730300007303000000000000BE
:1000E0000000000000000000000000000000000010
:1000F0000000000000000000000000000000000000
:1001000000000000000000000000000000000000EF
:1001100000000000000000000000000000000000DF
:1001200000000000000000000000000000000000CF
:1001300000000000000000000000000000000000BF
:1001400000000000000000000000000000000000AF
:10015000000000000000000000000000000000009F
:10016000000000000000000000000000000000008F
:10017000000000000000000000000000000000007F
:10018000000000000000000000000000000000006F
:10019000000000000000000000000000000000005F
:1001A000000000000000000000000000000000004F
:1001B000000000000000000000000000000000003F
:1001C000000000000000000000000000000000002F
:1001D000000000000000000000000000000000001F
:1001E000000000000000000000000000000000000F
:1001F00000000000000000000000000000000000FF
:10020000364937480A1A02D0072291438D463549AC
:1002100035480A1A06D00722914381F30988022241
:1002200082F3148831483249324A00F045F83248A6
:100230003249334A00F040F832483349334A00F03B
:100240003BF833483349344A00F036F833483449F0
:10025000344A00F031F834483449354A00F02CF87B
:1002600034483549354A00F027F8354835490022E9
:1002700000F02DF834483549002200F028F83448C1
:100280003449091A082903DB0022026004300160A6
:10029000314A90471F482049884205D002680430FF
:1002A00003B4904703BCF7E700208646EC460020E5
:1002B00000212A4A9047FEE7884207D0521A05D00B
:1002C000037801300B700131013AF9D1704788424F
:1002D00002D002700130FAE77047000000000120F0
:1002E00000E000200000012000000120604E00001E
:1002F000000000207C000020D8030000D80300008C
:10030000EA470000604E00000000002000000020CE
:100310006C4800006C4800006C4800006C4800000D
:100320006C4800006C4800006C4800006C480000FD
:10033000604E0000DC4E00007C0000207C000020AD
:100340007C000020490A00204C0A00204C0A0020B2
:100350004C0A00204C2A0020A10300002D3F000081
:10036000FEE7FEE7FEE7FEE7FEE7FEE7FEE7FEE765
:10037000FEE7FEE7704700BF1048804710484FF087
:100380000701884385460F4880470F48016841F4BC
:1003900070010160BFF34F8FBFF36F8FFFF730BF66
:1003A0000A480B490B4A884207D0521A05D00378F5
:1003B00001300B700131013AF9D17047750300002B
:1003C000000001207940000088ED00E06C4800004A
:0803D0000000002000000020E5
:1003D800F0B595B01C46164608460D4601F077FC68
:1003E8001A9B0D93CDE9086400242346082205A929
:1003F80028460A948DF82C400C9401F086FC079B43
:100408000293BDF81830ADF80C30BDF81A30ADF8CD
:100418000E309DF814308DF8114003F00302012AC4
:100428001DD1BDF81440059EC3F3C203C4F3831461
:100438008DF81030A20008230EA9284601F065FCAB
:10044800C6F3952608AB0093224602AB0EA93046A8
:1004580000F0E2FB284601F03EFC15B0F0BD022A90
:10046800F8D1BDF81640C3F3C203A4098DF81030C3
:100478000827082C264628BF08263B4632460EA9E0
:10048800284601F042FCA41B08AB02AA31460EA87C
:10049800374400F025FC002CEBD1DBE7014B0122AF
:1004A8001A707047BD0000207047000070B50E4DEF
:1004B80006460FCD88B06C460FC495E80F0084E857
:1004C8000F0008A9002E4FF00603084A41F8203D06
:1004D80008BF0022064801F06DFF08B100F022FEB7
:1004E800044B1E7008B070BD6C480000A5040000E5
:1004F800000000207C00002007B5044B0093044A4C
:100508004023FFF765FF03B05DF804FB1D050000FD
:100518007D00002038B50D4B0D4D002018700D489A
:1005280004782D5DD2B21C4665B1043003F020F981
:1005380008B100F0F7FD084B1A7812B12378002BA8
:10054800FBD038BD0C3002F017FFF1E7BD000020EA
:10055800F0070020000000207C00002008B50848B3
:10056800084A0378D35C3BB1043003F09DF80020BF
:10057800BDE80840FFF79ABF0C3002F099FEF6E795
:1005880000000020F00700200120FFF78FBF0000C7
:1005980008B5FFF7F9FF0421034800F0ABFA034B55
:1005A80001225A7108BD00BF48480000140000200D
:1005B800037813F0040216D003F00303012B03D0D1
:1005C800022B09D0012070470A6800880232C0F364
:1005D800831002440A60F5E70B684288023303EB94
:1005E80092130B60EEE71046704700002DE9F04FBC
:1005F800484C87B00F460546861C0020019201F042
:1006080085F823683B60D4E9012313442268013349
:100618009B1A04F21C4704F5836A04F21448B34297
:1006280019D3019A0023002A6CD0012262F3010336
:1006380043F0040365F389132168A2680A40033272
:100648000E44002044F82230266001F061F80120B1
:1006580007B0BDE8F08F0121384601F07BF850461D
:1006680001F08EF8404601F08BF80DF1180960682A
:10067800D4F808B049F8100D00EA0B00033004EB79
:1006880080004946FFF794FF029BB0B90BEA0302CA
:1006980004EB8202D16803919A1C013303EA0B0B25
:1006A80004EB8B0C01F00303012B0292DCF80CB075
:1006B80020D0022B04D083460BE00BEA0300DDE7D1
:1006C800BDF80E309B0903334FEA1B4B02EB930333
:1006D8000293404601F057F808B1029B63605946FF
:1006E800384601F037F8D4E901231344226801336E
:1006F8009B1A94E7BDF80C30C3F383134FEA1B4BE6
:100708001344E5E7022262F3010343F0040365F3AF
:100718009F5391E7900100200B4B0C48FF2210B526
:100728009A600022C3F81824C3E90022C3F81424ED
:1007380083F8202401F084FA044610B9044801F033
:10074800CDFB204610BD00BF900100205848000096
:10075800AC48000030B50A4C71B10A4A0A49121B6C
:10076800D20800239A4201D1002030BD31F823502D
:10077800854202D00133F5E7034654F83300F4E725
:10078800004800004848000000000020094B0139DB
:1007980003EBC000032909D8DFE801F00A020406C8
:1007A80004207047007970474079704700207047EF
:1007B8000220704700480000034BD3E90030C31AF9
:1007C80058425841704700BF900100202DE9F0437E
:1007D80085B0FFF7F1FF0646002840F0F9807D4D0F
:1007E800C5F81804BFF34F8F6868AC6804AF47F8C2
:1007F800100D2040033005EB80003946FFF7D8FE86
:10080800009B18B1D5F81824002A5FD004EA030227
:10081800991C013305EB8202234005EB8303D26860
:10082800DB68029302F00303022B0192009162D16C
:10083800BDF8063068484FEA9318B8F1500FC14622
:1008480028BF4FF0500969F38F1309F10801ADF87B
:10085800063001F00DFA0746002800F0A48001F0E8
:1008680036FA01A900230822384601F043FA009914
:1008780024EA01060136B600B14535D95FFA89F98F
:100888007EB3F6B2A9EB0609214003315FFA89F479
:10089800B146524E05EB810108234A46384601F01D
:1008A80029FA36B109F1080322463146384601F0E3
:1008B80021FA009B08F1030803EB98030093D5F88D
:1008C8001834002B4BD1D5F810445BE02A689A42C3
:1008D80004D86A60304605B0BDE8F08304EA030036
:1008E80088E73E493446D7E72140033108234A4682
:1008F80005EB8101DAE7012B55D1BDF80430364804
:10090800C3F38311062928BF062161F38913023135
:100918008900ADF8043001F0ABF90746002842D051
:1009280001F0D5F90023082201A9384601F0E2F9BF
:100938000026BDF80420C2F38312B31C96424FEA86
:100948008303BCD200994A1C21400331009205EB75
:1009580081010422384601F0CDF90136E9E738462D
:1009680001F0B9F9FFF728FF80F00100C6B2B1E73E
:10097800E3685B7923B1236839461B6820469847AA
:10098800E3681C68002CF3D1384601F0A4F920462E
:1009980000F0BCFED5F818340BB9009B6B60002042
:1009A80000F0B6FEDEE7D5F8104454B90C4B0D48FC
:1009B8000D49C01AC008000440F0020000F06EF8AB
:1009C800D0E7236820469B689847E3681C68ECE7F3
:1009D80000267FE790010020584800009C01002075
:1009E8000048000030480000B84800002DE9F74FE3
:1009F800284C80460F46924601A9012218469B467C
:100A0800D4F80890FFF7F2FD88B3019D0026A91CD1
:100A18005E4506EB010234D100211F4800F07AFE42
:100A280080F310006A1C02EA090204EB8202000447
:100A380005EA0903033340EA1840D06014F823207C
:100A480068F3C50204F8232034F8232066F38912DA
:100A580024F8232054F82320012167F39F2244F827
:100A6800232061F301026FF3820204F8232094F833
:100A780020341BB1FFF7AAFE0028FBD103B0BDE864
:100A8800F08F09EA020204EB82025AF82630D3609A
:100A98000136BDE790010020AC05002000231A466E
:100AA800FFF7A4BF13B502AC012344F8042D224676
:100AB800FFF79CFF02B010BD1FB5CDE90123069BCF
:100AC800039301AA0323FFF791FF05B05DF804FB28
:100AD8007FB5CDE90023089B0293099B03930A9BEA
:100AE80004930B9B05936A460623FFF77FFF07B025
:100AF8005DF804FB30B50F49D1F8102400231446E3
:100B08003CB9C468237152B9C1F810042260184670
:100B180030BDE46825799D4206D02468F0E7D268A4
:100B2800116821601060F2E701330A2BE7D14FF01A
:100B3800FF33ECE790010020094A38B50123D2F8C9
:100B4800104482F820341D4604B938BDE3685D714D
:100B5800236820465B689847E3681C68F4E700BF91
:100B680090010020037A052B10B50C460FD0437A6C
:100B780023B1084A0849204600F05FFE074920468D
:100B880000F05BFE2046BDE8104000F04BBE002A96
:100B9800F8D0F3E70349000008490000EA4A0000DA
:100BA800C38873B504460D4633B1144A00921449FC
:100BB800144A284600F041FE217A05291CD0637AA0
:100BC8004BB1A088FFF7E2FD0F4B104953F82020E6
:100BD800284600F032FE227A0D4BA08853F8226096
:100BE8000021FFF7B7FD0B4903463246284602B0FD
:100BF800BDE8704000F021BE02B070BD034900009E
:100C0800134900000B490000D048000008490000C3
:100C1800384900002B4900002DE9F04385B01F46F4
:100C28000C9D002306460C46904695F80C902B73B5
:100C380029463846FFF7B4FFB8F1060F09D8DFE8B0
:100C480008F00412181F283340003146284600F0E7
:100C5800F4FD002229463846FFF784FF85F80C90FA
:100C680005B0BDE8F08322683146284600F0E5FD6E
:100C7800EFE7D4E900233146284600F0DEFDE8E737
:100C8800A36800933146D4E90023284600F0D5FD37
:100C9800DFE7E3680193A36800933146D4E90023B2
:100CA800284600F0CAFDD4E723690293E36801935C
:100CB800A36800933146D4E90023284600F0BDFD1F
:100CC800C7E76369039323690293E3680193A36801
:100CD80000933146D4E90023284600F0AEFDB8E77A
:100CE80008292DE9F84F80460E4617461C463AD883
:100CF800002593F80C901D7319461046FFF750FF16
:100D0800DFF884A0DFF884B0AE422ED918F80520A9
:100D18005946204600F091FD0135082DF4D11849B7
:100D2800DFF86CB0204600F088FD4FF0000A564509
:100D380020D918F80A507E2D03D8284603F08AFCDB
:100D480000B92E252A465946204600F076FD0AF1BC
:100D5800010ABAF1080FEAD1012221463846FFF705
:100D680001FF84F80C90BDE8F88F5146204600F04A
:100D780064FDD1E70349204600F05FFDE7E700BFC7
:100D8800FE480000FC480000FA480000F448000053
:100D980000490000054A4FF0A043105CD3F8043521
:100DA80023FA00F0C04300F00100704797490000A3
:100DB800044B1A5C012393404FF0A042C2F80C3553
:100DC800704700BF97490000044B1A5C0123934009
:100DD8004FF0A042C2F80835704700BF974900009D
:100DE80008B50020FFF7F0FF0120FFF7EDFF022014
:100DF800FFF7EAFF0320BDE80840FFF7E5BF08B5A5
:100E08000020FFF7D5FF0120FFF7D2FF0220FFF7F0
:100E1800CFFF0320BDE80840FFF7CABF074A4FF0DD
:100E2800A041105CD1F804350122824022EA030077
:100E38001340C1F80805C1F80C3570479749000000
:100E48000D2809D00E2809D00F2809D010280CBF6A
:100E580003204FF0FF307047002070470120704793
:100E680002207047C20708B501460CD54FF0A043D1
:100E78000322C3F84427C3F84827C3F84C27C3F80C
:100E88005027FFF7ADFF8B070AD54FF0A0430C2280
:100E9800C3F83427C3F83827C3F83C27C3F84027DA
:100EA80008BD00002DE9F04F3B4F89B000263B4BB1
:100EB8001B78F5B2AB4202D809B0BDE8F08F384BC9
:100EC800196811F835000124A0F12002C0F12003AF
:100ED80004FA02F924FA03F349EA0309D7E90023DB
:100EE80004FA00F8CDE9042302EA080203EA090338
:100EF800134301EBC50B4CD0DDE9042322EA0802B9
:100F080023EA0903C7E90023079101F037FC079991
:100F1800844611F83500A0F12002C0F1200324FA1C
:100F280003F304FA02F21A4304FA00F300931D4B88
:100F38000192DDE90045D3E9002314401D40224613
:100F48002B465FFA8CF40025CDE90445049CA0F1FA
:100F58002005AC400394049CC0F1200124FA01F15F
:100F6800039C0C430499039481400291DDE90245F6
:100F7800AB4208BFA2420CD19BF801104B1E59424C
:100F88005941A1EB0C02DBF804305142514103B145
:100F9800984701368BE700BF800600204C060020EA
:100FA80088060020780600202DE9F84F06462448D8
:100FB80000F08AFB002841D10123A6F12001C6F1E7
:100FC800200203FA01FB23FA02F203FA06FA1D4B88
:100FD800D3E900014BEA020B00EA0A0801EA0B090F
:100FE80058EA09021F4623D1304601F0C7FB164BC9
:100FF800B8B1D3E9000140EA0A0441EA0B05C3E9A4
:101008000045D7E900234BEA0305104B0C48196843
:101018004AEA0204C7E900450022BDE8F84F00F09B
:1010280011BBD3E9000120EA0A0421EA0B05E6E72F
:1010380020EA0A0421EA0B05C3E90045BDE8F88F58
:101048005406002080060020780600205006002064
:10105800042A2DE9F34105460C4616463AD901F013
:10106800C5FAD8B11C4B1D491D601D4BDFF88480A3
:101078001C701C4B00221E600023C1E900231A4982
:10108800C1E90023013CE4B200260327FF2C0CD160
:10109800164A1748002100F0C3FA03E001F070FA7D
:1010A8000028DFD002B0BDE8F08123B205EBC3020F
:1010B80001A992788DF8052015F833008DF806609F
:1010C80042468DF8047001F09BFA013CE4B2002816
:1010D800DCD0E7E70720E5E788060020780600204F
:1010E8004C0600205006002080060020AD0E0000AF
:1010F8009C490000B10F000070B5084D084E00244F
:101108002B789C4201D3002070BD3368012113F86D
:10111800340001F0EDFA0134F2E700BF4C0600207C
:10112800880600201FB50021039001AA44F201009F
:10113800CDE9011100F004F805B05DF804FB0000EA
:1011480010B572B6FFF7F8FCFFF740FB0028FBD19B
:10115800104B114C1149E41AE408240444F001002E
:10116800FFF79CFC0E4B1B68DB0700D500BE0D4942
:1011780044F00200FFF792FCBFF34F8F0A490B4B74
:10118800CA6802F4E0621343CB60BFF34F8F00BF1D
:10119800FDE700BF0048000030480000A0490000FB
:1011A800F0ED00E0AC49000000ED00E00400FA05B5
:1011B800094A537891780133DBB2994208BF00237A
:1011C800117899421FBF03705078182303FB002041
:1011D80014BF0430002070478C06002037B5044641
:1011E80000200D4600F092FA0DF10700FFF7E0FF2E
:1011F80090B10570094B9DF8072044605A7000248F
:10120800002000F085FA24B9054B4FF48012C3F88A
:101218000021204603B030BD0424F1E78C060020ED
:1012280000E100E0024B4FF43C6043F00103184733
:10123800C049000038B50C4B0C4C4FF40032C3F8D1
:10124800802001254FF48033C4F84833C4F80833AC
:101258006560FFF7E7FF064BA56000241C60FFF7F9
:10126800E1FF044B1C7038BD00E100E000100140B4
:10127800A807002099070020F8B51F4B1F491B68D5
:101288000025C1F84051C1F84451C1F84851C1F88E
:101298004C51C1F80051C1F804514BB3D1F8044581
:1012A80017490968641A24F07F442F461A68A24235
:1012B80009D8A41A15441A7CDE691AB11F74D3E937
:1012C80005209047AEB90F4B0F4A197813788B4217
:1012D80005D10133DBB2022B08BF0023137012784B
:1012E8000A4B43F822500A4B4FF48012C3F80021EE
:1012F800F8BD3346DAE700BFAC0700200010014014
:10130800A8070020A4070020A50700209C070020AC
:1013180000E100E02DE9F74F9E4A9F4913780978CC
:101328009E4D99423CD00133DBB2022B08BF00230B
:1013380013709B4912789B4B0F6853F822003B1897
:1013480023F07F4300220B602B6816461446944610
:1013580013B942B12B6006E0196881420ED902B177
:101368002B60091A19604FF001082B68DFF83CA2BE
:1013780000930027BEB9DFF83CB260E0401A0C4485
:10138800D968C3F800C0D3F81CE031B13A1922F08B
:101398007F42C3E90121DE611E4601227346D7E779
:1013A8000026B046E1E73446F6697D4A636812686C
:1013B800DFF804C2A068991A21F07F41614500F264
:1013C800A58001442160012222742A680023C4E90F
:1013D8000133E361002A40F0A2802C60CAE75A1C5E
:1013E8009BF80210D2B291428BF8002004BF002271
:1013F8008BF80020182202FB03B32A6819799C682D
:10140800022974D003297ED0012918D1217CB1B9D1
:10141800DA6862601A69A2605A699B69A361624BC3
:10142800E2601B78002BC0D06160BEE79C4200F0F0
:1014380093809946DB69002BF8D1002323749BF82D
:1014480000309BF801209A42C9D12B682FB9009A25
:10145800934202D1B8F1000F43D0002B79D0D3F8D2
:1014680000A0524D4E4BD5F804751C68DFF84C812E
:101478003E1B98F8003026F07F4603369BB94FF4A0
:101488008033C5F84433C5F80433494B4FF4003270
:101498004FF00109C3F880211A60C5F80090FFF7E2
:1014A800C1FE88F80090B2452CBF5444A41924F01A
:1014B8007F44C5F84045D5F80435DB1B23F07F434E
:1014C800E41B033324F07F44A3420AD9D5F804353A
:1014D800C5F84035FFF7A6FE354B4FF40032C3F888
:1014E8000021314B00221A7003B0BDE8F08F13467B
:1014F8009146A0E71174D2690123002AFAD1002B82
:101508009DD02A609BE700231946F6E7D31A23F0FB
:101518007F43834234BFC31A0023236053E7216803
:101528001368994213D8591A1160E26155E7091AEC
:10153800D8691A4638B1034618688842F7D3401A62
:101548001860184613462160E061DC6112E7134613
:10155800F2E7FFF76FFEC4E74C450DD1D3692B6066
:1015680053B90F4801920121CAF8081003600E4BC5
:101578001970FFF757FE019AE1692368C9F81C1032
:1015880011B1086803440B602B689A4218BF012701
:1015980053E700BFA4070020A5070020AC070020E0
:1015A800A80700209C070020980700200010014091
:1015B80000E100E08C060020FEFF7F009907002074
:1015C80008B5FFF737FE104B00200B2218809A70E1
:1015D8000E4B18600E4B18700E4B18700E4B4FF4D4
:1015E8008012C021C3F8802183F814131A6002F115
:1015F8008042A2F56F22C2F8080583F81113074B41
:10160800D2F804251A6008BD8C060020AC0700201B
:10161800A4070020A507002000E100E0A80700209B
:10162800074B9B784BB132B128B10368187C20B9BD
:1016380059745A617047072070470820704700BFE7
:101648008C0600202DE9F3411C4EB37804460D4664
:1016580017468BB380B304292CD9436963B3437C01
:101668000020012B0CBF88464FF0000800F04EF810
:101678000DF10700FFF79CFDD0B101230370104B5B
:101688004460D3F80435C0E90487C0E902359DF801
:10169800073073700024002000F03AF824B9094B91
:1016A8004FF48012C3F80021204602B0BDE8F08153
:1016B8000424F0E70724F7E70824F5E78C06002060
:1016C8000010014000E100E0064A92783AB130B1DA
:1016D800426922B1002202740221FFF77FBD08206F
:1016E800704700BF8C06002072B6024A13680133A7
:1016F80013607047B0070020034A1368013B13606A
:1017080003B962B6704700BFB0070020FFF7ECBF0F
:10171800FFF7F2BF50E8002F0B4640E8003C9CF072
:10172800000FF7D11046704750E8003F43EA010226
:1017380040E8002C9CF0000FF6D11046704750E8A6
:10174800002F02EA010340E8003C9CF0000FF6D1AC
:101758001046704750E8003F03EB010240E8002CB8
:101768009CF0000FF6D11046704750E8003FA3EBFD
:10177800010240E8002C9CF0000FF6D1104670479B
:101788000121FFF7D1BF0021FFF7D9BF10B590B1F4
:10179800D0E9012301689B1ADBB20A60013BDBB286
:1017A800FF2B026802D10020107110BD11684C1C7B
:1017B80014600B70F2E70E20F7E738B504460020F6
:1017C800FFF7A4FF226863681168994213D9481E7D
:1017D800106011F8015CE368218A01FB0535A368F4
:1017E80011791B1ADBB2994200D213710020FFF75E
:1017F8008FFF284638BD0025F8E738B50546002094
:101808000C46FFF783FF2A681368591C1160E968C2
:10181800641A298AB4FBF1F41C700020BDE8384032
:10182800FFF776BF826810B504462AB1436901689C
:10183800006998470023A36010BD0EB403B503994F
:1018480029B102AA04AB42F8043D00F073F802B0D3
:101858005DF804EB03B070470A2938B504460D4615
:1018680002D10D21FFF7F8FFA3682268591CA16077
:10187800D554D4E901329A4204D32046BDE8384011
:10188800FFF7D0BF38BD00002DE9F84F9946DDE9D4
:101898000A431746824688460A460126BA420FD2AC
:1018A8004E4538BF4E4613F0010B01D164B90024F0
:1018B8000125B9F1010F1AD909F1FF397D43F8E77C
:1018C800B2FBF7F20136E9E79B070ED5B9F1000F35
:1018D8000CBF30252025A642EAD2013C29465046B5
:1018E800FFF7BAFF002CF6D1E1E72025F3E7B8FBB4
:1018F800F5F39F42E2D9DFF83890B8FBF5F350468C
:1019080019F8031005FB1388FFF7A6FFB5FBF7F5D9
:10191800002DF2D1BBF1000F02D00CB1A64201D3C9
:10192800BDE8F88F20215046013CFFF795FFF4E70A
:10193800C64900002DE9F74F054690460E46002996
:1019480000F03A8116F8011B002958D0252940F0EB
:10195800D180002702E047F001071646324612F808
:10196800013B2D2BF7D0302B04D02B2B05D147F082
:101978000407F2E747F00207EFE700242A2B06F1F5
:1019880001021BD1D8F80030191D1B68C8F80010D7
:101998001C44164633782E2B1CD101364FF0000A12
:1019A800314611F8012BA2F13000092814D80A2376
:1019B80003FB0A23A3F1300A0E46F1E712F8013CB3
:1019C800A3F130010929E5D80A2101FB0434303C90
:1019D8001646D3E74FF0000A324612F8011B01F011
:1019E800FB0068281646F8D0692916D054D858291B
:1019F80070D00ED825297DD03378002BA2D12B7B2F
:101A0800002B00F0D980284603B0BDE8F04FFFF75F
:101A180009BF632968D06429EED1D8F80020D2F82C
:101A28000090111D89EAE972C8F80010A2EBE9726A
:101A38004FF0010B092A61DCD34538BFD3462CB1DE
:101A4800B9F1000F01DB790700D5013CBA0702D5CF
:101A5800BAF1000F04D0FB0702D4002C54D10024A3
:101A6800B9F1000F58DAC9F100092D212846FFF70E
:101A7800F3FE07F00302022A05D1BAF1000F02D1E2
:101A8800002C4DD10024CDE9004753460A2249468F
:101A98002846FFF7F9FEAFE7732954D016D8702906
:101AA800AAD1D8F800301A1DC8F8002030212846DD
:101AB8001C68FFF7D1FE78212846FFF7CDFE0022EB
:101AC8000823CDE9003221461022E1E775292FD0FD
:101AD800782991D1D8F800100A1DC8F80020CDE95E
:101AE8000047534610222CE0D8F800301A1D197808
:101AF800C8F800202846FFF7AFFE7DE70A230BF160
:101B0800010B92FBF3F295E7A345A9D220212846C1
:101B1800013CFFF7A1FEA0E77807AAD52B21A5E78E
:101B2800A345B0D230212846013CFFF795FEA7E730
:101B3800D8F80010CDE900470A1DC8F80020534620
:101B48000A220968A4E7D8F800301A1DC8F800204E
:101B5800F907D3F8009012D54F46A7EB090B17F8F1
:101B6800011B41B9A345BFF447AF20212846013CDA
:101B7800FFF772FEF6E72846FFF76EFEEDE7B9F1CC
:101B8800000F17D0484602F0FCFD0746BC4200D9BA
:101B980054B909F1FF3919F8011F00293FF42CAF96
:101BA8002846FFF759FEF6E720212846013CFFF7B3
:101BB80053FEEBE74F46E9E703B0BDE8F08F2DE9A8
:101BC800F047B0F806904479D2F800A09DF820803C
:101BD80009FB04F4043C06460AEB0300A0420F4646
:101BE80088BFA4EB030A191DC2F800A0B1FBF9F5E0
:101BF80009FB15114DB9A9EB0104544528BF5446FA
:101C0800BAF1000F04D1BDE8F0873668013DF1E76D
:101C180004317B1970182246B8F1000F0ED0014626
:101C28001846AAEB040A02F050FDD145254436684F
:101C38004C464FF0000128BF5446E1E71946F0E74B
:101C4800FFF7A4BDF8B546790146721E0546002384
:101C580093422D6803D30024A64202D8F8BD01336D
:101C6800F6E70F682846FFF7C8FD01343946F3E761
:101C78002DE9F843068ACD1C0746FFF79EFD043E72
:101C880035440446B5FBF6F5F0B14FF48073EDB278
:101C98008380C680013D076081464FF00008A84553
:101CA80012D23846FFF789FD064648B163790133F9
:101CB800637108F10108C9F8000007608146EEE782
:101CC8002046FFF7BFFF34462046BDE8F8830121D0
:101CD8000430FFF73FBD10B5012104460430FFF77B
:101CE80044FD10F0FF0F04D12046BDE81040FFF777
:101CF800A9BF10BD1FB504AC44F8042D0022009202
:101D08002246FFF75CFF04B010BD1FB504AC44F8D1
:101D1800042D012200922246FFF751FF04B010BDA6
:101D2800064B10B500241C70054B1C60BFF35F8F79
:101D38000449054800F0DBF8204610BDBC07002028
:101D4800C0070020D8490000B407002008B50020CB
:101D5800FFF7DCFCF1EE103A23F09F03E1EE103AB6
:101D6800BFF35F8F054B4022C3F884210020FFF7A3
:101D7800CFFC20BF40BF20BF08BD00BF00E100E08E
:101D8800026813685268934291BFD01A8068013084
:101D9800801888BFC01A7047036881681A685B6832
:101DA8008B4234BF01330023D31A5842584170473D
:101DB800F8B5044600200D46FFF7A8FC2046FFF7BB
:101DC800EBFF10B1237C002B3CD12268A668536836
:101DD8005168B14234BF01310021516030B11168FE
:101DE800A068814234BF013100211160E268606857
:101DF800511E072920D8DFE801F004101F141F1F07
:101E08001F182A78C2542046FFF7BAFF23689A6839
:101E1800824200D29860002415E02A8820F8132016
:101E2800F1E72A6840F82320EDE7D5E9006700EBE1
:101E3800C300C0E90067E6E7294602FB030002F099
:101E480044FCE0E704240020FFF762FC2046F8BDCC
:101E5800036818685B68C31A58425841704770B5E0
:101E6800054600200C461646FFF750FC2846FFF7AB
:101E7800EFFF002830D129680B682EB90A68A868D6
:101E8800824238BF561C0E60EA686968501E0728EF
:101E98001CD8DFE800F0040C1B101B1B1B14CB5CC8
:101EA800237000240020FFF733FC204670BD31F872
:101EB80013302380F5E751F823302360F1E701EB75
:101EC800C301D1E90023C4E90023EAE703FB0211B7
:101ED800204602F0FAFBE4E70524E3E783680022E2
:101EE8005A609A60C3E90422DA601A6070470B6886
:101EF8004A684360934208BF0023016008BF4360FB
:101F08007047C0B2002348700B707047F0B5036883
:101F18001C7E1A68E4B227B296684FEAC70C06EB33
:101F28000C0256F8376051791779927912F0010F3F
:101F38004FEA510587B001F0010138D0002936D1A8
:101F4800D3F800E09EF80CE0013474452FDAD3F89A
:101F580000E00CF10804DEF808C0A4449CF805C0B1
:101F6800B5EB5C0F23D11A6891680A1951F804C0BF
:101F78001C7E517992F804E09279013411F0010F36
:101F88004FEA4212E4B20CBF0321022102F0200200
:101F98001C768DF804100C3001A98DF80550CDE998
:101FA800027ECDE9046C00F089FF07B0F0BD520154
:101FB8004FF0000C02F02002E646EAE70346084626
:101FC8001A68126822B11A681B6851681B6818479A
:101FD800704700002DE9F84F0568DFF88CB004461B
:101FE8000E464FF000090020FFF790FB16B9236852
:101FF8001B6843B9002229466068FFF730FF60B3C9
:10200800C5F8009000260020FFF782FB56B32B6826
:102018001B6923BB2F1D10223946686902F01FFB7C
:1020280080B104F10C0A504604F1080800F00AFFD8
:1020380023465A463946404600F018F9504600F003
:10204800D7FE6F6185F818902046FFF75FFF0146BD
:1020580040B12068FFF7B2FFC5E70126D3E72B6838
:102068001F69D8E7BDE8F88F7520000010B50C4649
:10207800017871B92268137E10680133007BDBB2E6
:10208800984207D913762046FFF740FF014608B962
:1020980010BD03212068FFF791FF20460121BDE80C
:1020A8001040FFF797BF0000F8B50C4A03460446F6
:1020B80008300D4600F0DAF8064660B904F10C0065
:1020C80000F096FE276895E80F003C4644F8046B3C
:1020D80084E80F007C613046F8BD00BF7520000021
:1020E80037B502AB054643F8041D40681946FFF7AB
:1020F8005FFE044618B901462846FFF76BFF2046E5
:1021080003B030BD30B587B00025ADF800500125CB
:102118008DF8005005910C4D0A9C019501A9CDF848
:1021280008D003928DF81030FFF7DAFF18B107B026
:1021380030BD04B1A0479DF80030002BF9D19DF8BF
:102148000100C0B2F3E700BF0B1F000038B5084C10
:1021580004F108030546002818BF1C4623682BB164
:102168001A6822605B6828469847F7E738BD00BFC1
:10217800CC07002020B9054B01225A70FFF7E6BFB3
:10218800012802D1014A9070F8E77047C40700207F
:1021980038B5094C23786BB908486360A36023619C
:1021A800E36000F045F9054600F050F9012323707B
:1021B800284638BD8525FBE7C40700207D2100009F
:1021C80038B5134CA378054603F0FF0073B115B179
:1021D8006B68012098470020FFF798FAE3680133FD
:1021E800E3600020BDE83840FFF792BAFFF78EFAA7
:1021F80025B1226913463BB92A602561E368002BA3
:10220800ECD100F035F9E9E79D42F7D01B68F2E719
:10221800C40700201FB503788DF8003003798DF8C6
:10222800043043798DF8053083688DF80630C3682B
:102238008DF807300369029343690393054A064BF7
:10224800684653F8213052F82110984705B05DF8D8
:1022580004FB00BFD8070020E0070020024B4FF422
:10226800807043F001031847004A00002DE9F04749
:1022780091460778324A42F82790324A42F8273086
:102288004B7B80460C4663B30868496882008B0024
:1022980002F1A04203F1A04340F20C65C2F80057D6
:1022A8000126C3F800574FF0A04506FA00F006FAD9
:1022B80001F1C5F80805C5F8081540F20D61C2F826
:1022C8000017C3F80017FFF7C9FF4FF0000AD5F849
:1022D8001025636822FA03F3DB070FD5BAF1000F64
:1022E8001FD1B9F1000F3B46174A214608F10400F7
:1022F80008BF0022BDE8F04700F008BD236806FAD1
:1023080003F3C5F80C35FFF7A9FF236806FA03F3B2
:10231800C5F808350AF1010AFFF7A0FFBAF1090F5D
:10232800D5D1636801254FF0A04605FA03F3C6F836
:102338000C35FFF793FF63689D40C6F80855D0E752
:10234800E0070020D80700201D2200001FB50378F1
:102358008DF800304368019383688DF80830C368AE
:102368000393054A054B684653F8213052F821106B
:10237800984705B05DF804FBE8070020EC0700204B
:102388001FB503788DF800304368019383688DF892
:102398000830C3680393054A054B684653F8213053
:1023A80052F82110984705B05DF804FBE8070020B3
:1023B800EC070020F0B5194B067891F81DE043F8BA
:1023C8002620174B94460A6943F82620154B03F834
:1023D80006E00C4607460FCC89B06D460FC594E859
:1023E8000F0085E80F000496BEF1000F0AD0BCF17B
:1023F800000F0D4A694608BF0022381D01F092F807
:1024080009B0F0BDBCF1000F084A694608BF0022B8
:1024180007F10C0000F092FEF2E700BFEC07002085
:10242800E8070020F007002055230000892300005A
:10243800054A13792BB9012110601171537118469F
:1024480070478520704700BFF4070020074B1A68C3
:10245800D2075FBFC02283F8002301221A604FF021
:1024680080430122C3F81825704700BF00E100E04F
:1024780037B5114B00221A601B680193019B4FF07E
:1024880080430222C3F804230C4AD06840F08073CA
:10249800D3600B4B1C6844F0010119605D685968F2
:1024A800491BB1F50A5FFAD31C60064BD0600122C4
:1024B8001A6003B030BD00BF04010040F0ED00E039
:1024C800001000E008000040154B07B51A687AB103
:1024D80000221A601B680093009B4FF08043012282
:1024E800C3F808230F4B587910B95A711B689847DD
:1024F8000D4B1A6882B100221A601B680193019B78
:102508004FF080430222C3F80823064B1B680120C2
:1025180003B05DF804EB184703B05DF804FB00BF97
:1025280000010040F40700200401004000F1804051
:1025380000F5C040002382B0036003680193019B4B
:1025480002B07047800000F1A040D0F8003723F4B3
:102558004033C0F80037D0F8003743EA0141C0F8EB
:1025680000177047054B4FF0FF32072843F820202B
:1025780084BF1B1883F84820704700BFFC07002061
:1025880010B5164C94F8583033BBFF21E2180133CC
:10259800202B82F83010F9D10021C8B2FFF7E2FFF2
:1025A80001310C29F9D1042200210D4802F0B6F8B6
:1025B8000C4BC02283F8062340221A604FF4BE70E9
:1025C800FFF7B4FF084B4FF00042C3F80423012380
:1025D80084F85830002010BD0820FCE7FC070020D4
:1025E8005008002000E100E000600040034B93F831
:1025F8005800003018BF0120704700BFFC070020BA
:10260800F0B5394D2C18944694F93040002C68DA0E
:102618008E78C6F34006002E15BF0023082308272E
:102628000C27BB4201D10420F0BD55F8232001320C
:102638004FEA830441D12F1845F823C087F830307A
:1026480016B9EA1882F848008A78560716D4D707C8
:1026580035D5820002F1A042D2F8006726F00206C2
:10266800C2F80067214FC60800F0070C012202FAE1
:102678000CF217F806C042EA0C02BA558A780E78AE
:1026880012F0020224D004F1804303F5C043000293
:10269800D3F8102522F4473222F44072C3F81025EB
:1026A8003604D3F8102500F4F85006F440363043C9
:1026B8001043C3F810050020B6E70133B1E74E78A0
:1026C80000F5E0724FF0A047B60047F82260C9E76E
:1026D800083B2B4493F8500040EA861683F8506074
:1026E800E9E70820A0E700BFFC0700205008002009
:1026F80038B5204C251895F93020072A18DD2244D2
:1027080092F848309B09032B0DD14FF0A043D3F822
:102718001035C34013F0010F0CBF02210321BDE89F
:102728003840FFF70FBF012B14BF03210221F6E742
:10273800D3B2072B1CD8930003F1804303F5C043A1
:10274800D3F8100540F00100C3F8100502F140006D
:10275800800080B2FFF7EAFE51B195F9303054F8A5
:1027680023302BB1012303FA02F2034BC3F80423ED
:1027780038BD00BFFC070020006000404FF0A043B8
:10278800D3F8103523FA00F000F00100704700007C
:102798002DE9FF470024584A584E594D019401210C
:1027A8001368A2F5C040012B80B206D1D6F80433D5
:1027B8000B4202D0FFF7BAFE0C430432AA424FEA9A
:1027C8004101EDD14F4B1B68012B0AD14FF4BE706C
:1027D800FFF7ACFE4FF0A04344F00044D3F81035A7
:1027E800019314F0FF0F1AD0474F002501263442F9
:1027F80010D0AB0003F1804303F5C043D3F81005B4
:10280800D3F8101557F82530C0F30420C1F301415F
:1028180003B198470135082D4FEA4606E7D1002C49
:1028280066DA00224FF0FF33CDE90223DFF8D890B3
:102838000127002634464FF0A04809EB060393F918
:102848005020531C45D0D2B222F0C005E90804A894
:10285800084402F0070310F804CC07FA03F31CEA53
:10286800030F36D009EB050C92099CF930C059F8D2
:102878002CA0BAF1000F0AD1032A2AD10DF1080EB3
:102888001EF801C04CEA030C0EF801C001E0032A4F
:10289800F4D005F5E07110F80C0C58F82110184226
:1028A800C1F3014105D0022913D1032A0BD11146E6
:1028B80004E003290DD1032A05D102212846FFF798
:1028C80041FE0134E4B2BAF1000F02D011462846A5
:1028D800D0470136042EB0D154B14FF0A043019A2D
:1028E800D3F81035934203D00193029B0393A0E7DA
:1028F80004B0BDE8F08700BF006100400060004000
:10290800206100407C610040FC070020014B1B68EF
:10291800184700BF5808002038B50A4B98420D46A2
:102928000CD10020FEF7F2FE074B1C7914B90122E6
:102938001D601A710020FEF7EBFE0CB9002038BDAF
:102948001120FCE70020004058080020034B984263
:1029580001BF034B00221A601A7170470020004023
:10296800580800200023435082B043580193019B2C
:1029780002B070472DE9F0470D78089E9DF824A015
:1029880004460F469946002D5ED1D0F82431D2F87E
:1029980000803BB14FF49271FFF7E4FF01236361BC
:1029A8003B7017E0D0F81C3153B34FF48E71FFF72A
:1029B800D9FFD0F824311BB14FF492712046EBE7D0
:1029C80013689E4212D919F80330C0F81C351368F1
:1029D80001331360B04535D1D4F8043193B34FF4C3
:1029E80082712046FFF7BEFF002504E00123BAF1FB
:1029F800000F03D0C3612846BDE8F0874361E9E7CB
:102A0800D0F80831002BE5D04FF48471FFF7AAFF06
:102A1800D0F82431002BCFD113689E42DAD9D0F8F0
:102A2800181509F80310136801331360721E9342D6
:102A380005D10223C0F8003201232362CAE79E426F
:102A4800FAD1C7E70125D6E74FF49271FFF78AFF5D
:102A58004FF48E71FFF786FF4FF48471FFF782FF02
:102A6800BAE700002DE9FF470C4605461F462046F9
:102A78003B4B03934FF4827116469DF83080FFF765
:102A880071FF4FF49271FFF76DFF4FF48E71FFF7EE
:102A980069FF4FF48471FFF765FF0023C4F8003223
:102AA8006B6385F82E3001232362A3606A6B97421B
:102AB8001DD9B35CC4F81C356B6B01336B632B6891
:102AC800E3B905F1340A05F12E09039B002B1FDC3D
:102AD80095F82E3053BB0020039B002B15DC0023F8
:102AE800C4F800350523C4F8003503200DE0B8F11B
:102AF800000F01D0E361E2E76361E0E740F286237B
:102B0800AB60AB68C4F80433002004B0BDE8F087BC
:102B1800CDE900783346524649462046FFF72AFF5A
:102B28000028D5D0039B013B0393CEE7D4F8C434E7
:102B3800C4F8C434002BCED013F0010F14BF4FF4E7
:102B48000240032048F2012213F0020F18BF10467A
:102B580013F0040F48F2022318BF1846BCE700BF61
:102B6800A08601002DE9FF470C4605461F46204672
:102B7800354B03934FF482719246FFF7F3FE4FF4FF
:102B88009271FFF7EFFE4FF48E71FFF7EBFE4FF4F3
:102B98008471FFF7E7FE0023012F2E686B6385F829
:102BA8002E3008BF02224FF001030CBFC4F80022E8
:102BB800C4F8003223622360AEB905F1340905F187
:102BC8002E08039B002B18DC95F82E301BBB002029
:102BD800039B002B0EDC0023C4F800350523C4F842
:102BE8000035032006E040F28623AB60AB68C4F8EA
:102BF8000433002004B0BDE8F087CDE900765346E1
:102C08004A4641462046FFF7B5FE0028DCD0039B24
:102C1800013B0393D5E7D4F8C434C4F8C434002B7B
:102C2800D5D013F0010F14BF4FF40240032048F22F
:102C3800012213F0020F18BF104613F0040F48F2D8
:102C4800022318BF1846C3E7A0860100F0B52C4C34
:102C58002C4894F82C3089B004F134020193A36A0B
:102C68000093636A04F12E01FFF784FE2746E0B95A
:102C780094F82EC0266ABCF1000F1DD1217B8B1E53
:102C8800012B19D8626AA3699A4215D1E26963696E
:102C98006262C6F340160329A36284F82C6006D149
:102CA800009618492046FFF7DDFE09B0F0BD15492A
:102CB8002046FFF757FFF8E7134D0FCD03AC0FC4BD
:102CC8002B682360BCF1000F17D00E4AD2F8C43429
:102CD800C2F8C43499070CD501238DF808300023B5
:102CE80087F82F307307E0D4D7E9003102A8984756
:102CF800DBE75A07F3D50223EFE78DF808C0EEE7C4
:102D080060080020003000406C0800202DE9F84FD2
:102D18000579334C4FF03C0808FB05F804EB08062E
:102D28009B4696F82D3081460F469246002B52D18D
:102D38002C490068FFF7F0FD00284ED139687B7BED
:102D480086F8383001F5E0724FF0A043B060C6F85D
:102D580004B086F82F0086F8300040F20C6644F87C
:102D680008A043F822607A6802F5E07C43F82C60FA
:102D7800D9F80030C3F80815C3F80C25BA68C3F8A9
:102D88002425BAF1000F1ED01B0B59B200293A7B3B
:102D9800B4BF154E01F16046DBB2B8BF03F00F07B0
:102DA8004FEA4212A8BF06F56146D2B2B4BFF25547
:102DB80086F8002303F01F03012202FA03F34909EE
:102DC8000A4A42F821303C2303FB0544012384F8D6
:102DD8002D30BDE8F88F0820FBE71120F9E700BF88
:102DE80060080020552C000014ED00E000E100E030
:102DF800026803790521C2F80015044A3C2101FB49
:102E08000323022283F82D20704700BF60080020AA
:102E180003680A490279C3F80813D3F8001221F0AD
:102E28000301C3F800120021C3F80015044B3C212C
:102E380001FB0233012283F82D20704786420400EB
:102E48006008002070B504791A4D3C236343064698
:102E5800EB5863B103681B0B5AB20121520903F006
:102E68001F0301FA03F32032134941F82230304698
:102E7800FFF7CEFF3068FFF769FD3C2303FB0453DF
:102E880093F838307BB93068D0F808354FF0A04255
:102E980003F5E073022142F82310D0F80C3503F54E
:102EA800E07342F823103C2303FB0454002384F806
:102EB8002D3070BD6008002000E100E02DE9F74FDB
:102EC8002E4E90F80480D0F800E02D4BCEF8083351
:102ED8003C2404FB08648A4694F82F30154603F016
:102EE800FF0B33B1A368CEF80433112003B0BDE85B
:102EF800F08F82F00403C3F3800384F82F3022623A
:102F08008C46BCE80F0004F10C070FC7DCF8003052
:102F18003B60DAF80430A362DAF80C2062629AF8AF
:102F28000110CEF888159AF80010C8EB0819012985
:102F380006EB89091AD0B9B9C5F340153C2101FB44
:102F48000861484681F82C5000957146FFF78AFDC4
:102F58003C2303FB08F806EB080256F80830002B60
:102F6800C4D182F82F30C1E70125E7E784F82CB0F7
:102F780071464846FFF7F6FDEAE700BF6008002003
:102F8800864204000023435082B043580193019BBA
:102F980002B070470A4610B54FF48E71FFF7F2FF82
:102FA800136A9168C95C136A01331362C0F81C156F
:102FB80010BD8B690A4610B54FF4847123B9FFF729
:102FC800E1FFD0F8183510BDFFF7DCFF536AD16870
:102FD800D0F81805C854536A01335362F3E7000068
:102FE8001FB501238DF80030044BCDE90110D3E95A
:102FF80000126846904705B05DF804FB9C08002065
:1030080030B54C4AD2F8043313F4007F85B0154626
:103018004FD0D2F82431002B4BD04FF49271104688
:10302800FFF7B0FF4FF40173C2F80833424B93F82F
:10303800291009B9012151603E4902228DF800206A
:10304800D1F88024C1F8802403929A690292DA6840
:1030580001920022C3E906226846D3E9001290478C
:103068003448D0F81C315BB133490A6A4B699A423B
:103078000A464BD291F82830002B47D1FFF78AFF38
:103088002C4AD2F8443193B14FF4A2711046FFF79D
:1030980079FF294B93F8291009B1012111609A6928
:1030A8002AB100229A61586AD968FFF799FF05B0DA
:1030B80030BDD5F804335B07D2D5D5F80831002BDD
:1030C800CED01D4C1B482146FFF773FF636AA269E7
:1030D8009A422346C4D1E269E1684AB12369E360B0
:1030E8000023606AA261E3616362FFF779FFB7E7D3
:1030F80094F829200AB901226A600E4A4FF4017037
:10310800C2F8080300229A61586AEEE74FF48E71FC
:103118000848FFF737FF51690029B1D00023029111
:1031280091688DF80030019153616846D2E9001327
:103138009847A5E7002000409C0800202DE9F843A7
:10314800564F047991462C2202FB0472064692F8E7
:103158002A200D46002A40F09A8051490068FFF75E
:10316800DBFB8046002840F0958029683368481CBE
:103178000BD04FF0A04001228A40C0F8082501F585
:10318800E0724FF0030C40F822C06868421C1FBF71
:1031980000F5E0724FF0A04C4FF0000E4CF822E022
:1031A800AA6995F814C0C3F824256A7DBCF1010FFB
:1031B8004CEA0202C3F86C25C3F81405C3F80C15D1
:1031C8001DD1AA68511C1FBF02F5E0714FF0A04045
:1031D8004FF0000C40F821C0E968481C0BD04FF0B4
:1031E800A04C01208840CCF8080501F5E0704FF0AC
:1031F800030E4CF820E0C3F80815C3F810252C235B
:103208006343FA18C2F804902A69FA50B9F1000F1A
:103218002AD04FF48E7130682D7FFFF7B3FE3068E7
:103228004FF4A271FFF7AEFE32681E4BC2F80433AA
:10323800120B51B20029A8BF01F160404FEA4513B3
:10324800BABF194802F00F0500F56140DBB2B4BF00
:10325800435580F8003302F01F02012303FA02F2FB
:103268004909124B43F8212033680422C3F800258A
:103278002C2303FB04730022C3E9062283F82920C8
:103288005A61012283F82A204046BDE8F8834FF0AE
:103298000808F9E74FF01108F6E700BF9C0800207E
:1032A800093000008000020014ED00E000E100E0B9
:1032B800F8B5047900682D4D0023C0F800352C239B
:1032C80003FB04535B6873B1294BC0F80833020B46
:1032D80053B201215B0902F01F0201FA02F2203306
:1032E800244941F82320D0F80C65D0F81415D0F8FB
:1032F8000835D0F810254FF0FF37BE42C0F81475D6
:1033080018BF06F5E076C0F80C75C0F80875C0F867
:1033180010751EBF4FF0A0474FF0020C47F826C0AB
:103328004E1C1FBF4FF0A04601F5E071022746F87A
:103338002170511C1FBF4FF0A04102F5E072022618
:1033480041F822605A1C1FBF03F5E0734FF0A042FA
:10335800022142F82310FFF7F9FA2C2303FB045447
:10336800002384F82A306360F8BD00BF9C08002061
:103378008402020000E100E02DE9F843224F0679BB
:103388004FF02C0909FB067480466569002D37D17A
:103398006261A16025624FF48E71006884F828503C
:1033A800FFF7F0FDD8F80000012383602146FFF7FE
:1033B800F1FD6368A1462BBBD8F80050226A636907
:1033C8009A4212D3D8F80030D3F81C21002AFBD037
:1033D8000122DA6000202C2303FB067600237361A8
:1033E800BDE8F88394F8283043B9D5F81C31002B90
:1033F800F8D049462846FFF7CDFDDFE70F20EAE77A
:103408001120EDE72846EBE79C08002000234350F5
:1034180082B043580193019B02B070471FB5012346
:103428008DF80030044BCDE90110D3E9001268464D
:10343800904705B05DF804FBC80800207FB5374AFF
:10344800D2F82461002E48D010464FF49271FFF74D
:10345800DDFF02238DF80030D2F88034C2F88034C2
:103468000393D2F83C3502932D4BDA68019200227F
:10347800C3E906226846D3E900129047274AD2F8E2
:1034880044317BB14FF4A2711046FFF7BFFF244BC4
:10349800996939B10021C3E90611D968D2F83C0508
:1034A800FFF7BCFF1D4AD2F82031A3B14FF4907149
:1034B8001046FFF7ABFF1A4B596961B1D2F84C15AA
:1034C8000291002299688DF8002001915A6168469E
:1034D800D3E90012904704B070BDD2F81031002B28
:1034E800CCD04FF488711046FFF790FF0C4BD2F800
:1034F8003C0599698842C1D1DC69D96864B1D2F8C0
:10350800005225F02005C2F800521A699C61DA6061
:10351800DE61FFF783FFB1E79C61FAE70020004016
:10352800C80800202DE9F8435A4F0679914624220D
:1035380002FB0672044692F820200D46002A40F04D
:10354800A28055490068FFF7E7F98046002840F057
:103558009D8029682368481C0BD04FF0A0400122A9
:103568008A40C0F8082501F5E0724FF0030C40F8D6
:1035780022C06868421C1FBF00F5E0724FF0A04CE3
:103588004FF0000E4CF822E0AA6995F814C0C3F871
:1035980024256A7DBCF1010F4CEA0202C3F86C25B0
:1035A800C3F80C15C3F814051DD1AA68511C1FBF18
:1035B80002F5E0714FF0A0404FF0000C40F821C038
:1035C800E968481C0BD04FF0A04C01208840CCF88B
:1035D800080501F5E0704FF0030E4CF820E0C3F841
:1035E8000815C3F8102524237343FA18C2F8049069
:1035F8002A69FA50B9F1000F34D04FF48871206865
:103608002D7FFFF703FF4FF490712068FFF7FEFE50
:103618004FF492712068FFF7F9FE20684FF4A27109
:10362800FFF7F4FE22681D4BC2F80433120B51B2A7
:103638000029A8BF01F160404FEA4513BABF1848F6
:1036480002F00F0500F56140DBB2B4BF435580F8C6
:10365800003302F01F02012303FA02F24909114B59
:1036680043F8212023680822C3F80025242303FBFC
:1036780006730022C3E906225A61012283F820203A
:103688004046BDE8F8834FF00808F9E74FF0110805
:10369800F6E700BFC8080020453400001003020008
:1036A80014ED00E000E100E0F8B5047900682D4D64
:1036B8000023C0F80035242303FB04535B6873B16F
:1036C800294BC0F80833020B53B201215B0902F001
:1036D8001F0201FA02F22033244941F82320D0F8CE
:1036E8000C65D0F81415D0F80835D0F810254FF02F
:1036F800FF37BE42C0F80C7518BF06F5E076C0F873
:103708001475C0F80875C0F810751EBF4FF0A047B3
:103718004FF0020C47F826C04E1C1FBF4FF0A046C2
:1037280001F5E071022746F82170511C1FBF4FF0C8
:10373800A04102F5E072022641F822605A1C1FBF20
:1037480003F5E0734FF0A042022142F82310FFF77F
:10375800FDF8242303FB0454002384F8203063601D
:10376800F8BD00BFC80800201003020000E100E017
:1037780001F06043B3F1005F2DE9F041074632D113
:103788001C4B0679242505FB063598466C6964BBF5
:103798006A61A96000684FF49071FFF737FE4FF433
:1037A800AC713868FFF732FE3B686A69A968C3F8EC
:1037B8004415C3F8482501229A606A68BAB9D3F853
:1037C8002011D3F8582149B9002AF8D00F20242312
:1037D80003FB068600237361BDE8F081002A14BF4D
:1037E8000F200020F3E71020F6E71120F4E7204629
:1037F800F2E700BFC80800200220FDF70FBB000059
:103808002DE9F04781460D46FDF71AFB03280446CB
:1038180004D8012D04D024D3022D2FD0BDE8F08781
:10382800194D47003A18A918AE5C4A7852B1DFF82A
:103838006880164842464FF40041FDF703FF08B977
:1038480088F800903B192B449A78114B1A55002E92
:10385800E4D0104B1B68002BE0D03046BDE8F047A1
:1038680018470A48FDF730FF074B04EB440213449E
:103878009E78074B1B5DB342D0D1E8E7024B00EBC3
:1038880040041C446678E2E7500900201009002033
:103898006909002064090020EC0800200221007852
:1038A800FFF7AEBF08B5094B1B7853B10020FDF7F1
:1038B8008BFA0120FDF788FA0320BDE80840FDF7E0
:1038C80083BABDE80840FDF78BBA00BFED080020B9
:1038D800F8B57B4C237805461BB100232370FFF70E
:1038E800E1FF172D00F28880DFE805F00C17174379
:1038F80054657680888D888D959A9A9A9A9AC4C9C3
:10390800D1D9E4E4FFF7CEFF6E48FDF7DDFE6E4B3C
:10391800002204461A702046F8BD0020FDF73AFA46
:10392800F8B10020FDF750FA022D0CBF4FF4E16109
:103938004FF47A61644B1D704FF400404FF4FA74F1
:103948000025E0FB01454FF47A7200232046294602
:1039580000F0C0FD002201465A48BDE8F840FDF7D6
:1039680071BEFDF725FA022D0CBFC8214FF4C871AE
:10397800E0E70020FDF70EFA40B10020FDF724FA39
:103988004FF44871504B03221A70D5E7FDF710FA2F
:10399800C821F7E70020FDF7FDF938B10020FDF751
:1039A80013FA4FF47A61484B0422EDE7FDF700FA69
:1039B8004FF4C871F7E70020FDF7ECF948B1002093
:1039C800FDF702FA404B05221A7041F69A110022BF
:1039D800C2E7FDF7EDF9F5E70020FDF71FFA3A4BCE
:1039E80006221A70002240F6CD41B5E70020FDF707
:1039F800DFF9354B07221A7000248CE7012020706C
:103A0800FDF70CFAEEE701202070FDF707FA002217
:103A18004FF48041A0E7FDF7F2F92B4B0C22EAE7BF
:103A28002A482B4EFDF750FED5F1110504461CD04F
:103A3800D8B9012D13D0C8235D434FF400474FF484
:103A4800FA7000214FF47A720023C7FB050100F0D9
:103A580041FD224601461D48FDF7F4FD04460220BB
:103A6800FDF7A6F90123337055E70220FDF7ACF9FD
:103A78000023F8E7FFF716FF134B1222BBE7FFF707
:103A880011FF0020FDF794F90F4B1322B3E7FFF75E
:103A980009FF0120FDF78CF90B4B1422ABE7FFF768
:103AA80001FF0020FDF784F90120FDF781F9064B9D
:103AB8001522A0E7FDF7A3F9034B1D709CE700BF93
:103AC800600900203009002068090020F008002063
:103AD800ED080020044B1B68DB0703D5034B18785F
:103AE800FFF7F6BE704700BF5C0900206809002098
:103AF80038B51C4B18601C4B10F0020405461960C1
:103B08001AD01A4B1A480E221A700F22DA70102295
:103B18009A7111225A72042140F26662FDF798FAEE
:103B2800044648B9FDF7E8FA044628B90146114A9F
:103B38001148FDF775FD0446EB0711D50120FDF787
:103B480091F96CB921460D4A0D48FDF769FD044607
:103B580030B90C4A0C480121BDE83840FDF760BD7A
:103B6800204638BD5C090020640900205009002067
:103B7800284A0000A53800004C4A0000DD3A000041
:103B8800504A000001380000484A00002DE9F04F73
:103B9800024689B060B19348934B94491B1ADB08DD
:103BA8001B0443F0020009B0BDE8F04FFCF77ABFF0
:103BB8008F4F90493B78904ADFF868A210889AF8AE
:103BC80002C09AF805604FF0060808FB03F801EBFD
:103BD800080B31F808909BF802E049F30A04001B2F
:103BE8004EF3050465B25488641BA4B205949BF88F
:103BF8000340958844F3050464B22C1BA4B20694D0
:103C08009BF80440D58844F3050464B22C1BA4B285
:103C180007949AF803509AF80440BAF800A09AFA60
:103C28009AFACAF34A1A6AF30A091CF0400F80B2DA
:103C380021F808900BD14FEA8C0C4FFA8CFC4FF00E
:103C480004089CFBF8FC6CF3050E8BF802E015F0F9
:103C5800400F0FD14FF0060C0CFB031CAD004FF0CA
:103C6800040E6DB295FBFEF59CF803E065F3050EB6
:103C78008CF803E065060ED4062505FB0315A400A1
:103C88004FF0040C64B294FBFCF495F804C064F3A0
:103C9800050C85F804C006255D4301EB050C495B5E
:103CA800564C41F30A01084400B210809CF80250B7
:103CB800059945F3050541FA85F52DB255809CF81F
:103CC8000380069948F3050841FA88F80FFA88F83E
:103CD8000133DBB216F0400FA2F804809CF8049080
:103CE80018BF267807990F2B88BF002349F30509C9
:103CF8003B7041FA89F93B780FFA89F9A2F80690E6
:103D080023B12378002B68D0B34266D006F01C0399
:103D1800043BDBB2142B98BF394A334F98BF52F893
:103D280023A0304B88BFDFF800A1FF1A00F0CEFABD
:103D380000224FF07F5300F017FB0022314B00F0B8
:103D480013FB00F0DAFA07EE900AFF08F5EEC07AE6
:103D58003F04F1EE10FA47F0050741D5BFEE007AAF
:103D6800F4EEC77AF1EE10FA3ADD274A9FED276A9A
:103D7800FDEEE76AF5EEC07AB8EEE67AF1EE10FAF3
:103D8800CCBF77EEC77A77EE677A102167EE867A2E
:103D980099FBF1F3FDEEE77A039395FBF1F598FBB8
:103DA800F1F3CDED007A02931949019516EE903A98
:103DB8003846FCF78DFE174A1749184B16F0200FA6
:103DC80008BF134616F0800F18BF0A460092144920
:103DD80052463846FCF770FE267009B0BDE8F08FF1
:103DE8000C4AC3E70048000030480000EF4A0000D2
:103DF800BD090020BE0900201E0A0020BC090020C1
:103E08005C4A00000000B03F074B00000000C842B9
:103E1800094B0000EC4A0000384B0000334B00000F
:103E28003F4B00006E090020ED4A00000E2808B53F
:103E380002D011280AD008BD05490648FEF750F9F6
:103E48000028F8D0BDE80840FDF76CB90249F4E74E
:103E580038000020B04A00004C00002008B5064990
:103E68000648FEF73DF908B1FDF75CF90320BDE807
:103E78000840FCF7D3BF00BF24000020B04A000070
:103E8800024648B10548064B06491B1ADB081B04C5
:103E980043F00200FCF706BE704700BF0048000070
:103EA800304800004A4B0000024648B10548064B1E
:103EB80006491B1ADB081B0443F00200FCF7F2BD9D
:103EC800704700BF00480000304800006E4B0000FB
:103ED80008B50A4A0A480121FDF7A2FB08B1FDF717
:103EE80021F9002240F266610648FDF7ABFB18B1E4
:103EF800BDE80840FDF716B908BD00BF653E0000E3
:103F0800C84A0000280A002008B54FF400410020E4
:103F1800FCF702FC08B1FDF705F9BDE80840FCF71D
:103F280037BB000010B586B0FFF7EEFF0120FCF7A5
:103F380099FFFEF72DF908B1FDF7F4F80020FEF718
:103F48003FF9FDF73DFB08B1FDF7ECF824490220E5
:103F5800FFF7CEFD08B1FDF7E5F8FDF7E1FE08B182
:103F6800FDF7E0F81F48204B2049C01AC00800049C
:103F780040F00500FCF792FDFCF728FC0028FBD177
:103F88001A231B22CDE902234FF0CC73059004932A
:103F980002A9072316488DF81430FEF785F808B1F2
:103FA800FDF7C0F80024FFF793FF00940123114A9E
:103FB8000F482146FEF7A6F808B1FDF7B3F80094BC
:103FC80001230D4A0A480021FEF79CF808B1FDF7C5
:103FD800A9F8FDF7BBFEFCF7F9FB0028FBD1F8E7D1
:103FE800353E00003048000000480000CC4A000080
:103FF800B04A0000544A0000184C00000C4B1B78D3
:10400800062B10D10B4B1B681A070CD10A4B1868EA
:1040180000F0F003302B08D000F0E000A0F14003DE
:10402800584258417047002070470120704700BF30
:10403800E00F00F0E40F00F0E80F00F0094B1B78E8
:10404800062B0CD1084B1B681A0708D1074B1868B8
:1040580000F0F000A0F130035842584170470020AA
:10406800704700BFE00F00F0E40F00F0E80F00F029
:1040780008B5FFF7C3FF28B17D4B7E4A1B68C3F321
:1040880004231360FFF7DAFF10B17B4B7B4A1A60F9
:10409800FFF7B4FF28B17A4B7A4A1B68C3F342335F
:1040A8001360FFF7CBFF20B1774AD36823F0807302
:1040B800D360FFF7A3FF40B14FF080430022C3F85D
:1040C8000C21C3F81021C3F83825FFF7B7FF10B14A
:1040D8006E4B03221A60FFF7B1FF40B16C4B05220B
:1040E8001A6001229A6700229A603F225A60694B3F
:1040F8001B78062B50D1684B1B6819074CD1674BAE
:104108001B6803F0F003502B46D14FF08052644BEC
:10411800D2F80414C3F82015D2F80814C3F82415EB
:10412800D2F80C14C3F82815D2F81014C3F82C15BB
:10413800D2F81414C3F83015D2F81814C3F834158B
:10414800D2F81C14C3F84015D2F82014C3F844154B
:10415800D2F82414C3F84815D2F82814C3F84C151B
:10416800D2F82C14C3F85015D2F83014C3F85415EB
:10417800D2F83414C3F86015D2F83814C3F86415AB
:10418800D2F83C14C3F86815D2F84014C3F86C157B
:10419800D2F84424C3F87025FFF730FF28B1414B0B
:1041A800414A1B6803F04F031360FFF727FF48B12C
:1041B8004FF08043D3F80024D20744BF6FF00102C8
:1041C800C3F80024394B1B68062B08D1384B1B68F1
:1041D800062B01BF374A136843F480631360364ADD
:1041E800D2F8883043F47003C2F88830BFF34F8F99
:1041F800BFF36F8F4FF01023D3F80022002A03DBA0
:10420800D3F80432002B2FDA2C4B0122C3F80425F3
:10421800D3F80024002AFBD04FF010221521C2F851
:104228000012D3F80024002AFBD04FF010231522E7
:10423800C3F80422214B1A46D3F800140029FBD0F6
:104248000021C3F80415D2F80034002BFBD0BFF3CB
:104258004F8F19491A4BCA6802F4E0621343CB60C6
:10426800BFF34F8F00BFFDE7164B174A1A6008BD12
:10427800240300104035014074C007400DF0ADBA6A
:10428800440200103C050040F0ED00E0A0050040AD
:1042980010560040E00F00F0E40F00F0E80F00F0C7
:1042A80000C0004058020010E40E00403001001029
:1042B800340100103C17004000ED00E000E0014030
:1042C8000400FA05640000200090D003004204BFF7
:1042D8000146704710F000424FEA125242F48062E1
:1042E80042F01D0200D54042B0FA80F18840521ACF
:1042F800C30A400503EB025170474FF4001313EB58
:10430800410F24D24FEA4102B2F1E04324BFB3F592
:10431800001CDCF1FE5C0DD901F000414FEAC0023F
:1043280041EA5070B2F1004F40EB830008BF20F023
:104338000100704711F0804F04BF01F00040704742
:1043480001F0004040F0FE4040F40000704701D109
:104358000042F5D049004FEAC10141EA10704FEA26
:10436800300040F480007047F0B5574F81EA0305EC
:1043780017EA010E1EBF9EEA070F17EA030494EA24
:10438800070F64D04EEAD57EA64421EA470141F4DE
:10439800801123EA470343F48013A1FB0247A0FBE3
:1043A800036536197D41A1FB034747F10003A0FBD4
:1043B8000217F619654153F10003094218BF46F088
:1043C80001061427B3F5007F47F1000734BF3F4AC1
:1043D8003F4ABEEB020E31D4C7F1200403FA04F1C0
:1043E80005FA04F025FA07F2114326FA07F21043FA
:1043F80016FA04F421F480114FEA5E0741EA4701F6
:104408000AD0B4F1004F50F1000041F10001B4F1BD
:10441800004F08BF20F001002B4F1EEA070F10D0F5
:1044280041EACE71BE453CBFBDE8F0407047264921
:10443800002041EACE71BDE8F04070471EEB020E45
:10444800F5D44FEACE710020BDE8F04070473942FC
:1044580004BF01F000410020004218BF41F00101F3
:104468003B4204BF03F000430022124218BF43F04E
:10447800010307EA0304BC4218BF9EEA070F05D0F0
:1044880005F000410020BDE8F040704721F00041F0
:1044980023F00043B9420FD8BB420DD8002918BFFA
:1044A800002B09D005F0004141F0FE4141F47001B4
:1044B8000020BDE8F04070474FF0FE4141F478011C
:1044C8000020BDE8F04070470000F07F0000F03F9A
:1044D8000000E03F53EA020C61D02DE9F04BB3FA3B
:1044E80083F51E0007BFB2FA82F502FA05F403FA53
:1044F80005F41646C5F120051EBF22FA05F73C4310
:10450800203556EA044C4FEA144418BF0134A34638
:104518004FF00009C846904271EB030C39D30942A9
:1045280007BFB0FA80F700FA07F6B1FA81F701FA87
:1045380007F6C7F120071EBF20FA07FC46EA0C065B
:104548002037B6FBFBFC7F1B103F07F01F04C4F1AC
:1045580020060CFA04F42CFA06F644BF344600266A
:10456800202FA4BF2646002454EA060C08BF0124C5
:1045780018EB040849EB0609A4FB027CC01B06FBE8
:1045880002CC04FB03CC71EB0C01904271EB030CE1
:10459800C5D20B46024649464046BDE8F08BB2FB01
:1045A800F3F200007F2805D8034B185C034B5B5CD3
:1045B8001840704700207047204C0000A04C0000B5
:1045C800A0F16103192B98BF20387047A0F141036F
:1045D800192B98BF203070477F2805D8034B185CEB
:1045E800034B5B5C1840704700207047204C00006C
:1045F800A04C0000A0F16103192B98BF2038704728
:10460800A0F14103192B98BF203070477F299ABF2A
:10461800017001206FF02E0070475AB10A787F2A86
:104628000AD800B10260002119605960501A18BFF9
:1046380001207047002070476FF02E00704700007F
:1046480008B5034B5B689B681B68984708BD00BFAB
:104658006800002008B50921FFF7F2FF08BD92B3F2
:1046680070B4134640EA010212F0030F17D05A1E25
:1046780010D004780B789C420CD1431C4C1C02448B
:1046880018462146934205D00133013406780D7847
:10469800AE42F5D000780B78C01A70BC70470F2B6B
:1046A800E5D904680A689442E1D1041D0A1D204630
:1046B8001146043B042BDAD90434043206680D6829
:1046C800AE42F4D0D3E700207047844640EA0103A5
:1046D80013F0030F18D18446202A0BD32DE9F007D5
:1046E800B1E8F807A0E8F807A2F12002202AF7D2DB
:1046F800BDE8F007042A07D351F8043B40F8043B0F
:10470800A2F10402042AF7D2002A05D011F8013BCD
:1047180000F8013B013AF9D1604670478446002A07
:104728002DD010F0030F04D000F8011B013A26D059
:10473800F7E7C9B241EA012141EA0141202A12D32F
:10474800A2F120022DE9F0030B460C460D460E4659
:104758000F4688468946A0E8FA03203AFBD2BDE80E
:10476800F00320320BD0042A05D340F8041B043A86
:1047780005D0042AF9D200F8011B013AFBD16046A2
:10478800704700F1010110F0030F11D010F8012B50
:10479800002A23D010F0030F0AD010F8012B002AAA
:1047A8001CD010F0030F03D010F8012B002A15D0ED
:1047B8002DE970004FF001324FF0803350F8044B70
:1047C800A4EB020525EA04051D4000D1F6E7A0F197
:1047D800040070BC10F8012B002AFBD1A0EB0100EB
:0247E800704718
:1047EC00B00900209809002005000000040000001A
:0447FC0001000000B8
:10480000064A0000000000000C4A00000000000002
:10481000134A000000000000174A000000000000DA
:104820001B4A000000000000204A000000000000B9
:10483000C948000000000303ED490000000000002B
:08484000E44900000000000043
:104848008C48000000000000984800001400002078
:10485800C00000208801002090010020C80000202E
:044868001800000034
:10486C00FFFFFFFFFFFFFFFFFFFFFFFFFFFFFFFF4C
:10487C0000000000000000000000D601060100004E
:10488C000105000065050000B1040000756172743B
:10489C005F6C6F675F6261636B656E640000000044
:1048AC00B40500207F000000340600204261636BD9
:1048BC00656E647320666C757368656400617070F6
:1048CC0000000000034900004C4900000B490000A7
:1048DC00544900005C490000644900006C49000028
:1048EC00744900007C4900002025303278002020DB
:1048FC0020007C002563001B5B306D002573001BC2
:10490C005B313B33316D0025734C6F6773206472E0
:10491C006F70706564202825642925730D0A003C8E
:10492C0025733E2025733A20000000000000000093
:10493C00A6490000844900008C4900009149000000
:10494C001B5B313B33306D001B5B313B33326D00F5
:10495C001B5B313B33336D001B5B313B33346D00E0
:10496C001B5B313B33356D001B5B313B33366D00CC
:10497C001B5B313B33376D007761726E696E67007C
:10498C00696E666F0064656275670011121314001E
:10499C0054060020466174616C206572726F72005F
:1049AC0053797374656D2072657365740000000033
:1049BC00000000000338FDD87047303132333435F5
:1049CC00363738394142434445460000EC47000035
:1049DC00EC470000040000007077725F6D676D7427
:1049EC0000636C6F636B00000000000000000000AF
:1049FC00000000000338FDD87047434C4F434B0078
:104A0C004750494F54450050525300545749005594
:104A1C004152540055415254450000000D00030012
:104A2C00093800000E000300093800000F000300D5
:104A3C00093800001000030009380000F0080020BD
:104A4C0010090020300900201C00002002900000FA
:104A5C00944B0000ED4A0000ED4A0000ED4A0000C6
:104A6C00994B0000ED4A0000ED4A0000ED4A0000B1
:104A7C00ED4A0000ED4A0000ED4A0000ED4A00004E
:104A8C00ED4A0000ED4A0000ED4A0000ED4A00003E
:104A9C009F4B0000ED4A0000ED4A0000ED4A00007B
:104AAC00A44B00007C090020EC4700000000000033
:104ABC00003000400000000000000000280A002028
:104ACC000D0A545749206D617374657220657861C5
:104ADC006D706C6520737461727465642E200D0AA0
:104AEC00003F00726561645F616C6C5F6362202DD6
:104AFC00206572726F723A202564002D0054656D2A
:104B0C00703A20257325642E25303264207C205881
:104B1C003A202533642C20593A202533642C205A12
:104B2C003A20253364200020544150002053484142
:104B3C004B45007C202573257325730D0A00726587
:104B4C0061645F6C6D3735625F726567697374653C
:104B5C0072735F6362202D206572726F723A20252A
:104B6C006400726561645F6D6D61373636305F72FB
:104B7C0065676973746572735F6362202D2065725B
:104B8C00726F723A202564004C45465400524947D6
:104B9C00485400444F574E00555000006D090020FA
:104BAC00019001006E09002002910000480A0020CB
:104BBC000198010070090020049900001E000020DB
:104BCC00019001006E090020019100006D09002088
:104BDC00019001006F0900200291000020000020CC
:104BEC000190010071090020029100001F000020BB
:104BFC00019001007309002002910000480A002076
:104C0C00019801006E0900200B9900006000002043
:104C1C000298000020202020202020202068282816
:104C2C002828202020202020202020202020202068
:104C3C0020202020481010101010101010101010F0
:104C4C0010101010848484848484848484841010D0
:104C5C0010101010108181818181810101010101ED
:104C6C000101010101010101010101010101011019
:104C7C0010101010108282828282820202020202C2
:104C8C0002020202020202020202020202020210EA
:104C9C0010101020000703200417020108571040C1
:104CAC0080000000544E0000184D00002C4E0000F7
:104CBC0053756E004D6F6E0054756500576564003A
:104CCC00546875004672690053617400000000005E
:104CDC004A616E00466562004D617200417072005F
:104CEC004D6179004A756E004A756C00417567001C
:104CFC00536570004F6374004E6F7600446563001B
:104D0C0000000000414D00504D000000504E0000CE
:104D1C004C4E00004C4E00004C4E00004C4E00001F
:104D2C004C4E00004C4E00004C4E00004C4E00000F
:104D3C004C4E0000FFFFFFFFFFFFFFFFFFFFFFFFD9
:104D4C00FFFF00008C4D0000BC4C0000C84D000063
:104D5C00DC4C0000104D0000704D0000204E000097
:104D6C007C4D0000256D2F25642F25790000000057
:104D7C002561202562202565202554202559000019
:104D8C0053756E646179004D6F6E64617900547572
:104D9C006573646179005765646E6573646179004D
:104DAC005468757273646179004672696461790044
:104DBC005361747572646179000000004A616E750C
:104DCC00617279004665627275617279004D61722B
:104DDC00636800417072696C004D6179004A756EB0
:104DEC0065004A756C79004175677573740053657D
:104DFC007074656D626572004F63746F62657200EA
:104E0C004E6F76656D62657200446563656D6265B3
:104E1C007200000025483A254D3A25530000000049
:104E2C00AD450000C9450000D5450000E145000036
:104E3C00FD45000009460000154600002346000011
:104E4C00000000002E00000043000000504F5349AA
:044E5C0058000000FA
:104E60000000000000200040000000000020004082
:104E70000000000000000000FF000000010001022F
:104E800003000000953B000000000000A84B00005C
:104E90000400000000000000893E00000000000047
:104EA000C84B00000800000000000000B13E0000F8
:104EB00000000000084C000002000000000000009C
:104EC000070100000090D003B04C0000B04C00007F
:0C4ED000B04C0000B04C0000B04C0000E2
:04000003000003797D
:00000001FF
