:020000022000DC
:1060000000F0002035620200656202006762020053
:10601000696202006B6202006D6202000000000013
:106020000000000000000000000000006F6202009D
:1060300071620200000000007362020075620200DB
:10604000796202007B620200F51504007F620200A3
:1060500081620200836202003176020087620200E0
:10606000896202008B620200997103008F62020054
:106070009162020093620200956202009762020040
:10608000996202005DA80300F9BF02009F6202004E
:1060900085A80300A362020025080400A76202008D
:1060A000A9620200AB620200AD620200AF620200B0
:1060B000B1620200B36202007762020077620200FE
:1060C000B5620200B7620200B9620200BB62020060
:0C60D000BD620200BF620200C16202005B
:1060DC00354936480A1A02D0072291438D46344975
:1060EC0034480A1A06D00722914381F30988022208
:1060FC0082F3148830483149314A00F043F8314872
:10610C003149324A00F03EF831483249324A00F007
:10611C0039F832483249334A00F034F832483349BE
:10612C00334A00F02FF833483349344A00F02AF848
:10613C0033483449344A00F025F8344834490022B5
:10614C0000F02BF833483449002200F026F833488D
:10615C003349091A082903DB00220260043001606C
:10616C001F482049884205D00268043003B4904788
:10617C0003BCF7E700208646EC4600200021294AA4
:10618C009047FEE7884207D0521A05D003780130B9
:10619C000B700131013AF9D17047884202D002707C
:1061AC000130FAE77047000000F0002000E8002002
:1061BC0000F0002000F00020044B0400C832002046
:1061CC0044340020C4620200C46202005430040053
:1061DC00044B0400C8320020C83200206031040097
:1061EC00603104006031040060310400603104004F
:1061FC00603104006031040060310400044B040081
:10620C00804C0400443400204434002044340020EA
:10621C00B8750020B8750020BC750020BC75002036
:10622C00BC7900207171020008484FF007018843C7
:10623C008546074880470748016841F470010160B2
:10624C00BFF34F8FBFF36F8FFFF742BF00F00020FB
:10625C0065AC030088ED00E0FEE7FEE7FEE7FEE735
:10626C00FEE7FEE7FEE7FEE7FEE7FEE7FEE7FEE7FA
:10627C00FEE7FEE7FEE7FEE7FEE7FEE7FEE7FEE7EA
:10628C00FEE7FEE7FEE7FEE7FEE7FEE7FEE7FEE7DA
:10629C00FEE7FEE7FEE7FEE7FEE7FEE7FEE7FEE7CA
:1062AC00FEE7FEE7FEE7FEE7FEE7FEE7FEE7FEE7BA
:0862BC00FEE7FEE7FEE700BF6C
:1062C40041DF704776DF70477ADF70477CDF7047C5
:1062D40008B504F0F3FD08BD0C4B1B6813F4804FA4
:1062E40012D00B4B1B68012B0EDD00B583B0094B9C
:1062F400D3F80435084A0092B5220849022006F072
:106304007BFE03B05DF804FB704700BF3833002008
:106314003433002000B00040EC310400E2310400CA
:1063240030B587B00C46516829B3264B1B6813F46B
:10633400804F03D0244B1B68032B0ADC214B1B68C2
:1063440013F4804F03D0204B1B68032B2BDC07B0C6
:1063540030BD1E4BD3F8043560881578527804910B
:106364000392029501901A4A0092DD2219490420F1
:1063740006F042FEE2E7134B1B6813F4804FDDD0B6
:10638400114B1B68032BD9DD104BD3F804356188FE
:10639400127802920191104A0092E2220D490420DF
:1063A40006F02AFECAE7094BD3F80435626992F96C
:1063B4000D200192094A0092E5220649042006F0C4
:1063C4001BFEC4E7383300203433002000B0004003
:1063D40070320400E2310400C4320400F0320400DC
:1063E40000B583B0012A1ED04AB1022A35D0254A0D
:1063F400D021032014F050FD03B05DF804FB224BC0
:106404001B6813F4804FF7D0204B1B68032BF3DD7C
:106414001F4BD3F804351F4A0092C3221E4904209F
:1064240006F0EAFDE8E7062232214FF4F01001F00D
:1064340081F8154B1B6813F4804FDDD0134B1B6898
:10644400032BD9DD124BD3F80435144A0092C82229
:106454001149042006F0D0FDCEE70B4B1B6813F462
:10646400804FC9D0094B1B68032BC5DD084BD3F8FB
:1064740004350B4A0092CC220749042006F0BCFDE7
:10648400BAE700BF883104003833002034330020D9
:1064940000B000400C320400E23104002C3204004D
:1064A4004C32040000B583B09DF80430012262F33D
:1064B400030362F3071302A800F8043D14220549FC
:1064C400FFF704FF10B903B05DF804FB13F049F9BA
:1064D400F9E700BFDC33040008B513F042F908BD46
:1064E40000B583B0037823B1012B0BD003B05DF862
:1064F40004FB3B214088FFF7E5FE0028F6D013F0AB
:1065040030F9F3E70A4B1B6813F4804FEED0094BC4
:106514001B68032BEADD084BD3F80435074A0092C5
:106524004FF404720649042006F066FDDEE700BF5E
:10653400383300203433002000B00040B434040069
:10654400E2310400754B1B78002B00F0E680F0B5B7
:1065540089B014460D46714B00221A70704B1B68AB
:106564003BB12268012A0BD16B6993F90D0000231A
:1065740036E0042103201CF089F8694B1860F0E729
:106584000321674B186801F061FA0028ECD12268F6
:106594000321634B186801F06DFAE5E7614BD3F80A
:1065A40004350132049203970290326801925E4AE4
:1065B40000924FF48E725D49042006F01DFD2FE019
:1065C400584BD3F8043502970192594A009240F28D
:1065D40025125649042006F00FFD3BE00133DBB2DF
:1065E400022B37D827689D004D4A11684E1951F87F
:1065F40023209742F2D11F464E4AD25C132AEDD88B
:1066040003EB83018B0013444B4941F823004B4BAC
:106614001B6813F4804F03D0494B1B68032BBDDC6C
:10662400444AD35D0133DBB2D355132B12D9454A07
:106634001378013313703A4B1B685A593B01424992
:10664400CA503E4B1B6813F4804F03D03C4B1B686D
:10665400032BB5DC3B4B1B78022B04D82F4B0122B8
:106664001A7009B0F0BD394814F072F908B9002461
:1066740004E013F076F8FAE70134E4B2022C31D8DE
:10668400274D28681CF010F800262E6004EB8402C5
:1066940013012D4922018D1889582748184401F007
:1066A40079F9E860284601F081FA224B1E55234B04
:1066B4001B6813F4804FDFD0214B1B68032BDBDDF9
:1066C400184BD3F80435204A2701E9680291D259BE
:1066D40001921F4A009240F239121449042006F034
:1066E4008BFCC9E71B4D06AC1749204601F0F4F9B1
:1066F40094E8030085E80300002305E01A01124929
:10670400002088500133DBB2022BF7D90D4B002255
:106714001A70114B01221A70A0E77047C83200208A
:106724006C34002000B00040FC320400E23104006C
:10673400343304001437002070370020383300202D
:10674400343300204534002018370020503700200F
:1067540050330400483700206039002000B585B06C
:106764003223019364230093002302938DF80C30A9
:106774006A4602A9024819F0ABFE05B05DF804FBB5
:10678400A834002010B504460378022B05D0012B51
:1067940007D02378042B08D010BD406812F0E1FF25
:1067A400F7E7406812F0DDFFF3E711481AF012F939
:1067B400104B1B78012B11D00D4B1B78402BEBD1C8
:1067C4000C4B01221A7000224FF480410A4814F045
:1067D400A1F80028E0D012F0C4FFDDE7074A1368EF
:1067E400034908780649C85401331360E4E700BF3D
:1067F4009C3A002084390020A03A002088390020E7
:106804008C39002008B50C4A137883F00103137007
:1068140053B100224FF43031084814F07BF800B92A
:1068240008BD12F09EFFFBE7044814F091F800281D
:10683400F6D012F096FFF3E74634002048340020E7
:1068440008B5002241F23331034814F063F800B96B
:1068540008BD12F086FFFBE7503700202DE9F04118
:1068640088B004AF6421334800F0F0FD09F00CFD5A
:10687400A0B9314B1B78BBB101F0D2F92F4B1B6887
:1068840013F4804F46D02E4B1B68032B42DDE846A1
:106894008AB00DF1100C6646002326E0294A40F226
:1068A400BA2114F0F9FAE4E7274A3B1D07CA83E842
:1068B4000700184600F064FD0028DDD0214A40F2AC
:1068C400C52114F0E9FAD7E7C25C4FEA121E590059
:1068D4001E4C256815F80EE006F813E002F00F02CE
:1068E40001312468A25C725401330F2BECD90023CC
:1068F4008CF82030164BD3F80435CDF808C0154A6F
:106904000192154A009240F2C9221449042006F06B
:1069140073FBC54600214FF4F01000F000FE022284
:10692400C8214FF4F01000F005FE1037BD46BDE855
:10693400F08100BFFD6B02001037002038330020C7
:106944003433002088310400603104003C330020DB
:1069540000B000403435040044350400E231040042
:1069640000B58BB00023ADF808307823ADF80430BF
:10697400C823ADF806304FF4C873ADF80A3001A847
:10698400FFF7A2FCC0B900230693079301AB03935E
:1069940040F6CD4304934FF48033059303238DF8DD
:1069A4001830084B0893084B099303A813F042FCD2
:1069B40028B90BB05DF804FB12F0D3FEE3E712F044
:1069C400D0FEF6E7E5640200DD64020000B585B0A0
:1069D4001F4B1B6813F4804F03D01E4B1B68032B03
:1069E4001DDCFFF75FFDFFF7BBFF03A80EF0DEFD24
:1069F400174B1B6813F4804F03D0164B1B68032BF3
:106A040018DC00214FF4F01000F089FD0422C821A5
:106A14004FF4F01000F08EFD05B05DF804FB0E4B52
:106A2400D3F804350D4A0092A4220D49042006F03F
:106A3400E3FAD6E7084BD3F80435BDF80C200192ED
:106A4400084A0092AC220649042006F0D5FAD8E799
:106A5400383300203433002000B00040F834040000
:106A6400E23104001435040030B587B00446564BB7
:106A74001B6813F4804F03D0544B1B68032B13DCA7
:106A8400534813F065FFE0B9524A1378591C11704A
:106A94008DF815303223049364230393032C44D8D4
:106AA400DFE804F0122B2B2F4B4BD3F80435019065
:106AB4004A4A00924FF4C2724949042006F09CFAF3
:106AC400DEE712F04EFEDFE71123464A13708DF81D
:106AD400143003AA05A9444819F0BCFC054634B394
:106AE400112D67D8DFE805F04166666632666650A8
:106AF40032666666666666666632FFF783FE002562
:106B0400EDE714208DF81400012100F0F7FC03AA2E
:106B140005A9354819F09EFC05462D4813F018FFC9
:106B24000028DCD012F01DFED9E70025D7E70022AB
:106B34004FF48041264813F0EDFE20B900211420C3
:106B440000F0DCFCCCE712F00CFEF7E71E4B1B68F0
:106B540013F4804F03D01D4B1B68032B07DC062264
:106B640032214FF4F01000F0E5FC07B030BD1A4BB1
:106B7400D3F8043501941D4A00924FF4EB7218497E
:106B8400042006F039FAEAE70F4B1B6813F4804F30
:106B9400EBD00E4B1B68032BE7DD0F4BD3F804350A
:106BA4000194134A00924FF4F1720D49042006F047
:106BB40023FADAE7002DD8D00E4A4FF4F3712846B1
:106BC40014F06AF9D1E700BF3833002034330020D1
:106BD400643900209739002000B000406433040079
:106BE400E23104006834002070340020783304005B
:106BF40090330400883104003038032800D97047EA
:106C040008B5FFF731FF08BD00B585B0154A137804
:106C140083F001031370144A1178DBB101228A4016
:106C24004FF0A041C1F808258DF804300F4A1378BD
:106C3400591C11708DF805303223039304AA642380
:106C440042F8083D022301A9094819F0CBFB05B01D
:106C54005DF804FB01228A404FF0A041C1F80C25E5
:106C6400E2E700BF44340020683400209639002055
:106C74007034002030B587B0484813F069FE10B96D
:106C840000231D460DE012F06CFDF9E72A44303A6A
:106C940055B204E05A1C42498C5C303C64B2013366
:106CA400DBB2404A1268013A93420FD23C4AD25CAA
:106CB4002D2AEFD0591C3A48415C2D29E6D0303AB0
:106CC40002EB820251004A1955B2E8E7364B1B68C1
:106CD40013F4804F03D0354B1B68032B36DC0023A1
:106CE400304A1360324A1370022D2DDD8DF80C40AA
:106CF400304A1378591C11708DF80D3032230593E6
:106D040064230493284B1B6813F4804F03D0274B50
:106D14001B68032B28DC244B1B6813F4804F03D01F
:106D2400224B1B68032B2CDCC5EBC502D0000223CD
:106D340004AA03A9204C204419F054FB4FF0A043AB
:106D44004FF48022C3F80C2507B030BD1B4BD3F899
:106D54000435134A01921A4A009240F21A32194930
:106D6400042006F049F9BAE7144BD3F80435019529
:106D7400154A00924FF44A721249042006F03CF975
:106D8400C9E70E4BD3F804350194104A009240F23F
:106D940029320C49042006F02FF9C5E7A03A002057
:106DA4008C39002088390020383300203433002007
:106DB40084390020983900207034002000B000404D
:106DC40048350400E23104006035040070350400E5
:106DD40000B58FB0184BDB680EA941F8143D0422AE
:106DE4000AA800F059FCD0B92022002168461BF003
:106DF40043FD01238DF8003007238DF803308DF80F
:106E040008300AAB03930D4B04930D4B08930D49C3
:106E1400684609F0FDF940B90FB05DF804FB0A4A71
:106E240040F21E2114F038F8DEE7074A40F2272129
:106E340014F032F8F0E700BF60310400396F02004B
:106E4400516E0200103700208831040010B582B062
:106E54001A4B1B6813F4804F03D0194B1B68032B88
:106E640001DC00240CE0174BD3F80435164A0092D9
:106E74004FF4FB721549042006F0BEF8F1E7013423
:106E84000B2C18D8E3001B1BDA0011481044114BDB
:106E940043630023C36280F8303080F83130611CD2
:106EA400C9B219F065FA0028E9D00B4A40F2FF1183
:106EB40013F0F2FFE3E702B010BD00BF3833002047
:106EC4003433002000B0004078340400E231040080
:106ED40070340020BC3304008831040000B583B052
:106EE4000F4B1B6813F4804F03D00E4B1B68032B0E
:106EF4000ADC0322C8214FF4F01000F01BFB09F058
:106F0400D5F903B05DF804FB074BD3F80435074A01
:106F140000924FF4BA720649042006F06DF8E8E7CF
:106F2400383300203433002000B00040983404008B
:106F3400E231040008B503781C2B00D008BDFFF72C
:106F4400CDFFFBE730B58BB004AC0D4D0FCD0FC4B6
:106F540095E8030084E803000A4B00934FF4807320
:106F64000193094A029203930723084A694604A835
:106F740019F0B2FC08B90BB030BD12F0F2FBFAE71D
:106F840070310400603800209C39002089670200B9
:106F940000B585B0404A04214FF4C04006F010F813
:106FA4003E4B1B6813F4804F03D03D4B1B68032BEF
:106FB40045DC13F069FC00284DD13A4A01213A48D6
:106FC40013F092FC00284CD1384A0121384813F0C0
:106FD4008BFC002848D1374A0121374813F084FC40
:106FE400002844D1354A0121354813F07DFC00289E
:106FF40040D100F0CFFAFFF7A5FF324800F0EAFADB
:1070040000283AD119F07EFB00283CD104A90023C2
:1070140041F8043D012012F057FFB8BB03A812F059
:10702400A5FFB0BBFFF73EFAFFF79AFCFFF7D0FECF
:107034006FF0630010F0ECFB05B05DF804FB224B2D
:10704400D3F80435214A009240F2932220490420C7
:1070540005F0D2FFADE71F4A40F2952113F01CFF63
:10706400ABE712F07EFBAFE712F07BFBB3E712F065
:1070740078FBB7E712F075FBBBE7164A4FF42871AB
:1070840013F00AFFBEE712F06CFBBFE712F069FBD6
:10709400C4E712F066FBC5E799CF0200383300203D
:1070A400343300200D6C02003035040061670200A7
:1070B4002C35040045680200D8330400796C0200C2
:1070C4005C3504006D6A020000B00040F433040033
:1070D400E23104008831040038B504460D4605E069
:1070E400207819F087FC0028FAD101342378002B8A
:1070F400F6D13DB14FF47A40034B43F00103984776
:10710400013DF7D138BD00BFD033040010B582B0C3
:1071140000230093CDF8033008B304464FF4FA710A
:107124001048FFF7D9FF636822680F4968461BF0CF
:1071340055FB002300E00133062B0BD802AA1A44A6
:1071440012F8082C002AF6D1202102AA1A4402F8C7
:10715400081CF0E74FF4FA716846FFF7BDFF02B070
:1071640010BD00BFE0340400F034040008B5FFF79C
:107174000FFFEFF3108572B6224B9B68002B3ED1B4
:10718400204A01239360204BD3F880101F4801400C
:107194001160C3F88000D3F8841051604FF0FF32BF
:1071A400C3F88420002405B962B6FFF757FB154BDA
:1071B4009B686BB164B9EFF3108172B6114B186818
:1071C400114A10605868506000229A6001B962B692
:1071D40042F210710E48FFF77FFF40F6B8310D48B8
:1071E400FFF77AFFFFF76CF80B4B1B78002BF9D0F5
:1071F4000A48FFF78BFF084B00221A70F2E70124BC
:10720400D1E700BF7073002000E100E0FC06FFBD81
:10721400243404004C340400603900204837002032
:107224002C4B1B78002B54D000B585B0012804D01A
:10723400032847D005B05DF804FB04A9002341F8F6
:10724400083D012012F040FE48BB02A812F08EFE59
:1072540040BB04A9012341F8043D0DF106000EF0E2
:10726400DDFE10BBBDF806000EF072FB0DF105014A
:107274000EF0C4FCE0B90AF077FA9DF8051000207E
:107284000AF0B0FBB8B903F07FFDC0B9114B00227E
:107294001A70114B1B68002BCCD09847CAE712F028
:1072A40060FAD2E712F05DFAD3E712F05AFAD9E79E
:1072B40012F057FADFE7784600F058FBE3E712F0E4
:1072C40050FAE3E719F01EFA0028B3D012F049FA95
:1072D400B0E77047C13A0020C43A002008B5084B13
:1072E40001221A7003F0A2FD18B919F051FA18B965
:1072F40008BD12F036FAF8E712F033FAF8E700BFE7
:10730400C13A002008B50323002203494968034811
:1073140014F0D0FB08BD00BFC43A0020083D002093
:1073240008B50378072B0DD00A2B16D0022B00D0FA
:1073340008BD104B1B7813B9FFF7E4FFF8E7FFF71C
:10734400CDFFF5E710220C4B99680C4814F03CFC77
:107354000028EDD012F005FAEAE78168C06808F069
:1073640006FF18B9034B01221A70E1E712F0F9F98C
:10737400F8E700BFC03A0020C43A0020083D0020CE
:1073840010B586B00446214A03AB07CA03C323F8E9
:10739400022B120C1A701E4B94E8070083E80700B6
:1073A400002A31D01B491C4814F068FB034610B175
:1073B400184606B010BD194B009303AB154A164985
:1073C400174814F017FB03460028F1D1154815F0AF
:1073D400DDFE0146124814F039FB03460028E7D1CC
:1073E400114813F0BFFE03460028E1D10E4813F004
:1073F400EFFE01460A4814F029FB03460028D7D1C2
:10740400FFF780FF0346D3E70723D1E77C35040069
:10741400C43A0020D03A00203C3E002025730200EC
:10742400083D0020F03A0020B83C002008B5064B87
:107434001B683BB110F0D8FF002803DB024B1B682C
:107444009847F7E708BD00BF7C3E002010B50C4606
:10745400144B1860144A0121144813F045FAA0B9DA
:10746400610CE00341F26F7200238B4208BF824239
:1074740010D24FF47A7200231BF017F80146002251
:107484000B4813F047FA38B910BD0A4A462113F0E5
:1074940003FDE5E70521F2E7064A472113F0FCFC6A
:1074A400F2E700BF7C3E00203174020088350400FE
:1074B400803E00208C35040008B50D4B1B6873B169
:1074C4004FF0A042D2F804350A4909684B40C2F88B
:1074D4000435074A1368013B136023B108BD00203B
:1074E40012F03FF9ECE7044813F032FAF6E700BF74
:1074F400A03E0020A43E0020A83E002039B901236C
:1075040003FA00F04FF0A043C3F8080570470123C5
:1075140003FA00F04FF0A043C3F80C05704721B9FB
:107524004FF0A043C3F8080570474FF0A043C3F8D9
:107534000C05704712B11346132900D8704770B573
:10754400114A10605B00013B104A136000264D0C89
:10755400CC034FF47A72002314F5FA7045F100015C
:107564001AF0A3FF32460146094813F0D3F948B98B
:107574004FF0A042D2F804350349096823EA010315
:10758400C2F8043570BD00BFA43E0020A03E002018
:10759400A83E002008B511230BE04FF0A04103F5ED
:1075A400E072032041F8220001229A40C1F8082524
:1075B4000133142BF1D9054A0121054813F094F93C
:1075C40000B908BD12F0CDF8FBE700BFBD7402009E
:1075D400E0350400F0B1104A1060002309E00F4ABE
:1075E400D25C02F5E0724FF0A0410D4841F8220050
:1075F4000133032BF3D90B4B4FF00042C3F80423A0
:107604000020C3F87C01084BE02283F806234022C3
:107614001A6070470E207047C83E0020E43504000D
:107624000C0003000060004000E100E010B50024FD
:10763400144BC3F87C410EE043F23333994208D92A
:10764400114BD3F80425114B1A60114B1B682046CB
:1076540098470134E4B2032C12D84FF0A043D3F876
:1076640010250C4B195D01238B409343F1D0074B3C
:107674001B68054AD2F80425991ADDD5D11ADBE72F
:1076840010BD00BF0060004000B00040CC3E0020B0
:10769400C83E0020E4350400082A10D838B5144642
:1076A40005461BF0C0F8C4F10802002128191BF09C
:1076B400E3F8044B03CBA860E960002038BD09203F
:1076C400704700BF6000001072DF704773DF7047BF
:1076D40074DF70472DE9F047A2B00746884691460B
:1076E400314C0026C4F80660E68130490B78C3EBC0
:1076F40043102F4D054425602E4A0244A2601F22E8
:10770400A280A281013303F001030B704FF03C0A05
:107714005246314613A81BF0AFF806238DF84F30BC
:10772400ADF8487001238DF84A30ADF85C3012AAE8
:107734001892ADF83C70ADF84090CDF844800DEB54
:107744000A021D928DF878305246314668461BF085
:1077540093F802238DF80030221D294613A812F055
:10776400A9FA90B9104B03F10C029968684612F01B
:10777400A1FA68B9104A0C491048FFF7A5FF082878
:1077840009D070B922B0BDE8F08711F0EAFFE9E74B
:1077940011F0E7FFEEE7002203490848FFF794FFE2
:1077A400EFE711F0DEFFEDE7143F0020D03E0020AC
:1077B400D43E0020243F0020CC320020C9320020D7
:1077C400034B00EB800042009A819960704700BF30
:1077D400CC32002008B50121054B1878FFF776FF5D
:1077E40010B904F041FA08BD11F0BBFFF9E700BF7E
:1077F400C932002008B5044B1878FFF769FF00B9B7
:1078040008BD11F0AEFFFBE7C93200200620704727
:1078140000B587B041F20103984245D020D944F223
:107824000103984256D044F2020398426DD1454B6D
:107834001B6813F4804F1ED0434B1B68002B1ADDCA
:10784400424BD3F804351088039052680292019198
:107854003F4A00925F223F49012005F0CDFB0AE038
:10786400012852D1374B1B6813F4804F03D0364B99
:107874001B68002B0BDC4FF0A0434FF4F012C3F84D
:107884001825C3F80C25EFF3108372B653E02F4B81
:10789400D3F80435029201912F4A009254222D49C3
:1078A400012005F0A9FBE6E7264B1B6813F4804F83
:1078B400E1D0254B1B68002BDDDD244BD3F80435C8
:1078C40002920191254A009257222249012005F093
:1078D40093FBD0E71B4B1B6813F4804FCBD01A4BA0
:1078E4001B68002BC7DD194BD3F8043510680490CE
:1078F40050680390029192680192194A0092692299
:107904001449012005F078FBB5E70E4B1B6813F40E
:10791400804FB0D00C4B1B68002BACDD0B4BD3F865
:10792400043501910F4A00926D220A49012005F0A5
:1079340063FBA0E730BF0C4B1B78002BFAD107B0D8
:107944005DF804FB383300203433002000B00040DD
:10795400803604002F360400403604005C360400F0
:10796400A0360400C4360400E432002000B583B01D
:107974000023ADF80030054B01936A46014644F2FA
:107984000200FFF745FF03B05DF804FB7434040004
:107994000000000070B584B00D460022134607E0D5
:1079A40050F823100A44002140F823100133DBB2BD
:1079B400132BF5D91D4C84FB0234D217C2EBE4041B
:1079C4006FF04200001B19F039FE0022184B1AF028
:1079D40089F841EC110B9FED130B1AF0BBFC00224C
:1079E400144B51EC100B19F0C7FF19F065FE064655
:1079F400114B1B6813F4804F03D0104B1B68032BEF
:107A040002DC304604B070BD0D4BD3F8043502944B
:107A140001950C4A009213220B49042005F0ECFA5C
:107A2400EFE700BF000000000000244067666666C0
:107A340000003E4000005940383300203433002019
:107A440000B000405C3704004A37040000238B4236
:107A54000ED210B450F82340944207D00133DBB265
:107A64008B42F7D300205DF8044B70470120FAE7FE
:107A74000020704700238B4222D230B583B000EB44
:107A8400830550F823402CB10133DBB28B42F6D38B
:107A940003B030BD2A600B4B1B6813F4804FF7D042
:107AA400094B1B68032BF3DD084BD3F80435019213
:107AB400074A00922D220749042005F09DFAE7E7C2
:107AC400704700BF383300203433002000B000403A
:107AD400E03604004A3704002DE9F041D1F804E00F
:107AE4008A684D698B694C6ACF68D1F81C80C96A71
:107AF400A5EB0E0C4FEA4C0C07EE90CAF8EEE75AD1
:107B0400A3EB020C4FEA4C0C07EE90CAB8EEE75A0E
:107B140007FB07FC08FB08F7ACEB070C0EFB1ECCBD
:107B240005FB05FEF44402FB12C203FB03FC6244A2
:107B340007EE902AB8EEE77A651B6D0007EE905ABF
:107B4400B8EEE76AE31A5B0007EE903AF8EEE77ADC
:107B540001FB1171A1EB0E0E04FB04F4A644AEEB81
:107B64000C0C644406EE904AF8EEE66A67EE274A87
:107B740025EE264A74EEC44A65EEA77A25EE065A27
:107B840077EEC57A84EEA75ABCEEC55A80ED005A4A
:107B940065EEA66A27EE067A36EEC77AC7EE276A3E
:107BA400FCEEE66AC0ED016ABDE8F08103685A2B79
:107BB4000FD0642B08D0502B00D07047B4234360FF
:107BC4004FF425738360704732234360002383603E
:107BD40070474FF4B973436000238360EDE70000FE
:107BE40010B40346044C006859689A68DB680FC4F3
:107BF4005DF8044B704700BF643F0020064B074A02
:107C040092E8030083E803000833443292E8030057
:107C140083E80300704700BF643F00206000001049
:107C240000487047643F0020002308E0074901EB47
:107C3400C30000224280426001F8332001331F2B2D
:107C4400F4D9034B00221A60704700BF743F002030
:107C54007440002030B405460F4B1B6800240AE032
:107C64001F230E4A12F83300A0B102EBC30252885C
:107C7400AA4207D001341F2C0BD85A1E002BEFD078
:107C84001346EEE7054A02EBC30252688A42F1D179
:107C940000E0002030BC704774400020743F002096
:107CA40030B40A4A13680A4C04EBC305688069605F
:107CB400012104F833100B441360202B01D030BC95
:107CC4007047134600221A60F9E700BF7440002091
:107CD400743F0020C0F30C038B4202D3C91A08443A
:107CE4007047C91A0844A0F500507047C37D002BA3
:107CF40042D083780A7802F0800203F07F031343B2
:107D04000B7002780B7803F07F0343EAC2130B7005
:107D14000378002B41D030B44378082B14BF0022E1
:107D240001224B7803F07F0343EAC2134B7085882A
:107D340003F08003C5F3861423434B708A7802F062
:107D4400030242EA8502D2B28A70857902F0FC020B
:107D5400C5F3C10422438A70CB7803F01F0343EABE
:107D64004513DBB2CB70C27903F0E00302F01F02CB
:107D74001343CB7030BC704783780A7802F0BF029B
:107D84009B0103F0400313430B70C27803F0C0035C
:107D940002F03F0213430B70B3E770470023032B39
:107DA40022DC10B402E00133032B19DC0F4C6C22EB
:107DB40002FB034292F84420012AF4D16C2202FB14
:107DC4000342948AC2899442EDD1084C6C2202FB8E
:107DD400034292888A42E6D16C2202FB034000E00F
:107DE40000205DF8044B704700207047EC400020F1
:107DF400002300E00133032B13DC0B496C2202FB4C
:107E0400031292F84420022AF4D16C2202FB0312DA
:107E1400918A828A9142EDD103486C2202FB0300CD
:107E240070470020704700BFEC40002008B10820D4
:107E3400704704207047000038B505460C46CB69EE
:107E44005B78C370CB691B7883F001038370CB69C3
:107E54004362087B022814D0FFF7E8FF6870E27AD7
:107E640032B9A18AC0F10F03994201DC082831D04C
:107E7400A18A0346C0F10F00814207DC42B301220C
:107E840005E0154B987DFFF7D1FFE7E701222A7043
:107E940062B1A28A13440B33104A82FB0312DB172C
:107EA400C3EB6203013BEB710023AB710023EB7561
:107EB40005F10C0294E8030082E80300A2692A6237
:107EC4002289AA82A27AAA75226AAA62184638BDB1
:107ED4000022DCE70720FAE7D4400020ABAAAA2A54
:107EE40030B403460C460978817000214162A168D0
:107EF4000B2903D8217BF1B1012100E00121197084
:107F04000020587029B1A1680731C9080139D97115
:107F140098710121D97503F10C0504F1100103C90D
:107F240085E80300E1899982A1691962217F997525
:107F34009A6230BC70470021E1E700000021164B33
:107F44001B688B4226D90023144A02EBC1025268F3
:107F54009A421DD910B4114A52F8312002EBC304DD
:107F640012F8332082420DD001330C4A02EBC102D5
:107F740052689A42EFD80131074B1B688B4205D9EE
:107F84000023F2E760685DF8044B70470020FAE7CD
:107F94000131D4E700207047784000207C40002065
:107FA40070B58CB006460D4614462C22002101A85B
:107FB4001AF062FC0E238DF80430ADF808604FF01F
:107FC400000365F300038DF80A308DF80B4001A817
:107FD40001F0F8F80CB070BD30B58DB005460C4614
:107FE4002C22002101A81AF047FC0F238DF804303D
:107FF40002958DF80C4001A801F0E4F80DB030BDF5
:1080040000B58DB048B913F1020F06D001228DF8E6
:108014000420029301A801F0D5F8034B186803F07B
:1080240019FF0DB05DF804FB884000202DE9F041F4
:10803400054688460378BBB10D4B1C68621C1A6068
:1080440004F00704AB8A0B4F07EBC4067380A988BE
:10805400A869FFF73FFE7060EB6903F001037370DA
:1080640007F83480BDE8F0817846FFF77FFCE3E74A
:10807400D04000209040002070B5064603784BB1F4
:10808400B58A347F04F00104B188B069FFF722FE99
:10809400002304E07846FFF769FCF1E70133072B7E
:1080A40015D80C4A02EBC30252688242F6D1094A3F
:1080B40002EBC3025288AA42F0D1064A02EBC30281
:1080C4005278A242EAD1034800EBC30000E000204A
:1080D40070BD00BF90400020F0B40D684C688F68FC
:1080E400CE68D5601461576196610D694C69D5619C
:1080F40014620378DB091370D17DF9B1037803F0BE
:108104007F0393700023537013789BB143789B01D2
:1081140003F4FE53817843EA910393808378DB0070
:1081240003F01803C17843EA51139371C37803F041
:108134001F03D37100235362F0BC70470178C1F36D
:1081440080119170017801F03F01D17043B190F931
:108154000130002B02DB04235370D5E70823FBE72F
:1081640004235370D0E770B50C461E4603788BB1D8
:1081740004252A44A26000F10C032360836A63602F
:10818400204604F0C9F9024610B923691D4435603C
:10819400104670BD0125ECE72DE9F0418EB00D4687
:1081A40016461C46804600282DD0002D2FD0002CCA
:1081B40031D0636A0233059304F10C00A378002BD9
:1081C4002DD00121627801AF3B46082A14BF00225A
:1081D400012203F084FF0697CDF81C80B2B2ADF8FB
:1081E40020200B9515440C9563788DF83430237B4F
:1081F400022B16D00023ADF8283005A803F067FF42
:108204000EB0BDE8F0817846FFF7B0FBCDE77846C5
:10821400FFF7ACFBCBE77846FFF7A8FBC9E70221E1
:10822400D0E723692BB1236909931023ADF82830D3
:10823400E3E77846FFF79AFBF5E72DE9F04186B0CE
:1082440004460D46C37D002B3ED0082605FB06F8E8
:10825400E379AB423AD0A5716B46324601A9204678
:10826400FFF781FF074648BB4DB994F84F3033B947
:10827400A369C3F30C03A380012384F84F30E37D87
:108284007BB994F84E3063B92DBBB4F846106278CC
:1082940023468A1AA16E0846FFF77EFF012384F85D
:1082A4004E3005992046FFF721FDA16E3246414428
:1082B40000981AF0B8FA01A804F048F9B7FA87F060
:1082C400400906B0BDE8F0810C26BFE7B4F846606B
:1082D400A6EB0806BFE77846FFF748FBD5E770B57D
:1082E400054690F84C40002605E00136631C85F8ED
:1082F4004C300134E4B2EB79A3420AD3AA6C0123D3
:10830400A3401A42F5D121462846FFF796FF0028DC
:10831400EBD1304670BDF0B587B045781544C37DC8
:10832400DBB10B239D4221D816460F4604466B460B
:108334002A4601A9FFF717FF0546C0B9059920464B
:10834400FFF7D4FCE37D53B13246394600981AF066
:108354006AFA01A804F0FAF809E00F23E2E72346D9
:10836400324600993846FFF717FFF2E709252846F9
:1083740007B0F0BD10B5044690F84430012B0ED17F
:10838400237B012B0FD00C4BDB68A36303F0B2F803
:10839400A16B014404F12C0003F03CF810BD7846B5
:1083A400FFF7E4FAECE7A37D034AD168126902FB04
:1083B4000313A363EAE700BFD440002038B50024C8
:1083C40000E00134032C13D80A4A6C2303FB042372
:1083D40093F84430012BF4D16C2505FB0425284681
:1083E400FFF77DFF0028ECD02846FFF7C3FFE8E73E
:1083F40038BD00BFEC40002038B5044690F8443046
:10840400022B02D07846FFF7B1FA054B1D6803F042
:1084140071F8411904F12C0002F0FCFF38BD00BFD3
:10842400D440002038B5044690F84430022B02D0E2
:108434007846FFF79BFA084B5D7D5A689B6803FBFF
:10844400052503F057F8411904F14C0002F0E2FF4E
:10845400012384F8643038BDD440002010B50446AC
:108464000D4B1B68806E984704F12C0002F0BAFF94
:1084740094F84430022B0AD06C22002120461AF0D2
:10848400FBF9002084F8440002F078F810BD04F1F0
:108494004C0002F0A7FFEFE78C40002010B5044623
:1084A4000121FFF7C3FD2046FFF7D8FF10BD10B52B
:1084B4008CB0044690F84430012B02D07846FFF784
:1084C40055FA01238DF80430236D029301A800F0BE
:1084D40079FE2046FFF7C2FF0CB010BD2DE9F04134
:1084E40004460E4615461F46531EDBB2012B46D8E2
:1084F400A36E13B17846FFF739FA2E4B1B68384642
:108504009847A066002852D03346224606F120013F
:10851400D3F80080D3F804E0D3F808C0D868C2F8D0
:108524000080C2F804E0C2F808C0D06010331032F2
:108534008B42EDD1186859689B6810605160936054
:108544000023A364A4F84670B188B069FFF7C2FBA6
:10855400A061012D17D06FF00103A362002384F8FA
:108564006430154B6365E465144B6363E463012075
:1085740002F004F884F844500120BDE8F081784604
:10858400FFF7F4F9B4E70E4B1B7D84F84D3000235C
:1085940084F84E3084F84F3084F84C30B36A236545
:1085A4006FF00103A362074B6363E463DFE700201A
:1085B400E3E700BF844000200B910200F186020033
:1085C400D4400020FD86020030B583B0C379013366
:1085D400C27D92B1082505FB03F582B14FF4807387
:1085E400AB422AD21E4B1B6813F0040F36D01D4B2E
:1085F4001B68002B06DC00242DE00C25EBE74FF470
:10860400C073EDE7184BD3F804350195174A00926F
:1086140040F263221649012004F0EEFC00241AE023
:10862400144C6C2303FB02442B46022201462046D1
:10863400FFF754FF78B900240DE00022032A09DC77
:108644000C4B6C2404FB023494F84430002BE7D028
:108654000132F3E70024204603B030BD0024FAE7DA
:10866400383300203433002000B00040E8370400E1
:10867400D9370400EC40002030B585B00D460446DF
:10868400A8B100212046FFF7D1FC2946206DFFF751
:10869400A3FC2046FFF7E2FE0F4B1B6813F0040F08
:1086A40003D00E4B1B68032B05DC05B030BD7846A8
:1086B400FFF75CF9E5E70A4BD3F8043594F8442056
:1086C40002950192074A00924FF4D672064904209B
:1086D40004F092FCE9E700BF383300203433002073
:1086E40000B0004074370400D937040008B50846C8
:1086F4000021FFF7C1FF08BD10B50C4691F84430C6
:10870400012B09D194F84D307BB9237B012B07D081
:108714002046FFF7CCFE10BD7846FFF727F9F1E7B6
:1087240001212046FFF7A8FFF5E7013B84F84D300F
:10873400002384F84C302046FFF7D1FDEBE700001E
:10874400062900D0704770B582B0034601788901CC
:1087540001F4FE5140789D78DC78240444EA0564F1
:108764001D7944EA05245B791C4341EA90011046D3
:10877400FFF714FB0546B8B1866C2643866444B300
:10878400037853B3EB795A1C01239340013B9E4277
:1087940027D0002385F84C302846FFF7A0FD284653
:1087A400FFF7E8FD02B070BD104B1B6813F0040F17
:1087B400F8D00F4B1B68012BF4DD0E4BD3F80435B6
:1087C4000D4A009240F2B9420C49022004F014FC14
:1087D400E8E70321FFF750FFE4E77846FFF7C6F820
:1087E400D0E72846FFF763FEDCE700BF38330020FC
:1087F4003433002000B00040FC370400D9370400B3
:108804002DE9F04389B080460F4614461E469578FC
:108814000DB32846FFF792FB8146C8B18DF800508E
:10882400236A0693A38AADF80E3004AB04F10C025C
:1088340092E8030083E80300A37D8DF81C30CDF893
:108844000480029723788DF80C3031466846C84777
:1088540009B0BDE8F083FFF773FFF9E700B585B011
:1088640000238DF80F3098B10346084602330B609D
:108874000DF10F0103F02FFC9DF80F3043B10D4BA8
:108884001B6813F0040F03D00B4B1B68032B04DC91
:108894009DF80F0005B05DF804FB084BD3F80435D0
:1088A400074A009240F2EB220649042004F0A4FB9C
:1088B400EEE700BF383300203433002000B000401E
:1088C4003C380400D93704002DE9F0438FB0044646
:1088D4000E4615461F46D0F81890037823B18188B8
:1088E4004846FFF7F7F9A06104F10C00A378002BC8
:1088F4003AD0012162780DF128084346082A14BFB2
:108904000022012203F0EBFBC4F81890CDF8088094
:1089140003966378EA1A92B2ADF8102032440892B2
:1089240007978DF824300023ADF81830237B022BF1
:108934001CD0A3786BB3237B022B1BD025460023CA
:1089440045F8243F2A46E178206A0DF097FE606AD4
:1089540098B101A9FFF782FF00283AD12A46E178AD
:10896400206A0DF08BFEF2E70221C3E71023ADF875
:108974001830DEE723690593E0E7237B022B2CD133
:1089840004F10C01E0890DF027FF0028D3D1052064
:1089940020E000236362237B012B0DD021460023BA
:1089A40041F8243FA08A0DF086FE01A9606AFFF712
:1089B40055FFA0B100200DE004F12401E0890DF081
:1089C4007AFE01A9606AFFF749FF0028E6D000207B
:1089D40000E000200FB0BDE8F0830520FAE7052091
:1089E400F8E7000070B5F0B00D4614461E4610AB13
:1089F4000A4601462046FFF767FFA0B11F4B1B68DC
:108A040013F0040F37D01E4B1B68052B33DD1D4BB1
:108A1400D3F804351C4A00924FF4A5621B49062082
:108A240004F0EAFA27E003AB01228DF80C20A28AB5
:108A3400ADF80E20002204928DF8142010AA06929C
:108A44006278AD1AADF81C5008AA93E8030082E8D6
:108A540003000AAB04F10C0292E8030083E803006C
:108A6400A37D8DF83830236A0C93636A0D930F96B7
:108A740005A800F0A7FB70B070BD00BF383300201C
:108A84003433002000B0004060380400D9370400BB
:108A940010B5D47D14B9FFF7A5FF10BDFFF7B0FEE4
:108AA400FBE700002DE9F04385B004AF437813449D
:108AB400C47D94B14FF480749C4273D3EFF3108C53
:108AC40072B60024032C10DC3B4E6C2505FB0465B8
:108AD40095F8445025B10134F4E74FF4C074EBE742
:108AE40035466C2606FB045400E00024BCF1000F5C
:108AF40000D162B6002C5AD015460E46014601221A
:108B04002046FFF7EBFC002853D02A463146A06EDE
:108B140019F089FE294B1B6813F0040F3AD0284B37
:108B24001B68032B36DD6D46B4F846E04FEA4E036E
:108B34000833DB08A5EBC3039D460DF11008C446BA
:108B4400002312E0A26ED25C4FEA121959001D48AC
:108B5400066816F809600CF8136002F00F02013180
:108B64000068825C0CF8012001337345EAD30023CA
:108B740008F81E30144BD3F80435CDF80880134A96
:108B84000192134A009240F2F7321249042004F091
:108B940033FAAD462046FFF7A2FB2046FFF7EAFB77
:108BA400002000E009200437BD46BDE8F08304201E
:108BB400F9E70420F7E700BFEC4000203833002039
:108BC400343300203C33002000B000402C38040033
:108BD40044350400D937040070B504460D461646E2
:108BE400808A01F091FF01281AD1237BD3B1022B93
:108BF4000BD094F91630002B16DB237853B9324688
:108C040029462046FFF787FB0BE02369002BF0D1B0
:108C1400102006E0324629462046FFF743FF00E0D5
:108C2400102070BD1020FCE70720FAE708B50549BD
:108C3400054800F04FF800B908BD7846FEF796FEE7
:108C4400FAE700BFAD260400FD25040010B5FFF7C8
:108C5400EDFF4FF4D8720021134819F00DFE05F012
:108C640061FB0024114B1C6040222146104819F07E
:108C740003FE104B104A1A60104A5A604CF25032EC
:108C84009A600F49D9601A6104221A759C750822EA
:108C94005A750C4803F0BEF80B4B18600B4B1C6064
:108CA4000B4805F045FC10BDEC400020D0400020EE
:108CB40090400020D440002080969800F0490200A3
:108CC40020A10700C18E02008840002078400020C7
:108CD4000580020008B50346B0FA80F040090A4650
:108CE400B1FA81F14909884210D14BB1EFF31080F8
:108CF40072B608490B60084B1A6048B962B606E0C0
:108D0400002AF3D1FFF792FF002000E00E2008BDF7
:108D14000020FCE7844000208C400020C0B110B546
:108D24008CB004460369B3B1C369B3B18369B3B109
:108D3400014601A8FFF780F8034610B118460CB0AD
:108D440010BDA28A216901A8FFF746FF0346F5E793
:108D54000E23184670470E23F0E70E23EEE70E238A
:108D6400ECE7D0B110B58CB004464068B8B1A26944
:108D7400BAB1207C022816D0B8B194F90020002A98
:108D840015DB0A46214601A8FFF7AAF8A268616824
:108D940001A8FFF721FF0CB010BD0E2070470E2074
:108DA400F9E70E20F7E71020F5E71020F3E7072096
:108DB400F1E70000037B012B01D00020704710B5C0
:108DC4008AB000228388C3F386148DF800409B0088
:108DD4008DF801300B0E8DF802300B0C8DF803303A
:108DE4000B0A8DF804308DF8051006230493012333
:108DF4008DF81830838AADF81A3007928DF8082060
:108E0400CDF80CD0036A08938DF81420C389ADF80B
:108E14001630837D43B98DF824206FF0010102A838
:108E2400FFF79FFF0AB010BD024B5B7D8DF8243025
:108E3400F3E700BFD440002038B500240BE01E4AFD
:108E44006C2303FB0423DB795A1C01239340013B6D
:108E54009D4228D00134032C2CD8174A6C2303FBE1
:108E6400042393F84430022BF4D16C2303FB042332
:108E740093F86430022BEDD16C2000FB0420816C4C
:108E8400FFF798FF0028E5D10B4A6C2303FB04F39A
:108E9400D11881F864008D6CD35C002BCFD1784657
:108EA400FEF764FDCBE7044B6C2000FB0430FFF7B6
:108EB400F5FACFE738BD00BFEC40002008B5FFF756
:108EC4007DFAFFF7B9FF012008BD00002DE9F0414C
:108ED40082B007460E46144698461046FEF788FFB1
:108EE400054620B1A28883889A4210D312D820461E
:108EF400FFF7C2F8B8B103784BB123787BB1E179BD
:108F04004B1C0121994001392046FFF753FF02B061
:108F1400BDE8F0810521FFF7AFFB0025E7E77846C0
:108F2400FEF724FDEBE7002D4FD0464B1B6813F0F2
:108F3400040F03D0444B1B68032B55DC2846FFF772
:108F44005BFA2B7B012B5DD0AA6CA17901238B40AA
:108F54001A42DCD11343AB64A279EB799A4259D01B
:108F6400E37D002B61D00823B34260D1AB6EA079BE
:108F7400E27D002A60D008243246394604FB0030E2
:108F840019F051FCAC6C2B78002B57D0EB795A1CA0
:108F940001239340013B9C42B9D1022385F86430FC
:108FA400A96C2846FFF706FF044643462A46B5F84F
:108FB4004610A86EFFF76CFD002CA8D1002385F89D
:108FC40064302846FFF76AFAA1E72046FFF7FCFA67
:108FD40005460028A9D100212046FFF7EBFE022117
:108FE4000020FEF7F9FF92E7184BD3F80435A27975
:108FF4000192174A009240F2A7221649042003F076
:10900400FBFF9BE795F86430002B9DD12846FFF7C2
:1090140009FA99E79BB2E27D2AB1082203FB0263B5
:10902400A5F84630A2E70C22F8E70C239CE70421BC
:109034002846FFF721FB6AE70C249DE77846FEF7F4
:1090440095FCA3E7383300203433002000B00040FF
:1090540050380400D93704002DE9F0418EB00028BF
:109064004DD00546002A4CD0984614460F4600229F
:109074000C920D920CA960880DF0AEFB20B900266D
:1090840030460EB0BDE8F081226902F00102E168C9
:10909400208905F013F908B10026F1E7226902F0EE
:1090A4000102E168208905F0D5F80646C0B901AA95
:1090B40021462846FFF710F804AB0EAA12E9030074
:1090C40083E8030002F064FE9DF8043083B1434654
:1090D40001AA391F281DFFF7F9FE02F079FECFE738
:1090E4002169002201F001012089FEF759FFC7E739
:1090F400434601AA791E681CFFF7CAFCEDE70E2659
:10910400BEE70E26BCE710B50C4691F84430022B9E
:109114000BD1022384F86430A16C2046FFF74AFE89
:1091240010B9002384F8643010BD7846FEF71EFCA5
:10913400EFE70000F8B500B30546164B1F68F7B912
:109144000E463C46B4420ED205EBC4035B68CBB179
:1091540015F8340010F0800F16D1B8B1FEF7EEFE0A
:10916400B0B90134EEE70C4B43F8375003EBC703B7
:109174005E607B1C074A136002E00E2700E00427B0
:109184003846F8BD0E27FBE70B27F9E70F27F7E76B
:109194000F27F5E7784000207C400020084B196831
:1091A40061B110B501E021463CB10C680B79002B8C
:1091B400F9D0034803F089FEF5E710BD704700BFFE
:1091C400A042002038B5054630B1104B1C68ACB144
:1091D4000F4B01221A7004E07846FEF7C7FBF4E750
:1091E40024683CB12379002BFAD154F8043C284676
:1091F4009847F5E7064B1B78022B00D038BDFFF7E4
:10920400CDFF034B00221A70F8E700BFA0420020F4
:109214009C42002010B5044630B100232372211D66
:10922400034803F027FE10BD7846FEF79FFBF4E7E2
:10923400A042002010B5044650B10A4B1B78013BF4
:10924400DBB2012B08D9211D074803F03EFE10BDF7
:109254007846FEF78BFBF0E7024B02221A700123DB
:109264002372F4E79C420020A04200200A8883680D
:109274009B5A07339BB223F0030313449BB2028827
:10928400043A934200D900230B80704710B582B092
:1092940004468368CB1A02A921F8023DFFF7E6FFD2
:1092A400BDF80630A068184402B010BD0088043828
:1092B40080B2704743888268D018D15201238370EA
:1092C400704782680023937043808380704707311E
:1092D40089B221F0030189B2428883889A4204D278
:1092E4009B1A99421CDC0020704710B59A420FD992
:1092F4000488A41AA14215D98B4215D3032C03D98F
:109304008368134404229A7000234380184606E0BD
:10931400826813449B784BB9FFF7D3FF002010BD3C
:10932400042070470020FAE70420F8E70420F6E759
:1093340038B504460D468368828813448B4202D0B4
:109344007846FEF713FB0023AB70211D2046FFF780
:109354008DFFA288A36813449B78042B00D038BDEA
:109364000023A380FBE710B50C46836842881344AE
:109374008B4202D07846FEF7F9FA0023A37010BDA1
:1093840070B5064615460C46002944D0002E46D03A
:10939400B4F1005F08D94FF08053D3F80C3103F5D2
:1093A4000023B4EB832F0ED3B4F5000F08D94FF08C
:1093B4008053D3F80C3103F50053B4EB832F02D35D
:1093C4007846FEF7D3FA6B1E2344B3F1005F08D945
:1093D4004FF08052D2F80C2102F50022B3EB822F19
:1093E4000ED3B3F5000F08D94FF08052D2F80C21F8
:1093F40002F50052B3EB822F02D37846FEF7B6FA99
:10940400042D10D9358000237380B380B460043DEB
:109414002580A37070BD7846FEF7A8FAB6E77846B3
:10942400FEF7A4FAB4E77846FEF7A0FAEAE738B5FF
:109434000446A0B16288A36813449B78012B12D020
:10944400A388A1681944EFF3108572B68B78032BB7
:109454000DD02046FFF735FF05B962B638BD784612
:10946400FEF784FAE6E77846FEF780FAE8E7204656
:10947400FFF70CFFA368C31A638000238370EBE734
:10948400F8B50E4615460446C0B1DEB16288A3683D
:1094940013449B78012B19D0E5B12046FFF706FF52
:1094A400A84219D329462046FFF711FF0746A0B961
:1094B40029462046FFF7FEFE30600EE07846FEF7B0
:1094C40055FAE2E77846FEF751FADFE77846FEF709
:1094D4004DFAE1E7092700E009273846F8BD70B5E1
:1094E4000C4616460546B8B1D4B1A378012B1BD15E
:1094F4002388B3421CD3FEB126800223A370E9184B
:109504002846FFF7B3FE6A88AB889A4203D0AB685B
:10951400134400229A7070BD7846FEF727FAE3E7F9
:109524007846FEF723FAE0E77846FEF71FFADFE70E
:109534007846FEF71BFADEE77846FEF717FADBE714
:1095440038B50D46044668B185B1A288A3681344B2
:109554009A78042A0ED09A78022A13D0032A16D0B5
:10956400052013E07846FEF701FAEDE77846FEF7AA
:10957400FDF9EAE7211D2046FFF778FEA288A368DB
:109584001344E8E703229A702B60002038BD784624
:10959400FEF7ECF90020F9E710B5044658B1A088AD
:1095A400A16801448B78042B09D08878022814BF61
:1095B4000020012010BD7846FEF7D8F9EFE72046D9
:1095C400FFF764FE0146F0E710B5044618B1A08821
:1095D400A168014407E07846FEF7C8F9F7E720469A
:1095E400FFF754FE01468878C31EDBB2012BF6D97F
:1095F400022814BF0020012010BD38B50C460546D2
:1096040050B16CB1A378012B0ED0032B11D121469C
:109614002846FFF78DFE38BD7846FEF7A7F9F0E738
:109624007846FEF7A3F9EDE721462846FFF79BFEAF
:10963400F1E77846FEF79AF9EDE7000008B5064B26
:10964400986800221A605A609A60DA601A615A6156
:109654009A6104F055FC08BDA442002000B585B011
:109664000A4BDB6802228DF8002001934FF48053EB
:109674000293074A6946012001F0AAF918B10020B3
:1096840005B05DF804FB0120FAE700BFA442002006
:10969400C042002000B585B00A4B1B6802228DF839
:1096A400002001934FF480530293074A6946012036
:1096B40001F08EF918B1002005B05DF804FB01201B
:1096C400FAE700BFC4420020C0420020164BDA680B
:1096D400137951795B1A03F57F2303F6FF7302EBC9
:1096E40003339A4205D002F580520F4BDA6003200F
:1096F400704700B585B00D4B1B6801208DF8000044
:1097040001930B4B0393042302930A4A694601F025
:109714005FF918B1002005B05DF804FB024B01228B
:109724001A760220F7E700BFA4420020C4420020BA
:10973400C8420020C042002000B585B00C4BDA6856
:109744000C4B1B68043301208DF800000192039335
:1097540040F6FC730293084A694601F039F928B9C6
:109764000120034B187605B05DF804FB0020FAE7EE
:10977400A4420020C4420020C042002000B585B0AD
:109784000A4B1B6801208DF800000193084B0393DA
:1097940004230293074A694601F01AF918B100201C
:1097A40005B05DF804FB0120FAE700BFC4420020C5
:1097B400B0420020C042002010B584B0114BDA68DA
:1097C4001478114B1B68043301208DF800000193B9
:1097D400039202940D4A694601F0FAF880B90A4BE3
:1097E4001B6804F0FC041C440434064B5C61D96817
:1097F4000A780A441A6100225A76012004B010BD86
:109804000020FBE7A4420020C4420020C042002004
:1098140008B50023092B09D8064A52F823208242AE
:1098240001D00133F6E7044A536002E07846FEF7BC
:109834009DF808BD8C380400A442002010B5214BCB
:10984400DB6853B11F4B1B7E5BB91E4B5B68092B56
:1098540015D97846FEF78AF811E07846FEF786F8BF
:10986400F0E77846FEF782F8EFE7164B00225A60DD
:10987400012C01D0032C23D1124B1B7E03BB114BB3
:109884005A68114B53F822309847044602280DD0E9
:109894000328EAD00128EBD10A4A53680133536004
:1098A400092BE5D97846FEF761F8E1E7054B1B7E05
:1098B4001BB1044B02221A70DAE7FFF7BFFED7E7A9
:1098C40010BD00BFA44200208C380400104B1B685C
:1098D4001B685A1E12F1030F18D8C3F30B020AB106
:1098E4000020704710B50B4AD360002313765376DB
:1098F4000124147093600848FFF78AFF0749204643
:1099040001F054F8FFF79AFF204610BD002070477D
:10991400C4420020A442002061960200259902005E
:1099240008B50B78032B06D00B4B1B78012B06D004
:10993400022B0BD008BD084B00221A76F4E7064B25
:109944001B7E002BF6D1FFF779FFF3E70B78032B8F
:10995400F0D1FFF773FEEDE7A442002000B585B017
:10996400174BDB6818784FF6FF7203F580511844E3
:1099740004F094FDF0B10246114BD9680B780B4406
:10998400984219D00E4B5B7E93B10E4B01208DF89B
:10999400000001920393042302930B4A694601F0E9
:1099A40017F858B90120064B187605B05DF804FB8A
:1099B400064BEBE70120F8E70120F6E70020F4E787
:1099C400A4420020E03A0400C0420020DC3A040033
:1099D40008B5104BDB681878002203F58051184451
:1099E40004F05CFD08B1012008BD0A4BDA68137964
:1099F40051795B1A03F57F2303F6FF7302EB0333FC
:109A04009A4205D002F58052024BDA600320EBE75C
:109A14000220E9E7A4420020F0B585B0524BDE688D
:109A240072793379591E8A4200F0968006F5805186
:109A34000D780D444D490968081D0F7907449B1A98
:109A440003F57F2303F6FF731B0303F580531E44C2
:109A54006B88013B9BB247F6FE6293425CD92C466D
:109A640016E07846FDF782FF15E024F47F6424F0C5
:109A74000F0404F5805423781C44A64247D9A54218
:109A840047D26388013B9BB247F6FE62934211D9E9
:109A94002388002BE5D0238804EB830323F47F621F
:109AA40022F00F029342E0D06288B2F5FE4FDCD080
:109AB4001C46E2E725462FE07846FDF757FF15E000
:109AC40024F47F6424F00F0404F5805423781C44A8
:109AD400A64220D9A5423BD26388013B9BB247F6FC
:109AE400FE62934211D92388002BE5D0238804EB2E
:109AF400830323F47F6222F00F029342E0D0628852
:109B0400B2F5FE4FDCD01C46E2E7254604E0002512
:109B140002E0002500E00025E5B1144B19686A88CD
:109B240001F58051384604F0B9FC0746B8B101206C
:109B34000D4B18768DF8000001950D4B039304230B
:109B440002930C4A694600F043FF50B92C46CAE719
:109B54000025E1E7012000E0012005B0F0BD01206F
:109B6400FBE70020F9E700BFA4420020C442002024
:109B7400D83A0400C04200202DE9F04186B06A4B77
:109B84001B692BB1684B5B6933B14FF0000848E0A7
:109B94007846FDF7EBFEF5E77846FDF7E7FEF4E7D8
:109BA4007846FDF7E3FE15E025F47F6525F00F0503
:109BB40005F580552B781D44AE421CD9AC421ED20B
:109BC4006B88013B9BB247F6FE62934211D92B8806
:109BD400002BE5D02B8805EB830323F47F6222F06E
:109BE4000F029342E0D06A88B2F5FE4FDCD01D46E6
:109BF400E2E72C4600E000241CB1009445E0002478
:109C0400FAE700230093019B002B68D14FF0010871
:109C140024B1628847F6FF739A4202D1424B012273
:109C24005A76414B5B7E002B7AD1B8F1000F75D187
:109C34003D4B5A6922F47F6727F00F07BF1A07F5D7
:109C440080571C69DE68337972799B1A03F57F2388
:109C540003F6FF731B0303F580531E440023019393
:109C64006388013B9BB247F6FE629342C5D9254601
:109C7400ADE77846FDF77AFE22E024F47F6424F011
:109C84000F0404F5805423781C44A642BBD92388CE
:109C9400019A02EB83029742B5D9009B634023F4F7
:109CA4007F6323F00F03002BADD16388013B9BB28C
:109CB40047F6FE618B42A6D801922388002BD8D0A8
:109CC400238804EB830323F47F6222F00F02934280
:109CD400D3D06288B2F5FE4FCFD01C46D5E7124AE6
:109CE400526901208DF808000392009A05920493AA
:109CF4000E4A02A900F06CFE70B90B49019B23F0D7
:109D040003024B6913444B6114B1074B1C617FE799
:109D14007846FDF72BFEF8E7002002E0012000E082
:109D2400012006B0BDE8F081A4420020C04200201A
:109D340008B54FF010235B69B3F1FF3F03D04FF038
:109D440010235B6963B94FF080525169136903FBB7
:109D540001F3A3F58053054A1360FFF7B7FD08BD6F
:109D64004FF010235B69A3F58053F2E7C44200204F
:109D7400024B1878003018BF01207047A44200201D
:109D840010B504460E4B1B78ABB92378032B02D0D5
:109D94007846FDF7EBFD0A4B9C60E268DA6000222E
:109DA4005A601A76012018705A76064900F0FEFDB2
:109DB400FFF744FD10BD7846FDF7D8FDE5E700BF89
:109DC400A442002025990200014B1868704700BF87
:109DD400C442002010B5044680B163681BB12368F7
:109DE4000BB1A36813B97846FDF7C0FDA3685A1EEA
:109DF400134207D10023E360236110BD7846FDF7C9
:109E0400B5FDEAE77846FDF7B1FDF3E7F8B5F8B13B
:109E14000446F9B18268FAB1EFF3108572B60269AB
:109E240080680244E668B24203D1C5B962B604252B
:109E340013E027686368013830401A4600FB03705A
:109E440018F0F1FCE3680133E36055B962B604E04D
:109E54000E2502E00E2500E009252846F8BD04255C
:109E6400FBE70025F9E770B5F0B104468268EAB172
:109E7400EFF3108572B60669C268964210D00846A0
:109E840021686268A368013B1E4006FB021108B109
:109E940018F0C9FC23690133236165B962B606E091
:109EA4003DB962B6052502E00E2500E009252846E5
:109EB40070BD0525FBE70025F9E70000C0F30B039F
:109EC40033BB39B301F6FF71090B134B0222C3F8FC
:109ED4000425114BD3F80034002BFAD000220AE0F9
:109EE4000D4BC3F808050C4BD3F80034002BFAD003
:109EF40000F5805001328A42F2D3074B0022C3F8A6
:109F04000425054BD3F80034002BFAD00020704709
:109F1400102070470920704700E0014010F0030F43
:109F24002FD111F0030F2FD182B312F0030F2FD1D1
:109F340010B49208174B0124C3F80445154BD3F809
:109F44000034002BFAD002E0043004312246541EBF
:109F540052B10B68B3F1FF3FF6D003600D4BD3F859
:109F64000034002BFAD0EFE70A4B0021C3F80415A4
:109F7400084BD3F80034002BFAD010465DF8044B9C
:109F840070471022104670471022FBE70922F9E7B8
:109F94000922F7E700E0014001800023438042608A
:109FA4007047000038B5124C4FF480552A46002102
:109FB400204618F061FC0F4B1C600AE000222821A7
:109FC4002046FFF7E9FF2388083323446360303DCC
:109FD4001C46502DF2D8083D05D00022A9B22046D7
:109FE400FFF7DAFF38BD7846FDF7C0FCF5E700BFA0
:109FF400CC420020CC52002008B508220221084897
:10A0040003F0FFFD38B1074A91684160127B027288
:10A0140003F030FE08BD044803F04AFFFAE700BF2E
:10A02400D852002024530020F83200200E4B1B7815
:10A03400CBB910B50D4B5C6804F50054B4F1807FC6
:10A0440000D910BD04220121094803F0DAFD30B122
:10A054004460054A0121117003F00CFEF1E7054844
:10A0640003F026FFEDE77047385300202453002007
:10A07400D8520020E832002010B5044608B1A047A9
:10A0840010BD7846FDF772FCF9E7000008B5012120
:10A094000C4803F017FE20B902210A4803F012FE0F
:10A0A40028B1094803F004FFFFF7C0FF08BD074AC1
:10A0B4000023136053609360D3601361044A1370E8
:10A0C400F2E700BFD85200201833002024530020A8
:10A0D400FC52002000B58DB004918DF80820039047
:10A0E4000CA8022300F82C3DFFF76CF80DB05DF8C6
:10A0F40004FB000010B58CB00C4682B94B88012BD0
:10A1040020D1134B1B7833B16268124B5A60104B49
:10A1140000221A7016E07846FDF728FCF4E7032ABB
:10A1240012D12C22002101A818F0A6FB10238DF8CF
:10A1340004300394084BDA6805921B69069301A85E
:10A14400FFF740F80CB010BD7846FDF70FFCE8E7C8
:10A154003853002024530020D852002038B503F08F
:10A16400BFFE28B901F0DEFE0028F8D020BFF6E7D4
:10A1740001F00EFE002211461A4803F09CFC002553
:10A184002C4605E0051D02460021164803F093FC09
:10A1940030B14388012BF5D0022BF4D1041DF2E732
:10A1A400A4B19DB12268104B9A6022791A73AC4213
:10A1B40001D9237993B12A680B4B1A600A4B1A68A8
:10A1C4005A60FFF733FF01F003FE38BD064B00224F
:10A1D4001A609A601A73FFF70FFFEFE7024B002231
:10A1E4001A60EBE7D85200202453002008B503F08E
:10A1F400B9FEA0F5805008BD00B587B000230093D8
:10A2040001930293039304930593FFF7EFFF0090E8
:10A2140001230193064B03936946064803F002FEAB
:10A2240010B907B05DF804FB034803F041FEF8E7FA
:10A23400F9A00200D85200200833002010B50B4BBF
:10A2440000241C605C609C60DC601C6101F052F9BD
:10A25400074B5860074A9A60074ADA601C615C61E0
:10A26400064B1C70FFF7C8FF10BD00BF245300202D
:10A2740000530020B9A30200008793033953002040
:10A2840008B5084B1B7803B108BD0748074B0360AA
:10A2940000F010FE064801F07FF8024B01221A700C
:10A2A400F2E700BFD452002018530020E5A40200B6
:10A2B4000053002038B501F06BFD174B1B7B13BB1B
:10A2C400154B9B7B23BB144B1A8A41F282639A423F
:10A2D40004D8124B1B78A3B1012300E00123CBB1B6
:10A2E4000D4D01232B7300242C82AB680133AB602A
:10A2F400FFF782FEA9682A7B01392046FFF7EAFEB0
:10A3040002E00023EBE7082401F062FD204638BD9B
:10A314000824F9E70824F7E72453002039530020E0
:10A3240010B501F035FD214B5B7B9BB11F4B9B7B33
:10A33400F3B91E4B1A8A41F282639A4204D81C4B29
:10A344001B782BB1012300E001239BB1012302E020
:10A354000023FAE700231C461BB3144B00225A7354
:10A364001B7B4BB1012B0ED07846FDF7FFFA18E0AA
:10A374000023F0E70023EEE7FFF79CFF88B178465F
:10A38400FDF7F4FA0DE0094B0020186058601873CB
:10A39400188202469968FFF79DFEFFF72DFEFFF72E
:10A3A40045FE01F015FD204610BD00BF24530020DA
:10A3B4003953002008B5214B1B7B7BB1012B20D0E6
:10A3C4007846FDF7D3FA1D4A138A013313821B4BD7
:10A3D4005B8A13B1013B194A538208BD174B1A8A91
:10A3E40041F282639A4204D8154B1B783BB1012396
:10A3F40000E00123002BE6D0FFF792FFE7E70023FC
:10A40400F8E70E4B1B8A41F28262934204D80C4A4D
:10A41400127872B1012200E00122002AD3D042F264
:10A42400B012934207D9054B01225A73FFF778FF04
:10A43400CDE70022F1E7FFF773FFC4E724530020C0
:10A444003953002038B5254B1B7B002B36D10446ED
:10A45400224B5B8A33BB1AB9204B9B688B4205D3D2
:10A4640002B31E4B9B6801338B421BD21B4B9B6870
:10A474002A338B4224D3194B9B7B0BBB174DA9600A
:10A484002B606B602B8242F606526A826B732B73CD
:10A49400FFF7B2FDFFF7CAFD2A7BA9682046FFF744
:10A4A40019FE0DE062B10D4B9B6801338B4207D15D
:10A4B4000A4B01225A73FFF733FF01E0012B00D04E
:10A4C40038BD002AFCD1054B9B688B42F8D1034B65
:10A4D40001225A73FFF724FFF2E700BF2453002040
:10A4E4000378042B00D0704743681B78002BFAD004
:10A4F40010B58468027E437E012A14BF0022012223
:10A50400416904F11000FFF79DFF10BD10B5184B11
:10A514001A685B689A4225D20446154B1B7B012BB3
:10A5240013D0144B9A4212D2114B1A685B68403B09
:10A534009A4214D2EFF3108072B60D4A1368591C74
:10A544001160236090B962B610BD0B4BEAE7084B6B
:10A5540001225A73FFF7E4FE0028EBD1E4E7FFF78A
:10A5640065FDE7E7FFF762FD0F20EDE70020EBE76D
:10A5740024530020FFFF7F0000E0FF0008B568B906
:10A584000C4B1B6893B10B4A1368013B136063B90E
:10A59400094B00229A73FFF7C3FE06E0064B012223
:10A5A4009A73044A13680133136008BD7846FDF7B3
:10A5B400DDF9E8E7D05200202453002000B58DB027
:10A5C400ADF808008DF8102003910CA8032300F8BF
:10A5D4002C3DFEF7F7FD0DB05DF804FB014B9868C8
:10A5E400704700BF24530020054B1B7B012B02D076
:10A5F400034B98687047024B98680138704700BF56
:10A6040024530020044B9B68584010F0010F00D0E5
:10A61400013B1846704700BF24530020014B187BB0
:10A62400704700BF2453002038B50A4B1B7873B918
:10A63400084B01221A70084DA8602973FFF7DCFC4F
:10A6440000242C606C60FFF7F1FC204638BD082024
:10A65400FCE700BFFC520020245300202DE9F04108
:10A66400002724E02449BC2303FB04F3CA5A013223
:10A67400CA520221284602F06FFA01360221284606
:10A6840002F03AFA80B11C4ABC2303FB0423D3F83A
:10A694000880B8F1000FE5D0BC2303FB04F3D25AC1
:10A6A40001463846C047DDE78EB90137FFB2022FB5
:10A6B4001FD83C46BC2303FB07F308330E4D1D444F
:10A6C40004350221284602F017FA0026DAE70021B1
:10A6D400284602F0A9FA0828E7D1074BBC2202FB5E
:10A6E4000434A368002BE0D000220449384698477C
:10A6F400DBE70120BDE8F08144530020B4380400B6
:10A7040008B5082383731023437300F11C034361CA
:10A714000323037300F1180303610C3002F056FAAB
:10A7240008BD000008B50378012B06D0022B07D022
:10A734007846FDF71BF9002001E04FF4A97008BD2D
:10A744000048FCE7645E010008B50278012A07D0DE
:10A75400022A13D07846FDF709F94FF4FA7308E09A
:10A7640083685B1A98084FF4A97303FB00F303F59D
:10A77400FA730748984228BF184608BD83685B1AD5
:10A78400180B044B03FB00F303F5FA73F1E700BF66
:10A79400A0860100645E010010B5044601210C305E
:10A7A40002F0AAF9A0B10D4AC4F89C200022C4F812
:10A7B400A0206168FFF7C8FFC4F8A800C4F8AC4043
:10A7C400012384F8B83004F19C000CF053FD00B967
:10A7D40010BD7846FDF7CAF8FAE700BFE1A8020009
:10A7E400F8B506460C46174615680378012B18D1B0
:10A7F4001249A1FB0431C9098900B468641B8C4265
:10A8040000D30C468CB1706825F00305F16822462C
:10A8140029442844FFF782FB58B93B681C443C6038
:10A82400F8BD7846FDF7A2F8E2E77846FDF79EF812
:10A83400E9E77846FDF79AF8EFE700BFEB5DF260D1
:10A84400F8B507460C46164615680378022B16D150
:10A85400114BA3FB04231B0C1B03BC68641B9C420D
:10A8640000D31C467CB1786825F0030521462844B2
:10A87400FFF724FB58B933681C443460F8BD7846AC
:10A88400FDF774F8E4E77846FDF770F8EBE77846EF
:10A89400FDF76CF8EFE700BFB77609BB38B505469E
:10A8A4000C4611462378012B06D0022B0FD0784694
:10A8B400FDF75CF8002304E0021D2046FFF790FF3B
:10A8C400A3686868984214BF0020012038BD021DA7
:10A8D4002046FFF7B5FFA368F3E700002DE9F8432E
:10A8E4000F46D1F8A850234B1B7863B90646A5F54B
:10A8F400FA7501F10C090121484602F0FDF8804681
:10A9040040B1002422E00CF0F1FC002387F8B830B9
:10A91400BDE8F8837846FDF729F8F2E70CF0E6FC89
:10A924000121484602F018F900237B6087F8B8300B
:10A93400114B186801F08EFA3846FFF72DFFE7E750
:10A944004046FFF7EFFE2044A8420CD82A1B41469C
:10A954003846FFF7A3FF0028E0D100F0CBFD841BAD
:10A96400EED5341AECE70CF0C1FC3846FFF714FFBF
:10A97400CEE700BF405300203C53002010B50848E8
:10A9840001F048FA074B1860002406E0064BBC208F
:10A9940000FB0430FFF7B4FE0134022CF6D910BDDD
:10A9A40061A602003C5300204453002038B50446FD
:10A9B4000D46022805D8054BBC2202FB0434A560D1
:10A9C40038BD7846FCF7D2FFF5E700BF44530020BA
:10A9D4002DE9F84306460C461746022816D8CCB192
:10A9E4002378012B1AD0022B3ED16368C3F30B03E7
:10A9F400002B31D1A368C3F30B03002B30D1A36820
:10AA0400002B34D17846FCF7B1FF30E07846FCF7F0
:10AA1400ADFFE4E77846FCF7A9FFE1E7636813F0CC
:10AA2400030F0DD1E36813F0030F0DD1A36813F0E6
:10AA3400030F0DD1A368D3B97846FCF797FF16E04E
:10AA44007846FCF793FFEDE77846FCF78FFFEDE7D8
:10AA54007846FCF78BFFEDE77846FCF787FFC9E7FC
:10AA64007846FCF783FFCAE77846FCF77FFFEFF3ED
:10AA7400108872B6BC2505FB06F505F10803204DC8
:10AA84001D4404350021284602F036F8814668B397
:10AA94000021284602F060F820686168A268E36833
:10AAA400C9F80000C9F80410C9F80820C9F80C3026
:10AAB4002FB1134ABC2303FB06235B883B80104A57
:10AAC400BC2303FB06235A8801325A8093F8B8301A
:10AAD40073B90C4B1B780BB100200AE0084BBC2067
:10AAE40000FB0630FFF758FE002002E0042000E0DF
:10AAF4000020B8F1000F00D162B6BDE8F88300BFB2
:10AB0400445300204053002018B1830B024AD05C08
:10AB140070470020704700BFC438040012DF70473C
:10AB240000B583B01378A3B1042B14D1072110F816
:10AB3400013C163B152B31D8DFE803F05930303097
:10AB44003030303030303030303030303030302E03
:10AB54000F3A517DEBE70021E9E7022901D00729EB
:10AB64001CD110F8021C013901F056FDB0B1264B7E
:10AB74001B6813F0400F11D0244B1B68012B0DDD13
:10AB8400234BD3F804350190224A00928A222249A9
:10AB9400022002F031FA01E0022902D003B05DF88C
:10ABA40004FB10F8021C0139C9B212F011FBF5E7DD
:10ABB4000229F3D110F8021C0139C9B203F0E0FBF9
:10ABC4000028EBD0104B1B6813F0400FE6D00F4B5E
:10ABD4001B68012BE2DD0E4BD3F8043501900F4ABC
:10ABE40000929D220C49022002F006FAD6E7018861
:10ABF4004FF6E4639942D1D110F8021C03390230B4
:10AC0400FCF704FECAE700BF3833002034330020C9
:10AC140000B000405439040049390400803904006C
:10AC240070B58AB00DF0D2F858B3064600238DF8FB
:10AC3400103005AC05460FCD0FC42B682360727D20
:10AC4400052A04D9337D03F00F03072B20D1184BB9
:10AC54001B689BB104AB0393337DC3F303038DF8EB
:10AC64000430737D062B1DD9063B8DF8053006F1A3
:10AC74001D0302930E4B1B6801A8984730460DF044
:10AC840085F80DF0BDF880F00100C0B20AB070BDC7
:10AC9400307D04AB063A06F11D0100F00F000BF005
:10ACA4003FFED4E700238DF805300293E2E700BFAE
:10ACB4007C55002070B582B02F4B1B78002B52D1ED
:10ACC400002854D0067A0F2E01D0072E51D1044605
:10ACD400C06870B1FCF784FF0DF10700FFF71EFF99
:10ACE4000546002840D19DF80730012B04D00225E9
:10ACF4003AE0FCF783FFEFE7FCF796FF00F03AFB3E
:10AD0400304601F00DF8E07800F058F900F012FF39
:10AD14000CF06EFA19480DF00FF90BF09FFFFFF7D6
:10AD24002DFE04F08BFB00F055FD05F0CFF9204615
:10AD340001F0DAFB2046FDF789FF03F0F5FE20461B
:10AD4400FFF730F9FCF762FD18B1062801D005467B
:10AD54000AE00B480BF0C6FD0A4B00221A60064BB2
:10AD640001221A7000E00825284602B070BD0E25A5
:10AD7400FAE70725F8E700BF7955002025AC020063
:10AD8400283300207C55002030B583B0204B1B783D
:10AD9400002B35D01F4B1B78002B33D100F0F0FE75
:10ADA400C0B90CF047FA044668BB0CF0AFFF01F0E1
:10ADB400ADFBFCF72BFD0546F0B106281CD0164B65
:10ADC4001B6813F4804F21D0144B1B68012B05DC46
:10ADD400044618E07846FCF7C9FDE2E7104BD3F8C7
:10ADE400043501900F4A00924FF4C4720E490220B8
:10ADF40002F002F92C4606E0064B01221A7002E02A
:10AE0400082400E00824204603B030BD0446FAE7D5
:10AE14007955002078550020383300203433002041
:10AE240000B00040E03804004939040010B5094B73
:10AE34001B785BB10CF00EFA044640B90CF07CFFB1
:10AE440000F008FF034B00221A7000E0082420469B
:10AE540010BD00BF7855002030B583B004460D46C0
:10AE64000E4B1B6813F4804F03D00D4B1B68062B4D
:10AE740005DC29462046FDF751FF03B030BD094BE0
:10AE8400D3F80435084A0192084A00924FF4D77265
:10AE94000749072002F0B0F8EBE700BF3833002081
:10AEA4003433002000B00040C838040048350400A2
:10AEB4004939040008B5FEF7ADF908BD08B500F03E
:10AEC4000FFE002008BD08B506F0B2FC08BD000066
:10AED400064A136801331360B3F1704F02D0034B79
:10AEE40018687047134601221A60F8E7805500205D
:10AEF40010B5044618B100232360636010BD784682
:10AF0400FCF734FDF7E738B50C46054668B184B163
:10AF140000236360EFF3108372B62A686AB16A682B
:10AF240054606C6003B962B638BD7846FCF71EFD08
:10AF3400EDE77846FCF71AFDEAE72C60F1E710B577
:10AF4400044658B1EFF3108372B6206808B1426822
:10AF54002260226832B103B962B610BD7846FCF7AC
:10AF640005FDEFE76260F6E710B5044608B1206816
:10AF740010BD7846FCF7FAFCF9E735DF70473CDF93
:10AF84007047000010B504464FF0FF30FFF7F5FF9F
:10AF94004FF0FF312046FFF7F2FFBFF34F8F054913
:10AFA400CA6802F4E062044B1343CB60BFF34F8FD3
:10AFB40000BFFDE700ED00E00400FA05072814D8FF
:10AFC400DFE800F0080C1504110F0A06642070472E
:10AFD40014207047FA2070471E2070474FF4FA700F
:10AFE4007047322070474B207047FA2070479620F4
:10AFF40070470000024B5868103840B2704700BFD9
:10B0040000ED00E0034600280FDB5B11084A52F80C
:10B014002330424200F01F0002F01F0258BF50428A
:10B0240023FA00F000F00100704700F11F03ECE781
:10B0340000E100E046DF7047F8B504460D464B1EBC
:10B04400DBB2012B09D8002222616261A261E261B4
:10B054002046FFF7EFFF012616E07846FCF786FC52
:10B06400F1E7CA5CC8185200D2B2407842EAD01262
:10B07400CA5401339BB20E2BF3DDCB7B5B00CB7345
:10B08400002F08DB0136F6B2AE420BD8214611F987
:10B09400207F0023EFE794F82F3083F0870384F8B0
:10B0A4002F30EFE7F8BD2DE9F04190B084460C460F
:10B0B40096461F4602F10F0636111FFA86F804ADB4
:10B0C4000068DCF80410DCF80820DCF80C300FC54C
:10B0D4000EF00F05B8F1000F02D085B1002300E097
:10B0E400002398466BB1012104A8FFF7A5FFB8F12E
:10B0F400000F1BD0B0B20138000110230EE0012371
:10B10400EFE70221F0E7013B9BB22218D25C10A9C1
:10B11400194411F8101C4A400DF80320002BF2D1F9
:10B1240000250C950D950E950F9534E0B1B20139BB
:10B13400ADB22A4604EB0111684617F074FB802374
:10B144000DF805306B1C03E000220DF803200133D9
:10B154000F2BF9DD10230AE0013B9BB21DF80320FD
:10B1640010A9194411F8101C4A400DF80320002BB3
:10B17400F2D1D5E7013B9BB210AA1A4412F8102C65
:10B184002118C95C4A4008A9CA54002BF2D104A86A
:10B19400FFF750FF0135B3B2013BAB4202DD28019A
:10B1A4001023F2E710230AE0013B9BB210AAD11846
:10B1B40011F8402C11F8101C4A4008A9CA54002B5D
:10B1C400F2D104A8FFF736FF0CAC0FCC38607960DD
:10B1D400BA60FB6010B0BDE8F08100000A4B1B6848
:10B1E400834207D0084B1B6853B15A69824205D089
:10B1F4001346F9E74269044B1A6001E042695A6157
:10B2040000230370704700BF8855002010B5044622
:10B21400134B1B684BB14068114B1B685B68C31A26
:10B22400002B02DB0E4B19680DE00D4B1A686261AE
:10B234001C600B4A938801339BB2938063B1012352
:10B24400237010BD19464B691BB15A68121A002AA3
:10B25400F8DB63614C61ECE77846FCF787FBEEE7CB
:10B264008855002038B5054619E06369214A136002
:10B274000023636193889BB2591E89B291800BB3FA
:10B28400A3681BB302232370A36821692846984747
:10B2940000F030F905462378DBB2022B1AD0154BA7
:10B2A4001B6833B3134B1B685B685B1B642B20D593
:10B2B400104B1C682378DBB2012BD6D07846FCF700
:10B2C40055FBD2E77846FCF751FBD9E77846FCF703
:10B2D4004DFBD7E7E26812B900232370DFE7636808
:10B2E400134463605B1B642BF9D42046FFF78EFF85
:10B2F400D5E738BD8855002008B5124B1B6873B1DB
:10B30400104B1B685B68C31A13F1640F08D4022343
:10B314000D4A00F16401012000F0B0F870B908BDD5
:10B32400084B19680223084A4968012000F0A6F86E
:10B334000028F4D07846FCF719FBF0E77846FCF7D0
:10B3440015FBECE78855002069B3020008B500F04E
:10B35400D1F8FFF787FF00F0CDF8FFF7CDFF01200C
:10B3640008BD000008B5024B186800F073FD08BD65
:10B374008455002008B5054B00221A605A60044821
:10B3840000F048FD034B186008BD00BF885500203D
:10B3940051B302008455002010B5044600F02EFE7F
:10B3A40080B19CB1A368ABB12378DBB2012B15D07B
:10B3B400002363612046FFF729FF00F09BF8FFF7A5
:10B3C4009BFF10BD7846FCF7D1FAEAE77846FCF714
:10B3D400CDFAE7E77846FCF7C9FAE5E77846FCF7E3
:10B3E400C5FAE5E710B5044600F008FE50B16CB1AB
:10B3F4002046FFF7F3FE0023636100F07BF8FFF7BC
:10B404007BFF10BD7846FCF7B1FAF0E77846FCF70D
:10B41400ADFAEDE738B504460D4600F0EFFD70B126
:10B424008CB12046FFF7DAFE002363616560204695
:10B43400FFF7ECFE00F05EF8FFF75EFF38BD7846DC
:10B44400FCF794FAECE77846FCF790FAE9E7000099
:10B4540010B4094B00F15002002443F8224000F1DB
:10B4640010040122A240C3F8042300F5A87043F895
:10B4740020105DF8044B704700800040022825D856
:10B4840038B533F0030423D1EFF31085124C256053
:10B4940072B6124C44F82020114A42F82010114A86
:10B4A4001354114B002243F82020104B1B7833B166
:10B4B4000F4B1B68CA1A07D41146FFF7C9FF064B86
:10B4C400186838B962B604E05A1AF5E707207047DD
:10B4D4000A2038BD0020FCE7B45500209455002014
:10B4E400A855002090550020BC550020A0550020F0
:10B4F400A4550020EFF310820C4B1A6072B60C4B6B
:10B504001B787BB10B4B0022C3F84C210122DA6477
:10B51400D3F84C05084B1B681844044B1B6803B94B
:10B5240062B67047054B1868F7E700BFB4550020B2
:10B53400A055002000800040A4550020B8550020EC
:10B5440070B5002418E01F4B002243F82420012387
:10B5540003FA05F51C4BC3F80853FFF7CBFF1B4B4D
:10B564001B5D13F0020F21D0B04704F15003164ABB
:10B57400002142F823100134022C21D804F1500395
:10B58400114A52F82330002BF5D0D2F8043304F1D9
:10B594001005EB4013F0010FEDD00A4B53F8246073
:10B5A400002ED0D17846FCF7E1F9CCE701463046CD
:10B5B40000F0DAFB0028D8D07846FCF7D7F9D4E7B6
:10B5C40070BD00BF945500200080004090550020BD
:10B5D40070B50546002414E0981A27E05E1A29E0A5
:10B5E4002946184600F0C0FB002836D12A4B53F8F0
:10B5F40024302BB101221A60274B002243F8242067
:10B604000134022C3AD8254B04F5A872002143F8E2
:10B61400221004F1500243F8221053F82230204B38
:10B6240053F824201F4B1B68D01AD5D405F1780198
:10B63400CE1AD3D4864214D91B4B53F82430002B92
:10B64400D4D0194A002142F82410184A125D12F08D
:10B65400020FC5D028469847C8E77846FCF786F914
:10B66400C4E7114B53F82430002BC9D0E0B2511B6E
:10B6740002D4FFF7EDFEC3E7A91AFAE70C4B1B68E7
:10B684001BB90C4B4FF480721A60064B1D600A4BB9
:10B6940001221A7070BD00BFBC550020008000401C
:10B6A400A8550020A4550020945500209055002052
:10B6B400B455002000E100E0A0550020002300E084
:10B6C4000133022B0ED80F4AD25C12F0010FF7D0CF
:10B6D40000220C49CA540C4941F823200B4941F873
:10B6E4002320EDE70A4B18600A4B00221A700A4B1C
:10B6F4004FF0FF32C3F80823084B4FF48072C3F8AD
:10B70400802170479055002094550020BC5500209E
:10B71400B8550020A05500200080004000E100E062
:10B7240030DF704731DF704710B402684368A2EB22
:10B734007312846883EAF4330360C1680C44446080
:10B74400114481601344C36018465DF8044B70478C
:10B7540070B582B00D46064608B100240BE0784669
:10B76400FCF704F9F9E79DF807103019FFF7DAFF41
:10B774009DF807301C44A5420DD90DF10700FFF7D1
:10B78400CFFF9DF80730002BF7D02A1B9342EAD94C
:10B794008DF80720E7E702B070BD000030B583B034
:10B7A4000546002402A840F8044D0421FFF7D0FF09
:10B7B400074B2B60019B6B60AB60EB6003E028469A
:10B7C400FFF7B2FF0134132CF9D903B030BD00BF29
:10B7D400ED5EEAF1704748DF704749DF70474ADFA2
:10B7E400704700002DE9F00F1F4BD3F804650027C4
:10B7F400837AA3BB1D4BD3E90023B41A24F07F4AF8
:10B804004FF0000B4FEA4A124FEA4B13B2EB0A0215
:10B8140063EB0B03590241EAD2514FEA422C0D4625
:10B824001CEB0A0145EB0B024FEA821949EA9169C4
:10B834004FEA81181346B8EB010269EB03031AEBD4
:10B8440002044BEB0305E30B43EA4542436813440C
:10B854004360064BC3E90067BDE8F00F704700235F
:10B8640083720268F2E700BF00B00040285600204F
:10B8740010B504460023C3600361FFF7B3FF2368D8
:10B88400084A926822600121217503B9064B991A6E
:10B89400A161B1F57A7F01D39A4202D94FF47A7348
:10B8A400A36110BD1456002080969800094B032212
:10B8B4001A75094A9A611A6840F6D8639A4204D8FC
:10B8C400054B40F6D8629A607047034B43F2B0626E
:10B8D4009A607047F45500201456002008B50B4BAD
:10B8E4001B78012B05D0022B0BD07846FCF73EF8D1
:10B8F40003E00223037501238372044B00221A70B0
:10B9040008BD03230375024B8361F6E72556002027
:10B914001456002038B505460024047501234372EB
:10B924004068FFF755FE0BF04DFD6B682A68134421
:10B934000A490968283101FB02F1094AA2FB0121E5
:10B94400A3EB91410323074A78392046FFF796FD7C
:10B9540000B938BD7846FCF709F8FAE7105600201C
:10B9640083DE1B43B1B8020010B50C4631B1036944
:10B97400013303618269036813440360C3680133BC
:10B98400C36001220275826952088261012B0DD0C5
:10B99400022B19D082690368134417498B4222D8B9
:10B9A40040F6D7639A4221D800231DE0B2F5FA7F0E
:10B9B40005D040F6D8639A42ECD88361EAE7002CBC
:10B9C400F7D100238361E5E70369022B06D0012B3D
:10B9D400E0D1002CDED100238361DBE70268064B53
:10B9E4009B1A8361D6E7002313B110BD0123FBE743
:10B9F400FFF790FFF9E700BF80969800437A1BB9E0
:10BA04000E4B00221A70704710B504460BF0F6FC7A
:10BA14006068226810440A4B1B68283303FB02F356
:10BA2400084AA2FB0323A0EB93407838FFF746FEB5
:10BA340000236372014B00221A7010BD24560020AB
:10BA44001056002083DE1B4308B5224B01221A72D4
:10BA5400214B1B7813B1214B1B781BB31D4B0022C8
:10BA64001A7504281AD8DFE800F00314110C070033
:10BA74001848FFF7FDFE1EE001211648FFF774FF8A
:10BA840019E000211348FFF76FFF14E00BF054FC9A
:10BA940011E0FFF755FD0BF083FC0CE07846FBF753
:10BAA40065FF08E0FFF726FD0A4B5A68801A186004
:10BAB4001846FFF713FF074B1B7D023BDBB2012B3C
:10BAC40004D9044800230372143008BD0148FFF769
