:020000022000DC
:10600000000001203D6202009562020097620200DA
:10601000996202009B6202009D6202000000000083
:106020000000000000000000000000009F6202006D
:10603000A162020000000000A3620200A56202004B
:10604000C1850200AB620200FD890200AF6202005E
:10605000B1620200B362020081880200B7620200EE
:10606000B9620200BB620200BD620200BF620200B0
:10607000C1620200C3620200C5620200C762020080
:10608000C962020091700200CD620200CF6202007C
:106090002D710200D362020051AC0200D7620200EF
:1060A000D9620200DB620200DD620200DF620200F0
:1060B000E1620200E3620200A7620200A76202003E
:1060C000E5620200E7620200E9620200EB620200A0
:0C60D000ED620200EF620200F1620200CB
:1060DC00364937480A1A02D0072291438D46354972
:1060EC0035480A1A06D00722914381F30988022207
:1060FC0082F3148831483249324A00F045F832486C
:10610C003249334A00F040F832483349334A00F000
:10611C003BF833483349344A00F036F833483449B5
:10612C00344A00F031F834483449354A00F02CF840
:10613C0034483549354A00F027F8354835490022AE
:10614C0000F02DF834483549002200F028F8344886
:10615C003449091A082903DB00220260043001606B
:10616C00314A90471F482049884205D002680430C4
:10617C0003B4904703BCF7E700208646EC460020AA
:10618C0000212A4A9047FEE7884207D0521A05D0D0
:10619C00037801300B700131013AF9D17047884214
:1061AC0002D002700130FAE77047000000000120B5
:1061BC0000E000200000012000000120D0CB0200F4
:1061CC001C2A00202C2D0020F4620200F462020034
:1061DC00C0BA0200D0CB02001C2A00201C2A0020CE
:1061EC00D8BB0200D8BB0200D8BB0200D8BB02004F
:1061FC00D8BB0200D8BB0200D8BB0200D8BB02003F
:10620C00D0CB0200E0CE02002C2D00202C2D002043
:10621C002C2D0020743E0020743E0020743E002083
:10622C00743E0020745E002061620200059D020035
:10623C000F484FF00701884385460E4880470E48AB
:10624C00016841F470010160BFF34F8FBFF36F8F92
:10625C00FFF73EBF09480A490A4A884207D0521A3A
:10626C0005D0037801300B700131013AF9D1704738
:10627C0000000120C17F020088ED00E09CBB020001
:10628C00E02900201C2A0020FEE7FEE7FEE7FEE7DF
:10629C00FEE7FEE7FEE7FEE7FEE7FEE7FEE7FEE7CA
:1062AC00FEE7FEE7FEE7FEE7FEE7FEE7FEE7FEE7BA
:1062BC00FEE7FEE7FEE7FEE7FEE7FEE7FEE7FEE7AA
:1062CC00FEE7FEE7FEE7FEE7FEE7FEE7FEE7FEE79A
:1062DC00FEE7FEE7FEE7FEE7FEE7FEE7FEE7FEE78A
:0862EC00FEE7FEE7FEE700BF3C
:1062F40005F026B87047000007B5044B0093044A24
:10630400402300F032F803B05DF804FB1963020087
:106314002D2D00202DE9F84389461446B2B10F4BC8
:106324000F4E0325002743F00108224609EB07011D
:10633400002003F0F5FD0744241A48B933782BB143
:106344004FF47A40C047013D02D13570BDE8F8836F
:1063540001233370002CE8D1F8E700BFE0BB020052
:106364002C2D0020704703F00FBEF0B595B01C46ED
:10637400164608460D4601F0A9FC1A9B0D93CDE97B
:10638400086400242346082205A928460A948DF8A7
:106394002C400C9401F0D6FC079B0293BDF81830F6
:1063A400ADF80C30BDF81A30ADF80E309DF814304D
:1063B4008DF8114003F00302012A1DD1BDF81440E9
:1063C400059EC3F3C203C4F383148DF81030A200F6
:1063D40008230EA9284601F0B5FCC6F3952608ABA0
:1063E4000093224602AB0EA9304600F077FB284604
:1063F40001F070FC15B0F0BD022AF8D1BDF81640CA
:10640400C3F3C203A4098DF810300827082C2646CC
:1064140028BF08263B4632460EA9284601F092FCC6
:10642400A41B08AB02AA31460EA8374400F0BAFBFD
:10643400002CEBD1DBE7000010B5054CFFF793FF10
:106444000421204600F0BAFA0123637210BD00BF94
:106454001C2A0020037813F0030F03F0040202D077
:1064640012B910467047B2B103F00303012B03D0F5
:10647400022B09D0012070470A6800880232C0F359
:10648400831002440A60F5E70B684288023303EB89
:1064940092130B60EEE70B684288013303EB92130F
:1064A4000288F4E72DE9F04F89B00546861C08A858
:1064B400484C019200230F4600F8113D01F032F9D7
:1064C40023683B60D4E901231344226801339B1AF7
:1064D40004F21C4704F5836A04F21448B3421AD345
:1064E400019A0023002A6DD0012262F3010343F0D4
:1064F400040365F389132168A2689DF80F000A401C
:1065040003320E4444F82230266001F02FF90120B2
:1065140009B0BDE8F08F0121384601F05DF950461D
:1065240001F070F9404601F06DF90DF12009606841
:10653400D4F808B049F8100D00EA0B00033004EB5E
:1065440080004946FFF786FF049BB0B90BEA0302BB
:1065540004EB8202D16805919A1C013303EA0B0B08
:1065640004EB8B0C01F00303012B0492DCF80CB058
:1065740020D0022B04D083460BE00BEA0300DDE7B6
:10658400BDF816309B0903334FEA1B4B02EB930310
:106594000493404601F039F908B1049B63605946FD
:1065A400384601F019F9D4E9012313442268013370
:1065B4009B1A93E7BDF81430C3F383134FEA1B4BC4
:1065C4001344E5E7022262F3010343F0040365F395
:1065D4009F5390E7402E002008B50E4B0E48FF2233
:1065E4009A600022C3F81824C3E90022C3F81424D3
:1065F40083F8202401F023FB38B9084A084B0949E1
:106604009B1ADB0802469A4200D108BD21F82220D9
:106614000132F8E7402E002044BB0200CCBA02004D
:1066240044BB0200E029002030B50B4C79B10B4A81
:106634000B49121BD20800239A4201D1002030BD1D
:1066440001EB83056D88854202D00133F4E70346EC
:1066540054F83300F3E700BFCCBA020044BB020095
:10666400E0290020094B013903EBC000032909D8B4
:10667400DFE801F00A02040604207047007970473D
:10668400407970470020704702207047CCBA02005E
:10669400034BD3E90030C31A58425841704700BF36
:1066A400402E00202DE9F04387B0FFF7F1FF0746A5
:1066B400002840F0F5807B4DC5F81804BFF34F8FD8
:1066C4006868AC680DF1180848F8100D20400330D4
:1066D40005EB80004146FFF7BDFE029B06460028FD
:1066E4005FD104EA0302991C013305EB82022340C3
:1066F40005EB8303D268DB68049302F00303022BE7
:106704000392029162D1BDF80E3067484FEA9318A4
:10671400B8F1500FC14628BF4FF0500969F38F13E9
:1067240009F10801ADF80E3001F0A1FA074600287E
:1067340000F0A48001F0CAFA334603A908223846BF
:1067440001F0D7FA029924EA01060136B600B145F0
:1067540035D95FFA89F97EB3F6B2A9EB060921406F
:1067640003315FFA89F4B146504E05EB81010823E9
:106774004A46384601F0BDFA36B109F1080322460B
:106784003146384601F0B5FA029B08F1030803EBE1
:1067940098030293D5F81834002B4AD1D5F8104445
:1067A40058E02A689A4204D86A60384607B0BDE8BF
:1067B400F08304EA03008AE73C493446D7E72140E2
:1067C400033108234A4605EB8101DAE7012B55D151
:1067D400BDF80C303448C3F38311062928BF0621C1
:1067E40061F3891302318900ADF80C3001F03FFAEE
:1067F4000746002842D001F069FA3346082203A96B
:10680400384601F076FABDF80C20C2F38312B31CAB
:1068140096424FEA8303BDD202994A1C21400331B8
:10682400029205EB81010422384601F062FA013636
:10683400E9E7384601F04EFAFFF72AFF80F001003D
:10684400C7B2B2E7637A23B1236839461B6820468E
:1068540098476468002CF5D1384601F03BFA06A845
:1068640000F8114D00F05EFFD5F818340BB9029B07
:106874006B609DF8070000F079FFDDE7D5F8104460
:1068840044B90B4B0B491888000440F0020000F097
:106894006BF8D1E7236820469B6898476468EFE764
:1068A400002782E7402E002044BB02004C2E00202B
:1068B400F4290020F4BB02002DE9F74F284C804650
:1068C4000F46924601A9012218469B46D4F8089027
:1068D400FFF7E8FD88B3019D0026A91C5E4506EB81
:1068E400010234D100211F4800F056FF80F310004C
:1068F4006A1C02EA090204EB8202000405EA0903A5
:10690400033340EA1840D06014F8232068F3C5022A
:1069140004F8232034F8232066F3891224F8232072
:1069240054F82320012167F39F2244F8232061F3C4
:1069340001026FF3820204F8232094F820341BB17F
:10694400FFF7B0FE0028FBD103B0BDE8F08F09EAE1
:10695400020204EB82025AF82630D3600136BDE706
:10696400402E00205C32002000231A46FFF7A4BF0B
:1069740013B502AC012344F8042D2246FFF79CFF13
:1069840002B010BD07B5CDE9002302236A46FFF724
:1069940093FF03B05DF804FB7FB5CDE90023089BAA
:1069A4000293099B03930A9B04930B9B05936A46EA
:1069B4000623FFF781FF07B05DF804FB0F4A30B5EB
:1069C400D2F810440023214641B90372D2F810448E
:1069D4004CB9C2F810044160184630BD0D7A9D428E
:1069E40005D04968F0E7626842606060F4E701330B
:1069F4000A2BE8D14FF0FF33EEE700BF402E002012
:106A0400084A38B50123D2F8104482F820341D46D0
:106A140004B938BD2368657220465B68984764688A
:106A2400F6E700BF402E0020037A052B10B50C4674
:106A34000FD0437A23B1084A0849204600F046FFA4
:106A44000749204600F042FF2046BDE8104000F010
:106A540032BF002AF8D0F3E74FBC020054BC020056
:106A640061C40200C38873B504460D4633B1144AA9
:106A740000921449144A284600F028FF217A052977
:106A84001CD0637A4BB1A088FFF7ECFD0F4B104983
:106A940053F82020284600F019FF227A0D4BA088D5
:106AA40053F822600021FFF7BFFD0B49034632462D
:106AB400284602B0BDE8704000F008BF02B070BDC7
:106AC4004FBC02005FBC020057BC02001CBC0200A9
:106AD40054BC020084BC020077BC02002DE9F043E0
:106AE40085B01F460C9D002306460C46904695F83B
:106AF4000C902B7329463846FFF7B4FFB8F1060F04
:106B040009D8DFE808F00412181F28334000314682
:106B1400284600F0DBFE002229463846FFF784FFB2
:106B240085F80C9005B0BDE8F0832268314628460C
:106B340000F0CCFEEFE7D4E900233146284600F00C
:106B4400C5FEE8E7A36800933146D4E9002328464C
:106B540000F0BCFEDFE7E3680193A36800933146CD
:106B6400D4E90023284600F0B1FED4E72369029358
:106B7400E3680193A36800933146D4E900232846CF
:106B840000F0A4FEC7E76369039323690293E368F3
:106B94000193A36800933146D4E90023284600F00A
:106BA40095FEB8E708292DE9F84F80460E461746AA
:106BB4001C4636D8002593F80C901D7319461046D0
:106BC400FFF750FFDFF87CA0DFF87CB0AE422AD993
:106BD40018F805205946204600F078FE0135082DA6
:106BE400F4D11649DFF864B0204600F06FFE0025AA
:106BF400AE421DD918F805A0504604F085FA0028C5
:106C040014BF52462E225946204600F05FFE01353D
:106C1400082DEDD1012221463846FFF705FF84F8FF
:106C24000C90BDE8F88F5146204600F04FFED5E7A2
:106C34000349204600F04AFEE9E700BF4ABC0200CF
:106C440048BC020046BC020040BC02004CBC02002E
:106C54002DE9F04F3B4F89B000263B4B1B78F5B232
:106C6400AB4202D809B0BDE8F08F384B196811F86F
:106C740035000124A0F12002C0F1200304FA02F936
:106C840024FA03F349EA0309D7E9002304FA00F8D4
:106C9400CDE9042302EA080203EA0903134301EBE2
:106CA400C50B4CD0DDE9042322EA080223EA0903D8
:106CB400C7E90023079101F0D7FD0799844611F82D
:106CC4003500A0F12002C0F1200324FA03F304FAF2
:106CD40002F21A4304FA00F300931D4B0192DDE91A
:106CE4000045D3E9002314401D4022462B465FFA99
:106CF4008CF40025CDE90445049CA0F12005AC40AA
:106D04000394049CC0F1200124FA01F1039C0C4378
:106D14000499039481400291DDE90245AB4208BF26
:106D2400A2420CD19BF801104B1E59425941A1EBD0
:106D34000C02DBF804305142514103B1984701364B
:106D44008BE700BF9832002064320020A03200207C
:106D5400903200202DE9F84F0646244800F0C0FB8D
:106D6400002841D10123A6F12001C6F1200203FA33
:106D740001FB23FA02F203FA06FA1D4BD3E90001E0
:106D84004BEA020B00EA0A0801EA0B0958EA090275
:106D94001F4623D1304601F067FD164BB8B1D3E945
:106DA400000140EA0A0441EA0B05C3E90045D7E9BA
:106DB40000234BEA0305104B0C4819684AEA020405
:106DC400C7E900450022BDE8F84F00F045BBD3E910
:106DD400000120EA0A0421EA0B05E6E720EA0A0496
:106DE40021EA0B05C3E90045BDE8F88F6C320020A9
:106DF400983200209032002068320020042A2DE9C5
:106E0400F34105460C4616463AD901F065FCD8B163
:106E14001C4B1D491D601D4BDFF884801C701C4BEE
:106E240000221E600023C1E900231A49C1E900239E
:106E3400013CE4B200260327FF2C0CD1164A174864
:106E4400002100F0F7FA03E001F00EFC0028DFD087
:106E540002B0BDE8F08123B205EBC30201A9927828
:106E64008DF8052015F833008DF8066042468DF83C
:106E7400047001F03BFC013CE4B20028DCD0E7E7FD
:106E84000720E5E7A0320020903200206432002081
:106E94006832002098320020556C0200E4BC0200E5
:106EA400596D020070B5084D084E00242B789C42A1
:106EB40001D3002070BD3368012113F8340001F0C0
:106EC4008DFC0134F2E700BF64320020A0320020C0
:106ED4001FB50021039001AA44F20100CDE901117C
:106EE40000F004F805B05DF804FB000010B572B6BC
:106EF400FFF786FDFFF7D6FB0028FBD1104C1149A4
:106F04002088000440F00100FFF72EFD0E4B1B68A3
:106F1400DB0700D500BE20880C49000440F00200C5
:106F2400FFF722FDBFF34F8F09490A4BCA6802F4E9
:106F3400E0621343CB60BFF34F8F00BFFDE700BF98
:106F4400F4290020E8BC0200F0ED00E0F4BC0200EB
:106F540000ED00E00400FA0549B152B1531E1A4095
:106F640007D1826001608380C260104670470E20A2
:106F740070470920704710B58468C2688388121B63
:106F8400934208D3C26813400268D154C3680133E2
:106F9400C360002010BD0420FCE78268C3689A42E5
:106FA4000AD08268838813400268D35C0B708368BC
:106FB400013383600020704705207047094A5378E5
:106FC40091780133DBB2994208BF002311789942CA
:106FD4001FBF03705078182303FB002014BF043034
:106FE40000207047A432002073B5054602A800248F
:106FF40000F8014D0E4600F095FB0DF10600FFF779
:10700400DDFF90B106700A4B9DF8062045605A706A
:107014009DF8070000F0AAFB24B9064B4FF4801238
:10702400C3F80021204602B070BD0424F0E700BF7D
:10703400A432002000E100E0024B4FF43C6043F036
:107044000103184710BD020038B50C4B0C4C4FF42B
:107054000032C3F8802001254FF48033C4F848334C
:10706400C4F808336560FFF7E7FF064BA56000240A
:107074001C60FFF7E1FF044B1C7038BD00E100E029
:1070840000100140C0330020B1330020F8B51F4B7D
:107094001F491B680025C1F84051C1F84451C1F88B
:1070A4004851C1F84C51C1F80051C1F804514BB3D7
:1070B400D1F8044517490968641A24F07F442F461F
:1070C4001A68A24209D8A41A15441A7CDE691AB1B6
:1070D4001F74D3E905209047AEB90F4B0F4A1978B6
:1070E40013788B4205D10133DBB2022B08BF002396
:1070F400137012780A4B43F822500A4B4FF4801253
:10710400C3F80021F8BD3346DAE700BFC4330020DA
:1071140000100140C0330020BC330020BD330020E8
:10712400B433002000E100E02DE9F74F9E4A9F4967
:10713400137809789E4D99423CD00133DBB2022B7F
:1071440008BF002313709B4912789B4B0F6853F8B8
:1071540022003B1823F07F4300220B602B68164665
:107164001446944613B942B12B6006E01968814273
:107174000ED902B12B60091A19604FF001082B686F
:10718400DFF83CA200930027BEB9DFF83CB260E010
:10719400401A0C44D968C3F800C0D3F81CE031B1DC
:1071A4003A1922F07F42C3E90121DE611E46012221
:1071B4007346D7E70026B046E1E73446F6697D4AD0
:1071C40063681268DFF804C2A068991A21F07F414D
:1071D400614500F2A58001442160012222742A68DD
:1071E4000023C4E90133E361002A40F0A2802C604B
:1071F400CAE75A1C9BF80210D2B291428BF80020C5
:1072040004BF00228BF80020182202FB03B32A6873
:1072140019799C68022974D003297ED0012918D1D8
:10722400217CB1B9DA6862601A69A2605A699B6903
:10723400A361624BE2601B78002BC0D06160BEE7A3
:107244009C4200F093809946DB69002BF8D100231F
:1072540023749BF800309BF801209A42C9D12B6813
:107264002FB9009A934202D1B8F1000F43D0002BFA
:1072740079D0D3F800A0524D4E4BD5F804751C6854
:10728400DFF84C813E1B98F8003026F07F46033629
:107294009BB94FF48033C5F84433C5F80433494BE4
:1072A4004FF400324FF00109C3F880211A60C5F889
:1072B4000090FFF7C1FE88F80090B2452CBF5444FB
:1072C400A41924F07F44C5F84045D5F80435DB1BE8
:1072D40023F07F43E41B033324F07F44A3420AD901
:1072E400D5F80435C5F84035FFF7A6FE354B4FF405
:1072F4000032C3F80021314B00221A7003B0BDE8FC
:10730400F08F13469146A0E71174D2690123002A35
:10731400FAD1002B9DD02A609BE700231946F6E79B
:10732400D31A23F07F43834234BFC31A002323605C
:1073340053E721681368994213D8591A1160E2611E
:1073440055E7091AD8691A4638B1034618688842BD
:10735400F7D3401A1860184613462160E061DC61D7
:1073640012E71346F2E7FFF76FFEC4E74C450DD171
:10737400D3692B6053B90F4801920121CAF8081050
:1073840003600E4B1970FFF757FE019AE1692368F9
:10739400C9F81C1011B1086803440B602B689A42A9
:1073A40018BF012753E700BFBC330020BD330020C2
:1073B400C4330020C0330020B4330020B033002095
:1073C4000010014000E100E0A4320020FEFF7F0035
:1073D400B133002008B5FFF737FE104B00200B2215
:1073E40018809A700E4B18600E4B18700E4B187064
:1073F4000E4B4FF48012E021C3F8802183F814135C
:107404001A6002F18042A2F56F22C2F8080583F8DF
:107414001113074BD2F804251A6008BDA4320020CA
:10742400C4330020BC330020BD33002000E100E061
:10743400C0330020074B9B784BB132B128B10368AD
:10744400187C20B959745A61704707207047082086
:10745400704700BFA43200202DE9F7431D4FBB78CD
:1074640005460E4690469BB390B304292ED9436932
:1074740073B3437C02A80024012B00F8014D0CBF18
:107484008946A14600F04EF90DF10600FFF796FD7E
:10749400D0B101230370104B4560D3F80435C0E923
:1074A4000498C0E902369DF806307B709DF8070009
:1074B40000F05CF924B9094B4FF48012C3F80021A1
:1074C400204603B0BDE8F0830424EFE70724F7E780
:1074D4000824F5E7A43200200010014000E100E098
:1074E400064A92783AB130B1426922B1002202745C
:1074F4000221FFF779BD0820704700BFA4320020A5
:107504000648074A03780749D35C012213B10430C3
:1075140001F0B8BE0C3001F097BC00BF282A00204F
:107524002C340020F03300200648074A037807492A
:10753400D35C012213B1043001F054BE0C3001F0CD
:107544002DBC00BF282A00202C340020F133002059
:1075540037B50578012D04D035D3022D28D003B0DA
:1075640030BD43681F4C19782046FFF704FD78B1FD
:107574001D4B01908DF800501B6868469847A16820
:10758400E368A2885B1A9A420ED3FFF7B9FFE6E7D5
:10759400A268E3689A42F2D002AB134A03F8080DDA
:1075A400126818469047EAE7104B01221A70D6E792
:1075B400C36801938DF80050FFF7A2FF0A4B1B68C4
:1075C40068469847CBE70A490A48FFF7E6FC10B932
:1075D400FFF7AAFFC3E702A8032300F8083D024B04
:1075E4001B68EEE7CC330020C8330020DC330020D6
:1075F400F1330020E0330020F0B51F46234B89B05F
:1076040006461A600C4600293DD08A88204809683D
:10761400FFF7A2FC002834D1A289A1681D48FFF716
:107624009BFC00282DD11C4D0FCD6C460FC495E852
:107634000F0084E80F0073690693337C174A1848D7
:107644008DF81C70003318BF01238DF81430737C3F
:10765400002B14BF0E2300238DF81530F36802931A
:10766400B36803933368019369467368009300F029
:107674002FFF30B90B4B18703368013301D0FFF77B
:107684003FFF09B0F0BD0720FBE700BFC83300206F
:10769400CC330020E033002018BD020055750200F1
:1076A400282A0020DC33002070B5084C0146084825
:1076B4002678FFF772FC054636B100232370FFF7E6
:1076C4001FFF08B1FFF704FC284670BDDC3300201F
:1076D400CC33002010B501460E48FFF74CFC04469D
:1076E400A8B90D480D4A0378D35C63B1043001F0A6
:1076F400BDFD60B90A490748FFF74FFC38B9BDE83A
:107704001040FFF711BF0C3001F092FBF1E7204667
:1077140010BD00BFE0330020282A00202C340020B4
:10772400F133002070B5EFF3108672B60C4A9468FA
:1077340001239CB993600B4B0B4DD3F88010294067
:107744001160C3F88050D3F8841051604FF0FF32B9
:10775400C3F88420047006B962B670BD0370FAE7FA
:10776400F433002000E100E0FC06FFBD084B9A68FA
:1077740010B55AB150B9EFF3108172B6054A1C68BE
:1077840014605C685460986001B962B610BD00BFB3
:10779400F433002000E100E050E8002F0B4640E8FD
:1077A400003C9CF0000FF7D11046704750E8003FB2
:1077B40043EA010240E8002C9CF0000FF6D1104689
:1077C400704750E8002F02EA010340E8003C9CF0B7
:1077D400000FF6D11046704750E8003F03EB01025A
:1077E40040E8002C9CF0000FF6D11046704750E89A
:1077F400003FA3EB010240E8002C9CF0000FF6D1FF
:10780400104670470121FFF7D1BF0021FFF7D9BF10
:1078140010B590B1D0E9012301689B1ADBB20A606C
:10782400013BDBB2FF2B026802D10020107110BDB6
:1078340011684C1C14600B70F2E70E20F7E737B5A3
:10784400054602A8002400F8014DFFF76BFF2A68E3
:107854006B68116899420ED9481E106011F8014CEA
:10786400EB68A98A01FB0434AB6811791B1ADBB2FB
:10787400994238BF13719DF80700FFF777FF204640
:1078840003B030BD37B5054602A8002300F8013D1A
:107894000C46FFF747FF2A681368591C1160E96812
:1078A400641AA98AB4FBF1F41C709DF80700FFF771
:1078B4005DFF03B030BD826810B504462AB1436948
:1078C4000168006998470023A36010BD0EB403B596
:1078D400039929B102AA04AB42F8043D00F06AF806
:1078E40002B05DF804EB03B07047826830B40468FA
:1078F400551C8560A154D0E901329A4202D330BCB0
:10790400FFF7D9BF30BC70472DE9F84F9946DDE940
:107914000A431746824688460A460126BA420FD2CF
:107924004E4538BF4E4613F0010B01D164B9002413
:107934000125B9F1010F1AD909F1FF397D43F8E79F
:10794400B2FBF7F20136E9E79B070ED5B9F1000F58
:107954000CBF30252025A642EAD2013C29465046D8
:10796400FFF7C3FF002CF6D1E1E72025F3E7B8FBCE
:10797400F5F39F42E2D9DFF83890B8FBF5F35046AF
:1079840019F8031005FB1388FFF7AFFFB5FBF7F5F4
:10799400002DF2D1BBF1000F02D00CB1A64201D3ED
:1079A400BDE8F88F20215046013CFFF79EFFF4E725
:1079B40038BD02002DE9F74F054690460E460029D2
:1079C40000F03A8116F8011B002958D0252940F00F
:1079D400D180002702E047F001071646324612F82C
:1079E400013B2D2BF7D0302B04D02B2B05D147F0A6
:1079F4000407F2E747F00207EFE700242A2B06F119
:107A040001021BD1D8F80030191D1B68C8F80010FA
:107A14001C44164633782E2B1CD101364FF0000A35
:107A2400314611F8012BA2F13000092814D80A2399
:107A340003FB0A23A3F1300A0E46F1E712F8013CD6
:107A4400A3F130010929E5D80A2101FB0434303CB3
:107A54001646D3E74FF0000A324612F8011B01F034
:107A6400FB0068281646F8D0692916D054D858293E
:107A740070D00ED825297DD03378002BA2D12B7B52
:107A8400002B00F0D980284603B0BDE8F04FFFF783
:107A940012BF632968D06429EED1D8F80020D2F847
:107AA4000090111D89EAE972C8F80010A2EBE9728E
:107AB4004FF0010B092A61DCD34538BFD3462CB102
:107AC400B9F1000F01DB790700D5013CBA0702D5F3
:107AD400BAF1000F04D0FB0702D4002C54D10024C7
:107AE400B9F1000F58DAC9F100092D212846FFF732
:107AF400FCFE07F00302022A05D1BAF1000F02D1FD
:107B0400002C4DD10024CDE9004753460A224946B2
:107B14002846FFF7F9FEAFE7732954D016D8702929
:107B2400AAD1D8F800301A1DC8F800203021284600
:107B34001C68FFF7DAFE78212846FFF7D6FE0022FC
:107B44000823CDE9003221461022E1E775292FD020
:107B5400782991D1D8F800100A1DC8F80020CDE981
:107B64000047534610222CE0D8F800301A1D19782B
:107B7400C8F800202846FFF7B8FE7DE70A230BF17A
:107B8400010B92FBF3F295E7A345A9D220212846E5
:107B9400013CFFF7AAFEA0E77807AAD52B21A5E7A9
:107BA400A345B0D230212846013CFFF79EFEA7E74B
:107BB400D8F80010CDE900470A1DC8F80020534644
:107BC4000A220968A4E7D8F800301A1DC8F8002072
:107BD400F907D3F8009012D54F46A7EB090B17F815
:107BE400011B41B9A345BFF447AF20212846013CFE
:107BF400FFF77BFEF6E72846FFF777FEEDE7B9F1DE
:107C0400000F17D0484603F069FB0746BC4200D971
:107C140054B909F1FF3919F8011F00293FF42CAFB9
:107C24002846FFF762FEF6E720212846013CFFF7CD
:107C34005CFEEBE74F46E9E703B0BDE8F08FFFF7E2
:107C4400E7BDF8B546790146721E05460023934206
:107C54002D6803D30024A64202D8F8BD0133F6E709
:107C64000F682846FFF70EFE01343946F3E72DE985
:107C7400F843868ACD1C0746FFF7E1FD043E3544F0
:107C84000446B5FBF6F5F0B14FF48073EDB2838092
:107C9400C680013D076081464FF00008A84512D216
:107CA4003846FFF7CCFD064648B16379013363716A
:107CB40008F10108C9F8000007608146EEE7204694
:107CC400FFF7BFFF34462046BDE8F88301210430A6
:107CD400FFF782BD10B5012104460430FFF787FD8C
:107CE40010F0FF0F04D12046BDE81040FFF7A9BFF4
:107CF40010BD2DE9F843C7880546181D8846B0FB1A
:107D0400F7F4164607FB14003CB9A7EB0009B1458C
:107D140028BFB14626B9BDE8F8832D68013CF3E7D6
:107D24000430A6EB09064A4608EB0401284403F094
:107D340057FAB7424C442D68B9464FF0000028BFAB
:107D4400B146E7E72DE9F843C7888846191D05467B
:107D5400B1FBF7F4164607FB14113CB9A7EB010974
:107D6400B14528BFB14626B9BDE8F8832D68013C6A
:107D7400F3E704312944A6EB09064A4608EB04005C
:107D840003F02EFAB7424C442D68B9464FF0000177
:107D940028BFB146E7E733DF704741DF7047000093
:107DA400064B10B500241C70054B1C60BFF35F8F9D
:107DB4000449054800F08AF8204610BD0934002023
:107DC4000C34002048BD02000034002007B502A88E
:107DD400002300F8013DFFF7A5FCF1EE103A23F073
:107DE4009F03E1EE103ABFF35F8F0A4B4022C3F8C2
:107DF40084219DF80700FFF7B9FC02F00DFF20B1C4
:107E0400FFF7CBFF03B05DF804FB20BF40BF20BFEA
:107E1400F8E700BF00E100E070B5264C05460121FB
:107E24002046FFF7B9FCBFF35F8F264638B9042D0F
:107E34000AD0214B1A781AB1BFF35F8F206070BD4E
:107E44001E4A157001221A701D4C1C4D6368BBB983
:107E5400FEF7D6FDFEF726FC0028FBD1174B1B7856
:107E6400023B012B14D8BFF34F8F1649164BCA6837
:107E740002F4E0621343CB60BFF34F8F00BFFDE712
:107E84001B682878984788B1204600F029F8DDE778
:107E940002F0C2FE08B1FFF77EFF4FF080430122DB
:107EA400C3F80025BFF34F8F20BFFDE7BFF35F8FFB
:107EB4003060C4E70C34002009340020083400206A
:107EC4000034002000ED00E00400FA050B684A6865
:107ED4004360934208BF0023016008BF43607047BA
:107EE400436843B10268916852680B44934243600B
:107EF40004BF0023436070470D4930B5A1F5947267
:107F04000225914201D800200EE08B1ADB1093FB6E
:107F1400F5F302EBC30452F83330834205D802D29E
:107F240004F10802EDE7606830BD2146E9E700BFCF
:107F340098BE020008B5FFF7DFFF024B002808BF18
:107F4400184608BD5DBD02000C4B1B78062B10D1F2
:107F54000B4B1B681A070CD10A4B186800F0F0038E
:107F6400302B08D000F0E000A0F140035842584103
:107F74007047002070470120704700BFE00F00F0F9
:107F8400E40F00F0E80F00F0094B1B78062B0CD12E
:107F9400084B1B681A0708D1074B186800F0F0005B
:107FA400A0F130035842584170470020704700BF89
:107FB400E00F00F0E40F00F0E80F00F008B5FFF761
:107FC400C3FF28B17D4B7E4A1B68C3F304231360AF
:107FD400FFF7DAFF10B17B4B7B4A1A60FFF7B4FF5F
:107FE40028B17A4B7A4A1B68C3F342331360FFF714
:107FF400CBFF20B1774AD36823F08073D360FFF7B7
:10800400A3FF40B14FF080430022C3F80C21C3F812
:108014001021C3F83825FFF7B7FF10B16E4B0322C8
:108024001A60FFF7B1FF40B16C4B05221A600122C0
:108034009A6700229A603F225A60694B1B78062B8C
:1080440050D1684B1B6819074CD1674B1B6803F070
:10805400F003502B46D14FF08052644BD2F80414F5
:10806400C3F82015D2F80814C3F82415D2F80C1458
:10807400C3F82815D2F81014C3F82C15D2F8141428
:10808400C3F83015D2F81814C3F83415D2F81C14F8
:10809400C3F84015D2F82014C3F84415D2F82414B8
:1080A400C3F84815D2F82814C3F84C15D2F82C1488
:1080B400C3F85015D2F83014C3F85415D2F8341458
:1080C400C3F86015D2F83814C3F86415D2F83C1418
:1080D400C3F86815D2F84014C3F86C15D2F84424D8
:1080E400C3F87025FFF730FF28B1414B414A1B68A4
:1080F40003F04F031360FFF727FF48B14FF08043AD
:10810400D3F80024D20744BF6FF00102C3F800245F
:10811400394B1B68062B08D1384B1B68062B01BF53
:10812400374A136843F480631360364AD2F88830C0
:1081340043F47003C2F88830BFF34F8FBFF36F8FDF
:108144004FF01023D3F80022002A03DBD3F80432C3
:10815400002B2FDA2C4B0122C3F80425D3F800247A
:10816400002AFBD04FF010221521C2F80012D3F8D8
:108174000024002AFBD04FF010231522C3F8042258
:10818400214B1A46D3F800140029FBD00021C3F870
:108194000415D2F80034002BFBD0BFF34F8F1949DC
:1081A4001A4BCA6802F4E0621343CB60BFF34F8FEB
:1081B40000BFFDE7164B174A1A6008BD24030010E0
:1081C4004035014074C007400DF0ADBA44020010C0
:1081D4003C050040F0ED00E0A005004010560040D2
:1081E400E00F00F0E40F00F0E80F00F000C00040E2
:1081F40058020010E40E0040300100103401001059
:108204003C17004000ED00E000E001400400FA05E6
:108214003C2A00200090D003054A4FF0A043105C94
:10822400D3F8043523FA00F0C04300F0010070478E
:1082340056C20200044B1A5C012393404FF0A04243
:10824400C2F80C35704700BF56C20200044B1A5CDA
:10825400012393404FF0A042C2F80835704700BF95
:1082640056C2020008B50020FFF7F0FF0120FFF717
:10827400EDFF0220FFF7EAFF0320BDE80840FFF707
:10828400E5BF08B50020FFF7D5FF0120FFF7D2FFB7
:108294000220FFF7CFFF0320BDE80840FFF7CABF65
:1082A400074A4FF0A041105CD1F804350122824006
:1082B40022EA03001340C1F80805C1F80C357047E1
:1082C40056C20200054A4FF0A043105CD3F81035A3
:1082D40023FA00F0C04300F00100704752C20200CC
:1082E4000D2809D00E2809D00F2809D010280CBF5A
:1082F40003204FF0FF307047002070470120704783
:1083040002207047014B185C704700BF52C2020044
:10831400C20708B501460CD54FF0A0430322C3F8A9
:108324004427C3F84827C3F84C27C3F85027FFF75E
:1083340099FF8B070AD54FF0A0430C22C3F83427CA
:10834400C3F83827C3F83C27C3F8402708BD00000A
:1083540038B5084C04F108030546002818BF1C462C
:1083640023682BB11A6822605B6828469847F7E7B0
:1083740038BD00BF1834002020B9054B01225A70C3
:10838400FFF7E6BF012802D1014A9070F8E7704771
:108394001034002020B9034B01225A70FFF7D8BFD4
:1083A400704700BF1034002038B50B4C237883B9D4
:1083B4000A486360A3602361E36000F0D1F80546D6
:1083C40002F02AFC08B900F0D9F8012323702846EA
:1083D40038BD8525FBE700BF103400207D830200F3
:1083E40037B502A80023094C00F8013DFFF79AF9BC
:1083F400E368013BE360E56815B900F0D3F8A570C4
:108404009DF80700FFF7B2F903B030BD1034002027
:10841400012813B509D003D303281BD002B010BD23
:108424000F4B0122C3F88020F8E702A800230D4C6B
:1084340000F8013DFFF776F923780BB9FFF7B4FF95
:10844400E3689DF807000133E3600123A370FFF79D
:108454008DF9E3E700F092F8FFF7C2FFDEE700BF13
:1084640000E100E0103400201FB503788DF80030DF
:1084740043680193037A8DF80830C3680393054A6F
:10848400054B684653F8213052F82110984705B03F
:108494005DF804FB24340020283400201FB5037841
:1084A4008DF800304368019383688DF80830C36801
:1084B4000393054A054B684653F8213052F82110BE
:1084C400984705B05DF804FB2434002028340020CC
:1084D400F0B5194B067891F81DE043F82620174BA8
:1084E40094460A6943F82620154B03F806E00C4627
:1084F40007460FCC89B06D460FC594E80F0085E898
:108504000F000496BEF1000F0AD0BCF1000F0D4A13
:10851400694608BF0022381D00F09CFD09B0F0BD7B
:10852400BCF1000F084A694608BF002207F10C009D
:1085340000F074FBF2E700BF28340020243400204C
:108544002C3400206D840200A184020000F18040DC
:10855400002382B0036003680193019B02B070475B
:10856400054A13792BB90121106011715371184612
:1085740070478520704700BF30340020084B1A68CC
:10858400D20706D4E02283F800230122C3F8802115
:108594001A604FF080430122C3F81825704700BFCA
:1085A40000E100E0044B01221A604FF08042D2F84F
:1085B4001834DB03FBD470470C000040124B1B68DB
:1085C40010B573B14FF48070FFF7C0FF4FF08043D4
:1085D4000122C3F808230D4B587910B95A711B684E
:1085E40098470B4B1B6873B14FF48270FFF7AEFFD3
:1085F4004FF080430222C3F80823044B01201B6878
:10860400BDE81040184710BD000100403034002080
:108614000401004000F1804000F5C040002382B016
:10862400036003680193019B02B07047800000F16E
:10863400A040D0F8003723F44033C0F80037D0F816
:10864400003743EA0141C0F800177047054B4FF06B
:10865400FF32072843F8202084BF1B1883F84820E2
:10866400704700BF3834002010B5174C94F85830C8
:1086740043BBFF21E2180133202B82F83010F9D1DB
:108684000021C8B2FFF7E2FF01310C29F9D104221D
:1086940000210E4802F0CDFD0D4BE02283F80623A5
:1086A4004022C3F880214FF4BE701A60FFF7B2FF76
:1086B400084B4FF00042C3F80423012384F85830D8
:1086C400002010BD0820FCE7383400208C34002042
:1086D40000E100E000600040034B93F858000030D4
:1086E40018BF0120704700BF38340020F0B5394D61
:1086F4002C18944694F93040002C68DA8E78C6F32E
:108704004006002E15BF0023082308270C27BB4270
:1087140001D10420F0BD55F8232001324FEA83042F
:1087240041D12F1845F823C087F8303016B9EA181C
:1087340082F848008A78560716D4D70735D58200C0
:1087440002F1A042D2F8006726F00206C2F80067E0
:10875400214FC60800F0070C012202FA0CF217F8A8
:1087640006C042EA0C02BA558A780E7812F0020268
:1087740024D004F1804303F5C0430002D3F810254C
:1087840022F4473222F44072C3F810253604D3F899
:10879400102500F4F85006F4403630431043C3F873
:1087A40010050020B6E70133B1E74E7800F5E0721A
:1087B4004FF0A047B60047F82260C9E7083B2B44B6
:1087C40093F8500040EA861683F85060E9E70820E1
:1087D400A0E700BF383400208C34002038B5204C8A
:1087E400251895F93020072A18DD224492F84830DC
:1087F4009B09032B0DD14FF0A043D3F81035C34090
:1088040013F0010F0CBF02210321BDE83840FFF72C
:108814000DBF012B14BF03210221F6E7D3B2072BAE
:108824001CD8930003F1804303F5C043D3F810052B
:1088340040F00100C3F8100502F14000800080B24E
:10884400FFF7E8FE51B195F9303054F823302BB1DD
:10885400012303FA02F2034BC3F8042338BD00BF1B
:1088640038340020006000404FF0A043D3F81035A6
:1088740023FA00F000F00100704700002DE9FF47E3
:108884000024584A584E594D019401211368A2F509
:10889400C040012B80B206D1D6F804330B4202D07B
:1088A400FFF7B8FE0C430432AA424FEA4101EDD16E
:1088B4004F4B1B68012B0AD14FF4BE70FFF7AAFE81
:1088C4004FF0A04344F00044D3F81035019314F062
:1088D400FF0F1AD0474F00250126344210D0AB00B9
:1088E40003F1804303F5C043D3F81005D3F8101502
:1088F40057F82530C0F30420C1F3014103B1984770
:108904000135082D4FEA4606E7D1002C66DA00222D
:108914004FF0FF33CDE90223DFF8D890012700267A
:1089240034464FF0A04809EB060393F95020531C3A
:1089340045D0D2B222F0C005E90804A8084402F0E8
:10894400070310F804CC07FA03F31CEA030F36D02C
:1089540009EB050C92099CF930C059F82CA0BAF126
:10896400000F0AD1032A2AD10DF1080E1EF801C006
:108974004CEA030C0EF801C001E0032AF4D005F51B
:10898400E07110F80C0C58F821101842C1F30141A1
:1089940005D0022913D1032A0BD1114604E003297F
:1089A4000DD1032A05D102212846FFF73FFE0134E9
:1089B400E4B2BAF1000F02D011462846D04701367E
:1089C400042EB0D154B14FF0A043019AD3F810351E
:1089D400934203D00193029B0393A0E704B0BDE844
:1089E400F08700BF0061004000600040206100404B
:1089F4007C61004038340020014B1B68184700BFDD
:108A0400943400200D4B984237B50D4610D102A87E
:108A1400002300F8013DFEF785FE094B1C7914B9CB
:108A240001221D601A719DF80700FEF79FFE14B91C
:108A3400002003B030BD1120FBE700BF0020004040
:108A4400943400200023435082B043580193019B87
:108A540002B070470A4610B54FF48E71FFF7F2FF6B
:108A6400136A9168C95C136A01331362C0F81C1558
:108A740010BD024608B54FF492710068FFF7E2FF9B
:108A84004FF484711068FFF7DDFF136801221A6048
:108A940008BD8B690A4610B54FF4847123B9FFF7FA
:108AA400D1FFD0F8183510BDFFF7CCFF536AD16859
:108AB400D0F81805C854536A01335362F3E7000031
:108AC4001FB501238DF80030044BCDE90110D3E923
:108AD40000126846904705B05DF804FB9C34002002
:108AE40030B54C4AD2F8043313F4007F85B01546F0
:108AF4004FD0D2F82431002B4BD04FF49271104652
:108B0400FFF7A0FF4FF40173C2F80833424B93F808
:108B1400291009B9012151603E4902228DF8002033
:108B2400D1F88024C1F8802403929A690292DA6809
:108B340001920022C3E906226846D3E90012904755
:108B44003448D0F81C315BB133490A6A4B699A4204
:108B54000A464BD291F82830002B47D1FFF77AFF11
:108B64002C4AD2F8443193B14FF4A2711046FFF766
:108B740069FF294B93F8291009B1012111609A6901
:108B84002AB100229A61586AD968FFF799FF05B0A3
:108B940030BDD5F804335B07D2D5D5F80831002BA6
:108BA400CED01D4C1B482146FFF773FF636AA269B0
:108BB4009A422346C4D1E269E1684AB12369E36079
:108BC4000023606AA261E3616362FFF779FFB7E79C
:108BD40094F829200AB901226A600E4A4FF4017000
:108BE400C2F8080300229A61586AEEE74FF48E71C6
:108BF4000848FFF727FF51690029B1D000230291EB
:108C040091688DF80030019153616846D2E90013F0
:108C14009847A5E7002000409C3400202DE9F84344
:108C24005A4B047991462C2202FB0432064692F8F0
:108C34002A200D469846002A40F0A3805449006833
:108C4400FFF7E0FE0746002840F09D80296833685E
:108C5400481C0BD04FF0A04001228A40C0F80825E0
:108C640001F5E0724FF0030C40F822C06868421C22
:108C74001FBF00F5E0724FF0A04C4FF0000E4CF80F
:108C840022E0AA6995F814C0C3F824256A7DBCF1D2
:108C9400010F4CEA0202C3F86C25C3F81405C3F8AB
:108CA4000C151DD1AA68511C1FBF02F5E0714FF0CD
:108CB400A0404FF0000C40F821C0E968481C0BD0DC
:108CC4004FF0A04C01208840CCF8080501F5E07075
:108CD4004FF0030E4CF820E0C3F80815C3F8102534
:108CE4002C23634308EB0302C2F804902A6948F872
:108CF4000320B9F1000F31D04FF48E7130682D7F0D
:108D0400FFF7A0FE30684FF4A271FFF79BFE3268B4
:108D1400204BC2F80433120B53B2002BA8BF03F14B
:108D240060404FEA53134FEA4511BABF1A4802F0A4
:108D34000F0500F561404FEA8303C9B203F16043B4
:108D4400B4BF415580F8001303F5614302F01F02DC
:108D5400012101FA02F2C3F880211A603368042267
:108D6400C3F800252C2303FB04830022C3E9062255
:108D740083F829205A61012283F82A203846BDE865
:108D8400F8830827FAE71127F8E700BF9C3400208E
:108D9400E58A02008000020014ED00E02DE9F843AA
:108DA400224F06794FF02C0909FB06748046656949
:108DB400002D37D16261A16025624FF48E71006885
:108DC40084F82850FFF73EFED8F8000001238360A2
:108DD4002146FFF73FFE6368A1462BBBD8F800503D
:108DE400226A63699A4212D3D8F80030D3F81C215E
:108DF400002AFBD00122DA6000202C2303FB067634
:108E040000237361BDE8F88394F8283043B9D5F89A
:108E14001C31002BF8D049462846FFF71BFEDFE73C
:108E24000F20EAE71120EDE72846EBE79C34002009
:108E34000379044A2C2101FB03235869003018BF2D
:108E4400012070479C3400202DE9F843384E057901
:108E54002C2303FB056307465C6824B103684FF4C5
:108E64000170C3F808032C2303FB0563986950B110
:108E7400D86900283ED024B13B684FF40172C3F88E
:108E84000423112034E09A61D9605862D8612C23FC
:108E940003FB056393F829301BB910B93846FFF773
:108EA400E8FD4FF02C0909FB05683868D8F8043050
:108EB400002B34D14FF4A271FFF7C4FDC1463868CA
:108EC400D0F82431D0F80821D0F84441B2B90CB913
:108ED400002BF4D02C2202FB05650022AA611BBBE7
:108EE40024BB95F829103B680122B1B11A60002017
:108EF400BDE8F8831961DA610120C8E7002BE9D1E4
:108F0400002CE7D14946FFF7C4FDD8F82430D8F83F
:108F140018209A42D3D82346DCE75A60E7E74FF497
:108F24000173C0F80433E2E70320E1E70F20DFE731
:108F34009C3400200023435082B043580193019B8A
:108F440002B070471FB501238DF80030054B8DF832
:108F5400080001916846D3E90012904705B05DF816
:108F640004FB00BFC83400207FB5384AD2F824611E
:108F7400002E49D010464FF49271FFF7DBFF022315
:108F84008DF80030D2F88034C2F880340393D2F8DC
:108F94003C358DF808302E4BDA6801920022C3E983
:108FA40006226846D3E900129047284AD2F8443191
:108FB40073B14FF4A2711046FFF7BCFF244B9969BB
:108FC40031B100219961D2F83C05D968FFF7BAFFA5
:108FD4001E4AD2F82031ABB14FF490711046FFF71E
:108FE400A9FF1B4B596969B1D2F84C158DF80810CB
:108FF400002299688DF8002001915A616846D3E9EE
:109004000012904704B070BDD2F81031002BCCD0C0
:109014004FF488711046FFF78DFF0D4BD2F83C05D5
:1090240099698842C1D1DC69D96864B1D2F8005227
:1090340025F02005C2F800521A699C61DA60DE61ED
:10904400FFF780FFB1E79C61FAE700BF0020004012
:10905400C83400202DE9F8435E4B0679914624225A
:1090640002FB0632044692F820200D469846002A58
:1090740040F0AB8058490068FFF7C4FC074600285D
:1090840040F0A58029682368481C0BD04FF0A0400D
:1090940001228A40C0F8082501F5E0724FF0030C64
:1090A40040F822C06868421C1FBF00F5E0724FF010
:1090B400A04C4FF0000E4CF822E0AA6995F814C0B9
:1090C400C3F824256A7DBCF1010F4CEA0202C3F8FF
:1090D4006C25C3F80C15C3F814051DD1AA68511CDE
:1090E4001FBF02F5E0714FF0A0404FF0000C40F8B4
:1090F40021C0E968481C0BD04FF0A04C01208840E7
:10910400CCF8080501F5E0704FF0030E4CF820E0B0
:10911400C3F80815C3F810252423734308EB03028E
:10912400C2F804902A6948F80320B9F1000F3BD033
:109134004FF4887120682D7FFFF7FCFE4FF4907187
:109144002068FFF7F7FE4FF492712068FFF7F2FEF4
:1091540020684FF4A271FFF7EDFE22681F4BC2F89E
:109164000433120B53B2002BA8BF03F160404FEA43
:1091740053134FEA4511BABF194802F00F0500F521
:1091840061404FEA8303C9B203F16043B4BF415560
:1091940080F8001303F5614302F01F02012101FA74
:1091A40002F2C3F880211A6023680822C3F800255C
:1091B400242303FB06830022C3E906225A61012209
:1091C40083F820203846BDE8F8830827FAE71127FA
:1091D400F8E700BFC83400206D8F020010030200BE
:1091E40014ED00E001F06043B3F1005F2DE9F041BC
:1091F400074632D11C4B0679242505FB06359846D3
:109204006C6964BB6A61A96000684FF49071FFF7F0
:1092140091FE4FF4AC713868FFF78CFE3B686A69C5
:10922400A968C3F84415C3F8482501229A606A68FE
:10923400BAB9D3F82011D3F8582149B9002AF8D083
:109244000F20242303FB068600237361BDE8F0810D
:10925400002A14BF0F200020F3E71020F6E71120A6
:10926400F4E72046F2E700BFC83400200379044A3B
:10927400242101FB03235869003018BF01207047E3
:10928400C8340020F8B501F06043B3F1005F044630
:109294000F465ED10379304D242101FB0351486808
:1092A40020B121684FF40476C1F80863242101FB3E
:1092B40003539E6956B1D969002939D020B1236876
:1092C4004FF40472C3F80423112030E09A61DF6084
:1092D400DE614FF488712068FFF72CFE4FF4A27111
:1092E4002068FFF727FE2368C3F83475C3F83825D0
:1092F40016BB01221A602279242101FB025149681C
:1093040009BBD3F81041D3F84411D3F8240114B99C
:1093140009B90028F5D0242303FB02550023984201
:1093240014BF032018469942AB6118BF0F20F8BD43
:109334001F61DA610126CCE7D3F8002242F0200253
:10934400C3F80022D7E74FF40472C3F804230020C3
:10935400EDE71020EBE700BFC83400200220FEF741
:109364009FBF00002DE9F04781460D46FEF7B8FF88
:109374000328044604D8012D04D024D3022D2FD071
:10938400BDE8F087194D47003A18A918AE5C4A7831
:1093940052B1DFF86880164842464FF40041FEF7A8
:1093A4005BF808B988F800903B192B449A78114B64
:1093B4001A55002EE4D0104B1B68002BE0D0304629
:1093C400BDE8F04718470A48FEF78AF8074B04EB54
:1093D400440213449E78074B1B5DB342D0D1E8E7A7
:1093E400024B00EB40041C446678E2E75035002051
:1093F400103500206935002064350020EC3400204D
:1094040002210078FFF7AEBF08B5094B1B7853B1B2
:109414000020FEF71BFF0120FEF718FF0320BDE824
:109424000840FEF713BFBDE80840FEF71BBF00BFAE
:10943400ED340020F8B5794C237805461BB10023A0
:109444002370FFF7E1FF172D00F28480DFE805F0B9
:109454000C13133F5061727C84898489919696968B
:109464009696C0C5CDD5E0E0FFF7CEFF6C4B002447
:109474001C702046F8BD0020FEF7CEFEF8B1002097
:10948400FEF7E4FE022D0CBF4FF4E1614FF47A6164
:10949400634B1D704FF400404FF4FA740025E0FB59
:1094A40001454FF47A7200232046294601F036FD27
:1094B400002201465B48BDE8F840FDF7CDBFFEF74A
:1094C400B9FE022D0CBFC8214FF4C871E0E700209B
:1094D400FEF7A2FE40B10020FEF7B8FE4FF448713B
:1094E4004F4B03221A70D5E7FEF7A4FEC821F7E715
:1094F4000020FEF791FE38B10020FEF7A7FE4FF4DE
:109504007A61474B0422EDE7FEF794FE4FF4C871ED
:10951400F7E70020FEF780FE48B10020FEF796FE34
:109524003F4B05221A7041F69A110022C2E7FEF75A
:1095340081FEF5E70020FEF7B3FE394B06221A70D0
:10954400002240F6CD41B5E70020FEF773FE344B10
:1095540007221A7000248CE701202070FEF7A0FE79
:10956400EEE701202070FEF79BFE00224FF48041BD
:10957400A0E7FEF786FE2A4B0C22EAE72A482B4E88
:10958400FDF7AEFFD5F1110504461CD0D8B9012D65
:1095940013D0C8235D434FF400474FF4FA70002101
:1095A4004FF47A720023C7FB050101F0B7FC224691
:1095B40001461D48FDF750FF04460220FEF73AFE1F
:1095C4000123337055E70220FEF740FE0023F8E73D
:1095D400FFF71AFF124B1222BBE7FFF715FF00201B
:1095E400FEF728FE0E4B1322B3E7FFF70DFF012011
:1095F400FEF720FE0A4B1422ABE7FFF705FF00201D
:10960400FEF718FE0120FEF715FE054B1522A0E714
:10961400FEF737FE024B1D709CE700BF603500204B
:109624006835002030350020F0340020ED3400206F
:10963400044B1B68DB0703D5034B1878FFF7FABE0E
:10964400704700BF5C35002068350020032801D82E
:10965400FEF738BE00207047044B1B6813F001036B
:1096640001D0FFF7E7BE1846704700BF5C35002005
:1096740038B51C4B18601C4B10F0020405461960E9
:109684001AD01A4B1A480E221A700F22DA701022BE
:109694009A7111225A72042140F26662FDF7AEFB00
:1096A400044648B9FDF7FEFB044628B90146114AB1
:1096B4001148FDF7BFFE0446EB0711D50120FEF764
:1096C40027FE6CB921460D4A0D48FDF7B3FE04464A
:1096D40030B90C4A0C480121BDE83840FDF7AABE58
:1096E400204638BD5C35002064350020503500200C
:1096F4007CC2020005940200A0C20200359602005A
:10970400A4C20200619302009CC20200032812D882
:10971400012A0BD1012908D100F10E02D2B200EBCB
:1097240040000C4B1A540020704700220129F6D047
:1097340009D3022901D007207047064B00EB4000F3
:1097440018444270EFE7034B00EB4000184482706A
:10975400E9E700BF50350020032808B512D8FEF70A
:10976400D1FD800000F1A040D0F8003723F440334D
:10977400C0F80037D0F8003743F44033C0F800375E
:10978400002008BD0620FCE708B5012202210020C4
:10979400FFF7BCFF08B1072810D1072202210120DE
:1097A400FFF7B4FF08B1072808D100210A220846B0
:1097B400FFF7ACFF10B1072808BF002008BD000068
:1097C4000388102B10B502D0112B1ED010BD1A4CDB
:1097D4002168B1B901220846FFF798FF08B10728AC
:1097E40024D1072202210120FFF790FF08B10728A6
:1097F4001CD1042202210020FFF788FF08B10728AA
:1098040014D1236801332360E0E70B4A1368013B5A
:109814001360002BDAD1FFF7B7FF0028D6D0074B2F
:109824001B68002BD2D0BDE810401847034B1B68BF
:10983400002BE6D09847E4E774350020703500200B
:1098440008B50020FFF788FF08B1062806D10120DB
:10985400FFF782FF10B1062808BF002008BD0000F2
:109864000D4B10B518600C4629B10120FFF7EEFE30
:1098740040B102232370094B1B6853B9BDE8104063
:10988400FFF782BFFFF7E2FE08B10B23F2E7207077
:10989400F1E7002010BD00BF7035002074350020B2
:1098A40075DF704776DF70477FDF70478ADF704768
:1098B4008CDF70478FDF704708B508490848FFF709
:1098C400F5FF08B1FDF704FB0120FFF7C5FE18B151
:1098D400BDE80840FDF7FCBA08BD00BF102D00200C
:1098E40032C402000146014800F0EABF703600208D
:1098F40030B503881D2B87B0044635D024D8132BEC
:1099040000F08C801B2B70D0102B22D14E4B4F4972
:109914001888000440F00300FDF726F80022A1880F
:109924004B4801F0DDF808B1FDF7D2FA0720FFF744
:1099340093FE08B1FDF7CCFAA188464800F046FD35
:1099440038B1FDF7C5FA04E0212B74D003D81F2BDE
:109954006BD007B030BD3B2B01D0562BF9D113216E
:10996400A088FFF79FFFEBE7818C3B4A006A364DE6
:1099740000F02AFB002830D00123384A384904F18A
:109984000A00FFF795FFA8B9FFF766FE08B1FDF7D7
:109994009FFA217C28880391E17B0291A17B0191AC
:1099A4000004617B0091237BE27A2E4940F003009E
:1099B400FCF7F2FF2888236A2B491A78000440F048
:1099C4000300FCF7D5FF288894F91B2027490004DD
:1099D40040F00300FCF7CCFFBBE72549FFF766FF27
:1099E4000028E7D0FDF774FAE4E7037A012B0AD1E3
:1099F400154B20491888000440F00300FCF7B4FF1D
:109A0400FFF75AFFA5E7022BA3D10F4B1A49188879
:109A1400000440F00300FCF7A7FF9AE700231A466E
:109A240085218088FFF740FF8AE700F108018088DC
:109A3400FFF736FF84E706A9002321F8043D808858
:109A4400FFF738FF7CE700BFF429002000C30200C1
:109A540070360020422A00202EC4020026C40200D0
:109A640032C40200C0C20200EEC20200F7C2020009
:109A7400102D002014C3020024C302000378012B1C
:109A840070B5044634D002D3022B24D070BD1B4CD5
:109A94001B4D20882844FDF707FE238801339BB221
:109AA4001D44238015F8012C0A2A03D0154A128874
:109AB4009A42EBD8124D144E22882946304600F0C3
:109AC400D7FF082804D01128F6D008B1FDF700FA12
:109AD40000232380DAE70D4B0D491888000440F079
:109AE4000100FCF741FF6068BDE87040FDF7F0B984
:109AF400064B084918880004F1E700BF6C360020C3
:109B040078350020402A002070360020F4290020F7
:109B140086C40200B8C4020010B504460020FFF752
:109B24009BFD08B1FDF7D4F924B9FFF789FE08B10C
:109B3400FDF7CEF9012010BD0A8840F677239A423A
:109B440070B50D4616D10C4C0C492088000440F029
:109B54000300FCF709FFAB882088094A0949033B45
:109B64009BB20004138040F003001A46BDE8704025
:109B7400FCF708BF70BD00BFF4290020E1C3020058
:109B8400402A0020FDC30200042808B506D00A2894
:109B940010D10020BDE80840FEF73EB9064B132162
:109BA4005888FFF77FFE30F0080303D0BDE8084073
:109BB400FDF78EB908BD00BF703600202DE9F84FBF
:109BC4000B78012B06460C4624D003D3022B66D017
:109BD400BDE8F88F384D39492888000440F0030067
:109BE400FCF7C2FE04F10E026188304600F078FFF3
:109BF40008B1FDF76DF9304600F018FF08B1FDF724
:109C040067F928882E49000440F00300BDE8F84FA6
:109C1400FCF7AABE8E680C7BDFF89CA0DFF8B0B01E
:109C24001FFA84F937460025A54209D3344414F8B1
:109C3400013C0D2B1AD10A20FDF74CFD1128F9E740
:109C44003878FDF747FD804668B11128F8D0BAF896
:109C54000000000440F001002A465946FCF788FE43
:109C64004046FDF735F901350137DDE7154D4A4624
:109C74003146284600F0FCFE04460028A8D01128EE
:109C8400F5D00D4B104918880004224640F001001D
:109C9400FCF76EFE2046BDE8F84FFDF719B9064BF8
:109CA4000A491888000440F00300FCF75DFEBDE893
:109CB400F84FFFF701BE00BFF429002042C30200A1
:109CC40056C3020070360020AAC30200D3C30200A8
:109CD40084C3020008B50849084800F0F9FC08B13B
:109CE400FDF7F6F8F721054800F007FD18B1BDE8C7
:109CF4000840FDF7EDB808BD3D9B0200803600200A
:109D040000B54FF400418BB00020FCF765FC08B1AE
:109D1400FDF7DEF8FCF790FBFDF75CFB08B1FDF7FF
:109D2400D7F8324D0FCD04AC0FC495E80300304B87
:109D3400304A00934FF4807384E80300CDE9022392
:109D440001932D4A0723694604A8FDF755FC08B181
:109D5400FDF7BEF829490120FFF78AFC08B1FDF799
:109D6400B7F804A90020FFF77BFD08B1FDF7B0F8B0
:109D7400234800F0F1FA08B1FDF7AAF8FEF710F84D
:109D840008B1FDF7A5F800F003FF08B1FDF7A0F84E
:109D9400002304A90120049300F08EFF08B1FDF70D
:109DA40097F804A801F050F808B1FDF791F8FFF70F
:109DB40091FF144B1448049304A900F0D1FD08B199
:109DC400FDF786F8114801F0DBF9114B11491888A9
:109DD400000440F00300FCF7C7FDFFF76DFDFCF73E
:109DE40061FC0028FBD1FDF7F1FFF8E7A8C20200EF
:109DF400B3360020B3370020819A02008D9B020005
:109E0400E9980200C19B02007036002040C40200A1
:109E1400F429002064C402000369C1688B429DBF19
:109E24008268D21802F1FF3203F1FF3394BF501A53
:109E3400581A70472DE9F041D0E902670446F61B31
:109E44004068964288461546384405D901F0C8F959
:109E54003D44E560BDE8F0813246AD1B01F0C0F938
:109E64002A4608EB0601606801F0BAF9F1E72DE92A
:109E7400F843C5680646894617464FF0000834691A
:109E8400B3687068A54228BFE418013C621B5C1BE0
:109E9400BC4228BF3C46944228BF14464946284445
:109EA400224601F09DF9B3682544AB4208BF002562
:109EB4003F1BA044A144F560E1D14046BDE8F883CE
:109EC40010B5114C114AA2610223C4E90433104BAA
:109ED400E361A2644FF400730E4A2362E264002338
:109EE40010220D49A362E01D6362E362A36563650A
:109EF400E365226501F0D0F90849204601F0CCF968
:109F04002023A37110BD00BFB4380020E4C40200B4
:109F14003C3900202C390020EDC40200F1C40200B9
:109F2400F8B5184C182300FB033503FB0040254407
:109F3400C46A012C0F46164611D003D3022C1BD041
:109F440000240AE02846FFF767FF864205D8324618
:109F540039462846FFF76EFF34462046F8BD2846AA
:109F6400FFF75AFF8642344628BF04462246394644
:109F74002846FFF75FFFF0E72846BDE8F840FFF703
:109F840076BF00BFB4380020FFF79ABF64DF704784
:109F940070B5C0B14AB116880024B44203D3051980
:109FA4006D789D4208D0A14201D800200BE0055DE8
:109FB40001352C44A4B2F0E7A142F6D9A31C1380C6
:109FC400005D013880B270BDF0B587B0002306464D
:109FD4000D461046ADF8063002AA10230DF1050116
:109FE4008DF80530FFF7D2FF16B9002007B0F0BD99
:109FF4000028FAD19DF80530042B06D0102B2DD063
:10A00400022BF3D11C46032301E01C460523BDF8B3
:10A0140006207AB90DF1060229463046FFF7B8FF4B
:10A02400BDF806302BB923460DF106023046FFF782
:10A03400AFFF0546BDF80670002FD6D00024A54218
:10A04400D3D9E0199DF8052002A9304401F061F844
:10A0540038B19DF805301C44A4B2F0E70624072368
:10A06400D5E70120C2E79BDF70479DDF70479EDF85
:10A074007047000030B50C4B0C4A19680023994214
:10A0840001D100200CE002EB8304A5788478A5427A
:10A0940007D132F823500488A54202D1044B186832
:10A0A40030BD0133EBE700BF443B00204C3E0020B1
:10A0B4003C3B002070B590F8C63216467622A0B01C
:10A0C40002FB03000D46FFF7D5FF044660B17C2276
:10A0D400002101A801F0ADF801238DF80430ADF89A
:10A0E4000660029501A8A04720B070BD2DE9F74F86
:10A0F40090F8C6B24FF0760A80460BFB0A00CDE911
:10A104000012FFF7B7FF814648B3164F3D68052D8F
:10A1140025D8154C019AEE01A0190AFB0B81428047
:10A124005246043001F05CF8009B63B10023A35550
:10A1340026440135C6F87C900C4E3D603268954249
:10A144000DD1002506E00223F1E704EBC51001352B
:10A15400C36F984733689D42F7D300233B6003B035
:10A16400BDE8F08F483E0020483B0020443B0020DF
:10A1740037B590F8C53290F8C6220C46BBB1013B06
:10A184007621DBB25143122505FB031303445B8A9A
:10A194000133ADF80430762303FB020201A91389CD
:10A1A400ADF806302046FFF760FF03B030BD7623DC
:10A1B40003FB0203DB88ECE738B54FF433720D463A
:10A1C4000021044601F035F8114AA4F8CA520023CC
:10A1D4001360104A84F8C9321268226084F8C632C7
:10A1E40084F8C532224601212846FFF73CFF112896
:10A1F40006D020B9012384F8C73284F8C80238BDD8
:10A20400012284F8C72284F8C8221846F7E700BF61
:10A21400483E00204C3E002070B50C4690F8C92200
:10A22400174901320968D2B28A42034680F8C9222A
:10A234004FF0000521D290F8C61280F8C5520131C2
:10A24400C9B280F8C612762011FB00F00D4E1A1820
:10A2540056F821101950012115712046FFF703FF0C
:10A26400014648B183F8C75222461846FFF722FF39
:10A27400054B03221A705C8070BD80F8C752F7E763
:10A28400443B00204C3E0020483B00202DE9F74F82
:10A2940090F8C64290F8C562762314FB03F700EBEE
:10A2A40007084FF0120C98F804E01CFB0673741CAA
:10A2B4000A337445034419D006EBC6056D004419EE
:10A2C4003C4405EB07090EF1FF3A00271C3406EB6A
:10A2D400070B5FFA8BF5AE450DD9DA451D891CD104
:10A2E400B8F808309D422AD1002321E01B89B8F830
:10A2F4000800834205D101230B70002003B0BDE8A0
:10A30400F08F0133ADF80430ADF8060000230B7074
:10A31400104601A9FFF7ABFEF0E70CFB07F309EBCE
:10A32400030B83440135BBF822B05D450DD12344B2
:10A3340090F8C552013580F8C5520137C7E7013599
:10A34400ADF80450ADF80630E0E70BF1FF3BADF893
:10A354000450ADF806B0D9E758B1074A002313609A
:10A36400064A01211170064A1360064A1060184615
:10A3740070470E20704700BF443B0020403B002044
:10A38400483E00203C3B002010B5044680B10C4BF5
:10A394001B787BB1FFF76EFE70B90A4A1368052B70
:10A3A4000CD80949246841F823400133136010BDD7
:10A3B4000E20FCE70820FAE70020F8E70420F6E77F
:10A3C400403B0020443B00204C3E002050B1084A52
:10A3D40012784AB1074A126832B190F8C7322BB9E1
:10A3E400FFF7EABE0E20704708207047112070471F
:10A3F400403B0020443B00202DE9F7430C46054632
:10A40400C8B1C1B18C4B1B78ABB10388302B35D0AC
:10A4140014D8112B00F0008194F8C8325BB12B885A
:10A42400303B1F2B07D8AB88B4F8CA12994202D12B
:10A434002046FFF7C1FE03B0BDE8F083322B42D0C3
:10A44400332BE9D18288B1F8CA329342E4D1C68869
:10A4540091F8C6C291F8C572002E00F0A280762150
:10A4640001FB0C4C7B1C9CF8041000268B428DF8DD
:10A47400076000F0C68084F8C53289E08388B1F8AB
:10A48400CA229A42C8D1C688A6B991F8C632C06811
:10A49400762113FB01F3E118E0502B69C1F8063073
:10A4A40020461146FFF764FE01460028B4D084F824
:10A4B400C7624BE000212046FFF718FEA98820461A
:10A4C400FFF7AAFEA8E78288B1F8CA329342A3D163
:10A4D400C388002B59D191F8C602762310FB03F0F0
:10A4E40001EB000CA97A9CF8043019440629C8BF72
:10A4F400062100F10A0E12208CF8041010FB03E16F
:10A5040005F10C0860184FF000099CF804108B4208
:10A5140008F10A0800F1120022D31220013B00FBCB
:10A52400034373441889BCF8083098422DD2062995
:10A534002BD084F8C51220461146FFF719FE0146B8
:10A5440000283FF469AF002384F8C732AA88204664
:10A55400FFF7B0FD394B03221A70AA885A805BE7D3
:10A564004746013357F80A1D40F8121C796840F831
:10A574000E1C398920F80A1C20F8089C20F8069C37
:10A5840020F8049C20F8029CBFE7002684F8C562EA
:10A594000DF107012046FFF779FE0146002833D06C
:10A5A40085E7762303FB0CF1122303FB0713B0F8B2
:10A5B4000AE023447645BFF452AFC189A1F5245182
:10A5C400082908D8DFE801F014170507070707076B
:10A5D4001A0081899982998A39B1D98A29B1198B4A
:10A5E40019B1598B00297FF43AAF01360630E1E7FF
:10A5F4008189D982EFE781891983ECE781895983BD
:10A60400E9E701238DF807309DF80730002B3FF46C
:10A6140003AFAA8801214EE78288B1F8CA329A4270
:10A624007FF4FAAE002381F8C73281F8C8324FF6BE
:10A63400FF73A1F8CA32EFE6403B0020483B0020FC
:10A6440090DF7047A5DF7047B5DF7047F0B585B080
:10A654000023ADF80810ADF80A106A4602A90746AF
:10A6640003930093ADF80430FFF7EAFF064618B3EE
:10A67400134C2588FDF75EFC2D0445F001050346C7
:10A684003A4610492846FCF77DF9BDF80020BDF88C
:10A69400023002B933B120880B49000440F00100B4
:10A6A400FCF770F9BDF8042032B120880749000492
:10A6B40040F00100FCF75CF9304605B0F0BD00BF86
:10A6C400082A002004C502004EC502008DC5020000
:10A6D40088B14FF0F7130360FB230371F723C380A2
:10A6E4001723038141F6FB32002301618372C37295
:10A6F4008281184670470E20704730B1A1F11703CC
:10A70400E02B04D84180002070470E2070470720BA
:10A714007047000037B5034680880C46A0B91A88F4
:10A72400232A00F0AD8011D8102A25D0112A53D045
:10A73400A37A4BB1E1880020FFF784FF002840F0A2
:10A74400A5800123A072E37203B030BD3A2A4DD034
:10A75400552A67D0242AEBD11A7A0B694A73002B45
:10A76400E6D04DF67A21ADF80400ADF80010ADF84E
:10A7740002008DF804207FE0DB7B0A790A73012B49
:10A7840013D0022B14D0E18823898B4205D20020F8
:10A79400FFF758FF70B90123E372217B637B8B427F
:10A7A400C6D20020FFF752FFC2E70B88E380EAE736
:10A7B4004B88FBE7112802D10123A372EDE73B4B41
:10A7C4001D88FDF7B7FB2D0445F001050246384905
:10A7D4002846FCF7CDF8E0E7F723CB8017230B815D
:10A7E40041F6FB338872C8728B81A1E75B89CA8802
:10A7F400934228BF1346172B0A6938BF17230B81CE
:10A8040062B1C97A51B140F67721ADF80010ADF8C4
:10A814000200ADF804306946204690470023E372F5
:10A82400A37285E7DB88C988A072172B38BF17236A
:10A834008B4228BF0B462381FFF706FF58B11B4B01
:10A844001D88FDF777FB2D0445F0010502461949E3
:10A854002846FCF78DF8E27A002A7FF469AF236971
:10A86400002B3FF465AF40F67721ADF80220228932
:10A87400ADF80010ADF8042069462046984757E724
:10A88400197A237B994228BF19468BE711283FF494
:10A894005BAF064B1C88FDF74DFB240444F0010418
:10A8A400024603492046FCF763F84DE7082A0020D6
:10A8B400E3C5020014C60200A3DF704762DF7047DD
:10A8C4002DE9F0410C4686B005461422002101A86A
:10A8D40000F0AFFC23785BBBA288012A28D1A179C0
:10A8E4002A78914224D1277ABDF81260BDF8140069
:10A8F400BDF816C0122111FB074122461F469E4691
:10A90400914218D1BEF1000F01D0ADF816C00FB1BD
:10A91400ADF812600BB1ADF81400EB6843B1628876
:10A92400ADF8062000228DF8042001A92846984796
:10A9340006B0BDE8F081B2F80E80B8F1020F04D081
:10A94400B8F1030F06D01232DAE7B2F816C04FF0AE
:10A95400010EF8E70123D68A108B1F46F3E70000A7
:10A96400F0B5164A87B002AC03460E4602F1100C4D
:10A97400274610685168254603C5083262452C46AF
:10A98400F7D1C3B1BEB119463846FFF797FF80B976
:10A994001A788DF8062006AA012122F8141D4FF614
:10A9A400FF7159803168D960988018811046FFF78B
:10A9B400EBFC07B0F0BD0E20FBE700BF50C6020061
:10A9C4007FB503460846F9B1F3B14A884FF6FF71E3
:10A9D4008A4202D09988914216D11988112916D039
:10A9E400392911D182887AB1598991420CD1C2682E
:10A9F40052B101218DF8041003F11001DB89039198
:10AA04008DF8103001A9904707B05DF804FB9B88CE
:10AA14009342F9D1C368002BF6D006A9022201F8AB
:10AA2400142D4FF6FF7242809847EDE71FB5034699
:10AA3400D0B140884FF6FF72904217D0DB88ABB19B
:10AA44000122ADF80020ADF8063040F201124FF4B7
:10AA5400003301A9ADF804200293CDF80CD0FFF720
:10AA64002BFF05B05DF804FB0E20FAE70820F8E799
:10AA74001FB5034660B3F42A0AD9164B1649188841
:10AA8400000440F00200FBF76FFF072004B010BD84
:10AA940040884FF6FF74A04209D10E4B0F49188825
:10AAA400000440F00200FBF75FFF0820EEE71B897B
:10AAB400ADF806304FF481740023039101A9ADF879
:10AAC4000440ADF80830ADF80A20FFF7F5FEDDE7E5
:10AAD4000E20DBE7002A002060C6020072C60200D6
:10AAE40048B141802AB15388C380138883809388F6
:10AAF4000381002070470E20704710DF704700006C
:10AB040013B5044609496846FDF7E0F9019808B908
:10AB140002B010BDD0E900312046984718B168460C
:10AB2400FDF7DEF9F2E71120F2E700BF9CC6020050
:10AB340013B5044607496846FDF7C8F9019B0BB9EC
:10AB440002B010BD2046D3E9002190476846FDF7C6
:10AB5400C7F9F3E7B4C602000B4A92F816335B094F
:10AB6400012B08D9042B06D0084B996839B94FF446
:10AB740080031360704742F20200FCF7A9B91A6817
:10AB840042F480021A60704700E100E0F4330020D0
:10AB9400F7B51B4F3C788CBB1A4E01252046357007
:10ABA400FFF7AEFF112826D02046FFF7C1FF164B52
:10ABB4001868019002A800F8054DFCF7B3FD13498D
:10ABC40001A8FFF79AFF0446B0FA80F040093870F4
:10ABD4009DF80300FCF7CAFD6CB90D4B34701C7072
:10ABE4000C4BE02283F8162383F81523FFF7B4FFF8
:10ABF4002846FFF79DFF204603B0F0BD0824FAE77E
:10AC0400653E0020643E002095C60200F16E0200FD
:10AC1400663E002000E100E0014B1878704700BF59
:10AC2400653E002007B508496846FDF74FF9019BCA
:10AC340013B903B05DF804FBD3E9002090476846DC
:10AC4400FDF74EF9F3E700BFA8C60200FFF7EABF1D
:10AC540060DF704769DF704761DF704730B5114DC1
:10AC6400ADF5017D4FF4FA740DF1020103A8ADF8BE
:10AC74000240FFF7F1FF70B9294601A8FDF726F954
:10AC8400029B002BF0D003A8D3E90021904701A830
:10AC9400FDF726F9F4E7052801D0FCF719F90DF5BD
:10ACA400017D30BD38C90200024B1B780BB1FFF7A0
:10ACB400D5BF7047673E00207FB506460C46002985
:10ACC40000F0AF80584B0B600C22002101A800F06B
:10ACD400B0FA01238DF8063022688DF8046006234B
:10ACE40001A92020ADF80830FFF7B4FF58B14F4B4D
:10ACF4001D88FDF71FF92D0445F0010502464C4956
:10AD04002846FBF735FE0C22002101A800F091FA39
:10AD140000238DF805302268012301A940208DF815
:10AD240006308DF80730FFF795FF58B13F4B1D886B
:10AD3400FDF700F92D0445F0010502463D4928467A
:10AD4400FBF716FE0C22002101A800F072FAF7238B
:10AD540022688DF8046001A92320ADF80630FFF7BE
:10AD640079FF58B1314B1D88FDF7E4F82D0445F007
:10AD74000105024630492846FBF7FAFD0C22002162
:10AD840001A800F056FA012022688DF8040001A9F8
:10AD9400FFF760FF58B1254B1D88FDF7CBF82D0454
:10ADA40045F00105024625492846FBF7E1FD0C2242
:10ADB400002101A800F03DFA4FF4B063226801932A
:10ADC40001A9A120FFF746FF58B1184B1D88FDF7D4
:10ADD400B1F82D0445F00105024619492846FBF750
:10ADE400C7FD0C22002101A800F023FA9DF80430CD
:10ADF40022686FF3000301A9A0208DF80430FFF747
:10AE040029FF60B1094B1C88FDF794F8240444F031
:10AE1400010402460B492046FBF7AAFD002004B0BA
:10AE240070BD0E20FBE700BFE0290020102A00209F
:10AE3400C8C602000EC702005AC70200A1C702001A
:10AE4400EDC702003EC80200F8B504460768FFF7E4
:10AE5400FFFE2368BB42054620D91A4E1A493088A2
:10AE6400000440F00200FBF77FFD30882368174997
:10AE740000043A4640F00200FBF784FD4FF0805393
:10AE84003088D3F80C31226811499B0203F1005336
:10AE940000049A1A40F00200FBF76AFD25B90D4B35
:10AEA40001221A702846F8BD064B28461C88FDF777
:10AEB40041F8240444F00104024607492046FBF704
:10AEC40057FDEFE7102A002091C80200C0C8020015
:10AED400F1C80200673E00201BC902004BDF704727
:10AEE4001FB50D4C01A8FFF7F9FF70B9214602A860
:10AEF400FCF7ECFF039B002BF4D00198D3E900216D
:10AF0400904702A8FCF7ECFFF4E7052801D0FBF713
:10AF1400DFFF04B010BD00BF50C9020053EA020CA9
:10AF240061D02DE9F04BB3FA83F51E0007BFB2FAE6
:10AF340082F502FA05F403FA05F41646C5F1200574
:10AF44001EBF22FA05F73C43203556EA044C4FEA6B
:10AF5400144418BF0134A3464FF00009C846904278
:10AF640071EB030C39D3094207BFB0FA80F700FA3A
:10AF740007F6B1FA81F701FA07F6C7F120071EBFF9
:10AF840020FA07FC46EA0C062037B6FBFBFC7F1BC5
:10AF9400103F07F01F04C4F120060CFA04F42CFA45
:10AFA40006F644BF34460026202FA4BF26460024BC
:10AFB40054EA060C08BF012418EB040849EB0609FF
:10AFC400A4FB027CC01B06FB02CC04FB03CC71EB8C
:10AFD4000C01904271EB030CC5D20B460246494664
:10AFE4004046BDE8F08BB2FBF3F200007F2805D8A1
:10AFF400034B185C034B5B5C1840704700207047A0
:10B0040068C90200E8C90200A0F16103192B98BFC6
:10B0140020387047A0F14103192B98BF20307047A6
:10B024007F2805D8034B185C034B5B5C18407047C2
:10B034000020704768C90200E8C90200A0F161035A
:10B04400192B98BF20387047A0F14103192B98BFE2
:10B05400203070477F299ABF017001206FF02E00C5
:10B0640070475AB10A787F2A0AD800B102600021D9
:10B0740019605960501A18BF0120704700207047AA
:10B084006FF02E00704738B504460846A26842B1F6
:10B09400236861685D1C8D4208BF00208B4208D282
:10B0A400D054E3682BB121686268914201D22146F1
:10B0B400984723680133236038BD70B54C1E09D40A
:10B0C4001646C5B229463046FFF7DDFF013CB4F110
:10B0D400FF3FF7D170BD10F0100F09D108B500F48F
:10B0E4000070002814BF30202020FFF7E6FF08BDC1
:10B0F4007047000008B5034B5B689B681B68984762
:10B1040008BD00BF182D002008B50921FFF7F2FF84
:10B1140008BD92B370B4134640EA010212F0030F63
:10B1240017D05A1E10D004780B789C420CD1431CC3
:10B134004C1C024418462146934205D00133013485
:10B1440006780D78AE42F5D000780B78C01A70BC42
:10B1540070470F2BE5D904680A689442E1D1041DB5
:10B164000A1D20461146043B042BDAD90434043268
:10B1740006680D68AE42F4D0D3E7002070470000A3
:10B184000FB410B586B008AB53F8044B05930023F5
:10B1940003936FF000430293084B049300F0CEF83E
:10B1A400059A214601A800F0D9F8044600F0C7F832
:10B1B400204606B0BDE8104004B07047F5620200B6
:10B1C40003784BB151B10144034613F8012F0AB17E
:10B1D4008B42FAD1181A70470346FBE70346F9E796
:10B1E400844640EA010313F0030F18D18446202A51
:10B1F4000BD32DE9F007B1E8F807A0E8F807A2F1AE
:10B204002002202AF7D2BDE8F007042A07D351F818
:10B21400043B40F8043BA2F10402042AF7D2002ABA
:10B2240005D011F8013B00F8013B013AF9D1604621
:10B2340070478446002A2DD010F0030F04D000F884
:10B24400011B013A26D0F7E7C9B241EA012141EADC
:10B254000141202A12D3A2F120022DE9F0030B466A
:10B264000C460D460E460F4688468946A0E8FA036A
:10B27400203AFBD2BDE8F00320320BD0042A05D3D8
:10B2840040F8041B043A05D0042AF9D200F8011B43
:10B29400013AFBD160467047024610F0030F16D105
:10B2A40011F0030F13D12DE9F0004FF001374FF0E7
:10B2B400803351F8044BA4EB070525EA04051D402F
:10B2C40002D142F8044BF4E7A1F10401F0BC11F8F7
:10B2D400013B02F8013B002BF9D1704700F1010159
:10B2E40010F0030F11D010F8012B002A23D010F016
:10B2F400030F0AD010F8012B002A1CD010F0030F02
:10B3040003D010F8012B002A15D02DE970004FF05E
:10B3140001324FF0803350F8044BA4EB020525EAC8
:10B3240004051D4000D1F6E7A0F1040070BC10F83C
:10B33400012B002AFBD1A0EB010070477047704736
:10B3440010B504460146172000F0A0FB00280CBFEE
:10B3540020464FF0FF3010BD704770472DE9F04F85
:10B3640089B080460F46039200230360DFF81CA6D1
:10B3740080E3002502E045F040052646344614F8F3
:10B38400010BA0F120033E2B00F2948001A252F89D
:10B3940023F000BF7BB30200B9B40200B9B40200C9
:10B3A40095B40200B9B40200B9B40200B9B4020001
:10B3B4009BB40200B9B40200B9B40200B9B40200EB
:10B3C400A7B40200B9B40200ADB40200B9B40200DB
:10B3D400B9B40200B3B40200B9B40200B9B40200B3
:10B3E400B9B40200B9B40200B9B40200B9B402009D
:10B3F400B9B40200B9B40200B9B40200B9B402008D
:10B40400B9B40200B9B40200B9B40200B9B402007C
:10B41400B9B40200B9B40200B9B40200B9B402006C
:10B42400B9B40200B9B40200B9B40200B9B402005C
:10B43400B9B40200B9B40200B9B40200B9B402004C
:10B44400B9B40200B9B40200B9B40200B9B402003C
:10B45400B9B40200B9B40200B9B40200B9B402002C
:10B46400B9B40200B9B40200B9B40200B9B402001C
:10B47400B9B40200B9B40200B9B40200B9B402000C
:10B48400B9B40200B9B40200B9B40200A1B4020014
:10B4940045F0800571E745F400456EE745F48055B5
:10B4A4006BE745F0200568E745F0100565E745F4CE
:10B4B400007562E72A2814D0A0F13003DBB2092B0F
:10B4C4000DD8002101EB8101303800EB410114F863
:10B4D400010BA0F13003DBB2092BF3D90CE00021FE
:10B4E4000AE0039B1A1D039219680029BCBF494254
:10B4F40045F01005B41C707821EAE1762E280FD0AF
:10B504000021742830D07A282ED06C2800F0AC802A
:10B514004C2800F0AE80682800F0BB80274625E068
:10B5240020782A2815D00134A0F13003DBB2092B8E
:10B534000DD8002101EB8101303800EB410114F8F2
:10B54400010BA0F13003DBB2092BF3D907E0002192
:10B5540007E0039B1A1D03921968607802340029DE
:10B56400CFDB45F48075CCE7671C2078782800F29F
:10B574009C80DFE810F05C029A009A009A009A001E
:10B584009A009A009A009A009A009A009A009A00E7
:10B594009A009A009A009A009A009A009A009A00D7
:10B5A4009A009A009A009A009A009A009A009A00C7
:10B5B4009A009A009A009A009A009A009A009A00B7
:10B5C4009C009A009A009A009A009A009A009A00A5
:10B5D4009A009A009A009A009A009A009A009A0097
:10B5E4009A009A009A009A009A009A009A009A0087
:10B5F4009A009A009A009A009A009A009A009A0077
:10B604009A009A009A009A009A009A009A009A0066
:10B614009A009A009A009A009A009A009A009A0056
:10B624009A009A009A000A019A009A009A009A00D5
:10B634009A009A009A009A009A009A00A100470181
:10B644009A009A009A009A0047019A009A009A0078
:10B654009A00BA003401F3009A009A00CD009A00CF
:10B6640040019A009A000C01671C207845F00105FE
:10B674007CE745F00105C14B1F68002F00F0C58130
:10B6840003AB0193009133462A464146B847274607
:10B69400F0E12078682803D0671C45F0040565E7CD
:10B6A40045F00805A71C607860E73C46E3E72521E0
:10B6B4004046FFF7E8FCDDE1039B1A1D03921C786A
:10B6C400013E424631462846FFF705FD21464046E5
:10B6D400FFF7D9FCA94619F0100F00F0CB814246C0
:10B6E40031462020FFF7E9FCC4E115F0080F07D02C
:10B6F400D8F80020039B191D03911B681A70B9E147
:10B70400039B1A1D03921B68D8F800201A60B1E14C
:10B71400039B1A1D03921868994B002808BF18460A
:10B72400044625F4007915F4807F13D0FFF748FD13
:10B734000546761B424631464846FFF7CCFC002DB1
:10B74400C9D0254414F8011B4046FFF79CFCA542D0
:10B75400F8D1C0E7FFF7C2FD0546EAE7039B1A1DCF
:10B7640003921B6805F08002002A0CBF00242324E6
:10B7740045F480750821002B00F02D814FF000095D
:10B7840005F4005005AA8E46D4E045F4005515F0A2
:10B79400800F22D043F2780443F25803782818BF6C
:10B7A4001C4615F4807F01D025F4007515F4804FF4
:10B7B40036D0039B1A1D03921B6815F0040F27D083
:10B7C4001BB2002B29DB15F0200F40F0868005F01A
:10B7D4004002002A18BF20242AE00024E1E705F0F3
:10B7E4008003002B0CBF0024302415F4807FDDD0AF
:10B7F40025F40075DAE715F4807F07D025F4007589
:10B804000024D3E745F480450024CFE70024CDE7A6
:10B8140015F0080F18BFDBB2D3E75B422D2407E015
:10B82400039B1A1D03921B6815F0040F50D09BB2A2
:10B8340015F4807F14BF25F40075012158382028A1
:10B8440000F2C68001A252F820F000BF7BB70200CC
:10B85400D5B90200D5B90200D5B90200D5B90200A4
:10B86400D5B90200D5B90200D5B90200D5B9020094
:10B87400D5B90200D5B90200D5B9020005B9020054
:10B88400D5B90200D5B90200D5B90200D5B9020074
:10B8940005B90200D5B90200D5B90200D5B9020034
:10B8A400D5B90200D5B90200E3B802007BB70200A3
:10B8B400D5B90200D5B90200D5B90200D5B9020044
:10B8C40005B90200D5B90200D5B902007BB7020060
:10B8D40015F0080FACD0DBB2AAE72B24A8E763B1BC
:10B8E40005A84FF0000903F00702303200F8012BDD
:10B8F40009F10109DB08F6D127E04FF0000924E043
:10B9040053B14FF0000905F4004C4FF02C0E9B4648
:10B9140063468C4619464CE04FF0000915E003F0ED
:10B924000F0C184911F80CC009F802C009F10109FB
:10B934001B0909D00028F2D003F00F0C124911F8AA
:10B944000CC009F802C0F1E77146A1EB090B2BEA20
:10B95400EB7BA6EB0B06A6EB0906FF2C88BF06F1D2
:10B96400FF36002C66D0013E15F4007F36D0FF2C44
:10B974003ED8E1B24046FFF786FB5EE0683E002019
:10B98400C8CB0200A8CB0200B8CB0200CDCCCCCCF3
:10B9940008AB03EB0900AAFB0B32D20802EB8203CB
:10B9A400ABEB4303303300F80C3C09F10109934637
:10B9B40062B10029ECD009F00303032BE8D108ABF2
:10B9C4004B4403F80CEC09F10109E1E76146BCE7DB
:10B9D4004FF00009B9E74FF00009B6E74246314697
:10B9E4002846FFF778FBFF2C01D8002605E0002647
:10B9F400C4F307214046FFF746FBF4B1B9E74246DA
:10BA040031462020FFF759FB34E0274632E0D8F8CE
:10BA140008303BB1D8F80020D8F804108A423CBF63
:10BA240000219954D8F8000009B0BDE8F08F4FF018
:10BA3400FF30F9E715F4007FD0D04246314628465E
:10BA4400FFF749FB424659463020FFF736FBB9F170
:10BA5400010F0CD408AB9944A9F10D090DF113049D
:10BA640019F801194046FFF70EFB4C45F8D115F0C3
:10BA7400100FC4D17E1C39780029C8D025293FF481
:10BA840078AC4046FFF7FFFA3746F3E738B504468B
:10BA94000D46FFF761FC074B1D6044F08004064B24
:10BAA4001C601A461368002BFCD1FFF756FC014BAF
:0CBAB400186838BD703E00206C3E002079
:08BAC000998302000000000060
:04BAC8001D9B0200C0
