:020000022000DC
:1060000000F0002071630200596302005B6302002C
:106010005D6302005F630200616302000000000034
:1060200000000000000000000000000063630200A8
:1060300065630200000000006763020069630200FC
:106040006B6302006B6302006B6302006B63020010
:106050006B6302006B630200BD7002006B630200A1
:106060006B6302006B630200E58703006B63020051
:106070006B6302006B6302006B6302006B630200E0
:106080006B6302007D21040089C002006B63020083
:10609000E12104006B6302002DB803006B63020072
:1060A0006B6302006B6302006B6302006B630200B0
:1060B0006B6302006B630200000000000000000040
:1060C0006B6302006B6302006B6302006B63020090
:1060D0006B6302006B6302006B6302000000000050
:1060E00000000000000000000000000000000000B0
:1060F00000000000000000000000000000000000A0
:10610000000000000000000000000000000000008F
:10611000000000000000000000000000000000007F
:10612000000000000000000000000000000000006F
:10613000000000000000000000000000000000005F
:10614000000000000000000000000000000000004F
:10615000000000000000000000000000000000003F
:10616000000000000000000000000000000000002F
:10617000000000000000000000000000000000001F
:10618000000000000000000000000000000000000F
:1061900000000000000000000000000000000000FF
:1061A00000000000000000000000000000000000EF
:1061B00000000000000000000000000000000000DF
:1061C00000000000000000000000000000000000CF
:1061D00000000000000000000000000000000000BF
:1061E00000000000000000000000000000000000AF
:1061F000000000000000000000000000000000009F
:10620000354936480A1A02D0072291438D4634494F
:1062100034480A1A06D00722914381F309880222E2
:1062200082F3148830483149314A00F043F831484C
:106230003149324A00F03EF831483249324A00F0E2
:1062400039F832483249334A00F034F83248334999
:10625000334A00F02FF833483349344A00F02AF823
:1062600033483449344A00F025F834483449002290
:1062700000F02BF833483449002200F026F8334868
:106280003349091A082903DB002202600430016047
:106290001F482049884205D00268043003B4904763
:1062A00003BCF7E700208646EC4600200021294A7F
:1062B0009047FEE7884207D0521A05D00378013094
:1062C0000B700131013AF9D17047884202D0027057
:1062D0000130FAE77047000000F0002000E80020DD
:1062E00000F0002000F00020E8660400A02D00204F
:1062F0000C2F0020A8630200A86302000C440400D5
:10630000E8660400A02D0020A02D002058450400C0
:1063100058450400584504005845040058450400F9
:10632000584504005845040058450400E866040038
:10633000546804000C2F00200C2F00200C2F00208C
:10634000A9600020AC600020AC600020AC600020A0
:10635000AC640020ED670200FEE7FEE7FEE7FEE723
:10636000FEE7FEE7FEE7FEE7FEE7FEE7704700BF59
:106370000948804709484FF0070188438546084887
:1063800080470848016841F470010160BFF34F8FF6
:10639000BFF36F8FFFF734BF6D63020000F0002082
:0863A00059BE030088ED00E086
:1063A80041DF704710B50C46112000F0CDFD20707C
:1063B80010BD000010B582B00C460E4B1B6813F4DC
:1063C800804F03D00C4B1B68032B07DC211C18BF24
:1063D8000121112000F0C4FD02B010BD074BD3F815
:1063E80004350191064A00926E220649042006F0FF
:1063F80067FFEBE76C2E0020682E0020001001409C
:1064080004460400FA45040008B5142000F09CFD79
:1064180080F00101C9B2142000F0A2FD014800F08B
:1064280093FB08BDA02D002000B583B00F4B1B685F
:1064380013F4804F03D00E4B1B68032B0ADC032296
:10644800C8214FF4F01000F0A7FD0AF045FB03B097
:106458005DF804FB074BD3F80435074A00928622FF
:106468000649042006F02CFFE9E700BF6C2E002047
:10647800682E0020001001407C460400FA45040004
:1064880010B582B004462C4B1B6813F4804F03D020
:106498002A4B1B68032B04DC7CB1032C2ED002B0E2
:1064A80010BD274BD3F804350190264A0092962256
:1064B8002549042006F004FFEEE71F4B1B6813F480
:1064C800804F03D01D4B1B68032B0CDC112000F000
:1064D8003BFD80F00101C9B2112000F041FD1B48CD
:1064E80000F032FBDBE7164BD3F80435184A00926C
:1064F8009E221549042006F0E3FEE7E70AF086FA33
:1065080098B90D4B1B6813F4804FC8D00B4B1B6810
:10651800032BC4DD0A4BD3F804350E4A0092B2228D
:106528000949042006F0CCFEB9E70BF00FFF0AF08A
:1065380063FAFFF779FFB2E76C2E0020682E00207F
:10654800001001401C460400FA450400A02D00205C
:1065580030460400404604003038042800D970470B
:1065680008B5FFF78DFF08BD08B503781C2B00D0D0
:1065780008BDFFF759FFFBE700B58BB020220021CB
:1065880001A81DF0DAFE01238DF8043007238DF8E9
:10659800073006238DF80C30084B0593084B0993F8
:1065A800084901A80AF040FA10B90BB05DF804FBDD
:1065B800054AF72115F076FDF7E700BF716502007F
:1065C800916602002C2F00209045040008B5114A5E
:1065D80005214FF4103006F057FE1BF001FE70B98C
:1065E80000F01CFD0C4800F039FD68B900F002FF0E
:1065F80000F01EFF00F04AFFFFF7BEFF08BD074A84
:10660800FF2115F04FFDEBE7044A40F2031115F0A6
:1066180049FDEBE765D20200896402009045040059
:1066280000B583B00021114800F0B0FA58B9104BFA
:106638001B6813F4804F03D00E4B1B68032B07DC39
:1066480003B05DF804FB0C4A7E2115F02BFDEEE744
:106658000A4BD3F80435054A12880192084A009279
:106668007F220849042006F02BFEE9E7A02D002030
:106678006C2E0020682E0020904504000010014078
:1066880074450400FA45040008B5FFF7C9FF08BDC2
:1066980030B587B06421194800F0F0FB184B1B781F
:1066A8009BB101F011F800F03BFD0AF005FAF8B9CA
:1066B80000214FF4F01000F064FC0222C8214FF4CE
:1066C800F01000F069FC07B030BD6C460D4D0FCDE1
:1066D8000FC495E8030084E80300684600F06CFBEB
:1066E8000028DED0084A4FF4907115F0DBFCD8E79B
:1066F800054A40F2251115F0D5FCD9E7616502007D
:106708002C2F0020584504009045040010B504467D
:1067180000214FF4F01000F034FC4FF4FA7202FB41
:1067280004F2054B83FB0232121132214FF4C010E0
:1067380000F032FC10BD00BF1F85EB5108B500F01A
:106748005FFC08BD00B585B0204B1B6813F4804F73
:1067580003D01F4B1B68032B1FDC00F069FE00F001
:1067680095FE03A80FF0FCFF184B1B6813F4804F2D
:1067780003D0174B1B68032B1ADC00F041FC0021E7
:106788004FF4F01000F0FDFB0422C8214FF4F01084
:1067980000F002FC05B05DF804FB0E4BD3F804359D
:1067A8000D4A0092D4220D49042006F089FDD4E751
:1067B800084BD3F80435BDF80C200192084A009222
:1067C800DF220649042006F07BFDD6E76C2E002068
:1067D800682E00200010014098460400FA45040085
:1067E800B446040008B5FFF7F1FEFFF751FF194B57
:1067F8001B78A3B94FF0A0434FF40032C3F80C251F
:106808004FF48022C3F80C254FF40022C3F80C255E
:106818004FF48012C3F80C25FFF7C2FDFCE71BF00C
:10682800DFFC20B10C4A40F2311115F03BFC0B4A59
:1068380001210B481BF00CFD08B115F025FC0022C6
:106848004FF4203107481BF019FD0028D2D015F06D
:106858001BFCCFE72C2F0020904504001164020098
:10686800704504000C2F002030B583B0044615464F
:106878001C4B1B6813F4804F03D01B4B1B68032B66
:1068880011DCA36B04F13C012046984794F83C3096
:106898002B7094F83D306B70236C0BB1626C6AB14D
:1068A8006B6003B030BD114BD3F80435104A009229
:1068B800AA221049042006F003FDE2E71BF012FDAE
:1068C800A16C1BF015FD4FF47A7303FB00F0C00BAD
:1068D800236C834203D310B1181A6860E1E70023E0
:1068E8006B60DEE76C2E0020682E0020001001404F
:1068F800644704005547040010B588B00446436C4B
:10690800EBB9036C1BB190F83D20012A17D194F81C
:106918003D2084F83C208DF818208DF81920079325
:1069280006A920461BF0BEF894F84C303BB9636BBF
:1069380094F83C1020469847012384F84C30104BBB
:106948001B6813F4804F03D00E4B1B68042B01DC2B
:1069580008B010BD0C4BD3F8043594F83C2094F8DB
:106968003D10206C0490606C039002910192074ADC
:10697800009285220649052006F0A2FCE8E700BF40
:106988006C2E0020682E002000100140A84704004B
:1069980055470400F0B583B00446036B18681BF034
:1069A8008BFC636C8BBB236C6BB35E0CDD034FF409
:1069B8007A72002315F5FA7046F100011DF049FBC3
:1069C800B0F1807F35D204283CD9236B224601469A
:1069D80018681BF053FC05461BF084FCA06495B1B5
:1069E8001C4B1B6813F4804F0DD01B4B1B68002BEE
:1069F80009DD1A4BD3F80435194A0092682219495F
:106A0800012006F05DFC03B0F0BD226B15685F0C39
:106A1800DE034FF47A72002316F5FA7047F100018D
:106A28001DF017FB2246014628461BF027FC0546A9
:106A3800D5E7236B22466FF07F4118681BF01EFCD8
:106A48000546C9E7236B2246052118681BF016FC8A
:106A58000546C1E76C2E0020682E0020001001407A
:106A68008847040055470400F0B583B0044617462C
:106A78001E46089D1A4B1B6813F4804F03D0194B10
:106A88001B68032B1BDC002384F84C303B7884F80C
:106A98003D300EB373686364336823642046FFF7A0
:106AA8002BFF2046FFF776FF3DB194F83C302B7062
:106AB80094F83D306B70236C6B6003B0F0BD0A4BEB
:106AC800D3F8043512780192084A0092CC2208497A
:106AD800042006F0F5FBD6E7002363642364DDE7B2
:106AE8006C2E0020682E0020001001407047040022
:106AF800554704002DE930480446436CABB9056C92
:106B0800BDB14FEA554C4FEAC53B4FF47A720023AA
:106B18001BF5FA704CF100011DF09BFAB0F1807F73
:106B28000CD3A5F2FF15256403E000234364FFF7A7
:106B3800E3FE2046FFF72EFFBDE8308800232364DC
:106B48002046FFF7D9FEF4E710B582B00446836B00
:106B580000F13C01984794F83C3084F83D3000231C
:106B680063642364236B18681BF0A6FB94F83C301D
:106B78008DF8003094F83D308DF80130236C019386
:106B8800694620461AF08EFF02B010BDA0B110B5BC
:106B980004460D4AC262426B8AB1826B8AB11AF00E
:106BA8004BFF034608B1184610BD084A0021206B68
:106BB8001BF04EFB0346F6E70E23184670470E23DC
:106BC800F1E70E23EFE700BF80470400FD6A0200EB
:106BD8002C4B1B78002B54D000B585B0012804D06D
:106BE800032847D005B05DF804FB04A9002341F849
:106BF800083D012014F0C2FC48BB02A814F010FDA7
:106C080040BB04A9012341F8043D0DF1060010F032
:106C180085FB10BBBDF806000FF06AFF0DF10501FA
:106C280010F00CF9E0B90BF003F99DF805100020FD
:106C38000BF0CEFBB8B903F08DFFC0B9114B0022A1
:106C48001A70114B1B68002BCCD09847CAE715F077
:106C58001BFAD2E715F018FAD3E715F015FAD9E7B9
:106C680015F012FADFE7784600F0F0FCE3E715F0DC
:106C78000BFAE3E714F04AFD0028B3D015F004FA44
:106C8800B0E77047522F0020542F002008B5064B5C
:106C980001221A70054803F0C3FF03F0A3FF00B9EF
:106CA80008BD15F0F1F9FBE7522F0020F02D002068
:106CB80008B503781C2B00D008BD074B1B78002BA8
:106CC800FAD014F067FD18B9044803F0ADFFF3E7F4
:106CD80015F0DAF9F8E700BF522F0020F02D002058
:106CE80008B50849084815F06FFE034608B118466C
:106CF80008BD0323002205490969054815F080FEEF
:106D08000346F4E76C2F0020D8320020542F0020CF
:106D1800A431002008B50378023B082B3FD8DFE8F0
:106D280003F01C05113E3E2C3E3E36001E4B5B68B0
:106D3800002B34D0007A002831D01C4A0121117070
:106D480098472CE0184B9B684BB3184A127832B31B
:106D5800164A00211170984721E0154B1B784BB952
:106D6800114BDB681BB1114A002111709847FFF7DE
:106D7800B7FF14E0FFF78AFF11E010220A4B5969A8
:106D88000C4815F0C7FE50B115F07EF907E0816890
:106D9800C06809F0D1FD18B9054B01221A7008BD69
:106DA80015F072F9F8E700BF542F0020502F00208B
:106DB800512F0020A431002070B586B004461F4A28
:106DC80003AB07CA03C323F8022B120C1A701C4E1C
:106DD80035460FCC0FC594E8030085E803007369B6
:106DE80053B3184B009303AB174A1849184815F0CA
:106DF800A7FD034610B1184606B070BD154817F038
:106E08005DFA0146124815F0C7FD03460028F2D185
:106E1800114817F015FC03460028ECD10E4817F06E
:106E280045FC01460A4815F0B7FD03460028E2D1A3
:106E3800FFF756FF0346DEE70723DCE7E8470400D1
:106E4800542F00201D6D02006C2F0020D832002026
:106E5800A43100208C2F00205431002008B5064BA7
:106E68001B683BB112F022FE002803DB024B1B68B3
:106E78009847F7E708BD00BF1833002010B50C4647
:106E8800144B1860144A012114481BF0E1F9A0B909
:106E9800610CE00341F26F7200238B4208BF82420B
:106EA80010D24FF47A7200231DF0D3F80146002265
:106EB8000B481BF0E3F938B910BD0A4A4A2115F00E
:106EC800F1F8E5E70521F2E7064A4B2115F0EAF863
:106ED800F2E700BF18330020656E0200F447040093
:106EE8001C330020F847040008B5134B1B6873B126
:106EF8004FF0A042D2F80435104909684B40C2F857
:106F080004350D4A1368013B136023B108BD002006
:106F180015F0BAF8ECE70A481BF0CEF94FF0A0429A
:106F2800D2F804350549096823EA010305490968C7
:106F38000B43C2F80435E9E73C3300204033002016
:106F4800443300206C3300204FF0A043D3F80425CD
:106F5800012303FA00F002420CBF184600207047D4
:106F680039B9012303FA00F04FF0A043C3F808052C
:106F78007047012303FA00F04FF0A043C3F80C0553
:106F8800704721B94FF0A043C3F8080570474FF088
:106F9800A043C3F80C05704712B11346132900D853
:106FA800704770B5124A10605B00013B114A1360CC
:106FB8004FF0A043D3F8043518400F4B1860002653
:106FC8004D0CCC034FF47A72002314F5FA7045F196
:106FD80000011DF03EF83246014608481BF04EF904
:106FE80028B9034B1A684FF0A043C3F80C2570BDAD
:106FF800403300203C3300206C3300204433002011
:1070080008B504481BF058F90021034B1868FFF72E
:10701800B8FF08BD443300204033002008B51123D1
:107028000BE04FF0A04103F5E072032041F8220085
:1070380001229A40C1F808250133142BF1D9054AD9
:10704800012105481BF004F900B908BD15F01CF82A
:10705800FBE700BFF16E020064480400F0B1104A7B
:107068001060002309E00F4AD25C02F5E0724FF08D
:10707800A0410D4841F822000133032BF3D90B4BF3
:107088004FF00042C3F804230020C3F87C01084BEA
:10709800C02283F8062340221A6070470E207047EA
:1070A80064330020684804000C00030000600040BE
:1070B80000E100E010B50024144BC3F87C410EE059
:1070C80043F23333994208D9114BD3F80425114BB5
:1070D8001A60114B1B68204698470134E4B2032C10
:1070E80012D84FF0A043D3F810250C4B195D01239B
:1070F8008B409343F1D0074B1B68054AD2F804250F
:10710800991ADDD5D11ADBE710BD00BF0060004039
:1071180000100140683300206433002068480400F0
:10712800002869D02DE9F043CFB00646334B1B68E1
:1071380013F4804F03D0324B1B68032B31DC2F4BE9
:107148001B6813F4804F03D02D4B1B68032B2ADCDC
:107158004FB0BDE8F083F25C2A490D681009590068
:10716800285C0DAC04F8130002F00F020131AA5C90
:10717800625401330F2BEED90DAA00238DF8543039
:1071880003F1804303F58833D3F8043502921E4A8D
:1071980001921E4A009241221D49042006F090F8EF
:1071A800CDE70023E6E71B4BD3F80435B288F18816
:1071B800307A747AB57AF77A96F80CC096F80DE0BA
:1071C80096F80E8096F80F90CDF82C90CDF8288080
:1071D800CDF824E0CDF820C00797069505940490D3
:1071E80003910292326801920B4A009246220849A2
:1071F800042006F065F8ABE7704700BF6C2E00204E
:10720800682E0020702E0020DC480400F04804009E
:10721800C948040000100140F848040072DF7047B4
:1072280073DF704774DF70472DE9F047A2B0074657
:1072380088469146314C0026C4F80660E6813049FC
:107248000B78C3EB43102F4D054425602E4A0244AA
:10725800A2601F22A280A281013303F001030B70F8
:107268004FF03C0A5246314613A81DF066F8062333
:107278008DF84F30ADF8487001238DF84A30ADF8DD
:107288005C3012AA1892ADF83C70ADF84090CDF879
:1072980044800DEB0A021D928DF878305246314633
:1072A80068461DF04AF802238DF80030221D294651
:1072B80013A814F058F890B9104B03F10C02996810
:1072C800684614F050F868B9104A0C491048FFF79E
:1072D800A5FF082809D070B922B0BDE8F08714F0DE
:1072E800D3FEE9E714F0D0FEEEE700220349084890
:1072F800FFF794FFEFE714F0C7FEEDE7B433002083
:107308007033002074330020C4330020002E002086
:10731800FC2D0020B0F5202F0AD2074BA3FB002339
:10732800DB0808B103B90123044A938191607047CF
:107338004FF6FF73F5E700BFCDCCCCCC002E002074
:1073480008B50121054B1878FFF76AFF18B9002026
:1073580004F0A0FB08BD14F097FEF8E7FC2D002010
:1073680008B5044B1878FFF75DFF00B908BD14F0A5
:107378008BFEFBE7FC2D002076DF70477ADF704735
:107388007CDF704708B514F07FFE08BD08B503F030
:107398004FFC08BD00B583B0037823B1012B0BD097
:1073A80003B05DF804FB3B214088FFF7E5FF0028A8
:1073B800F6D014F069FEF3E7094B1B6813F4804F0D
:1073C800EED0084B1B68032BEADD074BD3F80435D6
:1073D800064A009268220649042005F071FFDFE79B
:1073E8006C2E0020682E002000100140C4490400C3
:1073F800A949040000B583B014F088F970B902A94E
:10740800002341F8043D012014F0B8F848B901A858
:1074180014F006F940B903B05DF804FB14F034FE2B
:10742800EDE714F031FEF2E714F02EFEF3E700006A
:1074380000B585B09DF80C30012262F3030362F3B6
:10744800071304A800F8043D10220F49FFF798FF1E
:1074580098B90023ADF808307823ADF80430C82374
:10746800ADF806304FF4C873ADF80A3001A8FFF73D
:1074780085FF28B905B05DF804FB14F005FEE8E7C0
:1074880014F002FEF6E700BF3849040000B58BB0DF
:107498000023ADF808307822ADF80420C822ADF8F2
:1074A80006204FF4C872ADF80A200693079301AB83
:1074B800039340F6CD4304934FF48033059303239D
:1074C8008DF81830064B0893064B099303A814F05F
:1074D80005FB10B90BB05DF804FB14F0D5FDF9E716
:1074E8009D7302008D7302000620704700B587B0B7
:1074F80041F20103984247D020D944F2010398424F
:1075080058D044F2020398426FD1464B1B6813F4DB
:10751800804F1ED0444B1B68002B1ADD434BD3F819
:10752800043510880390526802920191404A0092F3
:107538006C224049012005F0C3FE0AE0012854D11D
:10754800384B1B6813F4804F03D0374B1B68002B54
:107558000DDC4FF0A0434FF4F012C3F81825C3F820
:107568000C25EFF3108372B64DF6AD6C53E02F4B3C
:10757800D3F80435029201912F4A009260222D49D6
:10758800012005F09DFEE4E7264B1B6813F4804FAD
:10759800DFD0254B1B68002BDBDD244BD3F80435EB
:1075A80002920191254A009263222249012005F0A6
:1075B80087FECEE71B4B1B6813F4804FC9D01A4BCC
:1075C8001B68002BC5DD194BD3F8043510680490EF
:1075D80050680390029192680192194A00927722AA
:1075E8001449012005F06CFEB3E70E4B1B6813F439
:1075F800804FAED00C4B1B68002BAADD0B4BD3F889
:10760800043501910F4A00927B220A49012005F0B6
:1076180057FE9EE730BF0C4B1B78002BFAD107B002
:107628005DF804FB6C2E0020682E0020001001403D
:10763800A04A04004D4A0400604A04007C4A040041
:10764800C04A0400E44A0400182E002000B583B0A4
:107658000023ADF80030054B01936A46014644F219
:107668000200FFF743FF03B05DF804FBE04A0400A3
:1076780010B40346044C006859689A68DB680FC464
:107688005DF8044B704700BF043400200B4B0C4AD4
:1076980092E8030083E8030003F10802094903C9DB
:1076A80082E80300DA79042161F30712DA711A7AA1
:1076B800022161F387121A72704700BF0434002058
:1076C80060000010A4000010004870470434002037
:1076D800002308E0074901EBC30000224280426012
:1076E80001F8332001331F2BF4D9034B00221A6011
:1076F800704700BF143400201435002030B405460C
:107708000F4B1B6800240AE01F230E4A12F83300AF
:10771800A0B102EBC3025288AA4207D001341F2C41
:107728000BD85A1E002BEFD01346EEE7054A02EBA2
:10773800C30252688A42F1D100E0002030BC704791
:10774800143500201434002030B40A4A13680A4C57
:1077580004EBC30568806960012104F833100B4409
:107768001360202B01D030BC7047134600221A60EA
:10777800F9E700BF1435002014340020C0F30C03CF
:107788008B4202D3C91A08447047C91A0844A0F5A5
:1077980000507047C37D002B42D0C3780A7802F0AE
:1077A800800203F07F0313430B7002780B7803F019
:1077B8007F0343EAC2130B700378002B41D030B427
:1077C8008378082B14BF002201224B7803F07F0333
:1077D80043EAC2134B70C58803F08003C5F38614CF
:1077E80023434B708A7802F0030242EA8502D2B240
:1077F8008A70057A02F0FC02C5F3C10422438A703C
:10780800CB7803F01F0343EA4513DBB2CB70427A0F
:1078180003F0E00302F01F021343CB7030BC704743
:10782800C3780A7802F0BF029B0103F040031343B8
:107838000B70027903F0C00302F03F0213430B7090
:10784800B3E770470023032B2DD810B402E00133AF
:10785800032B24D8C3EBC3021401144A224492F820
:107868004820012AF3D1114A2244948AC2899442B9
:10787800EDD1C3EBC30214010C4A2244D2888A42D8
:10788800E5D10A4A2244B2F8582012B1848AA242A9
:10789800DDD1C3EBC3031A010448104400E0002003
:1078A8005DF8044B70470020704700BFCC350020BE
:1078B800002300E00133032B14D8C3EBC3021101EA
:1078C800094A0A4492F84820022AF3D1064A0A448F
:1078D800918A828A9142EDD1C3EBC3031A0102480F
:1078E8001044704700207047CC35002008B10820AC
:1078F80070470420704730B403460C460978C170BD
:1079080000214162A1680B2903D8217B01B3012121
:1079180000E0012119700020987029B1A168073191
:10792800C9080139597218720121D97503F10C057A
:1079380004F1100103C985E80300E1899982A1696E
:107948001962217F9975216AD9629A6230BC7047A1
:107958000021DFE70021164B1B688B4226D9002344
:10796800144A02EBC10252689A421DD910B4114A56
:1079780052F8312002EBC30412F8332082420DD0B2
:1079880001330C4A02EBC10252689A42EFD8013126
:10799800074B1B688B4205D90023F2E760685DF846
:1079A800044B70470020FAE70131D4E70020704704
:1079B800183500201C35002070B58CB006460D46E1
:1079C80014462C22002101A81CF0B7FC0F238DF8C7
:1079D8000430ADF808604FF0000365F300038DF83C
:1079E8000A308DF80B4001A801F056FA0CB070BDB2
:1079F80030B58DB005460C462C22002101A81CF09C
:107A08009CFC10238DF8043002958DF80C4001A8D9
:107A180001F042FA0DB030BD00B58DB048B913F190
:107A2800020F06D001228DF80420029301A801F06C
:107A380033FA034B186804F053FA0DB05DF804FBF1
:107A48002C350020D0B50446037853B1E3691F0AEA
:107A58001E06E188A069FFF791FE301847F1000182
:107A6800D0BD7846FFF7F2FDF0E70000F8B505460F
:107A7800002400E00134032C20D8C4EBC4031A010D
:107A88000F4B134493F84830022BF3D10C4B13449B
:107A98009A8AAB8A9A42EDD12846FFF7D3FF064669
:107AA8000F46C4EBC402130105481844FFF7CAFF88
:107AB8008F4208BF8642DDD2012000E00020F8BDD9
:107AC800CC350020F8B5064603783BB13046FFF7C1
:107AD800B9FF04460D46B08A002304E07846FFF754
:107AE800B5FDF3E70133072B0ED81A0107498A5A67
:107AF8008242F7D101EB0312D2E90267AF4208BF15
:107B0800A642EFD1104600E00020F8BD3035002035
:107B180038B504460D46037853B10023072B0ED819
:107B2800A18A1A011248825A914205D00133F5E719
:107B38007846FFF78BFDF0E71B010021C1520D4A83
:107B48001368591C116003F00703A08A1A01084939
:107B5800885255B16278064D05EB0315AA70204688
:107B6800FFF770FFC5E9020138BD0022F3E700BF47
:107B780030350020B0350020F8B5069C002963D0C8
:107B88000F4616685568D2F808E0D2F80CC0E660CF
:107B98002561C4F814E0C4F818C016695569E6618F
:107BA8002562002262700278D20922706AB3042129
:107BB800B9424BD8E57D55B3027802F07F02E270F6
:107BC8000022A27022789AB14278920102F4FE5201
:107BD800817842EA9102E2808278D20002F01802AB
:107BE800C17842EA51122272C27802F01F02627210
:107BF8001D46002363622B78032B21D82A78144B67
:107C080053F82230E36200201FE00121D0E7057815
:107C1800C5F38015E570057805F03F05257142B17B
:107C280090F90120002A02DB0422A270CAE7082288
:107C3800FBE70422A2701144B942C3D9092004E029
:107C48007846FFF703FDD9E70920F8BD0920FCE7CE
:107C5800004B040070B50C461E460378ABB10425F2
:107C68002A44A26000F10C032360836A6360C36A3C
:107C7800E36000232374204604F0B2FC024610B9E6
:107C880063691D443560104670BD0125E8E72DE99C
:107C9800F0418EB00D4616461C46804600282DD071
:107CA800002D2FD0002C31D0636A0233059304F1E4
:107CB8000C00E378002B2DD00121A27801AF3B46C0
:107CC800082A14BF0022012204F04FFA0697CDF8C3
:107CD8001C80B2B2ADF820200B9515440C95A37802
:107CE8008DF83430237B022B16D00023ADF82830D2
:107CF80005A804F032FA0EB0BDE8F0817846FFF727
:107D0800A5FCCDE77846FFF7A1FCCBE77846FFF75F
:107D18009DFCC9E70221D0E723692BB123690993A8
:107D28001023ADF82830E3E77846FFF78FFCF5E736
:107D38002DE9F04188B004460D46C37D002B3CD0A8
:107D4800082605FB06F8637AAB4238D0257201ABEA
:107D5800324602A92046FFF77DFF074648BB4DB9CA
:107D680094F8533033B9A369C3F30C03E3800123B8
:107D780084F85330E37D7BB994F8523063B91DBB66
:107D8800B4F84A10A27823468A1AE16E0846FFF72B
:107D98007EFF012384F8523007992046FFF7FAFC4A
:107DA800E16E3246414401981CF09EFA02A804F0A4
:107DB8003DFC384608B0BDE8F0810C26C1E7B4F8B0
:107DC8004A60A6EB0806C1E77846FFF73FFCD7E70D
:107DD80070B505460E4609B100230B6095F8504072
:107DE800002104E0631C85F850300134E4B26B7A5A
:107DF800A34210D3EA6C0123A3401A42F5D12146CD
:107E08002846FFF795FF014628B9002EEAD03368C7
:107E180001333360E6E7084670BDF0B589B0857870
:107E28001544C37DDBB10B239D4221D816460F466E
:107E3800044601AB2A4602A9FFF70CFF0546C0B964
:107E480007992046FFF7A6FCE37D53B13246394631
:107E580001981CF049FA02A804F0E8FB09E00F2396
:107E6800E2E72346324601993846FFF710FFF2E76A
:107E78000925284609B0F0BD10B5044690F84830E9
:107E8800012B0CD103F012FA237B012B0BD0094BE9
:107E9800D968014404F1300003F0DEF910BD7846DA
:107EA800FFF7D4FBEEE7A37D024AD168126902FB13
:107EB8000311EEE7B435002030B583B0002403E0A9
:107EC8002846FFF7D9FF0134032C1AD8C4EBC403A2
:107ED8001A010D4B134493F84830012BF3D102A932
:107EE800002341F8043DC4EBC4021301064D1D44B0
:107EF8002846FFF76DFF0428E2D0019B002BE2D053
:107F0800DEE703B030BD00BFCC35002038B50446ED
:107F180090F84830022B02D07846FFF797FB054BC4
:107F28001D6803F0C3F9411904F1300003F094F916
:107F380038BD00BFB435002038B5044690F8483045
:107F4800022B02D07846FFF781FB084B5D7D5A680B
:107F58009B6803FB052503F0A9F9411904F15000BA
:107F680003F07AF9012384F8683038BDB43500206D
:107F780010B50446808A02F087FC01281CD1237BB7
:107F8800E3B194F91620002A1ADBE27D4AB1022BEC
:107F980018D094F90330002B16DBA378B3B900206E
:107FA8000BE0E2780AB9012B12D1237893B9A378B0
:107FB800042B11D1002000E0102010BD1020FCE798
:107FC8000720FAE71020F8E70720F6E70720F4E78C
:107FD8000720F2E70020F0E70720EEE738B504466F
:107FE800C2698169808A06F085FB054608B928467A
:107FF80038BDE169002201F00101A08AFFF7DCFC2D
:10800800F5E700002DE9F04707460E4690464B1E5F
:10801800DBB2012B0FD8B8F5C07F10D80024032C91
:108028001AD8C4EBC4031A01314B134493F84830EF
:108038004BB10134F3E77846FFF708FBEBE77846E6
:10804800FFF704FBEAE7DFF8A8A0154655444046C9
:1080580008F059FCE86600E000256DB3EB6E002BD4
:1080680043D03B462A4607F13001D3F800E0D3F865
:1080780004C09C68D868C2F800E0C2F804C09460E4
:10808800D060103310328B42EFD10023EB64A5F897
:108098004A80012E13D06FF00103AB62002385F8EC
:1080A8006830144BAB652D66134BAB632D64012010
:1080B80002F0CCF885F848602846BDE8F0870F4BF9
:1080C8001B7D85F85130002385F8523085F85330F0
:1080D80085F85030BA6A6A65A5F858306FF0010320
:1080E800AB62074BAB632D64E1E70025E4E700BF13
:1080F800CC3500208B8A020049840200B435002068
:108108009584020000B585B000238DF80F3098B132
:108118000346084602330B600DF10F0104F021F805
:108128009DF80F3043B10D4B1B6813F0040F03D0BB
:108138000B4B1B68032B04DC9DF80F0005B05DF8A2
:1081480004FB084BD3F80435074A009240F2374243
:108158000649042005F0B4F8EEE700BF6C2E0020B5
:10816800682E002000100140304C0400234C04000D
:108178002DE9F0438FB004460E4615461F46D0F849
:108188001890037823B1C1884846FFF7F7FAA06131
:1081980004F10C00E378002B37D00121A2780DF10F
:1081A80028084346082A14BF0022012203F0DDFFF5
:1081B800C4F81890CDF808800396A378EA1A92B20A
:1081C800ADF810203244089207978DF82430002328
:1081D800ADF81830E37863B3237B022B17D025461C
:1081E800002345F8243F2A462179206A0FF0FEFB38
:1081F800606A90B101A9FFF785FF00283BD12A46A4
:108208002179206A0FF0F2FBF2E70221C6E710237A
:10821800ADF8183023690593E1E7237B022B2ED1B3
:1082280004F10C01E0890FF093FC0028D4D105205B
:1082380022E0237B012B24D1E389ADF80030A38A07
:10824800ADF802300025012D13D82146002341F84E
:10825800243F0EAB03EB450333F8380C0FF0E3FB78
:1082680001A9606AFFF74EFF08B90135EBE7002066
:1082780002E0052000E000200FB0BDE8F0830520F3
:10828800FAE70520F8E7000070B5F0B00D4614468F
:108298001E4610AB0A4601462046FFF769FF50B15B
:1082A800224B1B6813F0040F03D0214B1B68052BCE
:1082B8002FDC70B070BD2046FFF790FE0028F8D183
:1082C80003AB01228DF80C20A28AADF80E20002203
:1082D80004928DF8142010AA0692A278AD1AADF86F
:1082E8001C5008AA93E8030082E803000AAB04F1D3
:1082F8000C0292E8030083E80300A37D8DF8383070
:10830800236A0C93636A0D930F9605A800F0C4FDC9
:10831800CFE7084BD3F80435074A009240F20E72B3
:108328000649062004F0CCFFC3E700BF6C2E0020EE
:10833800682E002000100140544C0400234C040017
:1083480010B50446C06E08F0E2FA04F1300002F0FD
:108358006BFF94F84830022B0AD070220021204687
:108368001BF0EBFF002084F8480001F06FFF10BD00
:1083780004F1500002F058FFEFE710B58CB0044646
:1083880090F84830012B02D07846FFF75FF90123B7
:108398008DF80430636D029301A800F07DFD20463E
:1083A800FFF7CEFF0CB010BD30B585B00D460446C2
:1083B800D0B1E18894F84830022B19D094F84830AD
:1083C800022B1ED02946606DFFF712FB2046FFF7EF
:1083D800B7FF164B1B6813F0040F03D0144B1B6830
:1083E800032B13DC05B030BD7846FFF72FF9E0E723
:1083F800637813F0020FE1D00022A08A1BF0B4FAD0
:10840800DCE700212046FFF783FBDBE7094BD3F8C5
:10841800043594F8482002950192074A009240F2E8
:108428002E220649042004F04BFFDBE76C2E0020C7
:10843800682E002000100140104B0400234C04005B
:1084480008B508460021FFF7AFFF08BD08B5037B54
:10845800012B02D0FFF791FF08BD0121FFF7A4FF10
:10846800FAE7000008B590F8513013B9FFF7EEFFAE
:1084780008BD013B80F85130002380F85030024B92
:10848800186803F02DFDF3E72C35002010B50C46D5
:1084980091F84830012B02D07846FFF7D7F82046EC
:1084A800FFF7E0FF10BD0000062900D07047F0B5C7
:1084B80085B015460278910101F4FE514778847819
:1084C800C3781B0443EA0463047943EA0423447928
:1084D8001C4356B241EA97012846FFF7B3F907460D
:1084E800E0B1002E2FDBC289A98A8A422BD02B4B00
:1084F8001B6813F0040F3ED0294B1B68012B3ADD93
:10850800284BD3F8043502910192274A009240F291
:108518008C622649022004F0D3FE2CE01F4B1B6816
:1085280013F0040F27D01E4B1B68012B23DD1D4BB6
:10853800D3F804351E4A009240F284621B49022097
:1085480004F0BEFE17E0002E17DBFD6C2543FD642A
:10855800BCB13B78D3B17B7A5A1C01239340013BD1
:108568009D4217D0002187F850103846FFF730FC9D
:108578003846FFF781FC05B0F0BDAB8AA7F8583044
:10858800E3E703213846FFF70FFFF4E77846FFF7E4
:108598005DF8E0E73846FFF7F0FEECE76C2E0020C8
:1085A800682E002000100140784B0400234C040082
:1085B800484B04002DE9F0438BB080460F46144623
:1085C8001E461046FFF70AFD10BBE5781DB3284686
:1085D800FFF7C0F98146D8B18DF80450236A079394
:1085E800A38AADF8123005AB04F10C0292E803003F
:1085F80083E80300A37D8DF82030CDF80880039729
:1086080023788DF81030E36A0993314601A8C847EA
:108618000BB0BDE8F0833346224639464046FFF7A3
:1086280043FFF5E710B5547814F0010F03D0D47D5B
:1086380014B9FFF729FE10BDFFF7BCFFFBE7F8B53B
:1086480005460E4614461F46537813F0020F06D10E
:108658003B462246711E681CFFF7E4FFF8BD012364
:10866800C9B21BF0D1F8F3E7F0B5C7B08678164465
:10867800C37D2BB14FF48073B34279D3002303E059
:108688004FF4C073F8E70133032B19D8C3EBC304C5
:1086980025013B4C2C4494F84840012CF3D1384C2C
:1086A8002C44A58A848AA542EDD1C3EBC3042501D5
:1086B800334C2C44E589C489A542E4D1082458E008
:1086C80014460D4632460121FFF79CFC0646002859
:1086D80052D022462946C06E1BF006FE46A900234A
:1086E80041F8043D3046FFF773FB044608B10428FF
:1086F8003AD1459B7BB9234B1C6814F0040438D04D
:10870800214B1B68032B39DDB6F84A70802F28BF30
:108718008027002313E03046FFF7AEFBEBE7F26E4D
:10872800D25C1A490C6810095900255C04A800F8A5
:10873800135002F00F020131A25C42540133BB42D4
:10874800EDD304AA002402F81740114BD3F80435DE
:108758000292104A0192104A009240F271520F4957
:10876800042004F0ADFD04E03046FFF7E9FD00E029
:108778000924204647B0F0BD0424FAE70024F8E7AE
:10878800CC3500206C2E0020682E0020702E002092
:1087980000100140BC4B0400F0480400234C0400C6
:1087A80070B504460D461646FFF7E2FB034638B996
:1087B80023783BB9324629462046FFF72EFB03466D
:1087C800184670BD324629462046FFF74DFF03463E
:1087D800F6E7000038B504460D46CB695B780371AF
:1087E800CB691B7883F00103C370CB6943628B8A22
:1087F8000B2B07D8CB7A002B3DD10B7B012B02D05A
:10880800002300E001232370002B39D0287B0228A5
:1088180033D0FFF76BF8A070AB8A03440B331B48C7
:1088280080FB03235B10013B637200232372002348
:10883800E37504F10C0395E8030083E80300AB69D2
:1088480023622B89A382AB7AA3752B6AA362DF23E9
:10885800E36228460FF0F6FA20B12B78012B12D0EC
:10886800FF23E36220461BF057F818B1E36A43F090
:108878002003E36238BD0123C5E7054B987DC8E7AF
:108888000423A370D3E72023EBE700BFABAAAA2AEF
:10889800B435002010B54FF4E072002113481BF0E6
:1088A8004CFD05F0DBFF0024114B1C6080222146A3
:1088B80010481BF042FD104B104A1A60104A5A60CB
:1088C8004CF250329A600F49D9601A6104221A7525
:1088D8009C7508225A750C4803F0E2FA0B4B186095
:1088E8000B4B1C600B4806F0B7F810BDCC350020C8
:1088F800B035002030350020B4350020809698002F
:10890800F049020020A107007D8A02002C350020D2
:1089180018350020217A020008B505F0E3FE08BDED
:1089280098B110B58CB00446036983B1C36983B1AB
:10893800836983B101466846FFF74CFFA28A216923
:108948006846FFF72DFF0CB010BD0E2070470E20B3
:10895800F9E70E20F7E70E20F5E790B110B58CB0D7
:10896800044642687AB182697AB10A460146684685
:10897800FEF7C1FFA26861686846FFF711FF0CB0F7
:1089880010BD0E2070470E20F9E70E20F7E7000013
:10899800037B012B01D00020704710B58CB0002359
:1089A8000193CDF80730C288C2F3861492008DF87F
:1089B80001200A0E8DF802200A0C8DF803200A0AFD
:1089C8008DF804208DF805104278022A14BF002281
:1089D800012244EAC2128DF80020062205920122E3
:1089E8008DF81C20828AADF81E2008938DF80C3073
:1089F800CDF810D0026A09928DF81830C389ADF805
:108A08001A30C36A0B93837D43B98DF828306FF011
:108A1800010103A8FFF7A1FF0CB010BD024B5B7D5D
:108A28008DF82830F3E700BFB435002090F84830BF
:108A3800022B00D0704790F86830022BFAD110B59D
:108A48000446C16CFFF7A4FF10B9002384F868300E
:108A580010BD000010B5002407E0C4EBC4021301E8
:108A680003481844FFF7E2FF0134032CF5D910BD81
:108A7800CC35002008B5FFF71FFAFFF7EBFF012000
:108A880008BD10B50C4691F84830022B02D0784644
:108A9800FEF7DCFD022384F868302046FFF7C6FFA6
:108AA80010BD0000F0B58FB00446FEF7DFFF0028C8
:108AB80040F08D802046FFF705F80746A0B920460C
:108AC800FEF7F6FE054658B12046FEF7BBFF064600
:108AD8000F462846FEF7B6FFB94208BFB0422BD36F
:108AE8007DB328460FB0F0BD02AD26460FCE0FC5A8
:108AF8000FCE0FC596E80F0085E80F00BB788DF8FC
:108B080009307BB19DF8083073B19DF811104B1CEA
:108B180001219940013902A8FFF73AFFBB7813F009
:108B2800010F05D10025DCE77846FEF78FFDECE75D
:108B38002046FFF753FAF5E705212846FFF734FCEE
:108B48000025667A731CE27D92B1082606FB03F6BF
:108B580082B14FF48073B3421DD21F4B1B6813F0D0
:108B6800040F36D01D4B1B68002B06DC0025B8E728
:108B78000C26EBE74FF4C073EDE7194BD3F8043537
:108B88000196184A009240F292321749012004F0E7
:108B980097FB0025A5E7E188A069FEF7EFFDE269EC
:108BA8000146A08A05F004FE00289AD13246022127
:108BB8002046FFF727FA0546002892D100212046D3
:108BC800FFF7E6FE02210020FEF712FF89E70025E5
:108BD80087E7002585E700BF6C2E0020682E00205F
:108BE80000100140344B0400234C04002DE9F047E9
:108BF80082B007460E46154698461046FFF752FFC4
:108C080000284ED004464F4B1B6813F0040F03D0C6
:108C18004D4B1B68032B47DC2046FFF777F9237B76
:108C2800012B4FD0E26C297A01238B401A4238D1AC
:108C38001343E364A6F1040A2B7AEA7D002A49D09B
:108C48004FF0080C0CFB03FC617A8B4245D0002ADC
:108C580048D00823534547D1A269AB699A420BD241
:108C680004F10C0E05F10C09B9E80F00AEE80F008D
:108C780099E803008EE80300E06E5246391D60440F
:108C88001BF032FB6B7813F0020F32D1E66C2378BD
:108C9800002B35D0637A5A1C01239340013B9E4236
:108CA80032D002B0BDE8F087284BD3F804352A7AD1
:108CB8000192274A00924FF471722649042004F069
:108CC800FFFAA9E794F86830002BABD12046FFF7EC
:108CD80033F9A7E74FF00C0CB4E70CEB0A03A4F840
:108CE8004A30B9E70C23B5E704212046FFF75CFBBF
:108CF800D7E701232A46F1B238461AF085FDC5E7C1
:108D08007846FEF7A3FCC5E7E16C2046FFF740FE76
:108D18006B7813F0020F0ED143462246B4F84A107E
:108D2800E06EFFF77FFC01212046FEF7F1FE2046AA
:108D3800FFF706FBB5E70122E988A88A1AF014FEB6
:108D4800EAE700BF6C2E0020682E002000100140CA
:108D5800444C0400234C04002DE9F04190B0002855
:108D68004CD08046002A4BD01F4614460E4604AB12
:108D780000933B46FEF700FF054618B1284610B0A1
:108D8800BDE8F08104A8FFF7F3F805460028F5D1FF
:108D98002269E168208905F00BFD0028EED104A8BE
:108DA8001AF0BAFD28B19DF8113043F002038DF88E
:108DB800113000230293039302A960880EF0C8FEC5
:108DC80038B19DF8113043F001038DF81130039B41
:108DD80008939DF81130002BD0D09DF8103033B98E
:108DE8003B4604AA31464046FFF729FCC6E73B4606
:108DF80004AA31464046FFF7F9FEBFE70E25BDE756
:108E08000E25BBE718B3F8B50546174B1F68012FA9
:108E18001FD80E460024B4420ED205EBC4035B688B
:108E2800CBB115F8340010F0800F16D1B8B1FEF7A9
:108E380091FDB0B90134EEE70C4B43F8375003EB22
:108E4800C7035E600137084A1760002002E00E2061
:108E580070470420F8BD0E20FCE70B20FAE70F202E
:108E6800F8E70F20F6E700BF183500201C35002072
:108E7800084B196861B110B501E021463CB10C6896
:108E88000B79002BF9D0034804F083F9F5E710BDFE
:108E9800704700BF9037002038B5054630B1104BF9
:108EA8001C68ACB10F4B01221A7004E07846FEF73B
:108EB800CDFBF4E724683CB12379002BFAD154F8B0
:108EC800043C28469847F5E7064B1B78022B00D050
:108ED80038BDFFF7CDFF034B00221A70F8E700BF3B
:108EE800903700208C37002010B5044630B100239D
:108EF8002372211D034804F021F910BD7846FEF7BE
:108F0800A5FBF4E79037002010B5044650B10A4B92
:108F18001B78013BDBB2012B08D9211D074804F05F
:108F280038F910BD7846FEF791FBF0E7024B0222B4
:108F38001A7001232372F4E78C3700209037002041
:108F48000A8883689B5A07339BB223F003031344B0
:108F58009BB20288043A934200D900230B807047E1
:108F680010B582B004468368CB1A02A921F8023DE5
:108F7800FFF7E6FFBDF80630A068184402B010BD40
:108F88000088043880B2704743888268D018D1526C
:108F98000123837070478268002393704380838025
:108FA8007047073189B221F0030189B2428883886A
:108FB8009A4204D29B1A99421CDC0020704710B5D3
:108FC8009A420FD90488A41AA14215D98B4215D305
:108FD800032C03D98368134404229A700023438026
:108FE800184606E0826813449B784BB9FFF7D3FF15
:108FF800002010BD042070470020FAE70420F8E79D
:109008000420F6E738B504460D4683688288134481
:109018008B4202D07846FEF719FB0023AB70211D66
:109028002046FFF78DFFA288A36813449B78042B82
:1090380000D038BD0023A380FBE710B50C46836839
:10904800428813448B4202D07846FEF7FFFA002389
:10905800A37010BD70B5064615460C46002944D0CD
:10906800002E46D0B4F1005F08D94FF08053D3F8F2
:109078000C3103F50023B4EB832F0ED3B4F5000FA6
:1090880008D94FF08053D3F80C3103F50053B4EBF3
:10909800832F02D37846FEF7D9FA6B1E2344B3F127
:1090A800005F08D94FF08052D2F80C2102F5002257
:1090B800B3EB822F0ED3B3F5000F08D94FF08052CF
:1090C800D2F80C2102F50052B3EB822F02D3784676
:1090D800FEF7BCFA042D10D9358000237380B380C5
:1090E800B460043D2580A37070BD7846FEF7AEFAE3
:1090F800B6E77846FEF7AAFAB4E77846FEF7A6FA86
:10910800EAE738B50446A0B16288A36813449B789F
:10911800012B12D0EFF3108572B6A388A168194409
:109128008B78032B0DD02046FFF735FF05B962B6C3
:1091380038BD7846FEF78AFAE6E77846FEF786FAFB
:10914800E8E72046FFF70CFFA368C31A63800023F3
:109158008370EBE72DE9F0410E4615460446D0B181
:10916800EEB16288A36813449B78012B1BD025B30A
:109178002046FFF705FFA84221D3EFF3108872B607
:1091880029462046FFF70DFF074680B1B8F1000FCA
:1091980016D162B614E07846FEF758FAE0E778464A
:1091A800FEF754FADDE77846FEF750FADFE729467E
:1091B8002046FFF7E9FE3060E8E7092700E00927C5
:1091C8003846BDE8F081F8B50C4616460546E0B1CC
:1091D800FCB1A378012B20D12388B34221D326B335
:1091E800EFF3108772B626800223A370E918284689
:1091F800FFF7A6FE6B88AA88934203D0AA68134497
:1092080000229A7007B962B6F8BD7846FEF71EFAD2
:10921800DEE77846FEF71AFADBE77846FEF716FA35
:10922800DAE77846FEF712FAD9E77846FEF70EFA3B
:10923800D6E770B50D46044680B19DB1EFF31086B0
:1092480072B6A288A36813449A78042A0ED09A7832
:10925800022A13D0032A18D0052013E07846FEF717
:10926800F5F9EAE77846FEF7F1F9E7E7211D204628
:10927800FFF766FEA288A3681344E8E703229A7002
:109288002B60002006B962B670BD7846FEF7DEF99D
:109298000020F7E738B5044680B1EFF3108572B6C1
:1092A800A088A16801448B78042B0BD08878022809
:1092B80014BF0020012005B962B638BD7846FEF714
:1092C800C5F9EAE72046FFF74BFE0146EEE738B559
:1092D800044630B1EFF3108572B6A088A168014446
:1092E80007E07846FEF7B2F9F4E72046FFF738FEC4
:1092F80001468878C31EDBB2012BF6D9022814BFB9
:109308000020012005B962B638BD70B50C46064686
:1093180078B194B1EFF3108572B6A378012B10D011
:10932800032B13D121463046FFF76CFE05B962B610
:1093380070BD7846FEF78AF9EBE77846FEF786F9BE
:10934800E8E721463046FFF778FEEFE77846FEF774
:109358007DF9EBE710B5EFF3108472B68388816866
:1093680019448B78042B06D08878B0FA80F040092D
:1093780004B962B610BDFFF7F3FD0146F4E700003B
:1093880008B5064B986800221A605A609A60DA603D
:109398001A615A619A6104F0ADFF08BD9437002044
:1093A80000B585B00A4BDB6802228DF800200193D6
:1093B8004FF480530293074A6946012001F07AF975
:1093C80018B1002005B05DF804FB0120FAE700BFE2
:1093D80094370020B037002000B585B00A4B1B68D1
:1093E80002228DF8002001934FF480530293074A1C
:1093F8006946012001F05EF918B1002005B05DF85A
:1094080004FB0120FAE700BFB4370020B037002082
:10941800164BDA68137951795B1A03F57F2303F643
:10942800FF7302EB03339A4205D002F580520F4BCB
:10943800DA600320704700B585B00D4B1B6801202A
:109448008DF8000001930B4B0393042302930A4AFF
:10945800694601F02FF918B1002005B05DF804FB4A
:10946800024B01221A760220F7E700BF943700204A
:10947800B4370020B8370020B037002000B585B0D9
:109488000C4BDA680C4B1B68043301208DF8000084
:109498000192039340F6FC730293084A694601F06F
:1094A80009F928B90120034B187605B05DF804FBCB
:1094B8000020FAE794370020B4370020B0370020A6
:1094C80000B585B00A4B1B6801208DF80000019398
:1094D800084B039304230293074A694601F0EAF80C
:1094E80018B1002005B05DF804FB0120FAE700BFC1
:1094F800B4370020A0370020B037002010B584B062
:10950800104BDA681478104B1B68043301208DF86F
:1095180000000193039202940C4A694601F0CAF8CC
:1095280070B9094B1B6804F0FC041C440434054B57
:109538005C61D9680A780A441A61012004B010BD38
:109548000020FBE794370020B4370020B037002014
:1095580008B50023092B09D8064A52F8232082426D
:1095680001D00133F6E7044A536002E07846FEF77B
:109578006DF808BD804C04009437002010B5214BCD
:10958800DB6853B11F4B1B7E5BB91E4B5B68092B15
:1095980015D97846FEF75AF811E07846FEF756F8DE
:1095A800F0E77846FEF752F8EFE7164B00225A60CC
:1095B800012C01D0032C23D1124B1B7E03BB114B72
:1095C8005A68114B53F822309847044602280DD0A8
:1095D8000328EAD00128EBD10A4A536801335360C3
:1095E800092BE5D97846FEF731F8E1E7054B1B7EF4
:1095F8001BB1044B02221A70DAE7FFF7C1FED7E766
:1096080010BD00BF94370020804C0400104B1B682D
:109618001B685A1E12F1030F18D8C3F30B020AB1C4
:109628000020704710B50B4AD36000231376537699
:109638000124147093600848FFF78AFF0749204601
:1096480001F026F8FFF79AFF204610BD002070476A
:10965800B437002094370020A993020069960200CD
:1096680008B50B78032B06D00B4B1B78012B06D0C3
:10967800022B0BD008BD084B00221A76F4E7064BE4
:109688001B7E002BF6D1FFF779FFF3E70B78032B4E
:10969800F0D1FFF775FEEDE79437002000B585B0EF
:1096A800174BDB6818784FF6FF7203F580511844A2
:1096B80005F088F9F0B10246114BD9680B780B44D4
:1096C800984219D00E4B5B7E93B10E4B01208DF85A
:1096D800000001920393042302930B4A694600F0A9
:1096E800E9FF58B90120064B187605B05DF804FB70
:1096F800064BEBE70120F8E70120F6E70020F4E746
:1097080094370020284F0400B0370020244F04006D
:1097180008B5104BDB681878002203F5805118440F
:1097280005F050F908B1012008BD0A4BDA68137931
:1097380051795B1A03F57F2303F6FF7302EB0333BA
:109748009A4205D002F58052024BDA600320EBE71B
:109758000220E9E794370020F0B585B0544BDE6865
:1097680072793379591E8A421AD006F580510D78DC
:109778000D4450490968081D0F7907449B1A03F5E1
:109788007F2303F6FF731B0303F580531E446B8886
:10979800013B9BB247F6FE62934260D92C461AE021
:1097A8000120434B58767EE07846FDF74FFF15E0E1
:1097B80024F47F6424F00F0404F5805423781C44B7
:1097C800A64247D9A54247D26388013B9BB247F6D8
:1097D800FE62934211D92388002BE5D0238804EB3D
:1097E800830323F47F6222F00F029342E0D0628861
:1097F800B2F5FE4FDCD01C46E2E725462FE078465E
:10980800FDF724FF15E024F47F6424F00F0404F529
:10981800805423781C44A64220D9A5423BD26388B1
:10982800013B9BB247F6FE62934211D92388002B75
:10983800E5D0238804EB830323F47F6222F00F0230
:109848009342E0D06288B2F5FE4FDCD01C46E2E7D6
:10985800254604E0002502E0002500E00025E5B1EA
:10986800144B19686A8801F58051384605F0AAF842
:10987800074690B101200E4B18768DF8000001952F
:109888000D4B0393042302930C4A694600F012FF20
:1098980058B92C46CAE70025E1E7B5FA85F56D0900
:1098A800034B5D76012005B0F0BD0020FBE700BF4B
:1098B80094370020B4370020204F0400B037002030
:1098C8002DE9F04186B0674B1B692BB1654B5B698D
:1098D80033B14FF0000846E07846FDF7B7FEF5E7EC
:1098E8007846FDF7B3FEF4E77846FDF7AFFE15E0DE
:1098F80025F47F6525F00F0505F580552B781D4467
:10990800AE421CD9AC421ED26B88013B9BB247F6D3
:10991800FE62934211D92B88002BE5D02B8805EBEA
:10992800830323F47F6222F00F029342E0D06A8817
:10993800B2F5FE4FDCD01D46E2E72C4600E00024DD
:109948001CB100943FE00024FAE700230093019B38
:10995800002B62D14FF00108002C7DD0628847F6B9
:10996800FF739A4278D0B8F1000F79D13D4B5A690C
:1099780022F47F6727F00F07BF1A07F580571C6985
:10998800DE68337972799B1A03F57F2303F6FF7338
:109998001B0303F580531E44002301936388013B96
:1099A8009BB247F6FE629342CBD92546B3E7784689
:1099B800FDF74CFE22E024F47F6424F00F0404F544
:1099C800805423781C44A642C1D92388019A02EB0B
:1099D80083029742BBD9009B634023F47F6323F043
:1099E8000F03002BB3D16388013B9BB247F6FE619E
:1099F8008B42ACD801922388002BD8D0238804EB63
:109A0800830323F47F6222F00F029342D3D062884B
:109A1800B2F5FE4FCFD01C46D5E7124A5269012055
:109A28008DF808000392009A059204930E4A02A941
:109A380000F040FE70B90B49019B23F003024B690B
:109A480013444B6114B1074B1C6185E77846FDF759
:109A5800FDFDF8E7002000E0012006B0BDE8F08138
:109A68000120FAE794370020B037002008B54FF0FE
:109A780010235B69B3F1FF3F03D04FF010235B69FC
:109A880063B94FF080525169136903FB01F3A3F5E1
:109A98008053054A1360FFF7B9FD08BD4FF0102346
:109AA8005B69A3F58053F2E7B437002010B504468C
:109AB800B0B1104B1B78CBB10E4BD968E36858791D
:109AC800A3EB0032914213D31A79121A02F57F22BE
:109AD80002F6FF7203EB0233994205D9002006E033
:109AE8007846FDF7B3FDE4E7012000E0002010BD53
:109AF8000020FCE794370020024B1878003018BF8C
:109B0800012070479437002010B504460E4B1B788F
:109B1800ABB92378032B02D07846FDF797FD0A4BA3
:109B28009C60E268DA6000225A601A760120187098
:109B38005A76064900F0ACFDFFF720FD10BD7846C7
:109B4800FDF784FDE5E700BF943700206996020021
:109B5800014B1868704700BFB437002010B50446A1
:109B680080B163681BB123680BB1A36813B9784649
:109B7800FDF76CFDA3685A1E134207D10023E3606A
:109B8800236110BD7846FDF761FDEAE77846FDF7E9
:109B98005DFDF3E770B5F0B104468268EAB1EFF312
:109BA800108572B60669C268964210D008462168C8
:109BB8006268A368013B1E4006FB021108B11AF057
:109BC80093FB23690133236165B962B606E03DB9A9
:109BD80062B6052502E00E2500E00925284670BD7D
:109BE8000525FBE70025F9E7C0F30B0333BB39B3C1
:109BF80001F6FF71090B134B0222C3F80425114B20
:109C0800D3F80034002BFAD000220AE00D4BC3F839
:109C180008050C4BD3F80034002BFAD000F580501F
:109C280001328A42F2D3074B0022C3F80425054BC0
:109C3800D3F80034002BFAD000207047102070476A
:109C48000920704700E0014010F0030F2FD111F0F8
:109C5800030F2FD182B312F0030F2FD110B4920843
:109C6800174B0124C3F80445154BD3F80034002BD7
:109C7800FAD002E0043004312246541E52B10B6877
:109C8800B3F1FF3FF6D003600D4BD3F80034002B3F
:109C9800FAD0EFE70A4B0021C3F80415084BD3F8B4
:109CA8000034002BFAD010465DF8044B70471022A0
:109CB800104670471022FBE70922F9E70922F7E767
:109CC80000E001404388012B05D0022B01D104306C
:109CD80008600120704704304860FAE708B5082298
:109CE8000221084804F077F938B1074A91684160C1
:109CF800127B027204F0A8F908BD044804F0D2FAF5
:109D0800FAE700BFC4370020103800202C2E0020AE
:109D18000E4B1B78CBB910B50D4B5C6804F500549D
:109D2800B4F1807F00D910BD04220121094804F054
:109D380052F930B14460054A0121117004F084F9E8
:109D4800F1E7054804F0AEFAEDE770472438002043
:109D580010380020C43700201C2E002010B50446FF
:109D680008B1A04710BD7846FDF770FCF9E7000080
:109D780008B501210C4804F08FF920B902210A48DE
:109D880004F08AF928B1094804F08CFAFFF7C0FFFB
:109D980008BD074A0023136053609360D3601361C2
:109DA800044A1370F2E700BFC43700204C2E00208D
:109DB80010380020E837002000B58DB00B4B1B7B16
:109DC800012B0ED0094A926804928DF8083003904E
:109DD8000CA8022300F82C3DFFF75EF80DB05DF8E3
:109DE80004FB024A9268013A0492EEE71038002018
:109DF80010B58CB00C4682B94B88012B20D1134B7F
:109E08001B7833B16268124B5A60104B00221A70EB
:109E180016E07846FDF71AFCF4E7032A12D12C2243
:109E2800002101A81AF089FA11238DF8043003944F
:109E3800084BDA6805921B69069301A8FFF72CF80E
:109E48000CB010BD7846FDF701FCE8E72438002087
:109E580010380020C437002000B583B001F0A8FFF7
:109E68000021009101916B46144A154803F0A8FFA0
:109E7800009BBBB1019AAAB1186812498860187989
:109E88000873934201D91B79A3B112680D4B1A606C
:109E98000C4B1A685A60FFF73BFF01F0CDFF03B087
:109EA8005DF804FB074B00221A609A601A73FFF7EB
:109EB80015FFEDE700220A60EAE700BFCD9C02002B
:109EC800C43700201038002008B504F045FAA0F582
:109ED800805008BD00B587B000230093019302931A
:109EE800039304930593FFF7EFFF00900123019379
:109EF800064B03936946064804F085F910B907B084
:109F08005DF804FB034804F0CDF9F8E7F99D020079
:109F1800C43700203C2E002010B50B4B00241C60D9
:109F28005C609C60DC601C6101F0C0F9074B586004
:109F3800074A9A60074ADA601C615C61064B1C702C
:109F4800FFF7C8FF10BD00BF10380020EC37002015
:109F580091A00200008793032538002008B5084B1C
:109F68001B7803B108BD0748074B036000F058FE93
:109F7800064801F033F9024B01221A70F2E700BFDC
:109F8800C037002004380020B9A10200EC370020B7
:109F980010B501F00DFF164B1B7BFBB9144B9B7BD7
:109FA8000BBB134B1A8A41F282639A4204D8114BB5
:109FB8001B788BB1012300E00123B3B10C4B0122C4
:109FC8001A7300241C829A6801329A60FFF786FE91
:109FD8002046FFF7F1FE02E00023EEE7082401F037
:109FE8002BFF204610BD0824F9E70824F7E700BF37
:109FF800103800202538002010B501F0D9FE204B7C
:10A008005B7B9BB11E4B9B7BF3B91D4B1A8A41F2BC
:10A0180082639A4204D81B4B1B782BB1012300E0C2
:10A0280001239BB1012302E00023FAE700231C4629
:10A038000BB3134B00225A731B7B4BB1012B0ED071
:10A048007846FDF703FB16E00023F0E70023EEE770
:10A05800FFF79EFF78B17846FDF7F8FA0BE0084B5A
:10A0680000201860586018731882FFF7A5FEFFF7E4
:10A0780035FEFFF74DFE01F0DFFE204610BD00BFA4
:10A08800103800202538002008B5214B1B7B7BB1F8
:10A09800012B20D07846FDF7D9FA1D4A138A0133DF
:10A0A80013821B4B5B8A13B1013B194A538208BDCB
:10A0B800174B1A8A41F282639A4204D8154B1B78CF
:10A0C8003BB1012300E00123002BE6D0FFF794FF0A
:10A0D800E7E70023F8E70E4B1B8A41F282629342BE
:10A0E80004D80C4A127872B1012200E00122002A39
:10A0F800D3D042F2B012934207D9054B01225A73CA
:10A10800FFF77AFFCDE70022F1E7FFF775FFC4E715
:10A11800103800202538002010B5244B1B7B002B5D
:10A1280035D10446214B5B8A2BBB1AB91F4B9B6860
:10A138008B4205D3FAB11D4B9B6801338B421AD26F
:10A148001A4B9B682A338B4223D3184B9B7B03BB48
:10A15800164B996000221A605A601A8242F606511C
:10A1680059825A731A73FFF7B9FDFFF7D1FD2046DC
:10A17800FFF722FE0DE062B10C4B9B6801338B4266
:10A1880007D10A4B01225A73FFF736FF01E0012B72
:10A1980000D010BD002AFCD1044B9B688B42F8D13B
:10A1A800024B01225A73FFF727FFF2E7103800200D
:10A1B8000378042B00D0704743681B78002BFAD033
:10A1C80010B58468027E437E012A14BF0022012252
:10A1D800416904F11000FFF79FFF10BD10B5184B3F
:10A1E8001A685B689A4225D20446154B1B7B012BE3
:10A1F80013D0144B9A4212D2114B1A685B68403B39
:10A208009A4214D2EFF3108072B60D4A1368591CA3
:10A218001160236090B962B610BD0B4BEAE7084B9A
:10A2280001225A73FFF7E8FE0028EBD1E4E7FFF7B5
:10A238006FFDE7E7FFF76CFD0F20EDE70020EBE788
:10A2480010380020FFFF7F0000E0FF0008B568B964
:10A258000C4B1B6893B10B4A1368013B136063B93D
:10A26800094B00229A73FFF7C7FE06E0064B01224E
:10A278009A73044A13680133136008BD7846FDF7E2
:10A28800E5F9E8E7BC3700201038002000B58DB0AC
:10A29800ADF808008DF8102003910CA8032300F8EE
:10A2A8002C3DFEF7F9FD0DB05DF804FB014B9868F5
:10A2B800704700BF10380020054B1B7B012B02D0D4
:10A2C800034B98687047024B98680138704700BF85
:10A2D80010380020044B9B68584010F0010F00D044
:10A2E800013B1846704700BF10380020014B187B0F
:10A2F800704700BF1038002038B50B4B1B788BB95E
:10A30800094B01221A70094DA8602973FFF7E6FC72
:10A318000020FFF751FD00242C606C60FFF7F8FC6B
:10A32800204638BD0820FCE7E83700201038002018
:10A338002DE9F041002724E02449BC2303FB04F362
:10A34800CA5A0132CA520221284602F03AFD0136A1
:10A358000221284602F005FD80B11C4ABC2303FBFC
:10A368000423D3F80880B8F1000FE5D0BC2303FB21
:10A3780004F3D25A01463846C047DDE78EB90137A3
:10A38800FFB2022F1FD83C46BC2303FB07F3083358
:10A398000E4D1D4404350221284602F0E2FC002639
:10A3A800DAE70021284602F074FD0828E7D1074BB8
:10A3B800BC2202FB0434A368002BE0D0002204492D
:10A3C80038469847DBE70120BDE8F08130380020A7
:10A3D800A84C040008B5082383731023437300F1C5
:10A3E8001C0343610323037300F1180303610C305A
:10A3F80002F021FD08BD000008B50378012B06D046
:10A40800022B07D07846FDF721F9002001E04FF430
:10A41800A97008BD0048FCE7645E010008B5027831
:10A42800012A07D0022A13D07846FDF70FF94FF416
:10A43800FA7308E083685B1A98084FF4A97303FB62
:10A4480000F303F5FA730748984228BF184608BD79
:10A4580083685B1A180B044B03FB00F303F5FA73CC
:10A46800F1E700BF60850100645E010038B504466D
:10A4780001210C3002F075FC054678B1084BC4F890
:10A488009C300023C4F8A0306168FFF7C7FFC4F808
:10A49800A800C4F8AC40012384F8B830284638BD79
:10A4A800C9A5020010B50446FFF7E0FF20B104F18A
:10A4B8009C000EF03FFA00B910BD7846FDF7C6F8CB
:10A4C800FAE70000F8B506460C4617461568037803
:10A4D800012B18D11249A1FB0431C9098900B468BC
:10A4E800641B8C4200D30C468CB1706825F00305C0
:10A4F800F168224629442844FFF7A6FB58B93B686F
:10A508001C443C60F8BD7846FDF7A0F8E2E77846C1
:10A51800FDF79CF8E9E77846FDF798F8EFE700BF04
:10A52800EB5DF260F8B507460C46164615680378E9
:10A53800022B16D1114BA3FB04231B0C1B03BC6875
:10A54800641B9C4200D31C467CB1786825F0030547
:10A5580021462844FFF748FB58B933681C44346047
:10A56800F8BD7846FDF772F8E4E77846FDF76EF82F
:10A57800EBE77846FDF76AF8EFE700BFB77609BB67
:10A5880038B505460C4611462378012B06D0022B18
:10A598000FD07846FDF75AF8002304E0021D204644
:10A5A800FFF790FFA3686868984214BF0020012055
:10A5B80038BD021D2046FFF7B5FFA368F3E700008A
:10A5C8002DE9F8430F46D1F8A850234B1B7863B9FF
:10A5D8000646A5F5FA7501F10C090121484602F075
:10A5E800C0FB804640B1002422E00EF0DFF90023D2
:10A5F80087F8B830BDE8F8837846FDF727F8F2E722
:10A608000EF0D4F90121484602F0DBFB00237B6001
:10A6180087F8B830114B186801F062FC3846FFF72C
:10A6280041FFE7E74046FFF7E7FE2044A8420CD881
:10A638002A1B41463846FFF7A3FF0028E0D101F066
:10A6480091FA841BEED5341AECE70EF0AFF93846D0
:10A65800FFF728FFCEE700BF2C380020283800205D
:10A6680010B5084801F01CFC074B1860002406E0F0
:10A67800064BBC2000FB0430FFF7ACFE0134022C73
:10A68800F6D910BD39A30200283800203038002040
:10A6980038B504460D46022805D8054BBC2202FBF6
:10A6A8000434A56038BD7846FCF7D0FFF5E700BF55
:10A6B800303800202DE9F84306460C461746022894
:10A6C80016D8CCB12378012B1AD0022B3ED163685F
:10A6D800C3F30B03002B31D1A368C3F30B03002B87
:10A6E80030D1A368002B34D17846FCF7AFFF30E0B7
:10A6F8007846FCF7ABFFE4E77846FCF7A7FFE1E70D
:10A70800636813F0030F0DD1E36813F0030F0DD145
:10A71800A36813F0030F0DD1A368D3B97846FCF7EB
:10A7280095FF16E07846FCF791FFEDE77846FCF7D1
:10A738008DFFEDE77846FCF789FFEDE77846FCF7F3
:10A7480085FFC9E77846FCF781FFCAE77846FCF73A
:10A758007DFFEFF3108872B6BC2505FB06F505F101
:10A7680008032A4D1D4404350021284602F0F9FA51
:10A77800814678B30021284602F023FB20686168EF
:10A78800A268E368C9F80000C9F80410C9F80820ED
:10A79800C9F80C302FB11D4ABC2303FB06235B8884
:10A7A8003B801A4ABC2303FB06235A8801325A808D
:10A7B80093F8B83083B9164B1B7813B10024A1461F
:10A7C8000CE0124BBC2000FB0630FFF74FFE814621
:10A7D800002403E0042401E00024A146B8F1000F9E
:10A7E80000D162B6B9F1000F09D0BC2000FB06F613
:10A7F80098360648304404300EF09CF810B92046CC
:10A80800BDE8F8837846FCF721FFF8E730380020E8
:10A818002C38002038B50446EFF3108572B610B90D
:10A82800164B1B6873B18CB1144A1368013313605B
:10A83800124B1B68003318BF0123114A137005B966
:10A8480062B638BD7846FCF701FFECE70B4B1C6895
:10A85800013C1C600CB1EBE70134022CE8D8094A32
:10A86800BC2303FB042393F8B830002BF4D1BC209D
:10A8780000FB0420FFF716FEEEE700BF643A002055
:10A888002C3800203038002018B1830B024AD05CE5
:10A8980070470020704700BFB84C040012DF7047B3
:10A8A80000B583B01378A3B1022B14D1072110F897
:10A8B800013C163B152B31D8DFE803F05930303016
:10A8C8003030303030303030303030303030302E82
:10A8D8000F3A517DEBE70021E9E7022901D007296A
:10A8E8001CD110F8021C013901F054FFB0B1264BFD
:10A8F8001B6813F0400F11D0244B1B68012B0DDD92
:10A90800234BD3F804350190224A0092932222491E
:10A91800022002F0D5FC01E0022902D003B05DF864
:10A9280004FB10F8021C0139C9B213F0E9FCF5E781
:10A938000229F3D110F8021C0139C9B203F0C2FF91
:10A948000028EBD0104B1B6813F0400FE6D00F4BDC
:10A958001B68012BE2DD0E4BD3F8043501900F4A3A
:10A968000092A6220C49022002F0AAFCD6E7018830
:10A978004FF6E4639942D1D110F8021C0339023032
:10A98800FCF7B2FDCAE700BF6C2E0020682E00203D
:10A9980000100140484D04003B4D0400744D040074
:10A9A80070B58AB00EF072FD58B3064600238DF8D4
:10A9B800103005AC05460FCD0FC42B682360727D9F
:10A9C800052A04D9337D03F00F03072B20D1184B38
:10A9D8001B689BB104AB0393337DC3F303038DF86A
:10A9E8000430737D062B1DD9063B8DF8053006F122
:10A9F8001D0302930E4B1B6801A8984730460EF0C2
:10AA080025FD0EF05FFD80F00100C0B20AB070BDF8
:10AA1800307D04AB063A06F11D0100F00F000DF081
:10AA280087FAD4E700238DF805300293E2E700BFE8
:10AA38006C3A00200B4B1B78032B00D0704700B5F5
:10AA48008DB0084B04221A702C22002101A819F09D
:10AA580074FC1C238DF8043001A8FEF71DFA0DB014
:10AA68005DF804FB683A002070B582B0354B1B785E
:10AA7800002B5ED1002860D0067A0F2E01D0062E5A
:10AA88005DD1044605F03EFFE06870B1FCF7F0FDCB
:10AA98000DF10700FFF702FF054600284AD19DF88F
:10AAA8000730012B04D0022544E0FCF7EFFDEFE767
:10AAB800FCF70EFE00F07EFB304601F027F9E07847
:10AAC80000F09EF900F01AFF0DF0B6FE1E480EF0D9
:10AAD80095FD0DF0CDFBFFF7C3FD04F0F1FF00F08D
:10AAE8006DFD05F0D1FE05F09DFC204601F060FDEE
:10AAF800FDF7D0FE04F0E4FAFCF7F6FC18B10628DE
:10AB080001D0054616E011480DF0F4F92A200DF0A1
:10AB180083FA2B200DF080FA29200DF07DFA1620FB
:10AB28000DF07AFA0A4B00221A60064B01221A70BD
:10AB380000E00825284602B070BD0E25FAE7072573
:10AB4800F8E700BF683A0020A9A902005C2E00209F
:10AB58006C3A002010B582B01C4B1B78012B0BD02F
:10AB68007BB3033B012B2CD80DF0D4FE044648BB25
:10AB7800164B02221A7025E00EF046FC01F02AFD61
:10AB8800FDF7CAFEFCF7B0FC0446B8B1062815D09C
:10AB98000F4B1B6813F4804F14D00E4B1B68012B0E
:10ABA80010DD0D4BD3F8043501900C4A009240F2A9
:10ABB800A7120B49022002F083FB03E001F0D2F850
:10ABC800D2E70824204602B010BD00BF683A002032
:10ABD8006C2E0020682E002000100140BC4C0400A0
:10ABE8003B4D040008B50A4B1B78022B02D0082302
:10ABF800184608BD064B03221A7006480DF03EFEA3
:10AC080003460028F4D07846FCF720FD0023EFE740
:10AC1800683A00203DAA020008B5FDF781FE08BD8C
:10AC280008B5FEF761F908BD08B5FEF76DF908BD6E
:10AC380008B500F029FE002008BD08B507F06CF93A
:10AC480008BD0000064A136801331360B3F1704F62
:10AC580002D0034B18687047134601221A60F8E7C0
:10AC6800703A002010B5044618B1002323606360D1
:10AC780010BD7846FCF7EAFCF7E738B50C46054600
:10AC880068B184B100236360EFF3108372B62A6859
:10AC98006AB16A6854606C6003B962B638BD7846B8
:10ACA800FCF7D4FCEDE77846FCF7D0FCEAE72C602B
:10ACB800F1E710B5044658B1EFF3108372B6206877
:10ACC80008B142682260226832B103B962B610BD89
:10ACD8007846FCF7BBFCEFE76260F6E710B5044680
:10ACE80008B1206810BD7846FCF7B0FCF9E738B524
:10ACF8000C46054688B1A4B12046FFF7EFFF58B1CE
:10AD08002846FFF7EBFF80B16B6822685A606368DA
:10AD18006B602046FFF7A6FF38BD7846FCF796FC27
:10AD2800E9E77846FCF792FCE6E794E8030085E853
:10AD380003002046FFF796FFEEE7037A23B943683E
:10AD48001B6804334360704700230372704710B5D3
:10AD580084B00446416803681A1D91420DD06368A7
:10AD680018682268516888421CD063681A6852685B
:10AD78001A600123237204B010BD019302930023CB
:10AD88008DF80C30029B1B68002BE8D062681268B3
:10AD98009A4203D001A8FFF7D0FFF3E701A8FFF715
:10ADA800D6FFE8E7934202D0043B5360DDE7002377
:10ADB8005360DAE735DF70473CDF70473DDF7047A7
:10ADC80010B504464FF0FF30FFF7F4FFFF210020D5
:10ADD800FFF7F4FF21460020FFF7EEFFBFF34F8F88
:10ADE8000549CA6802F4E062044B1343CB60BFF321
:10ADF8004F8F00BFFDE700BF00ED00E00400FA053B
:10AE0800072814D8DFE800F0080C1504110F0A060B
:10AE18006420704714207047FA2070471E2070473E
:10AE28004FF4FA707047322070474B207047FA2071
:10AE38007047962070470000024B5868103840B29F
:10AE4800704700BF00ED00E0034600280FDB5B11F0
:10AE5800084A52F82330424200F01F0002F01F0255
:10AE680058BF504223FA00F000F00100704700F18B
:10AE78001F03ECE700E100E046DF7047F8B5044641
:10AE88000D464B1EDBB2012B09D8002222616261FC
:10AE9800A261E2612046FFF7EFFF012616E078463F
:10AEA800FCF7D4FBF1E7CA5CC8185200D2B240786C
:10AEB80042EAD012CA5401339BB20E2BF3DDCB7B8E
:10AEC8005B00CB73002F08DB0136F6B2AE420BD81D
:10AED800214611F9207F0023EFE794F82F3083F003
:10AEE800870384F82F30EFE7F8BD2DE9F04190B0E3
:10AEF80084460C4696461F4602F10F0636111FFA85
:10AF080086F804AD0068DCF80410DCF80820DCF8EA
:10AF18000C300FC50EF00F05B8F1000F02D085B147
:10AF2800002300E0002398466BB1012104A8FFF735
:10AF3800A5FFB8F1000F1BD0B0B2013800011023F3
:10AF48000EE00123EFE70221F0E7013B9BB2221854
:10AF5800D25C10A9194411F8101C4A400DF80320BE
:10AF6800002BF2D100250C950D950E950F9534E028
:10AF7800B1B20139ADB22A4604EB0111684619F0A5
:10AF8800B3F980230DF805306B1C03E000220DF89F
:10AF9800032001330F2BF9DD10230AE0013B9BB29C
:10AFA8001DF8032010A9194411F8101C4A400DF887
:10AFB8000320002BF2D1D5E7013B9BB210AA1A441B
:10AFC80012F8102C2118C95C4A4008A9CA54002B51
:10AFD800F2D104A8FFF750FF0135B3B2013BAB42F1
:10AFE80002DD28011023F2E710230AE0013B9BB29F
:10AFF80010AAD11811F8402C11F8101C4A4008A9C1
:10B00800CA54002BF2D104A8FFF736FF0CAC0FCCC2
:10B0180038607960BA60FB6010B0BDE8F08100006C
:10B0280010B50446134B1B684BB14068114B1B68A5
:10B038005B68C31A002B02DB0E4B19680DE00D4B41
:10B048001A6862611C600B4A938801339BB2938033
:10B0580063B10123237010BD19464B691BB15A68AF
:10B06800121A002AF8DB63614C61ECE77846FCF7BA
:10B07800EDFAEEE7783A002038B5054619E063693D
:10B08800214A13600023636193889BB2591E89B2D9
:10B0980091800BB3A3681BB302232370A3682169B3
:10B0A8002846984700F002F905462378DBB2022BC0
:10B0B8001AD0154B1B6833B3134B1B685B685B1BBB
:10B0C800642B20D5104B1C682378DBB2012BD6D01B
:10B0D8007846FCF7BBFAD2E77846FCF7B7FAD9E727
:10B0E8007846FCF7B3FAD7E7E26812B90023237071
:10B0F800DFE76368134463605B1B642BF9D4204665
:10B10800FFF78EFFD5E738BD783A002010B5044622
:10B11800144B1B68834207D0124B1B68D3B15A6982
:10B12800A2420ED01346F9E743690E4A136093888A
:10B138009BB2591E89B2918063B97846FCF786FAAA
:10B1480008E062695A6107498B889BB25A1E92B21D
:10B158008A8013B10023237010BD7846FCF776FA75
:10B16800F8E700BF783A002008B5064B1B6833B1F2
:10B17800044B1B680449586800F04AF908BD00F000
:10B18800ABF9FBE7783A0020ADB1020008B500F052
:10B198008DF8FFF771FF00F089F8FFF7E5FF012050
:10B1A80008BD000008B5024B186800F099FE08BDFC
:10B1B800743A002008B5064B00221A605A60054808
:10B1C80000F06EFE044B186000F063F808BD00BF85
:10B1D800783A002095B10200743A002010B5044670
:10B1E80000F052FF80B19CB1A368ABB12378DBB209
:10B1F800012B15D0002363612046FFF711FF00F0F3
:10B2080055F8FFF7B1FF10BD7846FCF71FFAEAE7DB
:10B218007846FCF71BFAE7E77846FCF717FAE5E704
:10B228007846FCF713FAE5E710B5044600F02CFF62
:10B2380050B16CB12046FFF769FF0023636100F04D
:10B2480035F8FFF791FF10BD7846FCF7FFF9F0E7F6
:10B258007846FCF7FBF9EDE738B504460D4600F0F3
:10B2680013FF70B18CB12046FFF750FF00236361D4
:10B2780065602046FFF7D4FE00F018F8FFF774FF6A
:10B2880038BD7846FCF7E2F9ECE77846FCF7DEF9DA
:10B29800E9E708B517F030F800B108BD16F0A0FFCF
:10B2A8000028FAD07846FCF7D1F9F6E72DE9F0083E
:10B2B800EFF3108172B61A4B1A681A4BD3F804458B
:10B2C800D3F80431012B25D001B962B644EA0264EF
:10B2D800204600216201E30E121B63EB01035C02AE
:10B2E80044EAD25455022E1844EB0107BD0145EA41
:10B2F8009665B401A21B65EB0703141843EB01051F
:10B3080014F5804245F10003D00B40EA4340BDE804
:10B31800F0087047034BD3F804450132D4E700BF67
:10B32800803A00200010014010B50A4B4FF400325B
:10B33800C3F84823C3F80823074B1B682BB1064BF7
:10B348001C68FFF7B3FFA04710BD7846FCF77EF9ED
:10B35800F5E700BF001001408C3A0020EFF31081A0
:10B3680072B6264B0022C3F80421254A136801331C
:10B37800136001B962B6234B1B68002B3DD0214BEB
:10B388001A68013A1A601B68002B36D103F1804312
:10B3980003F58833D3F804251B4B1B689A421ED249
:10B3A800EFF3108272B6154BD3F804350133164902
:10B3B80009688B4210D3114BD3F8043502330F4977
:10B3C800C1F8443502B962B60C4B4FF40032C3F8E9
:10B3D8004423C3F8042370470B4B1B68EFE710B5F1
:10B3E8000A4B1B682BB1094B1C68FFF75FFFA0478E
:10B3F80010BD7846FCF72AF9F5E7704700100140C0
:10B40800803A0020843A0020883A00208C3A0020B4
:10B418002DE9304882B00446002301930D460029E7
:10B428003AD0274B1D60FFF741FF031B002B37DB8A
:10B4380000234FEA534C4FEAC33B224A0023224CD5
:10B4480000251BEB04004CEB050118F002FEEFF39E
:10B458001083019372B61D4BD3F80435022838BF08
:10B468000220C3F1FF1202F57F4282421AD303443D
:10B47800164AC2F844354FF40033C2F84433C2F8D0
:10B4880004330023124A1360124A1360019B03B964
:10B4980062B602B0BDE830887846FCF7D7F8C0E756
:10B4A800231AC6E7034403F17F4301331A0E01321E
:10B4B80007490A6023F07F43064A1360E6E700BFA6
:10B4C8008C3A002040420F0020A1070000100140E4
:10B4D800843A0020883A0020074B4FF40032C3F822
:10B4E8004823C3F808230023044A1360044A13605E
:10B4F800044A1360704700BF00100140843A0020DE
:10B50800883A00208C3A002030DF704731DF7047DE
:10B5180010B402684368A2EB7312846883EAF433B8
:10B528000360C1680C444460114481601344C360E3
:10B5380018465DF8044B704770B582B00D46064654
:10B5480008B100240BE07846FCF780F8F9E79DF88D
:10B5580007103019FFF7DAFF9DF807301C44A542A1
:10B568000DD90DF10700FFF7CFFF9DF80730002B2D
:10B57800F7D02A1B9342EAD98DF80720E7E702B0F3
:10B5880070BD000030B583B00546002402A840F81D
:10B59800044D0421FFF7D0FF074B2B60019B6B6024
:10B5A800AB60EB6003E02846FFF7B2FF0134132CD1
:10B5B800F9D903B030BD00BFED5EEAF1704748DF4E
:10B5C800704749DF70474ADF70470000044B01228B
:10B5D8005A7143F2B0629A6043F69822DA60704773
:10B5E800DC3A0020094B03221A74094A5A611A6886
:10B5F80040F6D8639A4204D8054B40F6D8629A6060
:10B608007047034B43F2B0629A607047BC3A00201F
:10B61800DC3A002008B50F4B1B78022B12D0032B05
:10B6280008D0012B03D07846FCF710F80EE002236F
:10B6380003740BE0084B00225A71084999600849C5
:10B64800D960827103230374034B4361014B0022C9
:10B658001A7008BDED3A0020DC3A0020A0860100EF
:10B66800FF1FA10738B5044600250574012343715F
:10B678000E4A13680133136000F0D2FA0DF010FA85
:10B6880023680B4A1168283101FB03F1094AA2FB20
:10B698000121A3EB9141084A7839284600F03CFA89
:10B6A80000B938BD7846FBF7D1FFFAE7F03A002039
:10B6B800D83A002083DE1B43EDB5020010B50446DE
:10B6C80000238360C36003680D4A92680260817931
:10B6D80091B10121017403B90A4B991A6161B1F55D
:10B6E8007A7F01D39A4202D94FF47A736361FFF7E4
:10B6F8006DFF0123A37110BDFFF7B4FFF7E700BF8B
:10B70800DC3A00208096980010B50C4631B1C36829
:10B718000133C360426903681344036083680133DB
:10B72800836001220274426952084261012B0DD0E4
:10B73800022B19D042690368134417498B4222D857
:10B7480040F6D7639A4221D800231DE0B2F5FA7F6C
:10B7580005D040F6D8639A42ECD84361EAE7002C5A
:10B76800F7D100234361E5E7C368022B06D0012B1C
:10B77800E0D1002CDED100234361DBE70268064BF1
:10B788009B1A4361D6E7002313B110BD0123FBE7E1
:10B79800FFF768FFF9E700BF8096980043791BB967
:10B7A8000D4B00221A70704710B504460DF094F93D
:10B7B80020680A4B1B68283300FB03F3084AA2FBE6
:10B7C8000323A0EB9340783800F05AFA0023637102
:10B7D800014B00221A7010BDEC3A0020D83A002024
:10B7E80083DE1B4308B5254B01221A71244B1B78B5
:10B7F80013B1244B1B781BB3204B00221A74042866
:10B808001AD8DFE800F00314110C07001B48FFF7F3
:10B8180055FF1CE001211948FFF776FF17E00021CA
:10B828001648FFF771FF12E00DF0E6F80FE000F0A0
:10B83800B9F90DF01BF90AE07846FBF707FF06E0B7
:10B8480000F090F90D4B18601846FFF7E3FE0B4B1C
:10B858001B7C023BDBB2012B08D9084B1B7C022B5B
:10B8680008D0064800230371103008BD0348FFF7CD
:10B8780095FFF2E7014B01221A76F2E7BC3A002065
:10B88800ED3A0020EC3A002008B50438042814D812
:10B89800DFE800F0182614030E00164B1B7E012B60
:10B8A8000BD1FFF78EFE40B17846FBF7CFFE04E0E0
:10B8B800104B00221A760DF033F908BD7846FBF7D5
:10B8C800C5FEFAE7FFF782FE0B4840F6D8638360AF
:10B8D800FFF779FE0028F0D07846FBF7B7FEECE7D3
:10B8E8000548FFF770FE0028E7D07846FBF7AEFE64
:10B8F800E3E700BFBC3A0020DC3A002010B40E4A4F
:10B908000023137013710121517143F2B0649460E4
:10B9180043F69824D460094A1060094A1370094A0A
:10B928001370094A1360094A13715371136013762F
:10B9380091715DF8044B7047DC3A0020D83A00203A
:10B94800EC3A0020ED3A0020F03A0020BC3A002002
:10B9580008B5104B1B7E012B08D01BB1022B16D14A
:10B9680011200BE00C48FFF72AFE40B90B48FFF7FF
:10B978002AFE40B9074B02221A76002008BD7846F5
:10B98800FBF764FEF2E77846FBF760FEF2E700207B
:10B99800F4E700BFBC3A0020EDB70200DC3A002013
:10B9A8000B4B1B7C023BDBB2012B0BD9094B1B78E1
:10B9B800012B09D0022B09D0032B01D0002070479E
:10B9C800012070470120704701207047012070470F
:10B9D800BC3A0020ED3A0020014B1868704700BFC0
:10B9E800BC3A00200D4B5B790BB90020704710B5AD
:10B9F8000A4B1C680A4B1B68283303FB04F3094AEB
:10BA0800A2FB0323A4EB9344783C00F0ABF8034675
:10BA1800201A00D410BD181BFCE700BFBC3A002058
:10BA2800D83A002083DE1B43014B5879704700BF8A
:10BA3800BC3A0020014B1879704700BFBC3A00207F
:10BA4800024B187E003018BF01207047BC3A002016
:10BA5800EFF3108372B6054A527922B1044A4FF4C3
:10BA68008071C2F8001103B962B67047BC3A002071
:10BA780000E100E008B5054B1B7E022B00D008BD95
:10BA8800034B01221A70FFF7E3FFF8E7BC3A0020E6
:10BA9800ED3A002008B5074B1B7E022B00D008BDED
:10BAA800012805D00222044B1A70FFF7D1FFF6E7F0
:10BAB8000322F8E7BC3A0020ED3A002008B5094B0C
:10BAC8001B782BB148B9084B1B7813B1012300E050
