:020000022000DC
:10600000000001203D6202009562020097620200DA
:10601000996202009B6202009D6202000000000083
:106020000000000000000000000000009F6202006D
:10603000A162020000000000A3620200A56202004B
:10604000AD820200AB6202002D870200AF62020047
:10605000B1620200B3620200B1850200B7620200C1
:10606000B9620200BB620200BD620200BF620200B0
:10607000C1620200C3620200C5620200C762020080
:10608000C9620200B5700200CD620200CF62020058
:1060900051710200D3620200E5A20200D762020041
:1060A000D9620200DB620200DD620200DF620200F0
:1060B000E1620200E3620200A7620200A76202003E
:1060C000E5620200E7620200E9620200EB620200A0
:0C60D000ED620200EF620200F1620200CB
:1060DC00364937480A1A02D0072291438D46354972
:1060EC0035480A1A06D00722914381F30988022207
:1060FC0082F3148831483249324A00F045F832486C
:10610C003249334A00F040F832483349334A00F000
:10611C003BF833483349344A00F036F833483449B5
:10612C00344A00F031F834483449354A00F02CF840
:10613C0034483549354A00F027F8354835490022AE
:10614C0000F02DF834483549002200F028F8344886
:10615C003449091A082903DB00220260043001606B
:10616C00314A90471F482049884205D002680430C4
:10617C0003B4904703BCF7E700208646EC460020AA
:10618C0000212A4A9047FEE7884207D0521A05D0D0
:10619C00037801300B700131013AF9D17047884214
:1061AC0002D002700130FAE77047000000000120B5
:1061BC0000E0002000000120000001207CB502005E
:1061CC00EC22002040230020F4620200F462020062
:1061DC0042A702007CB50200EC220020EC22002039
:1061EC0048A8020048A8020048A8020048A80200DB
:1061FC0048A8020048A8020048A8020048A80200CB
:10620C007CB50200D0B502004023002040230020C2
:10621C00402300201C2C00201C2C00201C2C0020B7
:10622C001C2C00201C4C002061620200F591020025
:10623C000F484FF00701884385460E4880470E48AB
:10624C00016841F470010160BFF34F8FBFF36F8F92
:10625C00FFF73EBF09480A490A4A884207D0521A3A
:10626C0005D0037801300B700131013AF9D1704738
:10627C0000000120597D020088ED00E014A8020006
:10628C00B8220020EC220020FEE7FEE7FEE7FEE746
:10629C00FEE7FEE7FEE7FEE7FEE7FEE7FEE7FEE7CA
:1062AC00FEE7FEE7FEE7FEE7FEE7FEE7FEE7FEE7BA
:1062BC00FEE7FEE7FEE7FEE7FEE7FEE7FEE7FEE7AA
:1062CC00FEE7FEE7FEE7FEE7FEE7FEE7FEE7FEE79A
:1062DC00FEE7FEE7FEE7FEE7FEE7FEE7FEE7FEE78A
:0862EC00FEE7FEE7FEE700BF3C
:1062F400F0B595B01C46164608460D4601F00EFC56
:106304001A9B0D93CDE9086400242346082205A9AD
:1063140028460A948DF82C400C9401F03BFC079B12
:106324000293BDF81830ADF80C30BDF81A30ADF852
:106334000E309DF814308DF8114003F00302012A49
:106344001DD1BDF81440059EC3F3C203C4F38314E6
:106354008DF81030A20008230EA9284601F01AFC7B
:10636400C6F3952608AB0093224602AB0EA930462D
:1063740000F0DEFB284601F0D5FB15B0F0BD022A83
:10638400F8D1BDF81640C3F3C203A4098DF8103048
:106394000827082C264628BF08263B4632460EA965
:1063A400284601F0F7FBA41B08AB02AA31460EA84D
:1063B400374400F021FC002CEBD1DBE7014B012238
:1063C4001A707047812300207047000070B50E4D8D
:1063D40006460FCD88B06C460FC495E80F0084E8DC
:1063E4000F0008A9002E4FF00603084A41F8203D8B
:1063F40008BF0022064801F0E1FE08B100F0ACFD40
:10640400044B1E7008B070BD48A80200C1630200AE
:10641400EC2200204023002007B5044B0093044ADB
:106424004023FFF765FF03B05DF804FB3964020005
:106434004123002038B50D4B0D4D002018700D4838
:1064440004782D5DD2B21C4665B1043002F0A4FD7F
:1064540008B100F081FD084B1A7812B12378002BA3
:10646400FBD038BD0C3002F091FBF1E78123002012
:10647400102A0020EC2200204023002008B5084800
:10648400084A0378D35C3BB1043002F021FD0020BC
:10649400BDE80840FFF79ABF0C3002F013FBF6E7A3
:1064A400EC220020102A00200120FFF78FBF0000FB
:1064B40010B5054CFFF7F8FF0421204600F0A8FAB8
:1064C4000123637210BD00BF00230020037813F082
:1064D400030F03F0040202D012B910467047B2B1A0
:1064E40003F00303012B03D0022B09D001207047D2
:1064F4000A6800880232C0F3831002440A60F5E798
:106504000B684288023303EB92130B60EEE70B68CF
:106514004288013303EB92130288F4E72DE9F04F2C
:1065240089B00546861C08A8484C019200230F46F2
:1065340000F8113D00F0F6FF23683B60D4E9012325
:106544001344226801339B1A04F21C4704F5836A3E
:1065540004F21448B3421AD3019A0023002A6DD0DE
:10656400012262F3010343F0040365F389132168F4
:10657400A2689DF80F000A4003320E4444F822300A
:10658400266000F0F3FF012009B0BDE8F08F01217F
:10659400384601F048F8504601F05BF8404601F0F7
:1065A40058F80DF120096068D4F808B049F8100DC6
:1065B40000EA0B00033004EB80004946FFF786FF36
:1065C400049BB0B90BEA030204EB8202D168059183
:1065D4009A1C013303EA0B0B04EB8B0C01F003034D
:1065E400012B0492DCF80CB020D0022B04D083469B
:1065F4000BE00BEA0300DDE7BDF816309B0903331B
:106604004FEA1B4B02EB93030493404601F024F83A
:1066140008B1049B63605946384601F004F8D4E994
:1066240001231344226801339B1A93E7BDF8143005
:10663400C3F383134FEA1B4B1344E5E7022262F3CF
:10664400010343F0040365F39F5390E754240020AF
:1066540008B50E4B0E48FF229A600022C3F8182496
:10666400C3E90022C3F8142483F8202401F00FFAAC
:1066740038B9084A084B09499B1ADB0802469A4272
:1066840000D108BD21F822200132F8E7542400206B
:10669400E4A702007CA70200E4A70200B8220020BD
:1066A40030B50B4C79B10B4A0B49121BD2080023AD
:1066B4009A4201D1002030BD01EB83056D888542EB
:1066C40002D00133F4E7034654F83300F3E700BF84
:1066D4007CA70200E4A70200B8220020094B01397C
:1066E40003EBC000032909D8DFE801F00A0204061D
:1066F4000420704700797047407970470020704744
:10670400022070477CA70200034BD3E90030C31A70
:1067140058425841704700BF542400202DE9F043EB
:1067240087B0FFF7F1FF0746002840F0F5807B4D66
:10673400C5F81804BFF34F8F6868AC680DF11808EA
:1067440048F8100D2040033005EB80004146FFF768
:10675400BDFE029B064600285FD104EA0302991C91
:10676400013305EB8202234005EB8303D268DB6827
:10677400049302F00303022B0392029162D1BDF849
:106784000E3067484FEA9318B8F1500FC14628BF3E
:106794004FF0500969F38F1309F10801ADF80E3079
:1067A40001F08DF90746002800F0A48001F0B6F945
:1067B400334603A90822384601F0C3F9029924EAB2
:1067C40001060136B600B14535D95FFA89F97EB3C1
:1067D400F6B2A9EB0609214003315FFA89F4B14608
:1067E400504E05EB810108234A46384601F0A9F9C9
:1067F40036B109F1080322463146384601F0A1F9C1
:10680400029B08F1030803EB98030293D5F81834AC
:10681400002B4AD1D5F8104458E02A689A4204D88B
:106824006A60384607B0BDE8F08304EA03008AE7EB
:106834003C493446D7E72140033108234A4605EB57
:106844008101DAE7012B55D1BDF80C303448C3F38C
:106854008311062928BF062161F3891302318900B7
:10686400ADF80C3001F02BF90746002842D001F0B6
:1068740055F93346082203A9384601F062F9BDF8F8
:106884000C20C2F38312B31C96424FEA8303BDD299
:1068940002994A1C21400331029205EB8101042232
:1068A400384601F04EF90136E9E7384601F03AF985
:1068B400FFF72AFF80F00100C7B2B2E7637A23B181
:1068C400236839461B68204698476468002CF5D134
:1068D400384601F027F906A800F8114D00F022FE11
:1068E400D5F818340BB9029B6B609DF8070000F0D3
:1068F4003DFEDDE7D5F8104444B90B4B0B4918882D
:10690400000440F0020000F06BF8D1E72368204651
:106914009B6898476468EFE7002782E754240020C7
:10692400E4A7020060240020CC22002074A8020006
:106934002DE9F74F284C80460F46924601A90122C3
:1069440018469B46D4F80890FFF7E8FD88B3019DEC
:106954000026A91C5E4506EB010234D100211F4824
:1069640000F036FE80F310006A1C02EA090204EB10
:106974008202000405EA0903033340EA1840D060A8
:1069840014F8232068F3C50204F8232034F82320E4
:1069940066F3891224F8232054F82320012167F395
:1069A4009F2244F8232061F301026FF3820204F86A
:1069B400232094F820341BB1FFF7B0FE0028FBD14C
:1069C40003B0BDE8F08F09EA020204EB82025AF830
:1069D4002630D3600136BDE75424002070280020FF
:1069E40000231A46FFF7A4BF13B502AC012344F8F1
:1069F400042D2246FFF79CFF02B010BD07B5CDE978
:106A0400002302236A46FFF793FF03B05DF804FBFB
:106A14000F4A30B5D2F810440023214641B903721D
:106A2400D2F810444CB9C2F810044160184630BD85
:106A34000D7A9D4205D04968F0E762684260606063
:106A4400F4E701330A2BE8D14FF0FF33EEE700BF40
:106A540054240020084A38B50123D2F8104482F89F
:106A640020341D4604B938BD2368657220465B682E
:106A740098476468F6E700BF54240020037A052B86
:106A840010B50C460FD0437A23B1084A0849204672
:106A940000F043FE0749204600F03FFE2046BDE8D3
:106AA400104000F02FBE002AF8D0F3E7CFA8020070
:106AB400D4A80200F4A80200C38873B504460D46A6
:106AC40033B1144A00921449144A284600F025FEB2
:106AD400217A05291CD0637A4BB1A088FFF7FEFD0B
:106AE4000F4B104953F82020284600F016FE227A56
:106AF4000D4BA08853F822600021FFF7D1FD0B490C
:106B040003463246284602B0BDE8704000F005BE98
:106B140002B070BDCFA80200DFA80200D7A802000F
:106B24009CA80200D4A8020004A90200F7A802004D
:106B34002DE9F04385B01F460C9D002306460C4604
:106B4400904695F80C902B7329463846FFF7B4FF0E
:106B5400B8F1060F09D8DFE808F00412181F28332B
:106B640040003146284600F0D8FD00222946384628
:106B7400FFF784FF85F80C9005B0BDE8F083226828
:106B84003146284600F0C9FDEFE7D4E90023314639
:106B9400284600F0C2FDE8E7A36800933146D4E933
:106BA4000023284600F0B9FDDFE7E3680193A368FA
:106BB40000933146D4E90023284600F0AEFDD4E723
:106BC40023690293E3680193A36800933146D4E9EF
:106BD4000023284600F0A1FDC7E7636903932369F6
:106BE4000293E3680193A36800933146D4E9002338
:106BF400284600F092FDB8E708292DE9F84F8046B1
:106C04000E4617461C4636D8002593F80C901D7383
:106C140019461046FFF750FFDFF87CA0DFF87CB080
:106C2400AE422AD918F805205946204600F075FDD1
:106C34000135082DF4D11649DFF864B0204600F080
:106C44006CFD0025AE421DD918F805A0504603F08E
:106C5400E5FC002814BF52462E225946204600F077
:106C64005CFD0135082DEDD1012221463846FFF7A0
:106C740005FF84F80C90BDE8F88F5146204600F0DB
:106C84004CFDD5E70349204600F047FDE9E700BF86
:106C9400CAA80200C8A80200C6A80200C0A8020030
:106CA400CCA802002DE9F04F3B4F89B000263B4BA6
:106CB4001B78F5B2AB4202D809B0BDE8F08F384B6F
:106CC400196811F835000124A0F12002C0F1200355
:106CD40004FA02F924FA03F349EA0309D7E9002381
:106CE40004FA00F8CDE9042302EA080203EA0903DE
:106CF400134301EBC50B4CD0DDE9042322EA08025F
:106D040023EA0903C7E90023079101F045FC079929
:106D1400844611F83500A0F12002C0F1200324FAC2
:106D240003F304FA02F21A4304FA00F300931D4B2E
:106D34000192DDE90045D3E9002314401D402246B9
:106D44002B465FFA8CF40025CDE90445049CA0F1A0
:106D54002005AC400394049CC0F1200124FA01F105
:106D6400039C0C430499039481400291DDE902459C
:106D7400AB4208BFA2420CD19BF801104B1E5942F2
:106D84005941A1EB0C02DBF804305142514103B1EB
:106D9400984701368BE700BFA828002078280020F8
:106DA400B0280020A02800202DE9F84F06462448EA
:106DB40000F0A8FB002841D10123A6F12001C6F16F
:106DC400200203FA01FB23FA02F203FA06FA1D4B2E
:106DD400D3E900014BEA020B00EA0A0801EA0B09B5
:106DE40058EA09021F4623D1304601F0D5FB164B61
:106DF400B8B1D3E9000140EA0A0441EA0B05C3E94A
:106E04000045D7E900234BEA0305104B0C481968E9
:106E14004AEA0204C7E900450022BDE8F84F00F041
:106E24002DBBD3E9000120EA0A0421EA0B05E6E7B9
:106E340020EA0A0421EA0B05C3E90045BDE8F88FFE
:106E440080280020A8280020A02800207C280020DA
:106E5400042A2DE9F34105460C4616463AD901F0B9
:106E6400B1FAD8B11C4B1D491D601D4BDFF884805D
:106E74001C701C4B00221E600023C1E900231A4928
:106E8400C1E90023013CE4B200260327FF2C0CD106
:106E9400164A1748002100F0DFFA03E001F05AFA1D
:106EA4000028DFD002B0BDE8F08123B205EBC302B5
:106EB40001A992788DF8052015F833008DF8066045
:106EC40042468DF8047001F087FA013CE4B20028D0
:106ED400DCD0E7E70720E5E7B0280020A028002061
:106EE400782800207C280020A8280020A96C020013
:106EF40064A90200AD6D020070B5084D084E00246F
:106F04002B789C4201D3002070BD3368012113F813
:106F1400340001F0D9FA0134F2E700BF78280020E8
:106F2400B028002070B5094D094E00242B789C42EE
:106F340004D30848BDE8704000F0E4BA336813F89D
:106F4400340001F007FB0134F0E700BF782800208B
:106F5400B0280020802800201FB50021039001AA3A
:106F640044F20100CDE9011100F004F805B05DF828
:106F740004FB000010B572B6FFF76CFDFFF7CEFB03
:106F84000028FBD1104C11492088000440F0010076
:106F9400FFF726FD0E4B1B68DB0700D500BE2088DB
:106FA4000C49000440F00200FFF71AFDBFF34F8FB5
:106FB40009490A4BCA6802F4E0621343CB60BFF389
:106FC4004F8F00BFFDE700BFCC22002068A902005C
:106FD400F0ED00E074A9020000ED00E00400FA0501
:106FE400094A537891780133DBB2994208BF0023F0
:106FF400117899421FBF03705078182303FB0020B7
:1070040014BF043000207047B428002073B505462F
:1070140002A8002400F8014D0E4600F083FA0DF199
:107024000600FFF7DDFF90B106700A4B9DF80620BD
:1070340045605A709DF8070000F098FA24B9064B91
:107044004FF48012C3F80021204602B070BD04241E
:10705400F0E700BFB428002000E100E0024B4FF449
:107064003C6043F00103184790A9020038B50C4B6B
:107074000C4C4FF40032C3F8802001254FF48033C8
:10708400C4F84833C4F808336560FFF7E7FF064BDC
:10709400A56000241C60FFF7E1FF044B1C7038BDA1
:1070A40000E100E000100140D0290020C1290020A7
:1070B400F8B51F4B1F491B680025C1F84051C1F8A2
:1070C4004451C1F84851C1F84C51C1F80051C1F8BC
:1070D40004514BB3D1F8044517490968641A24F0E4
:1070E4007F442F461A68A24209D8A41A15441A7C70
:1070F400DE691AB11F74D3E905209047AEB90F4B6E
:107104000F4A197813788B4205D10133DBB2022B75
:1071140008BF0023137012780A4B43F822500A4B1D
:107124004FF48012C3F80021F8BD3346DAE700BFFC
:10713400D429002000100140D0290020CC290020AF
:10714400CD290020C429002000E100E02DE9F74FFB
:107154009E4A9F49137809789E4D99423CD0013349
:10716400DBB2022B08BF002313709B4912789B4BA0
:107174000F6853F822003B1823F07F4300220B6072
:107184002B6816461446944613B942B12B6006E0A8
:10719400196881420ED902B12B60091A19604FF0A7
:1071A40001082B68DFF83CA200930027BEB9DFF882
:1071B4003CB260E0401A0C44D968C3F800C0D3F86C
:1071C4001CE031B13A1922F07F42C3E90121DE61AA
:1071D4001E4601227346D7E70026B046E1E734464F
:1071E400F6697D4A63681268DFF804C2A068991AD8
:1071F40021F07F41614500F2A58001442160012214
:1072040022742A680023C4E90133E361002A40F0B0
:10721400A2802C60CAE75A1C9BF80210D2B2914299
:107224008BF8002004BF00228BF80020182202FBF8
:1072340003B32A6819799C68022974D003297ED083
:10724400012918D1217CB1B9DA6862601A69A26097
:107254005A699B69A361624BE2601B78002BC0D022
:107264006160BEE79C4200F093809946DB69002B85
:10727400F8D1002323749BF800309BF801209A4234
:10728400C9D12B682FB9009A934202D1B8F1000FEB
:1072940043D0002B79D0D3F800A0524D4E4BD5F8F3
:1072A40004751C68DFF84C813E1B98F8003026F00A
:1072B4007F4603369BB94FF48033C5F84433C5F891
:1072C4000433494B4FF400324FF00109C3F88021D5
:1072D4001A60C5F80090FFF7C1FE88F80090B24527
:1072E4002CBF5444A41924F07F44C5F84045D5F874
:1072F4000435DB1B23F07F43E41B033324F07F447A
:10730400A3420AD9D5F80435C5F84035FFF7A6FEDF
:10731400354B4FF40032C3F80021314B00221A7070
:1073240003B0BDE8F08F13469146A0E71174D2690B
:107334000123002AFAD1002B9DD02A609BE7002369
:107344001946F6E7D31A23F07F43834234BFC31AA6
:107354000023236053E721681368994213D8591A0C
:107364001160E26155E7091AD8691A4638B1034633
:1073740018688842F7D3401A1860184613462160EB
:10738400E061DC6112E71346F2E7FFF76FFEC4E742
:107394004C450DD1D3692B6053B90F48019201219B
:1073A400CAF8081003600E4B1970FFF757FE019AD4
:1073B400E1692368C9F81C1011B1086803440B6023
:1073C4002B689A4218BF012753E700BFCC2900203D
:1073D400CD290020D4290020D0290020C429002050
:1073E400C02900200010014000E100E0B428002082
:1073F400FEFF7F00C129002008B5FFF737FE104BC0
:1074040000200B2218809A700E4B18600E4B1870D7
:107414000E4B18700E4B4FF48012E021C3F88021FC
:1074240083F814131A6002F18042A2F56F22C2F8A5
:10743400080583F81113074BD2F804251A6008BD18
:10744400B4280020D4290020CC290020CD290020F4
:1074540000E100E0D0290020074B9B784BB132B10A
:1074640028B10368187C20B959745A617047072001
:1074740070470820704700BFB42800202DE9F74367
:107484001D4FBB7805460E4690469BB390B3042926
:107494002ED9436973B3437C02A80024012B00F85E
:1074A400014D0CBF8946A14600F03CF80DF10600E1
:1074B400FFF796FDD0B101230370104B4560D3F85C
:1074C4000435C0E90498C0E902369DF806307B70A3
:1074D4009DF8070000F04AF824B9094B4FF48012D4
:1074E400C3F80021204603B0BDE8F0830424EFE78D
:1074F4000724F7E70824F5E7B4280020001001402A
:1075040000E100E0064A92783AB130B1426922B112
:10751400002202740221FFF779BD0820704700BFE2
:10752400B428002070B5EFF3108672B60C4A946844
:1075340001239CB993600B4B0B4DD3F88010294069
:107544001160C3F88050D3F8841051604FF0FF32BB
:10755400C3F88420047006B962B670BD0370FAE7FC
:10756400D829002000E100E0FC06FFBD084B9A6822
:1075740010B55AB150B9EFF3108172B6054A1C68C0
:1075840014605C685460986001B962B610BD00BFB5
:10759400D829002000E100E001F01F024B0901217D
:1075A400914000EB830000F01DB801F01F0301229D
:1075B4009A404B0900EB8300D14300F029B84B09F2
:1075C40001F01F0150F82300C84000F0010070478B
:1075D40050E8002F0B4640E8003C9CF0000FF7D128
:1075E4001046704750E8003F43EA010240E8002C8F
:1075F4009CF0000FF6D11046704750E8002F02EAC5
:10760400010340E8003C9CF0000FF6D1104670479F
:1076140050E8003F03EA010240E8002C9CF0000F10
:10762400F6D11046704750E8003F03EB010240E8F2
:10763400002C9CF0000FF6D11046704750E8003F34
:10764400A3EB010240E8002C9CF0000FF6D1104699
:1076540070470121FFF7C6BF0021FFF7CEBF10B569
:1076640090B1D0E9012301689B1ADBB20A60013BA7
:10767400DBB2FF2B026802D10020107110BD11682B
:107684004C1C14600B70F2E70E20F7E737B5054683
:1076940002A8002400F8014DFFF744FF2A686B6834
:1076A400116899420ED9481E106011F8014CEB681C
:1076B400A98A01FB0434AB6811791B1ADBB2994225
:1076C40038BF13719DF80700FFF750FF204603B041
:1076D40030BD37B5054602A8002300F8013D0C462D
:1076E400FFF720FF2A681368591C1160E968641ABF
:1076F400A98AB4FBF1F41C709DF80700FFF736FF6C
:1077040003B030BD826810B504462AB143690168EC
:10771400006998470023A36010BD0EB403B5039914
:1077240029B102AA04AB42F8043D00F06BF802B0A0
:107734005DF804EB03B07047826830B40468551CEC
:107744008560A154D0E901329A4202D330BCFFF7DC
:10775400D9BF30BC704700002DE9F84F9946DDE9E8
:107764000A431746824688460A460126BA420FD281
:107774004E4538BF4E4613F0010B01D164B90024C5
:107784000125B9F1010F1AD909F1FF397D43F8E751
:10779400B2FBF7F20136E9E79B070ED5B9F1000F0A
:1077A4000CBF30252025A642EAD2013C294650468A
:1077B400FFF7C2FF002CF6D1E1E72025F3E7B8FB81
:1077C400F5F39F42E2D9DFF83890B8FBF5F3504661
:1077D40019F8031005FB1388FFF7AEFFB5FBF7F5A7
:1077E400002DF2D1BBF1000F02D00CB1A64201D39F
:1077F400BDE8F88F20215046013CFFF79DFFF4E7D8
:1078040096A902002DE9F74F054690460E46002939
:1078140000F03A8116F8011B002958D0252940F0C0
:10782400D180002702E047F001071646324612F8DD
:10783400013B2D2BF7D0302B04D02B2B05D147F057
:107844000407F2E747F00207EFE700242A2B06F1CA
:1078540001021BD1D8F80030191D1B68C8F80010AC
:107864001C44164633782E2B1CD101364FF0000AE7
:10787400314611F8012BA2F13000092814D80A234B
:1078840003FB0A23A3F1300A0E46F1E712F8013C88
:10789400A3F130010929E5D80A2101FB0434303C65
:1078A4001646D3E74FF0000A324612F8011B01F0E6
:1078B400FB0068281646F8D0692916D054D85829F0
:1078C40070D00ED825297DD03378002BA2D12B7B04
:1078D400002B00F0D980284603B0BDE8F04FFFF735
:1078E40011BF632968D06429EED1D8F80020D2F8FA
:1078F4000090111D89EAE972C8F80010A2EBE97240
:107904004FF0010B092A61DCD34538BFD3462CB1B3
:10791400B9F1000F01DB790700D5013CBA0702D5A4
:10792400BAF1000F04D0FB0702D4002C54D1002478
:10793400B9F1000F58DAC9F100092D212846FFF7E3
:10794400FBFE07F00302022A05D1BAF1000F02D1AF
:10795400002C4DD10024CDE9004753460A22494664
:107964002846FFF7F9FEAFE7732954D016D87029DB
:10797400AAD1D8F800301A1DC8F8002030212846B2
:107984001C68FFF7D9FE78212846FFF7D5FE0022B0
:107994000823CDE9003221461022E1E775292FD0D2
:1079A400782991D1D8F800100A1DC8F80020CDE933
:1079B4000047534610222CE0D8F800301A1D1978DD
:1079C400C8F800202846FFF7B7FE7DE70A230BF12D
:1079D400010B92FBF3F295E7A345A9D22021284697
:1079E400013CFFF7A9FEA0E77807AAD52B21A5E75C
:1079F400A345B0D230212846013CFFF79DFEA7E7FE
:107A0400D8F80010CDE900470A1DC8F800205346F5
:107A14000A220968A4E7D8F800301A1DC8F8002023
:107A2400F907D3F8009012D54F46A7EB090B17F8C6
:107A3400011B41B9A345BFF447AF20212846013CAF
:107A4400FFF77AFEF6E72846FFF776FEEDE7B9F191
:107A5400000F17D0484602F042FE0746BC4200D948
:107A640054B909F1FF3919F8011F00293FF42CAF6B
:107A74002846FFF761FEF6E720212846013CFFF780
:107A84005BFEEBE74F46E9E703B0BDE8F08FFFF795
:107A9400E6BDF8B546790146721E054600239342B9
:107AA4002D6803D30024A64202D8F8BD0133F6E7BB
:107AB4000F682846FFF70DFE01343946F3E72DE938
:107AC400F843868ACD1C0746FFF7E0FD043E3544A3
:107AD4000446B5FBF6F5F0B14FF48073EDB2838044
:107AE400C680013D076081464FF00008A84512D2C8
:107AF4003846FFF7CBFD064648B16379013363711D
:107B040008F10108C9F8000007608146EEE7204645
:107B1400FFF7BFFF34462046BDE8F8830121043057
:107B2400FFF781BD10B5012104460430FFF786FD3F
:107B340010F0FF0F04D12046BDE81040FFF7A9BFA5
:107B440010BD2DE9F843C7880546181D8846B0FBCB
:107B5400F7F4164607FB14003CB9A7EB0009B1453E
:107B640028BFB14626B9BDE8F8832D68013CF3E788
:107B74000430A6EB09064A4608EB0401284402F047
:107B840052FDB7424C442D68B9464FF0000028BF5F
:107B9400B146E7E72DE9F843C7888846191D05462D
:107BA400B1FBF7F4164607FB14113CB9A7EB010926
:107BB400B14528BFB14626B9BDE8F8832D68013C1C
:107BC400F3E704312944A6EB09064A4608EB04000E
:107BD40002F029FDB7424C442D68B9464FF000012C
:107BE40028BFB146E7E741DF70470000064B10B5F8
:107BF40000241C70054B1C60BFF35F8F04490548CB
:107C040000F030F8204610BDEC290020F0290020B7
:107C1400A8A90200E429002007B502A8002300F85F
:107C2400013DFFF77FFCF1EE103A23F09F03E1EEF4
:107C3400103ABFF35F8F0A4B4022C3F884219DF8AA
:107C44000700FFF793FC02F031FB20B1FFF7CBFFF5
:107C540003B05DF804FB20BF40BF20BFF8E700BFBE
:107C640000E100E00B684A684360934208BF0023C8
:107C7400016008BF43607047436843B1026891687C
:107C840052680B449342436004BF0023436070472F
:107C94000D4930B5A1F594720225914201D8002016
:107CA4000EE08B1ADB1093FBF5F302EBC30452F8DE
:107CB4003330834205D802D204F10802EDE760684C
:107CC40030BD2146E9E700BFF8AA020008B5FFF776
:107CD400DFFF024B002808BF184608BDBDA90200FB
:107CE4000C4B1B78062B10D10B4B1B681A070CD1BD
:107CF4000A4B186800F0F003302B08D000F0E000C5
:107D0400A0F14003584258417047002070470120B9
:107D1400704700BFE00F00F0E40F00F0E80F00F040
:107D2400094B1B78062B0CD1084B1B681A0708D18A
:107D3400074B186800F0F000A0F130035842584196
:107D440070470020704700BFE00F00F0E40F00F020
:107D5400E80F00F008B5FFF7C3FF28B17D4B7E4A5A
:107D64001B68C3F304231360FFF7DAFF10B17B4BE6
:107D74007B4A1A60FFF7B4FF28B17A4B7A4A1B6832
:107D8400C3F342331360FFF7CBFF20B1774AD368C4
:107D940023F08073D360FFF7A3FF40B14FF080431B
:107DA4000022C3F80C21C3F81021C3F83825FFF7CB
:107DB400B7FF10B16E4B03221A60FFF7B1FF40B159
:107DC4006C4B05221A6001229A6700229A603F22B6
:107DD4005A60694B1B78062B50D1684B1B681907F6
:107DE4004CD1674B1B6803F0F003502B46D14FF086
:107DF4008052644BD2F80414C3F82015D2F8081446
:107E0400C3F82415D2F80C14C3F82815D2F81014AA
:107E1400C3F82C15D2F81414C3F83015D2F818147A
:107E2400C3F83415D2F81C14C3F84015D2F8201442
:107E3400C3F84415D2F82414C3F84815D2F828140A
:107E4400C3F84C15D2F82C14C3F85015D2F83014DA
:107E5400C3F85415D2F83414C3F86015D2F83814A2
:107E6400C3F86415D2F83C14C3F86815D2F840146A
:107E7400C3F86C15D2F84424C3F87025FFF730FF1B
:107E840028B1414B414A1B6803F04F031360FFF7CD
:107E940027FF48B14FF08043D3F80024D20744BFF2
:107EA4006FF00102C3F80024394B1B68062B08D17C
:107EB400384B1B68062B01BF374A136843F48063B1
:107EC4001360364AD2F8883043F47003C2F888301D
:107ED400BFF34F8FBFF36F8F4FF01023D3F80022FF
:107EE400002A03DBD3F80432002B2FDA2C4B0122B7
:107EF400C3F80425D3F80024002AFBD04FF0102245
:107F04001521C2F80012D3F80024002AFBD04FF048
:107F140010231522C3F80422214B1A46D3F8001467
:107F24000029FBD00021C3F80415D2F80034002B3B
:107F3400FBD0BFF34F8F19491A4BCA6802F4E062B1
:107F44001343CB60BFF34F8F00BFFDE7164B174AB7
:107F54001A6008BD240300104035014074C0074076
:107F64000DF0ADBA440200103C050040F0ED00E015
:107F7400A005004010560040E00F00F0E40F00F0B0
:107F8400E80F00F000C0004058020010E40E00406A
:107F940030010010340100103C17004000ED00E0F7
:107FA40000E001400400FA050C2300200090D003F7
:107FB400044B1A5C012393404FF0A042C2F80C35E5
:107FC400704700BFB2AE0200044B1A5C0123934019
:107FD4004FF0A042C2F80835704700BFB2AE0200AD
:107FE40008B50020FFF7F0FF0120FFF7EDFF0220A6
:107FF400FFF7EAFF0320BDE80840FFF7E5BFC2072B
:1080040008B501460CD54FF0A0430322C3F844271A
:10801400C3F84827C3F84C27C3F85027FFF7E0FFFD
:108024008B070AD54FF0A0430C22C3F83427C3F8BA
:108034003827C3F83C27C3F8402708BD38B5084C97
:1080440004F108030546002818BF1C4623682BB119
:108054001A6822605B6828469847F7E738BD00BF76
:10806400FC29002020B9054B01225A70FFF7E6BF16
:10807400012802D1014A9070F8E77047F4290020E2
:1080840020B9034B01225A70FFF7D8BF704700BFD5
:10809400F429002038B50B4C237883B90A4863606F
:1080A400A3602361E36000F0D1F8054602F0FEF816
:1080B40008B900F0D9F801232370284638BD852576
:1080C400FBE700BFF42900206980020037B502A84D
:1080D4000023094C00F8013DFFF724FAE368013B53
:1080E400E360E56815B900F0D3F8A5709DF80700C2
:1080F400FFF73CFA03B030BDF4290020012813B582
:1081040009D003D303281BD002B010BD0F4B0122AA
:10811400C3F88020F8E702A800230D4C00F8013DC5
:10812400FFF700FA23780BB9FFF7B4FFE3689DF873
:1081340007000133E3600123A370FFF717FAE3E7B5
:1081440000F092F8FFF7C2FFDEE700BF00E100E0B5
:10815400F42900201FB503788DF80030436801939B
:10816400037A8DF80830C3680393054A054B6846C3
:1081740053F8213052F82110984705B05DF804FBFC
:10818400082A00200C2A00201FB503788DF800303F
:108194004368019383688DF80830C3680393054AE4
:1081A400054B684653F8213052F82110984705B022
:1081B4005DF804FB082A00200C2A0020F0B5194BB6
:1081C400067891F81DE043F82620174B94460A6977
:1081D40043F82620154B03F806E00C4607460FCC5F
:1081E40089B06D460FC594E80F0085E80F0004962A
:1081F400BEF1000F0AD0BCF1000F0D4A694608BF5A
:108204000022381D00F09CFD09B0F0BDBCF1000F48
:10821400084A694608BF002207F10C0000F092FBEF
:10822400F2E700BF0C2A0020082A0020102A0020B0
:10823400598102008D81020000F18040002382B048
:10824400036003680193019B02B07047054A1379E8
:108254002BB90121106011715371184670478520A4
:10826400704700BF142A0020084B1A68D20706D4AE
:10827400E02283F800230122C3F880211A604FF022
:1082840080430122C3F81825704700BF00E100E0D5
:10829400044B01221A604FF08042D2F81834DB03F9
:1082A400FBD470470C000040124B1B6810B573B12F
:1082B4004FF48070FFF7C0FF4FF080430122C3F8F2
:1082C40008230D4B587910B95A711B6898470B4B0A
:1082D4001B6873B14FF48270FFF7AEFF4FF0804319
:1082E4000222C3F80823044B01201B68BDE8104098
:1082F400184710BD00010040142A0020040100406A
:1083040000F1804000F5C040002382B003600368A0
:108314000193019B02B07047800000F1A040D0F8A7
:10832400003723F44033C0F80037D0F8003743EA6D
:108334000141C0F800177047054B4FF0FF32072882
:1083440043F8202084BF1B1883F84820704700BFDF
:108354001C2A002010B5174C94F8583043BBFF2159
:10836400E2180133202B82F83010F9D10021C8B271
:10837400FFF7E2FF01310C29F9D1042200210E4854
:1083840002F07AF90D4BE02283F806234022C3F869
:1083940080214FF4BE701A60FFF7B2FF084B4FF014
:1083A4000042C3F80423012384F85830002010BD90
:1083B4000820FCE71C2A0020702A002000E100E0CD
:1083C40000600040034B93F85800003018BF0120B0
:1083D400704700BF1C2A0020F0B5394D2C18944674
:1083E40094F93040002C68DA8E78C6F34006002EEB
:1083F40015BF0023082308270C27BB4201D1042002
:10840400F0BD55F8232001324FEA830441D12F18DF
:1084140045F823C087F8303016B9EA1882F84800C6
:108424008A78560716D4D70735D5820002F1A042C0
:10843400D2F8006726F00206C2F80067214FC6088A
:1084440000F0070C012202FA0CF217F806C042EA07
:108454000C02BA558A780E7812F0020224D004F184
:10846400804303F5C0430002D3F8102522F44732B9
:1084740022F44072C3F810253604D3F8102500F412
:10848400F85006F4403630431043C3F8100500207A
:10849400B6E70133B1E74E7800F5E0724FF0A0473C
:1084A400B60047F82260C9E7083B2B4493F8500014
:1084B40040EA861683F85060E9E70820A0E700BF89
:1084C4001C2A0020702A002038B5204C251895F964
:1084D4003020072A18DD224492F848309B09032BE8
:1084E4000DD14FF0A043D3F81035C34013F0010F62
:1084F4000CBF02210321BDE83840FFF70DBF012B5B
:1085040014BF03210221F6E7D3B2072B1CD8930032
:1085140003F1804303F5C043D3F8100540F0010094
:10852400C3F8100502F14000800080B2FFF7E8FEB6
:1085340051B195F9303054F823302BB1012303FAAB
:1085440002F2034BC3F8042338BD00BF1C2A0020E9
:10855400006000400E4B034493F93020072A02DDEB
:108564000021FFF7D9BED3B2072B10D8930003F133
:10857400804303F5C043D3F8101521F00101C3F87B
:108584001015012303FA02F2024BC3F808237047C3
:108594001C2A0020006000404FF0A043D3F810359F
:1085A40023FA00F000F00100704700002DE9FF47B6
:1085B4000024584A584E594D019401211368A2F5DC
:1085C400C040012B80B206D1D6F804330B4202D04E
:1085D400FFF796FE0C430432AA424FEA4101EDD163
:1085E4004F4B1B68012B0AD14FF4BE70FFF788FE76
:1085F4004FF0A04344F00044D3F81035019314F035
:10860400FF0F1AD0474F00250126344210D0AB008B
:1086140003F1804303F5C043D3F81005D3F81015D4
:1086240057F82530C0F30420C1F3014103B1984742
:108634000135082D4FEA4606E7D1002C66DA002200
:108644004FF0FF33CDE90223DFF8D890012700264D
:1086540034464FF0A04809EB060393F95020531C0D
:1086640045D0D2B222F0C005E90804A8084402F0BB
:10867400070310F804CC07FA03F31CEA030F36D0FF
:1086840009EB050C92099CF930C059F82CA0BAF1F9
:10869400000F0AD1032A2AD10DF1080E1EF801C0D9
:1086A4004CEA030C0EF801C001E0032AF4D005F5EE
:1086B400E07110F80C0C58F821101842C1F3014174
:1086C40005D0022913D1032A0BD1114604E0032952
:1086D4000DD1032A05D102212846FFF71DFE0134DE
:1086E400E4B2BAF1000F02D011462846D047013651
:1086F400042EB0D154B14FF0A043019AD3F81035F1
:10870400934203D00193029B0393A0E704B0BDE816
:10871400F08700BF0061004000600040206100401D
:108724007C6100401C2A0020014B1B68184700BFD5
:10873400782A00200D4B984237B50D4610D102A877
:10874400002300F8013DFEF7EDFE094B1C7914B936
:1087540001221D601A719DF80700FEF707FF14B986
:10876400002003B030BD1120FBE700BF0020004013
:10877400782A0020034B984201BF034B00221A6061
:108784001A71704700200040782A002000234350CB
:1087940082B043580193019B02B070470A4610B55A
:1087A4004FF48E71FFF7F2FF136A9168C95C136A84
:1087B40001331362C0F81C1510BD8B690A4610B54D
:1087C4004FF4847123B9FFF7E1FFD0F8183510BDD9
:1087D400FFF7DCFF536AD168D0F81805C854536A10
:1087E40001335362F3E700001FB501238DF8003015
:1087F400044BCDE90110D3E900126846904705B057
:108804005DF804FB802A002030B54C4AD2F80433CA
:1088140013F4007F85B015464FD0D2F82431002BD5
:108824004BD04FF492711046FFF7B0FF4FF4017331
:10883400C2F80833424B93F8291009B90121516059
:108844003E4902228DF80020D1F88024C1F880240A
:1088540003929A690292DA6801920022C3E906221D
:108864006846D3E9001290473448D0F81C315BB114
:1088740033490A6A4B699A420A464BD291F8283026
:10888400002B47D1FFF78AFF2C4AD2F8443193B129
:108894004FF4A2711046FFF779FF294B93F8291082
:1088A40009B1012111609A692AB100229A61586ABA
:1088B400D968FFF799FF05B030BDD5F804335B07DD
:1088C400D2D5D5F80831002BCED01D4C1B482146FB
:1088D400FFF773FF636AA2699A422346C4D1E2692F
:1088E400E1684AB12369E3600023606AA261E3613D
:1088F4006362FFF779FFB7E794F829200AB90122E8
:108904006A600E4A4FF40170C2F8080300229A61AB
:10891400586AEEE74FF48E710848FFF737FF516944
:108924000029B1D00023029191688DF800300191A3
:1089340053616846D2E900139847A5E70020004038
:10894400802A00202DE9F8435A4B047991462C22C1
:1089540002FB0432064692F82A200D469846002A65
:1089640040F0A38054490068FFF7E4FE074600285E
:1089740040F09D8029683368481C0BD04FF0A0401C
:1089840001228A40C0F8082501F5E0724FF0030C7B
:1089940040F822C06868421C1FBF00F5E0724FF027
:1089A400A04C4FF0000E4CF822E0AA6995F814C0D0
:1089B400C3F824256A7DBCF1010F4CEA0202C3F816
:1089C4006C25C3F81405C3F80C151DD1AA68511CF5
:1089D4001FBF02F5E0714FF0A0404FF0000C40F8CB
:1089E40021C0E968481C0BD04FF0A04C01208840FE
:1089F400CCF8080501F5E0704FF0030E4CF820E0C8
:108A0400C3F80815C3F810252C23634308EB0302AD
:108A1400C2F804902A6948F80320B9F1000F31D054
:108A24004FF48E7130682D7FFFF7B0FE30684FF43D
:108A3400A271FFF7ABFE3268204BC2F80433120B6D
:108A440053B2002BA8BF03F160404FEA53134FEA1F
:108A54004511BABF1A4802F00F0500F561404FEA0C
:108A64008303C9B203F16043B4BF415580F80013D6
:108A740003F5614302F01F02012101FA02F2C3F877
:108A840080211A6033680422C3F800252C2303FBD9
:108A940004830022C3E9062283F829205A610122B3
:108AA40083F82A203846BDE8F8830827FAE7112717
:108AB400F8E700BF802A00200D8802008000020031
:108AC40014ED00E0F8B5047900682D4D0023C0F8DA
:108AD40000352C2303FB04535B6873B1294BC0F8A6
:108AE4000833020B53B201215B0902F01F0201FAA1
:108AF40002F22033244941F82320D0F80C65D0F841
:108B04001415D0F80835D0F810254FF0FF37BE42C1
:108B1400C0F8147518BF06F5E076C0F80C75C0F8F7
:108B24000875C0F810751EBF4FF0A0474FF0020C37
:108B340047F826C04E1C1FBF4FF0A04601F5E07158
:108B4400022746F82170511C1FBF4FF0A04102F5C7
:108B5400E072022641F822605A1C1FBF03F5E0733D
:108B64004FF0A042022142F82310FFF703FE2C230A
:108B740003FB0454002384F82A306360F8BD00BF6B
:108B8400802A00208402020000E100E02DE9F8437D
:108B9400224F06794FF02C0909FB0674804665695B
:108BA400002D37D16261A16025624FF48E71006897
:108BB40084F82850FFF7EAFDD8F800000123836009
:108BC4002146FFF7EBFD6368A1462BBBD8F80050A4
:108BD400226A63699A4212D3D8F80030D3F81C2170
:108BE400002AFBD00122DA6000202C2303FB067646
:108BF40000237361BDE8F88394F8283043B9D5F8AD
:108C04001C31002BF8D049462846FFF7C7FDDFE7A3
:108C14000F20EAE71120EDE72846EBE7802A002041
:108C24000023435082B043580193019B02B0704724
:108C34001FB501238DF80030054B8DF80800019114
:108C44006846D3E90012904705B05DF804FB00BF05
:108C5400AC2A00207FB5384AD2F82461002E49D0CE
:108C640010464FF49271FFF7DBFF02238DF80030BA
:108C7400D2F88034C2F880340393D2F83C358DF8AE
:108C840008302E4BDA6801920022C3E906226846B6
:108C9400D3E900129047284AD2F8443173B14FF413
:108CA400A2711046FFF7BCFF244B996931B1002132
:108CB4009961D2F83C05D968FFF7BAFF1E4AD2F889
:108CC4002031ABB14FF490711046FFF7A9FF1B4B55
:108CD400596969B1D2F84C158DF8081000229968C9
:108CE4008DF8002001915A616846D3E9001290473B
:108CF40004B070BDD2F81031002BCCD04FF4887181
:108D04001046FFF78DFF0D4BD2F83C059969884258
:108D1400C1D1DC69D96864B1D2F8005225F02005CC
:108D2400C2F800521A699C61DA60DE61FFF780FFC5
:108D3400B1E79C61FAE700BF00200040AC2A0020A4
:108D44002DE9F8435E4B06799146242202FB063254
:108D5400044692F820200D469846002A40F0AB8045
:108D640058490068FFF7E6FC0746002840F0A58054
:108D740029682368481C0BD04FF0A04001228A4088
:108D8400C0F8082501F5E0724FF0030C40F822C04A
:108D94006868421C1FBF00F5E0724FF0A04C4FF012
:108DA400000E4CF822E0AA6995F814C0C3F82425F3
:108DB4006A7DBCF1010F4CEA0202C3F86C25C3F8CA
:108DC4000C15C3F814051DD1AA68511C1FBF02F568
:108DD400E0714FF0A0404FF0000C40F821C0E9686A
:108DE400481C0BD04FF0A04C01208840CCF808055B
:108DF40001F5E0704FF0030E4CF820E0C3F80815BD
:108E0400C3F810252423734308EB0302C2F804902B
:108E14002A6948F80320B9F1000F3BD04FF4887158
:108E240020682D7FFFF7FCFE4FF490712068FFF758
:108E3400F7FE4FF492712068FFF7F2FE20684FF4BA
:108E4400A271FFF7EDFE22681F4BC2F80433120B28
:108E540053B2002BA8BF03F160404FEA53134FEA0B
:108E64004511BABF194802F00F0500F561404FEAF9
:108E74008303C9B203F16043B4BF415580F80013C2
:108E840003F5614302F01F02012101FA02F2C3F863
:108E940080211A6023680822C3F80025242303FBD9
:108EA40006830022C3E906225A61012283F82020A6
:108EB4003846BDE8F8830827FAE71127F8E700BF2A
:108EC400AC2A0020598C02001003020014ED00E0CB
:108ED400F8B5047900682D4D0023C0F8003524232B
:108EE40003FB04535B6873B1294BC0F80833020BCE
:108EF40053B201215B0902F01F0201FA02F220338E
:108F0400244941F82320D0F80C65D0F81415D0F882
:108F14000835D0F810254FF0FF37BE42C0F80C7565
:108F240018BF06F5E076C0F81475C0F80875C0F8E7
:108F340010751EBF4FF0A0474FF0020C47F826C033
:108F44004E1C1FBF4FF0A04601F5E071022746F802
:108F54002170511C1FBF4FF0A04102F5E0720226A0
:108F640041F822605A1C1FBF03F5E0734FF0A04282
:108F7400022142F82310FFF7FDFB242303FB0454D2
:108F8400002384F820306360F8BD00BFAC2A0020C1
:108F94001003020000E100E001F06043B3F1005F60
:108FA4002DE9F041074632D11C4B0679242505FBF7
:108FB400063598466C6964BB6A61A96000684FF421
:108FC4009071FFF72DFE4FF4AC713868FFF728FE5F
:108FD4003B686A69A968C3F84415C3F848250122A7
:108FE4009A606A68BAB9D3F82011D3F8582149B9FC
:108FF400002AF8D00F20242303FB06860023736184
:10900400BDE8F081002A14BF0F200020F3E71020F0
:10901400F6E71120F4E72046F2E700BFAC2A00206F
:1090240072DF704773DF704776DF70477ADF70470F
:109034007CDF70477FDF70478FDF7047B1DF704799
:10904400FDF78ABF08B5064B01211878FFF7EAFF40
:1090540008B1FDF781FF0020BDE80840FEF7A8BF76
:10906400282300200388212B13B504464ED022D890
:10907400112B2BD0132B41D0102B3DD12B4B2C4932
:109084001888000440F00300FDF7AAFC0120FEF755
:109094008FFF0020FEF798FF264BA18826481980F1
:1090A40000F0FCFE08B1FDF757FFFDF725FF18B3EC
:1090B400FDF752FF20E0522B30D0562B01D03B2B32
:1090C4001AD11321A088FFF7AFFFF0E7174B1B4914
:1090D4001888000440F00300FDF782FC0120FEF72D
:1090E40073FF144B4FF6FF721A80FDF71BFF08B194
:1090F400FDF732FFFFF7A6FF02B010BD0D480023B5
:109104001A4685210088FFF795FFD0E702A90023BE
:1091140021F8043D8088FFF78FFFC8E70548002346
:109124001A4619460088FFF789FFC0E7CC220020C1
:10913400D8AE02002A2300203C2B0020E2AE02001D
:1091440008B503784BB9054B3B211888FFF76CFF32
:1091540018B1BDE80840FDF7FFBE08BD2A23002072
:109164000D2810B50C4618D10E4B0F491888000471
:1091740040F00300FDF734FC0C4B0D4918882246DF
:1091840000F0E6FF30F008020BD043F202029042F6
:1091940007D043F20142904203D0BDE81040FDF7EE
:1091A400DBBE10BDCC220020EFAE02002A2300203B
:1091B400242B002010B50220094C52B1FEF7F8FE12
:1091C40020880849000440F00300BDE81040FDF782
:1091D40007BCFEF7F9FE208803490004F3E700BF4B
:1091E400CC22002009AF02001AAF0200FDF7B4BE82
:1091F40000B54FF40041A7B00020FDF729FA08B1EB
:10920400FDF7AAFEFDF754F90120FEF7F8FEFEF77C
:10921400F3F808B1FDF7A0FE40F2666201216A4846
:10922400FDF716FE08B1FDF797FEFEF7DFFC08B167
:10923400FDF792FE00F0F6FF08B1FDF78DFE26ACB7
:10924400002344F83C3D0120214601F079F808B19F
:10925400FDF782FE204601F01FF908B1FDF77CFE00
:1092640026AD1123594805F8783D01F038FA5749DD
:1092740082B22846FFF7DCFE08B1FDF76DFE082236
:109284000021204601F0F8F9514A4FF0C8732046F6
:10929400CDE91723FFF7CAFE08B1FDF75DFE0021F3
:1092A4004C4800F0EDFC08B1FDF756FE002308938E
:1092B4002146494B4948179300F0DEFD08B1FDF7FC
:1092C4004BFE474B47480893294600F05FFE08B120
:1092D400FDF742FE41F22353ADF80430414B3C22EA
:1092E4009B7C8DF806300021284601F0C5F9022345
:1092F40001268DF820303C220623002120468DF8DB
:1093040022608DF8233001F0B7F9ADF86C60364E69
:1093140001AB321D31681C93284600F0E7F808B110
:10932400FDF71AFE314AB168204600F0DFF808B1B3
:10933400FDF712FE1822002102A801F09DF9002376
:109344000122ADF8143003934FF480738DF8082094
:10935400ADF81C3002AA4023234925480493FFF7A3
:109364005FFE08B1FDF7F8FD1C220021204601F044
:1093740083F900234FF42022CDE91732ADF86A3087
:109384004FF420328DF86C301A4B19921C9303223F
:10939400194B8DF8682020461D9300F067FB08B137
:1093A400FDF7DAFD154B16491888000440F0030058
:1093B400FDF716FBFFF746FEFDF7B0F90028FBD1D9
:1093C400FEF72AFCF8E700BF102300202CAF0200B0
:1093D4005000A000102B0020459002003C2B0020E0
:1093E400B9910200242B00201823002024230020FC
:1093F4002823002045910200F1910200CC22002094
:109404003AAF02006DDF704779DF70477DDF704748
:1094140064DF70472DE9F74F0C9CBDF834B0278802
:10942400002580468A4691462E46B8F80020B2426E
:109434000BDC35B12288013AD21B92B2FF2A39D80B
:10944400DA55002003B0BDE8F08FD8F8042052F8B4
:109454002600019000220DF1030101A8FFF7D8FFB7
:109464000028EFD19DF803204A4521D12288002D00
:1094740014BF0020022002EB09010144594519DC04
:109484003DB9013292B2228003F802A0228801324F
:10949400228022880DF103011A4401A8FFF7B8FFC6
:1094A4000028CFD121889DF803200A442280012579
:1094B4000136BAE70C20C5E72DE9F341089CBDF855
:1094C40024501746CDE9004502220646FFF7A2FFC5
:1094D40048B9102239463046CDE9084502B0BDE806
:1094E400F041FFF797BF02B0BDE8F0812DE9F04FDE
:1094F40000231688138090F82D3085B007460D465A
:10950400144653B3082E01D80C2004E102A8FFF737
:1095140079FF002840F0FF8013880822CA5423886A
:1095240001339BB21B222380CA542088013080B2AD
:10953400208006220DF10901284401F074F82388E3
:109544009DF8082006339BB212F0FE0218BF0122D8
:109554002380EA54238801332380BB78FBB123881A
:109564000433B342D0D802A8FFF74EFF002840F0DE
:10957400D28023880322EA54238801339BB2192220
:109584002380EA542388BDF8082001339BB2E918EC
:109594002380EA54120A4A70238802332380FA781B
:1095A4009AB12388D91CB142AED80221E954238848
:1095B40001339BB201212380E95423880B449BB2DD
:1095C4002380EA5423880B4423807A68AAB1238831
:1095D400D91CB14298D8022192F90020E954238879
:1095E40001339BB20A212380E954238801339BB2BF
:1095F4002380EA542388013323803B89002B7ED1C6
:109604003B8A53B1CDE900462B460722032107F1DB
:109614001000FFF751FF00287DD13B8B53B1CDE9FA
:1096240000462B461522142107F11800FFF744FFCA
:10963400002870D13A6A002A70D1D7F82480B8F192
:10964400000F30D0B8F804302188981C8A1C0244DA
:10965400B2423FF659AFFE283FF656AF03336B5480
:10966400238801339BB2FF222380EA5423880133E9
:109674009BB22380B8F80020EA54E918120A4A7011
:109684002088023080B22080B8F804205AB1D8F87B
:10969400081000294CD0284400F0C5FF2388B8F8EE
:1096A40004201344238097F82C30002B7BD1387886
:1096B40088B33B88012B3BD021888A1CB2423FF6F9
:1096C40023AF012805D17B7802330B449E42FFF47B
:1096D4001BAF023E761A04A9B6B221F8086DA81889
:1096E400FFF794FEB8B93B78022B40F09F80BDF899
:1096F4000830B34240F2B680ADF808609FE0CDE98F
:1097040000462B460622022107F10800FFF7D4FE8B
:1097140000283FF475AF05B0BDE8F08FB4F800C081
:109724000CF10603B3423FF6EFAE1188052901D8C8
:109734000720F0E76FF4486E01EB0E039BB24FF283
:109744007D3E7345F4D95388052BF1D96FF44860F5
:10975400181880B27045EBD94FF6FF70814203D0E0
:10976400834201D09942E3D8052305F80C302388BD
:1097740001339BB212212380E954238801339BB225
:1097840023801188E954E818090A417023880233B8
:109794009BB223805288EA54E918120A4A7023883B
:1097A4000233238049E7BB6A002BC1D04FF0000984
:1097B4004FF00C0A4FF0160B97F82C305FFA89F231
:1097C40093427FF674AFB96A0AFB02F201EB020816
:1097D400B8F80430981CFE283FF696AE2088033370
:1097E4002B54238801339BB2238005F803B02388CC
:1097F40001339BB223808A5AEA54E918120A4A7048
:109804002088023080B22080B8F804205AB1D8F8F9
:10981400081000298CD0284400F005FF2388B8F8EC
:1098240004201344238009F10109C5E7012B7FF4C7
:1098340063AF7B789E42FFF45FAFADF80830082138
:10984400BDF80830FE2B3FF65FAE22880133AB54DF
:109854002288013292B22280A954228813442380A0
:10986400002058E70921EBE775DF704776DF704782
:109874007ADF70477BDF7047034B1A8882420CBF44
:1098840018460020704700BF642B0020024B9B69E0
:1098940003B11847704700BF482B002037B585B285
:1098A4002846FFF7E9FF034670B1164C017A227B84
:1098B40091420BD200F10A012846FFF7D5FFE8B127
:1098C400112801D0FFF7E2FF03B030BD237C002252
:1098D400027243B13B212846FFF7C8FF30F008036A
:1098E40001D0FFF7D3FF6369002BEDD000228DF880
:1098F4000420ADF8065001A89847E5E71A7A01322A
:109904001A72E1E7482B002013B50B46497A0F4C35
:10991400024669B9D4E901101C7A002C18BF01462B
:109924005868FDF7ABFD08B1FFF7B0FF02B010BDFA
:10993400002119726369002BF8D00121ADF80600EB
:109944008DF8041001A89847F0E700BF482B0020C9
:109954008388B3F5FA7F28BF6FF4F97230B528BF56
:109964009C1805884A8838BF002495420CD8408842
:10997400904209D38A88A24206D303F2F31090429C
:1099840034BF0020012030BD0020FCE70388112BE8
:1099940070B5014648D002D8102B1ED070BD122BD2
:1099A40052D0502BFAD12F4BC288DB899A42F5D181
:1099B400038A022BF2D186883046FFF75DFF054605
:1099C4000028EBD001F1120000F00EF930BB6868FA
:1099D400FDF798FD0028E1D009E0C37B012BDDD120
:1099E4004FF6FF70FFF748FF054620B90420BDE895
:1099F4007040FFF74BBF1C4A8E8806800023037219
:109A04001368C5F80A300A30536843601031FFF711
:109A14009FFF144B6872DB89002BBFD12946304667
:109A2400BDE87040FFF770BF8088FFF725FF04464C
:109A34000028B3D04068FDF765FD08B1FFF726FFA5
:109A44004FF6FF732380A9E786883046FFF714FF9B
:109A540005460028A2D008310A30FFF779FF687262
:109A6400DCE700BF482B0020782B0020F8B5064621
:109A740050B305460FCD154F3C460FC495E807007B
:109A840084E807003068124B3B60B8B1FFF7F0FE82
:109A9400C8B931680A681A604A685A600D480E4AA3
:109AA4004FF6FF7303800D4B40F8043F0021FDF790
:109AB400D3FC002814BF0320002004E01846FFF75D
:109AC400D9FE0028EAD0F8BD0E20FCE7482B002080
:109AD400782B0020642B0020A1980200802B00200A
:109AE40073B50191019C06466CB100252C462946AC
:109AF40001A8FDF764FD18B106EB440301349D8011
:109B04000135142DF3D13046346002B070BD00002D
:109B14002DE9F04303888488112B8DB0064640D08C
:109B24001A2B43D0102B16D1294DAB680CA8DB435C
:109B340040F8303D55F8041FFDF76AFD009901A86F
:109B4400FFF7CEFF0027019B9F4207D3132C18D9A0
:109B54000420FDF701FA0DB0BDE8F08301AB03EB7F
:109B640047034FF00008B3F8049005EB080049469A
:109B740008F10408FDF719FDB8F1740FF5D10137A8
:109B8400E1E721461348FDF707FD21461248FDF79A
:109B940003FDF37B012BDED010482146FDF7FCFCCE
:109BA400D9E70C482146FDF700FDD4E7057A0C48B7
:109BB4002D09012D214606D9FDF7EEFC022D214683
:109BC4000848F0D0EAE7FDF7F0FC21460548EAE74B
:109BD400A02B0020A82B0020A42B0020AC2B0020BD
:109BE400B02B0020B42B0020007800F00100704757
:109BF40090DF7047A5DF7047B5DF7047F0B585B0DB
:109C04000023ADF80810ADF80A106A4602A9074609
:109C140003930093ADF80430FFF7EAFF064618B348
:109C2400134C2588FEF752F82D0445F00105034630
:109C34003A4610492846FCF7E1FEBDF80020BDF87D
:109C4400023002B933B120880B49000440F001000E
:109C5400FCF7D4FEBDF8042032B120880749000483
:109C640040F00100FCF7C0FE304605B0F0BD00BF77
:109C7400D822002052AF02009CAF0200DBAF0200EA
:109C840080B14FF0171303601B2303711723C380A4
:109C9400038141F61B32002301618372C372828106
:109CA400184670470E20704737B5034680880C4627
:109CB400A0B91A88232A00F0AC8011D8102A25D024
:109CC400112A53D0A37A4BB1E1880020FFF792FF09
:109CD400002840F0A4800123A072E37203B030BDD9
:109CE4003A2A4CD0552A66D0242AEBD11A7A0B6929
:109CF4004A73002BE6D04DF67A21ADF80400ADF896
:109D04000010ADF802008DF804207EE0DB7B0A79B8
:109D14000A73012B13D0022B14D0E18823898B42C0
:109D240005D20020FFF766FF70B90123E372217B9F
:109D3400637B8B42C6D20020FFF760FFC2E70B882B
:109D4400E380EAE74B88FBE7112802D10123A372E1
:109D5400EDE73B4B1D88FDF7B9FF2D0445F00105E8
:109D6400024638492846FCF73FFEE0E71723CB803C
:109D74000B8141F61B338872C8728B81A2E75B8921
:109D8400CA88934228BF1346172B0A6938BF172382
:109D94000B8162B1C97A51B140F67721ADF8001058
:109DA400ADF80200ADF80430694620469047002320
:109DB400E372A37286E7DB88C988A072172B38BFC9
:109DC40017238B4228BF0B462381FFF715FF58B199
:109DD4001B4B1D88FDF77AFF2D0445F00105024653
:109DE40019492846FCF700FEE27A002A7FF46AAF9C
:109DF4002369002B3FF466AF40F67721ADF80220CB
:109E04002289ADF80010ADF8042069462046984731
:109E140058E7197A237B994228BF19468CE7112801
:109E24003FF45CAF064B1C88FDF750FF240444F05C
:109E34000104024603492046FCF7D6FD4EE700BF65
:109E4400D822002031B0020062B00200B0DF7047B7
:109E540066DF7047034610B500214088FFF7F8FF1E
:109E6400024608B91A7210BD112801D10122F9E77E
:109E74005B68BDE81040184760B159B10378DE2B28
:109E84000AD00B684360DE2303704FF6FF734380F0
:109E9400002070470E2070470820704728B10378CF
:109EA400DE2B04D14180002070470E20704708202B
:109EB4007047F0B5054685B00C46F1B1E8B10B78B2
:109EC400DE2B1AD182884B889A4204D10B7A13B1C3
:109ED4000846FFF7BFFF2B88112B32D0512B0ED031
:109EE400012B0AD12B7A012B07D1A98862889142D0
:109EF40003D123722046FFF7ADFF05B0F0BDAE8855
:109F04006388B342F9D1AF79022FF6D1AD7B2B1F11
:109F1400022BF2D800211022684600F0ADFB052D7B
:109F240014BF4FF4C0730023694630468DF80070A7
:109F3400ADF80430FFF78AFF0028DED06368984745
:109F4400DBE76388AA889A4204BF4FF6FF736380F5
:109F5400D3E7A8DF7047AADF7047AEDF704762DF40
:109F640070470288502A10B40DD1C4884A8894429C
:109F740009D1028A012A06D14B6923B1827C5DF89A
:109F8400044B808818475DF8044B70472DE9F04175
:109F94000B68436194B06D4B04AA804603F110062C
:109FA400154618685968144603C40833B342224658
:109FB400F7D108F112012846FFF7D1FF0446002823
:109FC40040F0C08098F812308DF80A3014A941F29C
:109FD400235321F8483D42460120FFF7BAFF0446C7
:109FE400002840F0AF8001460322684600F044FB9D
:109FF40041F21113ADF800309DF80230012565F3EC
:10A00400420321461C220DA88DF8023000F034FBD7
:10A014009DF834300E9443F012038DF8343001AEC1
:10A0240098F812308DF80E30214641F22453032261
:10A034003046CDE910441394ADF80C30CDF848D037
:10A0440000F01AFB9DF8043065F3030365F307136E
:10A054008DF804309DF8053064F3030364F30713AB
:10A064008DF805309DF8063065F3420364F3C303AD
:10A0740064F3041364F300032146142208A88DF842
:10A08400063003AF00F0F8FA08F10A0308AA0DA994
:10A09400B8F800000C94CDE908760A95ADF82C5078
:10A0A400FFF759FF044600284CD101461C220DA895
:10A0B40000F0E2FA9DF834300E9443F00A038DF870
:10A0C400343098F812308DF80E30214641F2255381
:10A0D40003223046CDE91044CDE91244ADF80C30EA
:10A0E40000F0CAFA9DF8043065F3030365F307131F
:10A0F4008DF804309DF8053065F3030365F3071309
:10A104008DF805309DF8063065F3420364F3C3030C
:10A1140064F3041364F300032146142208A88DF8A1
:10A12400063000F0A9FA08F1020308AA0DA9B8F84C
:10A1340000000C94CDE908760A95ADF82C50FFF791
:10A144000AFF0446204614B0BDE8F0819EB0020028
:10A1540070B588B00E468DF80720102205460124FC
:10A164000DEB02000021ADF80E4000F085FA738972
:10A17400ADF810300DF10703079304A90DF10E0398
:10A1840028468DF812400693FFF7E7FE08B070BD2D
:10A1940010DF704713B5044609496846FDF762FDB0
:10A1A400019808B902B010BDD0E9003120469847A3
:10A1B40018B16846FDF760FDF2E71120F2E700BF31
:10A1C400B4B0020013B5044607496846FDF74AFDDA
:10A1D400019B0BB902B010BD2046D3E90021904782
:10A1E4006846FDF749FDF3E7CCB002000B4A92F84C
:10A1F40016335B09012B08D9042B06D0084B996848
:10A2040039B94FF480031360704742F20200FCF73F
:10A21400A3BE1A6842F480021A60704700E100E0AD
:10A22400D8290020F7B51B4F3C788CBB1A4E01256A
:10A2340020463570FFF7AEFF112826D02046FFF7E1
:10A24400C1FF164B1868019002A800F8054DFDF7F0
:10A2540069F9134901A8FFF79BFF0446B0FA80F09F
:10A26400400938709DF80300FDF780F96CB90D4B77
:10A2740034701C700C4BE02283F8162383F81523EA
:10A28400FFF7B4FF2846FFF79DFF204603B0F0BD5B
:10A294000824FAE7192C0020182C0020AEB0020084
:10A2A400796F02001A2C002000E100E0014B1878BD
:10A2B400704700BF192C002007B508496846FDF710
:10A2C400D1FC019B13B903B05DF804FBD3E9002072
:10A2D40090476846FDF7D0FCF3E700BFC0B002002A
:10A2E400FFF7EABF60DF704769DF704761DF7047DF
:10A2F40030B5114B1B7891B0E3B1104D34240DF1FE
:10A30400020103A8ADF80240FFF7F0FF70B9294637
:10A3140001A8FDF7A7FC029B002BF0D003A8D3E90A
:10A324000021904701A8FDF7A7FCF4E7052801D018
:10A33400FCF712FE11B030BD1B2C00200CB3020040
:10A3440030B5054685B00C46002900F094804B4B8F
:10A354000B600C22002101A800F08EF901238DF876
:10A36400063022688DF80450062301A92020ADF898
:10A374000830FFF7B9FF58B1414B1D88FDF7A6FC23
:10A384002D0445F0010502463E492846FCF72CFB06
:10A394000C22002101A800F06FF901238DF805308B
:10A3A4002268002301A940208DF806308DF807307B
:10A3B400FFF79AFF58B1324B1D88FDF787FC2D0437
:10A3C40045F00105024630492846FCF70DFB0C22F6
:10A3D400002101A800F050F90A2322688DF8043006
:10A3E40001A90120FFF780FF58B1254B1D88FDF717
:10A3F4006DFC2D0445F00105024624492846FCF76E
:10A40400F3FA0C22002101A800F036F94FF4B063EE
:10A414002268019301A9A120FFF766FF58B1184BE8
:10A424001D88FDF753FC2D0445F00105024618492B
:10A434002846FCF7D9FA0C22002101A800F01CF9E7
:10A444009DF8043022686FF3000301A9A0208DF861
:10A454000430FFF749FF60B1094B1C88FDF736FC57
:10A46400240444F0010402460A492046FCF7BCFADD
:10A47400002005B030BD0E20FBE700BFB82200204D
:10A48400E0220020E0B0020026B1020072B1020016
:10A49400BEB102000FB20200F8B504460768FFF728
:10A4A40021FF2368BB42054620D91A4E1A49308839
:10A4B400000440F00200FCF793FA3088236817493F
:10A4C40000043A4640F00200FCF798FA4FF080533B
:10A4D4003088D3F80C31226811499B0203F10053F0
:10A4E40000049A1A40F00200FCF77EFA25B90D4BDD
:10A4F40001221A702846F8BD064B28461C88FDF731
:10A50400E5FB240444F00104024607492046FCF715
:10A514006BFAEFE7E022002062B2020091B202007F
:10A52400C2B202001B2C0020ECB202004BDF7047C9
:10A534001FB50D4C01A8FFF7F9FF70B9214602A819
:10A54400FDF790FB039B002BF4D00198D3E9002185
:10A55400904702A8FDF790FBF4E7052801D0FCF72B
:10A56400FBFC04B010BD00BF24B302007F2805D853
:10A57400034B185C034B5B5C18407047002070472A
:10A584003CB30200BCB30200A0F16103192B98BFD5
:10A5940020387047A0F14103192B98BF2030704731
:10A5A4007F2805D8034B185C034B5B5C184070474D
:10A5B400002070473CB30200BCB30200A0F1610369
:10A5C400192B98BF20387047A0F14103192B98BF6D
:10A5D400203070477F299ABF017001206FF02E0050
:10A5E40070475AB10A787F2A0AD800B10260002164
:10A5F40019605960501A18BF012070470020704735
:10A604006FF02E007047000008B5034B5B689B6831
:10A614001B68984708BD00BF2C23002008B50921FA
:10A62400FFF7F2FF08BD844640EA010313F0030F6D
:10A6340018D18446202A0BD32DE9F007B1E8F80796
:10A64400A0E8F807A2F12002202AF7D2BDE8F0071B
:10A65400042A07D351F8043B40F8043BA2F1040256
:10A66400042AF7D2002A05D011F8013B00F8013B77
:10A67400013AF9D1604670478446002A2DD010F083
:10A68400030F04D000F8011B013A26D0F7E7C9B242
:10A6940041EA012141EA0141202A12D3A2F1200218
:10A6A4002DE9F0030B460C460D460E460F46884630
:10A6B4008946A0E8FA03203AFBD2BDE8F003203231
:10A6C4000BD0042A05D340F8041B043A05D0042A0D
:10A6D400F9D200F8011B013AFBD16046704700F142
:10A6E400010110F0030F11D010F8012B002A23D020
:10A6F40010F0030F0AD010F8012B002A1CD010F020
:10A70400030F03D010F8012B002A15D02DE9700097
:10A714004FF001324FF0803350F8044BA4EB0205A4
:10A7240025EA04051D4000D1F6E7A0F1040070BC41
:0EA7340010F8012B002AFBD1A0EB01007047AA
:08A74400858002000000000006
:10A74C00159B020000000000AD9C0200102B0020A5
:10A75C009199020000000000B79E02003C2B0020E3
:10A76C00679F0200242B002069900200000000006B
:10A77C00BCAE020000000000C2AE020000000000EF
:10A78C00C9AE020000000000CDAE020000000000C7
:10A79C00D2AE02000000000085A8020000000303F6
:10A7AC0089A8020000000003B6AE02000000000001
:10A7BC0091B0020000000303D8B0020000000303B4
:10A7CC0018B302000000030330B3020000000303BF
:08A7DC00B4A902000000000016
:10A7E400842300204C240020542400208C230020A7
:08A7F400D02200201800000033
:08A7FC000181020000000000D1
:10A80400F5A202000000000035A5020000000000CF
:10A814000000000000000000000000000000000034
:10A824000000000000000000000000000000000024
:10A834000000000000000000000000000000000014
:04A844000000000010
:10A84800FFFFFFFFFFFFFFFFFFFFFFFFFFFFFFFF10
:10A8580000000000000000000000D6010701000011
:10A868001D64020081640200CD6302004261636BD3
:10A87800656E647320666C757368656400617070DA
:10A888000062616C6C6F632E6C6F675F6D656D70D5
:10A898006F6F6C00CFA8020018A90200D7A80200A9
:10A8A80020A9020028A9020030A9020038A9020044
:10A8B80040A9020048A90200202530327800202053
:10A8C80020007C002563001B5B306D002573001B96
:10A8D8005B313B33316D0025734C6F6773206472B5
:10A8E8006F70706564202825642925730D0A003C63
:10A8F80025733E2025733A20000000000000000068
:10A908006EA9020050A9020058A902005DA9020020
:10A918001B5B313B33306D001B5B313B33326D00C9
:10A928001B5B313B33336D001B5B313B33346D00B4
:10A938001B5B313B33356D001B5B313B33366D00A0
:10A948001B5B313B33376D007761726E696E670050
:10A95800696E666F00646562756700008028002074
:10A96800466174616C206572726F720053797374FA
:10A97800656D2072657365740000000000000000BA
:10A9880000000000000000000338FDD87047303197
:10A99800323334353637383941424344454600006E
:10A9A8004CA702004CA70200040000007077725FF9
:10A9B8006D676D7400556E6B6E6F776E2065727281
:10A9C8006F7220636F64650000000000F8AA02003F
:10A9D8000100000004AB02000200000022AB0200EC
:10A9E8000300000043AB02000400000056AB020065
:10A9F8000500000067AB0200060000007BAB020008
:10AA08000700000093AB020008000000ABAB020097
:10AA180009000000C3AB02000A000000DCAB020022
:10AA28000B000000F4AB02000C0000000BAC0200AD
:10AA38000D0000001FAC02000E00000031AC020047
:10AA48000F00000040AC02001000000054AC0200EF
:10AA5800110000006BAC0200120000007AAC02008A
:10AA6800130000008FAC020080000000A3AC0200BD
:10AA780081000000C4AC020082000000E0AC0200CB
:10AA880083000000FCAC0200840000001AAD020044
:10AA9800850000003BAD02008600000060AD0200AA
:10AAA8009000000077AD02009100000095AD020013
:10AAB80092000000B3AD020000820000C8AD0200A1
:10AAC80001820000E6AD02000282000002AE020030
:10AAD800008400001EAE02000184000042AE0200A5
:10AAE800028400006CAE02000384000091AE0200F4
:10AAF8004E52465F53554343455353004E52465FAB
:10AB08004552524F525F5356435F48414E444C455D
:10AB1800525F4D495353494E47004E52465F455286
:10AB2800524F525F534F46544445564943455F4E32
:10AB38004F545F454E41424C4544004E52465F4596
:10AB480052524F525F494E5445524E414C004E525C
:10AB5800465F4552524F525F4E4F5F4D454D004E36
:10AB680052465F4552524F525F4E4F545F464F55C3
:10AB78004E44004E52465F4552524F525F4E4F541C
:10AB88005F535550504F52544544004E52465F450E
:10AB980052524F525F494E56414C49445F504152C0
:10ABA800414D004E52465F4552524F525F494E56F4
:10ABB800414C49445F5354415445004E52465F4509
:10ABC80052524F525F494E56414C49445F4C454E94
:10ABD800475448004E52465F4552524F525F494EC5
:10ABE80056414C49445F464C414753004E52465FDC
:10ABF8004552524F525F494E56414C49445F444179
:10AC08005441004E52465F4552524F525F444154A0
:10AC1800415F53495A45004E52465F4552524F5282
:10AC28005F54494D454F5554004E52465F45525268
:10AC38004F525F4E554C4C004E52465F4552524F54
:10AC4800525F464F5242494444454E004E52465F79
:10AC58004552524F525F494E56414C49445F414418
:10AC68004452004E52465F4552524F525F4255532E
:10AC780059004E52465F4552524F525F434F4E4E17
:10AC88005F434F554E54004E52465F4552524F5205
:10AC98005F5245534F5552434553004E52465F4508
:10ACA80052524F525F4D4F44554C455F4E4F545F83
:10ACB800494E495449414C495A4544004E52465F11
:10ACC8004552524F525F4D555445585F494E49546D
:10ACD8005F4641494C4544004E52465F4552524FEB
:10ACE800525F4D555445585F4C4F434B5F46414961
:10ACF8004C4544004E52465F4552524F525F4D55A7
:10AD08005445585F554E4C4F434B5F4641494C455F
:10AD180044004E52465F4552524F525F4D5554457E
:10AD2800585F434F4E445F494E49545F4641494C32
:10AD38004544004E52465F4552524F525F4D4F4474
:10AD4800554C455F414C52454144595F494E495421
:10AD580049414C495A4544004E52465F4552524F6C
:10AD6800525F53544F524147455F46554C4C004E35
:10AD780052465F4552524F525F4150495F4E4F54C1
:10AD88005F494D504C454D454E544544004E524642
:10AD98005F4552524F525F464541545552455F4EAA
:10ADA8004F545F454E41424C4544004E52465F4524
:10ADB80052524F525F494F5F50454E44494E4700EB
:10ADC8004E52465F4552524F525F4452565F545757
:10ADD800495F4552525F4F56455252554E004E52AA
:10ADE800465F4552524F525F4452565F5457495F2F
:10ADF8004552525F414E41434B004E52465F4552C9
:10AE0800524F525F4452565F5457495F4552525F02
:10AE1800444E41434B004E52465F4552524F525F9B
:10AE2800424C455F495053505F52585F504B545FF6
:10AE38005452554E4341544544004E52465F455284
:10AE4800524F525F424C455F495053505F4348410F
:10AE58004E4E454C5F414C52454144595F45584917
:10AE6800535453004E52465F4552524F525F424C24
:10AE7800455F495053505F4C494E4B5F44495343DB
:10AE88004F4E4E4543544544004E52465F4552523C
:10AE98004F525F424C455F495053505F50454552B1
:10AEA8005F52454A45435445440011121314636CDC
:10AEB8006F636B00434C4F434B004750494F544519
:10AEC80000505253005541525400554152544500C8
:10AED800436F6E6E656374656400446973636F6E77
:10AEE8006E65637465640053656E6420627574747E
:10AEF8006F6E207374617465206368616E67652E78
:10AF0800005265636569766564204C4544204F4E60
:10AF180021005265636569766564204C4544204F7D
:10AF2800464621004E6F726469635F426C696E6BBE
:10AF38007900426C696E6B79206578616D706C651B
:10AF480020737461727465642E0073645F626C654B
:10AF58005F6761705F646174615F6C656E67746878
:10AF68005F7570646174652829202872657175653C
:10AF7800737429206F6E20636F6E6E656374696FDA
:10AF88006E20307825782072657475726E6564203D
:10AF980025732E0054686520726571756573746534
:10AFA800642054582F5258207061636B6574206C6C
:10AFB800656E67746820697320746F6F206C6F6E9C
:10AFC800672062792025752F2575206F6374657455
:10AFD800732E0054686520726571756573746564B5
:10AFE80020636F6D62696E6174696F6E206F662091
:10AFF800545820616E64205258207061636B6574E8
:10B00800206C656E6774687320697320746F6F2095
:10B018006C6F6E67206279202575206D6963726F89
:10B028007365636F6E64732E0073645F626C655F33
:10B0380067617474635F65786368616E67655F6D87
:10B0480074755F72657175657374282920726574EB
:10B0580075726E65642025732E0073645F626C657B
:10B068005F67617474735F65786368616E67655F55
:10B078006D74755F7265706C7928292072657475B6
:10B08800726E65642025732E006E72665F626C6551
:10B098005F676174740023D1BCEA5F782315DEEF23
:10B0A80012120000000001000007000014A80200AE
:10B0B80014A802000800000004A8020014A8020056
:10B0C80008000000FCA7020004A802000800000015
:10B0D8006E72665F7364680073645F626C655F6359
:10B0E80066675F73657428292072657475726E656A
:10B0F80064202573207768656E20617474656D70AF
:10B1080074696E6720746F2073657420424C455FC4
:10B11800434F4E4E5F4346475F4741502E0073648E
:10B128005F626C655F6366675F7365742829207268
:10B13800657475726E6564202573207768656E2066
:10B14800617474656D7074696E6720746F207365BF
:10B158007420424C455F4741505F4346475F524F1A
:10B168004C455F434F554E542E0073645F626C65C7
:10B178005F6366675F7365742829207265747572EA
:10B188006E6564202573207768656E206174746528
:10B198006D7074696E6720746F2073657420424CFB
:10B1A800455F434F4D4D4F4E5F4346475F56535F94
:10B1B800555549442E0073645F626C655F6366672A
:10B1C8005F73657428292072657475726E656420D2
:10B1D8002573207768656E20617474656D70746975
:10B1E8006E6720746F2073657420424C455F474139
:10B1F8005454535F4346475F415454525F5441424D
:10B208005F53495A452E0073645F626C655F6366DD
:10B21800675F73657428292072657475726E65643A
:10B22800202573207768656E20617474656D70746D
:10B23800696E6720746F2073657420424C455F47C0
:10B24800415454535F4346475F534552564943451B
:10B258005F4348414E4745442E00496E7375666604
:10B26800696369656E742052414D20616C6C6F632F
:10B278006174656420666F722074686520536F6618
:10B28800744465766963652E004368616E6765205E
:10B298007468652052414D207374617274206C6F1C
:10B2A800636174696F6E2066726F6D2030782578DF
:10B2B80020746F20307825782E004D6178696D757F
:10B2C8006D2052414D2073697A6520666F72206146
:10B2D80070706C69636174696F6E2069732030786F
:10B2E80025782E0073645F626C655F656E61626CC1
:10B2F8006528292072657475726E65642025732E21
:10B30800000000004CA702007CA702000800000013
:10B318006E72665F7364685F626C650044A70200C2
:10B328004CA70200080000006E72665F7364685FD5
:10B33800736F6300202020202020202020682828E8
:10B3480028282020202020202020202020202020E5
:10B35800202020204810101010101010101010106D
:10B36800101010108484848484848484848410104D
:10B37800101010101081818181818101010101016A
:10B388000101010101010101010101010101011096
:10B39800101010101082828282828202020202023F
:10B3A8000202020202020202020202020202021067
:10B3B800101010200007032004170201085710403E
:10B3C8008000000070B5020034B4020048B50200E5
:10B3D80053756E004D6F6E005475650057656400B7
:10B3E80054687500467269005361740000000000DB
:10B3F8004A616E00466562004D61720041707200DC
:10B408004D6179004A756E004A756C004175670098
:10B41800536570004F6374004E6F76004465630097
:10B4280000000000414D00504D0000006CB50200C6
:10B4380068B5020068B5020068B5020068B5020088
:10B4480068B5020068B5020068B5020068B5020078
:10B4580068B50200FFFFFFFFFFFFFFFFFFFFFFFFD1
:10B46800FFFF0000A8B40200D8B30200E4B4020051
:10B47800F8B302002CB402008CB402003CB5020000
:10B4880098B40200256D2F25642F2579000000004F
:10B498002561202562202565202554202559000096
:10B4A80053756E646179004D6F6E646179005475EF
:10B4B8006573646179005765646E657364617900CA
:10B4C80054687572736461790046726964617900C1
:10B4D8005361747572646179000000004A616E7589
:10B4E800617279004665627275617279004D6172A8
:10B4F800636800417072696C004D6179004A756E2D
:10B5080065004A756C7900417567757374005365F9
:10B518007074656D626572004F63746F6265720066
:10B528004E6F76656D62657200446563656D626530
:10B538007200000025483A254D3A255300000000C6
:10B5480071A502008DA5020099A50200A5A502001B
:10B55800C1A50200CDA50200D9A50200E7A50200F9
:10B56800000000002E00000043000000504F534927
:04B578005800000077
:10B57C0000000000002000400000000000200040FF
:10B58C000000000068A8020000000000000000009D
:10B59C000090D0030D00030065910200D02A00201A
:10B5AC001F000000EF2A00201F000000FF00FFFF1B
:10B5BC00CCB30200CCB30200CCB30200CCB302007B
:04B5CC00CCB30200FA
:040000032000623D3A
:00000001FF
