:020000022000DC
:1060000000F0002071630200596302005B6302002C
:106010005D6302005F630200616302000000000034
:1060200000000000000000000000000063630200A8
:1060300065630200000000006763020069630200FC
:106040006B6302006B630200F91F04006B630200C4
:106050006B6302006B630200B16F02006B630200AE
:106060006B6302006B630200418503006B630200F7
:106070006B6302006B6302006B6302006B630200E0
:106080006B630200751D04009DC002006B6302007B
:10609000D91D04006B63020089B503006B63020025
:1060A0006B6302006B6302006B6302006B630200B0
:1060B0006B6302006B630200000000000000000040
:1060C0006B6302006B6302006B6302006B63020090
:1060D0006B6302006B6302006B6302000000000050
:1060E00000000000000000000000000000000000B0
:1060F00000000000000000000000000000000000A0
:10610000000000000000000000000000000000008F
:10611000000000000000000000000000000000007F
:10612000000000000000000000000000000000006F
:10613000000000000000000000000000000000005F
:10614000000000000000000000000000000000004F
:10615000000000000000000000000000000000003F
:10616000000000000000000000000000000000002F
:10617000000000000000000000000000000000001F
:10618000000000000000000000000000000000000F
:1061900000000000000000000000000000000000FF
:1061A00000000000000000000000000000000000EF
:1061B00000000000000000000000000000000000DF
:1061C00000000000000000000000000000000000CF
:1061D00000000000000000000000000000000000BF
:1061E00000000000000000000000000000000000AF
:1061F000000000000000000000000000000000009F
:10620000354936480A1A02D0072291438D4634494F
:1062100034480A1A06D00722914381F309880222E2
:1062200082F3148830483149314A00F043F831484C
:106230003149324A00F03EF831483249324A00F0E2
:1062400039F832483249334A00F034F83248334999
:10625000334A00F02FF833483349344A00F02AF823
:1062600033483449344A00F025F834483449002290
:1062700000F02BF833483449002200F026F8334868
:106280003349091A082903DB002202600430016047
:106290001F482049884205D00268043003B4904763
:1062A00003BCF7E700208646EC4600200021294A7F
:1062B0009047FEE7884207D0521A05D00378013094
:1062C0000B700131013AF9D17047884202D0027057
:1062D0000130FAE77047000000F0002000E80020DD
:1062E00000F0002000F0002030580400A02D002015
:1062F000CC2E0020A8630200A8630200B839040075
:1063000030580400A02D0020A02D0020E03A040009
:10631000E03A0400E03A0400E03A0400E03A040005
:10632000E03A0400E03A0400E03A04003058040087
:106330005C590400CC2E0020CC2E0020CC2E002056
:10634000F4610020F4610020F4610020F461002079
:10635000F46500206D6A0200FEE7FEE7FEE7FEE757
:10636000FEE7FEE7FEE7FEE7FEE7FEE7704700BF59
:106370000948804709484FF0070188438546084887
:1063800080470848016841F470010160BFF34F8FF6
:10639000BFF36F8FFFF734BF6D63020000F0002082
:0863A000B5BB030088ED00E02D
:1063A80041DF70470188044B03F8111001885278C7
:1063B80003EB41035A707047EC2E00200C4B1B680E
:1063C80013F4804F12D00B4B1B68012B0EDD00B568
:1063D80083B0094BD3F80435084A00929A22084939
:1063E800022006F03DFF03B05DF804FB704700BFD4
:1063F8001C2E0020182E002000100140803B0400B5
:10640800783B040000B583B0012A1ED04AB1022AA5
:1064180035D0254AB521032015F0F2FC03B05DF80C
:1064280004FB224B1B6813F4804FF7D0204B1B68EA
:10643800032BF3DD1F4BD3F804351F4A0092A82223
:106448001E49042006F00CFFE8E7062232214FF42B
:10645800F01000F01BFD154B1B6813F4804FDDD0C6
:10646800134B1B68032BD9DD124BD3F80435144AA0
:106478000092AD221149042006F0F2FECEE70B4B44
:106488001B6813F4804FC9D0094B1B68032BC5DD6B
:10649800084BD3F804350B4A0092B122074904206F
:1064A80006F0DEFEBAE700BF1C3B04001C2E0020ED
:1064B800182E002000100140A03B0400783B040087
:1064C800C03B0400E03B040030B587B004465A4B9B
:1064D8001B6813F4804F03D0584B1B68032B05DC53
:1064E800032C12D8DFE804F00E2A0E2A544BD3F8F6
:1064F80004350190534A0092DF225349042006F0E4
:10650800AFFEEDE701238DF81430504A1378591C7B
:1065180011708DF815303223049364230393464B8E
:106528001B6813F4804F03D0444B1B68032B09DC12
:10653800032C53D8DFE804F01414333300238DF808
:106548001430E2E73E4BD3F804359DF8142001924D
:106558003F4A0092FA223C49042006F081FEE7E710
:106568003C4D28880EF074FE03AA05A928461BF0A6
:106578005DF805469DF81410003118BF012111205F
:1065880000F068FC112D4ED8DFE805F0284D4D4D80
:10659800194D4D37194D4D4D4D4D4D4D4D1902234A
:1065A80003AA05A92C481BF07FF805469DF814108E
:1065B800003118BF0121122000F04CFCE2E71E4B0D
:1065C8001B6813F4804F03D01C4B1B68032B07DC9C
:1065D800062232214FF4F01000F058FC07B030BD0D
:1065E800174BD3F8043501941C4A00924FF48C726F
:1065F8001549042006F034FEEAE70F4B1B6813F434
:10660800804FEBD00D4B1B68032BE7DD0C4BD3F809
:1066180004350194124A00924FF492720A490420F8
:1066280006F01EFEDAE7002DD8D00E4A4FF494711A
:10663800284615F0E5FBD1E71C2E0020182E002077
:1066480000100140043C0400783B0400093100209C
:10665800183C0400002F0020342F0020343C040094
:106668004C3C04001C3B04003038032800D9704718
:1066780008B5FFF729FF08BD00B58BB0202200211F
:1066880001A81CF0A9FD01238DF8043007238DF81B
:10669800073006238DF80C30084B0593084B0993F7
:1066A800084901A80AF084F910B90BB05DF804FB99
:1066B800054A40F24F1115F0A3FBF6E75D680200AA
:1066C80079670200083100201C3B040000B583B044
:1066D8001E4A042146F2010006F0A6FD1C4B1B6869
:1066E80013F4804F03D01B4B1B68032B16DC1BF0E5
:1066F80073FBF8B900F00CFC174801F01BF81748B9
:1067080000F026FCE0B900F0EFFD00F00BFE00F011
:1067180037FEFFF7B1FF03B05DF804FB104BD3F869
:106728000435104A009240F255120F49042006F031
:1067380097FDDCE70D4A40F2571115F061FBD9E7E8
:106748000A4A40F25D1115F05BFBDCE705D2020056
:106758001C2E0020182E0020002F0020D1640200DB
:1067680000100140843C0400783B04001C3B0400FA
:1067780010B582B0194B1B6813F4804F03D0184B27
:106788001B68032B01DC00240CE0164BD3F80435FE
:10679800154A00924FF49C721449042006F060FDDB
:1067A800F1E70134092C17D8114B342000FB0430D1
:1067B800104B03630023836280F82C3080F82D305F
:1067C800611CC9B21AF0F8FE0028EAD00A4A40F261
:1067D800411115F015FBE4E702B010BD1C2E002096
:1067E800182E002000100140BC3C0400783B040037
:1067F800002F0020783C04001C3B040000B583B047
:106808000F4B1B6813F4804F03D00E4B1B68032BF0
:106818000ADC0322C8214FF4F01000F037FB0AF01D
:1068280015F903B05DF804FB074BD3F80435074AA4
:106838000092CF220649042006F012FDE9E700BFC6
:106848001C2E0020182E002000100140DC3C040003
:10685800783B040008B503781C2B00D008BDFFF76F
:10686800CDFFFBE730B587B06421194800F08CFAFA
:10687800184B1B789BB100F0DBFF00F0CBFB0AF054
:10688800D7F8F8B900214FF4F01000F0F4FA02221A
:10689800C8214FF4F01000F0F9FA07B030BD6C468B
:1068A8000D4D0FCD0FC495E8030084E8030068463A
:1068B80000F008FA0028DED0084A4FF4BD7115F040
:1068C8009FFAD8E7054A40F27F1115F099FAD9E7FF
:1068D8007166020008310020E03A04001C3B040005
:1068E80010B5044600214FF4F01000F0C4FA4FF43C
:1068F800FA7202FB04F2054B83FB023212113221B9
:106908004FF4C01000F0C2FA10BD00BF1F85EB5154
:1069180008B500F0EFFA08BD00B585B0204B1B683C
:1069280013F4804F03D01F4B1B68032B1FDC00F0B0
:10693800F9FC00F025FD03A80FF0A8FF184B1B6811
:1069480013F4804F03D0174B1B68032B1ADC00F09D
:10695800D1FA00214FF4F01000F08DFA0422C8217A
:106968004FF4F01000F092FA05B05DF804FB0E4BFE
:10697800D3F804350D4A009285220D49042006F00B
:106988006FFCD4E7084BD3F80435BDF80C2001920E
:10699800084A009290220649042006F061FCD6E7D6
:1069A8001C2E0020182E002000100140F83C040086
:1069B800783B0400143D040010B582B024481BF055
:1069C80077FA4FF0A0434FF40022C3F80C250024B7
:1069D80012E0204A02EB44035B7832F814201E4987
:1069E80001A81CF0ABFB3C2101A800F0DBFE194B11
:1069F800FF2203F814200134092C16D8154B13F97B
:106A08001430B3F1FF3FF6D03C21144800F0CAFE21
:106A1800104B13F91420092ADBDC03EB44035B78E1
:106A28000F4901A81CF08AFBDDE74FF0A0434FF4A3
:106A38000022C3F8082500224FF4804104481BF0C7
:106A480019FA08B902B010BD15F0CCF9FAE700BF81
:106A5800CC2E0020EC2E0020143B0400FC3A04004D
:106A68000C3B040008B5FFF731FEFFF7FBFE4FF4BF
:106A78007A71144800F096FE002307E0124AFF21BD
:106A880002F8131002EB430251700133092BF5D9B8
:106A98000E4B1B7813B9FFF783FCFCE70C4A012166
:106AA8000C481BF0D1F908B115F09CF900224FF4FD
:106AB800804109481BF0DEF90028ECD015F092F966
:106AC800E9E700BFB43C0400EC2E002008310020A8
:106AD800C1690200F83A0400CC2E00202C4B1B7828
:106AE800002B54D000B585B0012804D0032847D026
:106AF80005B05DF804FB04A9002341F8083D012016
:106B080014F0EAFB48BB02A814F038FC40BB04A907
:106B1800012341F8043D0DF1060010F037FC10BBCD
:106B2800BDF8060010F084F80DF1050110F018FA10
:106B3800E0B90BF037F99DF8051000200BF002FCC6
:106B4800B8B904F073F8C0B9114B00221A70114B90
:106B58001B68002BCCD09847CAE715F043F9D2E759
:106B680015F040F9D3E715F03DF9D9E715F03AF9F2
:106B7800DFE7784600F0E4FCE3E715F033F9E3E7F4
:106B880014F072FC0028B3D015F02CF9B0E7704768
:106B98000C3100201031002008B5064B01221A7074
:106BA800054804F0A9F804F089F800B908BD15F003
:106BB80019F9FBE70C310020A02D002008B5037857
:106BC8001C2B00D008BD074B1B78002BFAD014F003
:106BD8008FFC18B9044804F093F8F3E715F002F9AC
:106BE800F8E700BF0C310020A02D002008B50849A7
:106BF800084815F097FD034608B1184608BD032359
:106C0800002205490969054815F0A8FD0346F4E77F
:106C180028310020943400201031002060330020F7
:106C280008B50378023B082B3FD8DFE803F01C05C2
:106C3800113E3E2C3E3E36001E4B5B68002B34D086
:106C4800007A002831D01C4A0121117098472CE0A5
:106C5800184B9B684BB3184A127832B3164A002176
:106C68001170984721E0154B1B784BB9114BDB6825
:106C78001BB1114A002111709847FFF7B7FF14E0C4
:106C8800FFF78AFF11E010220A4B59690C4815F0EA
:106C9800EFFD50B115F0A6F807E08168C06809F06B
:106CA8000FFE18B9054B01221A7008BD15F09AF8A5
:106CB800F8E700BF103100200A3100200B31002016
:106CC8006033002070B586B004461F4A03AB07CA7C
:106CD80003C323F8022B120C1A701C4E35460FCC36
:106CE8000FC594E8030085E80300736953B3184B94
:106CF800009303AB174A1849184815F0CFFC034610
:106D080010B1184606B070BD154817F085F9014650
:106D1800124815F0EFFC03460028F2D1114817F08D
:106D28003DFB03460028ECD10E4817F06DFB0146E9
:106D38000A4815F0DFFC03460028E2D1FFF756FFAA
:106D48000346DEE70723DCE7583D04001031002046
:106D5800296C020028310020943400206033002080
:106D6800483100201033002008B5064B1B683BB1A2
:106D780012F04AFD002803DB024B1B689847F7E72F
:106D880008BD00BFD434002010B50C46144B186061
:106D9800144A012114481BF057F8A0B9610CE0030C
:106DA80041F26F7200238B4208BF824210D24FF427
:106DB8007A7200231CF040F8014600220B481BF0B1
:106DC80059F838B910BD0A4A4A2115F019F8E5E70B
:106DD8000521F2E7064A4B2115F012F8F2E700BF49
:106DE800D4340020716D0200643D0400D8340020C2
:106DF800683D040008B5134B1B6873B14FF0A042FF
:106E0800D2F80435104909684B40C2F804350D4AD8
:106E18001368013B136023B108BD002014F0E2FFA2
:106E2800ECE70A481BF044F84FF0A042D2F80435CA
:106E38000549096823EA0103054909680B43C2F8B3
:106E48000435E9E7F8340020FC3400200035002040
:106E58002835002039B9012303FA00F04FF0A04388
:106E6800C3F808057047012303FA00F04FF0A04368
:106E7800C3F80C05704721B94FF0A043C3F80805C3
:106E880070474FF0A043C3F80C05704712B1134682
:106E9800132900D8704770B5124A10605B00013B97
:106EA800114A13604FF0A043D3F8043518400F4B34
:106EB800186000264D0CCC034FF47A72002314F5A9
:106EC800FA7045F100011BF0B7FF32460146084849
:106ED8001AF0D0FF28B9034B1A684FF0A043C3F843
:106EE8000C2570BDFC340020F83400202835002023
:106EF8000035002008B504481AF0DAFF0021034BDA
:106F08001868FFF7B8FF08BD00350020FC340020E2
:106F180008B511230BE04FF0A04103F5E072032000
:106F280041F8220001229A40C1F808250133142BA8
:106F3800F1D9054A012105481AF086FF00B908BDB4
:106F480014F050FFFBE700BFFD6D0200D43D0400C4
:106F5800F0B1104A1060002309E00F4AD25C02F534
:106F6800E0724FF0A0410D4841F822000133032B95
:106F7800F3D90B4B4FF00042C3F804230020C3F8A9
:106F88007C01084BC02283F8062340221A60704710
:106F98000E20704720350020D83D04000C00030067
:106FA8000060004000E100E010B50024144BC3F875
:106FB8007C410EE043F23333994208D9114BD3F8A0
:106FC8000425114B1A60114B1B6820469847013461
:106FD800E4B2032C12D84FF0A043D3F810250C4B81
:106FE800195D01238B409343F1D0074B1B68054A79
:106FF800D2F80425991ADDD5D11ADBE710BD00BFF8
:107008000060004000100140243500202035002099
:10701800D83D0400002869D02DE9F043CFB00646DA
:10702800334B1B6813F4804F03D0324B1B68032B80
:1070380031DC2F4B1B6813F4804F03D02D4B1B689A
:10704800032B2ADC4FB0BDE8F083F25C2A490D68B7
:1070580010095900285C0DAC04F8130002F00F0267
:107068000131AA5C625401330F2BEED90DAA00231B
:107078008DF8543003F1804303F58833D3F8043591
:1070880002921E4A01921E4A009241221D49042082
:1070980006F0E6F8CDE70023E6E71B4BD3F8043506
:1070A800B288F188307A747AB57AF77A96F80CC093
:1070B80096F80DE096F80E8096F80F90CDF82C9083
:1070C800CDF82880CDF824E0CDF820C007970695A4
:1070D8000594049003910292326801920B4A00923F
:1070E80046220849042006F0BBF8ABE7704700BF0A
:1070F8001C2E0020182E0020202E00204C3E0400BC
:10710800603E0400393E040000100140683E04005F
:1071180072DF704773DF704774DF70472DE9F047FF
:10712800A2B0074688469146314C0026C4F806604E
:10713800E68130490B78C3EB43102F4D0544256099
:107148002E4A0244A2601F22A280A281013303F0CA
:1071580001030B704FF03C0A5246314613A81CF04D
:107168003BF806238DF84F30ADF8487001238DF8B1
:107178004A30ADF85C3012AA1892ADF83C70ADF800
:107188004090CDF844800DEB0A021D928DF87830BE
:107198005246314668461CF01FF802238DF800302D
:1071A800221D294613A813F08CFF90B9104B03F148
:1071B8000C029968684613F084FF68B9104A0C49B4
:1071C8001048FFF7A5FF082809D070B922B0BDE81C
:1071D800F08714F007FEE9E714F004FEEEE700225A
:1071E80003490848FFF794FFEFE714F0FBFDEDE7CC
:1071F800703500202C3500203035002080350020E7
:10720800B02D0020AC2D0020B0F5202F0AD2074B5E
:10721800A3FB0023DB0808B103B90123044A9381C7
:10722800916070474FF6FF73F5E700BFCDCCCCCC2B
:10723800B02D002008B50121054B1878FFF76AFF2B
:1072480018B9002004F030FC08BD14F0CBFDF8E7B5
:10725800AC2D002008B5044B1878FFF75DFF00B986
:1072680008BD14F0BFFDFBE7AC2D002076DF7047AA
:107278007ADF70477CDF704708B514F0B3FD08BDAE
:1072880008B503F041FD08BD00B583B0037823B10C
:10729800012B0BD003B05DF804FB3B214088FFF7BE
:1072A800E5FF0028F6D014F09DFDF3E7094B1B68B5
:1072B80013F4804FEED0084B1B68032BEADD074B15
:1072C800D3F80435064A009268220649042005F0DE
:1072D800C7FFDFE71C2E0020182E002000100140F9
:1072E800343F0400193F040000B583B014F0BCF823
:1072F80070B902A9002341F8043D012013F0ECFF06
:1073080048B901A814F03AF840B903B05DF804FB95
:1073180014F068FDEDE714F065FDF2E714F062FD86
:10732800F3E7000000B585B09DF80C30012262F348
:10733800030362F3071304A800F8043D11220F4960
:10734800FFF798FF98B90023ADF808307823ADF817
:107358000430C823ADF806304FF4C873ADF80A30CE
:1073680001A8FFF785FF28B905B05DF804FB14F004
:1073780039FDE8E714F036FDF6E700BFA83E040043
:1073880000B58BB00023ADF808307822ADF80420A2
:10739800C822ADF806204FF4C872ADF80A2006934B
:1073A800079301AB039340F6CD4304934FF4803326
:1073B800059303238DF81830064B0893064B099361
:1073C80003A814F039FA10B90BB05DF804FB14F0F7
:1073D80009FDF9E7917202008172020006207047E8
:1073E80000B587B041F20103984247D020D944F252
:1073F8000103984258D044F2020398426FD1464B99
:107408001B6813F4804F1ED0444B1B68002B1ADDF9
:10741800434BD3F8043510880390526802920191C7
:10742800404A00926C224049012005F019FF0AE009
:10743800012854D1384B1B6813F4804F03D0374BC5
:107448001B68002B0DDC4FF0A0434FF4F012C3F87B
:107458001825C3F80C25EFF3108372B64DF6AD6C02
:1074680053E02F4BD3F80435029201912F4A009232
:1074780060222D49012005F0F3FEE4E7264B1B6846
:1074880013F4804FDFD0254B1B68002BDBDD244B2A
:10749800D3F8043502920191254A009263222249C9
:1074A800012005F0DDFECEE71B4B1B6813F4804F6F
:1074B800C9D01A4B1B68002BC5DD194BD3F804350E
:1074C8001068049050680390029192680192194ADA
:1074D800009277221449012005F0C2FEB3E70E4B53
:1074E8001B6813F4804FAED00C4B1B68002BAADD31
:1074F8000B4BD3F8043501910F4A00927B220A49BD
:10750800012005F0ADFE9EE730BF0C4B1B78002B29
:10751800FAD107B05DF804FB1C2E0020182E0020BD
:107528000010014010400400BD3F0400D03F04009B
:10753800EC3F04003040040054400400C82D0020F3
:1075480000B583B00023ADF80030054B01936A46BF
:10755800014644F20200FFF743FF03B05DF804FB65
:10756800B83C040000B583B00378022B0FD0012B80
:1075780011D020481BF0F2FB1F4B1B78012B0ED0BB
:107588001C4B1B78402B13D003B05DF804FB4068FC
:1075980014F028FCF8E7406814F024FCF4E7174AD4
:1075A8001378144908781649C85401331370E7E76B
:1075B800114B01221A70002240F6CD4111481AF0F1
:1075C80059FC98B9104B1B6813F4804FDCD00F4B53
:1075D8001B68032BD8DD0E4BD3F804350D4A0092F7
:1075E80032220D49042005F03BFECDE714F0FAFBEA
:1075F800E8E700BFD8370020C4360020C536002091
:10760800C8360020DC3700201C2E0020182E002051
:1076180000100140184104000241040070B586B012
:1076280038490A78303A02EB82025300DCB24B78D0
:107638001C44303C64B2CD78303DEDB26EB2324B72
:107648001B6813F4804F03D0304B1B68032B34DCCA
:1076580000232F4A13702F4A13709C422BDD8DF89C
:107668000C502D4A1378591C11708DF80D303223A7
:10767800059364230493244B1B6813F4804F03D0B1
:10768800224B1B68032B24DC1F4B1B6813F4804F11
:1076980003D01E4B1B68032B27DC342303FB04F4A5
:1076A8001E4D2B68185B0DF0D3FD286804AA03A9AA
:1076B800204419F0BBFF06B070BD194BD3F8043550
:1076C8000191184A009261221749042005F0C8FD6B
:1076D800BEE7134BD3F804350194144A00926F2285
:1076E8001149042005F0BCFDCEE70D4BD3F8043555
:1076F80001960F4A009270220B49042005F0B0FD54
:10770800CBE700BFC83600201C2E0020182E002012
:10771800C5360020C4360020D7360020C0350020EA
:1077280000100140643E040002410400344104009A
:107738004441040070B58AB0064604AC124D0FCD22
:107748000FC495E8030084E80300104B00934FF43E
:10775800807301930E4A0292039307230D4A6946E8
:1077680004A81BF083FA48B90B4B1E600B4A002192
:107778000B481AF069FB20B90AB070BD14F032FB4F
:10778800F2E714F02FFBF7E770400400C43500203F
:10779800D83600206D750200C0350020257602001D
:1077A8003041040038B504460D4605E020781BF04A
:1077B80007FB0028FAD101342378002BF6D13DB11C
:1077C8004FF47A40034B43F001039847013DF7D14A
:1077D80038BD00BF9040040010B40346044C006854
:1077E80059689A68DB680FC45DF8044B704700BF9E
:1077F800FC3700200B4B0C4A92E8030083E8030097
:1078080003F10802094903C982E80300DA7904216F
:1078180061F30712DA711A7A022161F387121A7278
:10782800704700BFFC37002060000010A400001063
:1078380000487047FC370020002308E0074901EBA7
:10784800C30000224280426001F8332001331F2B1D
:10785800F4D9034B00221A60704700BF0C3800208F
:107868000C39002030B405460F4B1B6800240AE091
:107878001F230E4A12F83300A0B102EBC30252884C
:10788800AA4207D001341F2C0BD85A1E002BEFD068
:107898001346EEE7054A02EBC30252688A42F1D169
:1078A80000E0002030BC70470C3900200C38002064
:1078B80030B40A4A13680A4C04EBC305688069604F
:1078C800012104F833100B441360202B01D030BC85
:1078D8007047134600221A60F9E700BF0C390020F0
:1078E8000C380020C0F30C038B4202D3C91A084499
:1078F8007047C91A0844A0F500507047C37D002B93
:1079080042D0C3780A7802F0800203F07F03134361
:107918000B7002780B7803F07F0343EAC2130B70F5
:107928000378002B41D030B48378082B14BF002291
:1079380001224B7803F07F0343EAC2134B70C588DA
:1079480003F08003C5F3861423434B708A7802F052
:10795800030242EA8502D2B28A70057A02F0FC027A
:10796800C5F3C10422438A70CB7803F01F0343EAAE
:107978004513DBB2CB70427A03F0E00302F01F023A
:107988001343CB7030BC7047C3780A7802F0BF024B
:107998009B0103F0400313430B70027903F0C0030B
:1079A80002F03F0213430B70B3E770470023032B29
:1079B8002DD810B402E00133032B24D8C3EBC30243
:1079C8001401144A224492F84820012AF3D1114A9A
:1079D8002244948AC2899442EDD1C3EBC3021401B4
:1079E8000C4A2244D2888A42E5D10A4A2244B2F893
:1079F800582012B1848AA242DDD1C3EBC3031A0115
:107A08000448104400E000205DF8044B7047002053
:107A1800704700BFBC390020002300E00133032B6E
:107A280014D8C3EBC3021101094A0A4492F848204A
:107A3800022AF3D1064A0A44918A828A9142EDD1F8
:107A4800C3EBC3031A010248104470470020704773
:107A5800BC39002008B1082070470420704730B4B2
:107A680003460C460978C17000214162A1680B29C0
:107A780003D8217B01B3012100E001211970002006
:107A8800987029B1A1680731C9080139597218726B
:107A98000121D97503F10C0504F1100103C985E82A
:107AA8000300E1899982A1691962217F9975216A88
:107AB800D9629A6230BC70470021DFE70021164B7B
:107AC8001B688B4226D90023144A02EBC102526874
:107AD8009A421DD910B4114A52F8312002EBC3045E
:107AE80012F8332082420DD001330C4A02EBC10256
:107AF80052689A42EFD80131074B1B688B4205D96F
:107B08000023F2E760685DF8044B70470020FAE74D
:107B18000131D4E7002070471039002014390020C3
:107B280070B58CB006460D4614462C22002101A8DB
:107B38001BF052FB0F238DF80430ADF808604FF0AE
:107B4800000365F300038DF80A308DF80B4001A897
:107B580001F00EFA0CB070BD30B58DB005460C467C
:107B68002C22002101A81BF037FB10238DF80430CC
:107B780002958DF80C4001A801F0FAF90DB030BD5E
:107B880000B58DB048B913F1020F06D001228DF867
:107B98000420029301A801F0EBF9034B186804F0E4
:107BA800A9F90DB05DF804FB1C390020D0B50446D6
:107BB800037853B1E3691F0A1E06E188A069FFF73D
:107BC80091FE301847F10001D0BD7846FFF7B8FCA8
:107BD800F0E70000F8B50546002400E00134032C66
:107BE80020D8C4EBC4031A010F4B134493F8483050
:107BF800022BF3D10C4B13449A8AAB8A9A42EDD1EB
:107C08002846FFF7D3FF06460F46C4EBC40213010C
:107C180005481844FFF7CAFF8F4208BF8642DDD2E5
:107C2800012000E00020F8BDBC390020F8B5064668
:107C380003783BB13046FFF7B9FF04460D46B08ADA
:107C4800002304E07846FFF77BFCF3E70133072BBA
:107C58000ED81A0107498A5A8242F7D101EB03125A
:107C6800D2E90267AF4208BFA642EFD1104600E052
:107C78000020F8BD2039002038B504460D460378A9
:107C880053B10023072B0ED8A18A1A011248825A31
:107C9800914205D00133F5E77846FFF751FCF0E74C
:107CA8001B010021C1520D4A1368591C116003F0D1
:107CB8000703A08A1A010849885255B16278064D0F
:107CC80005EB0315AA702046FFF770FFC5E902010E
:107CD80038BD0022F3E700BF20390020A03900207A
:107CE800F8B5069C002963D00F4616685568D2F887
:107CF80008E0D2F80CC0E6602561C4F814E0C4F8C6
:107D080018C016695569E66125620022627002781A
:107D1800D20922706AB30421B9424BD8E57D55B324
:107D2800027802F07F02E2700022A27022789AB1F3
:107D38004278920102F4FE52817842EA9102E2808E
:107D48008278D20002F01802C17842EA51122272F7
:107D5800C27802F01F0262721D46002363622B780C
:107D6800032B21D82A78144B53F82230E3620020E1
:107D78001FE00121D0E70578C5F38015E570057887
:107D880005F03F05257142B190F90120002A02DB78
:107D98000422A270CAE70822FBE70422A270114459
:107DA800B942C3D9092004E07846FFF7C9FBD9E7EF
:107DB8000920F8BD0920FCE75041040070B50C46C5
:107DC8001E460378ABB104252A44A26000F10C03D7
:107DD8002360836A6360C36AE360002323742046D8
:107DE80004F008FC024610B963691D44356010466A
:107DF80070BD0125E8E72DE9F0418EB00D46164625
:107E08001C46804600282DD0002D2FD0002C31D0C4
:107E1800636A0233059304F10C00E378002B2DD03C
:107E28000121A27801AF3B46082A14BF0022012293
:107E380004F0A5F90697CDF81C80B2B2ADF8202061
:107E48000B9515440C95A3788DF83430237B022BC1
:107E580016D00023ADF8283005A804F088F90EB034
:107E6800BDE8F0817846FFF76BFBCDE77846FFF772
:107E780067FBCBE77846FFF763FBC9E70221D0E74A
:107E880023692BB1236909931023ADF82830E3E760
:107E98007846FFF755FBF5E72DE9F04188B0044631
:107EA8000D46C37D002B3CD0082605FB06F8637AF7
:107EB800AB4238D0257201AB324602A92046FFF703
:107EC8007DFF074648BB4DB994F8533033B9A369D1
:107ED800C3F30C03E380012384F85330E37D7BB9BB
:107EE80094F8523063B91DBBB4F84A10A2782346FF
:107EF8008A1AE16E0846FFF77EFF012384F85230A4
:107F080007992046FFF7FAFCE16E32464144019892
:107F18001BF039F902A804F093FB384608B0BDE815
:107F2800F0810C26C1E7B4F84A60A6EB0806C1E761
:107F38007846FFF705FBD7E770B505460E4609B149
:107F480000230B6095F85040002104E0631C85F87D
:107F580050300134E4B26B7AA34210D3EA6C0123A7
:107F6800A3401A42F5D121462846FFF795FF01465E
:107F780028B9002EEAD0336801333360E6E70846B3
:107F880070BDF0B589B085781544C37DDBB10B238E
:107F98009D4221D816460F46044601AB2A4602A93F
:107FA800FFF70CFF0546C0B907992046FFF7A6FC66
:107FB800E37D53B13246394601981BF0E4F802A834
:107FC80004F03EFB09E00F23E2E72346324601991D
:107FD8003846FFF710FFF2E70925284609B0F0BD3B
:107FE80010B5044690F84830012B0CD103F068F91D
:107FF800237B012B0BD0094BD968014404F13000D5
:1080080003F034F910BD7846FFF79AFAEEE7A37D3E
:10801800024AD168126902FB0311EEE7A439002075
:1080280030B583B0002403E02846FFF7D9FF0134B8
:10803800032C1AD8C4EBC4031A010D4B134493F84C
:108048004830012BF3D102A9002341F8043DC4EBC9
:10805800C4021301064D1D442846FFF76DFF04288E
:10806800E2D0019B002BE2D0DEE703B030BD00BFB9
:10807800BC39002038B5044690F84830022B02D0AD
:108088007846FFF75DFA054B1D6803F019F94119A9
:1080980004F1300003F0EAF838BD00BFA43900202D
:1080A80038B5044690F84830022B02D07846FFF7DE
:1080B80047FA084B5D7D5A689B6803FB052503F06A
:1080C800FFF8411904F1500003F0D0F8012384F8B7
:1080D800683038BDA439002010B50446808A02F003
:1080E8003FFC01281CD1237BE3B194F91620002A18
:1080F8001ADBE27D4AB1022B18D094F90330002B29
:1081080016DBA378B3B900200BE0E2780AB9012B9B
:1081180012D1237893B9A378042B11D1002000E061
:10812800102010BD1020FCE70720FAE71020F8E720
:108138000720F6E70720F4E70720F2E70020F0E73A
:108148000720EEE738B50446C2698169808A06F0DF
:10815800A1FA054608B9284638BDE169002201F0B0
:108168000101A08AFFF7DCFCF5E700002DE9F047E4
:1081780007460E4690464B1EDBB2012B0FD8B8F5CA
:10818800C07F10D80024032C1AD8C4EBC4031A01EA
:10819800314B134493F848304BB10134F3E7784638
:1081A800FFF7CEF9EBE77846FFF7CAF9EAE7DFF819
:1081B800A8A015465544404608F069FBE86600E06B
:1081C80000256DB3EB6E002B43D03B462A4607F1E2
:1081D8003001D3F800E0D3F804C09C68D868C2F82E
:1081E80000E0C2F804C09460D060103310328B42B3
:1081F800EFD10023EB64A5F84A80012E13D06FF06D
:108208000103AB62002385F86830144BAB652D661B
:10821800134BAB632D64012002F084F885F84860A5
:108228002846BDE8F0870F4B1B7D85F851300023A9
:1082380085F8523085F8533085F85030BA6A6A6547
:10824800A5F858306FF00103AB62074BAB632D64A0
:10825800E1E70025E4E700BFBC390020AB8B020052
:1082680095850200A4390020E185020000B585B09B
:1082780000238DF80F3098B10346084602330B608F
:108288000DF10F0103F077FF9DF80F3043B10D4B4F
:108298001B6813F0040F03D00B4B1B68032B04DC83
:1082A8009DF80F0005B05DF804FB084BD3F80435C2
:1082B800074A009240F237420649042004F0D0FFF2
:1082C800EEE700BF1C2E0020182E002000100140F1
:1082D80080420400734204002DE9F0438FB0044645
:1082E8000E4615461F46D0F81890037823B1C1886A
:1082F8004846FFF7F7FAA06104F10C00E378002B79
:1083080037D00121A2780DF128084346082A14BF66
:108318000022012203F033FFC4F81890CDF808803A
:108328000396A378EA1A92B2ADF810203244089264
:1083380007978DF824300023ADF81830E37863B33D
:10834800237B022B17D02546002345F8243F2A46D5
:108358002179206A0FF044FB606A90B101A9FFF708
:1083680085FF00283BD12A462179206A0FF038FB87
:10837800F2E70221C6E71023ADF818302369059308
:10838800E1E7237B022B2ED104F10C01E0890FF0E9
:10839800D9FB0028D4D1052022E0237B012B24D14E
:1083A800E389ADF80030A38AADF802300025012D2D
:1083B80013D82146002341F8243F0EAB03EB4503B5
:1083C80033F8380C0FF029FB01A9606AFFF74EFF5C
:1083D80008B90135EBE7002002E0052000E00020A5
:1083E8000FB0BDE8F0830520FAE70520F8E70000A4
:1083F80070B5F0B00D4614461E4610AB0A4601464D
:108408002046FFF769FF50B1224B1B6813F0040F99
:1084180003D0214B1B68052B2FDC70B070BD2046A4
:10842800FFF790FE0028F8D103AB01228DF80C204D
:10843800A28AADF80E20002204928DF8142010AA0A
:108448000692A278AD1AADF81C5008AA93E803006A
:1084580082E803000AAB04F10C0292E8030083E807
:108468000300A37D8DF83830236A0C93636A0D935B
:108478000F9605A800F07CFDCFE7084BD3F804352C
:10848800074A009240F20E720649062004F0E8FE00
:10849800C3E700BF1C2E0020182E0020001001404A
:1084A800A44204007342040010B50446C06E08F0EC
:1084B800F2F904F1300002F0C1FE94F84830022BC2
:1084C8000AD07022002120461AF086FE002084F887
:1084D800480001F027FF10BD04F1500002F0AEFE85
:1084E800EFE710B58CB0044690F84830012B02D065
:1084F8007846FFF725F801238DF80430636D029361
:1085080001A800F035FD2046FFF7CEFF0CB010BDE6
:1085180030B585B00D460446A8B194F84830022B12
:1085280015D02946606DFFF717FB2046FFF7BCFF03
:10853800114B1B6813F0040F03D0104B1B68032B5F
:108548000ADC05B030BD7846FEF7FAFFE5E7002102
:108558002046FFF791FBE4E7094BD3F8043594F87C
:10856800482002950192074A009240F22E220649BD
:10857800042004F075FEE4E71C2E0020182E0020CD
:1085880000100140604104007342040008B5084629
:108598000021FFF7BDFF08BD08B5037B012B02D002
:1085A800FFF79FFF08BD0121FFF7B2FFFAE70000C0
:1085B80008B590F8513013B9FFF7EEFF08BD013B3D
:1085C80080F85130002380F85030024B186803F0CF
:1085D80091FCF3E71C39002010B50C4691F848309F
:1085E800012B02D07846FEF7ABFF2046FFF7E0FFED
:1085F80010BD0000062900D07047F0B585B01546BB
:108608000278910101F4FE5147788478C3781B04FD
:1086180043EA0463047943EA042344791C4356B2C9
:1086280041EA97012846FFF7C1F90746E0B1002E55
:108638002FDBC289A98A8A422BD02B4B1B6813F0E7
:10864800040F3ED0294B1B68012B3ADD284BD3F889
:10865800043502910192274A009240F28C62264921
:10866800022004F0FDFD2CE01F4B1B6813F0040FE3
:1086780027D01E4B1B68012B23DD1D4BD3F8043577
:108688001E4A009240F284621B49022004F0E8FD71
:1086980017E0002E17DBFD6C2543FD64BCB13B7869
:1086A800D3B17B7A5A1C01239340013B9D4217D0DA
:1086B800002187F850103846FFF73EFC3846FFF790
:1086C8008FFC05B0F0BDAB8AA7F85830E3E703216B
:1086D8003846FFF71DFFF4E77846FEF731FFE0E77D
:1086E8003846FFF7FEFEECE71C2E0020182E00206F
:1086F80000100140C841040073420400984104007E
:108708002DE9F0438BB080460F4614461E461046AE
:10871800FFF718FD10BBE5781DB32846FFF7CEF923
:108728008146D8B18DF80450236A0793A38AADF81F
:10873800123005AB04F10C0292E8030083E8030051
:10874800A37D8DF82030CDF80880039723788DF825
:108758001030E36A0993314601A8C8470BB0BDE859
:10876800F0833346224639464046FFF743FFF5E794
:1087780010B5547814F0010F03D0D47D14B9FFF765
:1087880037FE10BDFFF7BCFFFBE708B50139013024
:10879800FFF7EEFF08BD0000F0B5C7B086781644B5
:1087A800C37D2BB14FF48073B34279D3002303E028
:1087B8004FF4C073F8E70133032B19D8C3EBC30494
:1087C80025013B4C2C4494F84840012CF3D1384CFB
:1087D8002C44A58A848AA542EDD1C3EBC3042501A4
:1087E800334C2C44E589C489A542E4D1082458E0D7
:1087F80014460D4632460121FFF7B8FC064600280C
:1088080052D022462946C06E1AF0BDFC46A9002364
:1088180041F8043D3046FFF78FFB044608B10428B1
:108828003AD1459B7BB9234B1C6814F0040438D01B
:10883800214B1B68032B39DDB6F84A70802F28BFFF
:108848008027002313E03046FFF7CAFBEBE7F26E00
:10885800D25C1A490C6810095900255C04A800F874
:10886800135002F00F020131A25C42540133BB42A3
:10887800EDD304AA002402F81740114BD3F80435AD
:108888000292104A0192104A009240F271520F4926
:10889800042004F0E5FC04E03046FFF705FE00E0A4
:1088A8000924204647B0F0BD0424FAE70024F8E77D
:1088B800BC3900201C2E0020182E0020202E00205D
:1088C800001001400C420400603E040073420400A2
:1088D80070B504460D461646FFF7FEFB034638B949
:1088E80023783BB9324629462046FFF74AFB034620
:1088F800184670BD324629462046FFF74DFF03460D
:10890800F6E7000038B504460D46CB695B7803717D
:10891800CB691B7883F00103C370CB6943628B8AF0
:108928000B2B07D8CB7A002B35D10B7B012B02D030
:10893800002300E001232370002B31D0287B02287C
:108948002BD0FFF787F8A070AB8A03440B33174886
:1089580080FB03235B10013B637200232372002317
:10896800E37504F10C0395E8030083E80300AB69A1
:1089780023622B89A382AB7AA3752B6AA362DF23B8
:10898800E36228460FF00CF920B12B78012B0AD0AE
:10899800FF23E36238BD0123CDE7054B987DD0E77F
:1089A8000423A370DBE72023F3E700BFABAAAA2ABE
:1089B800A439002010B54FF4E072002113481AF0D2
:1089C8000BFC05F01BFF0024114B1C608022214684
:1089D80010481AF001FC104B104A1A60104A5A60ED
:1089E8004CF250329A600F49D9601A6104221A7504
:1089F8009C7508225A750C4803F05CFA0B4B1860FA
:108A08000B4B1C600B4805F0F7FF10BDBC3900206C
:108A1800A039002020390020A43900208096980031
:108A2800F049020020A107009D8B02001C3900209C
:108A380010390020897B020008B505F023FE08BD27
:108A480098B110B58CB00446036983B1C36983B18A
:108A5800836983B101466846FFF754FFA28A2169FA
:108A68006846FFF735FF0CB010BD0E2070470E208A
:108A7800F9E70E20F7E70E20F5E790B110B58CB0B6
:108A8800044642687AB182697AB10A460146684664
:108A9800FEF7E5FFA26861686846FFF719FF0CB0AA
:108AA80010BD0E2070470E20F9E70E20F7E70000F2
:108AB800037B012B01D00020704710B58CB0002338
:108AC8000193CDF80730C288C2F3861492008DF85E
:108AD80001200A0E8DF802200A0C8DF803200A0ADC
:108AE8008DF804208DF805104278022A14BF002260
:108AF800012244EAC2128DF80020062205920122C2
:108B08008DF81C20828AADF81E2008938DF80C3051
:108B1800CDF810D0026A09928DF81830C389ADF8E3
:108B28001A30C36A0B93837D43B98DF828306FF0F0
:108B3800010103A8FFF7A1FF0CB010BD024B5B7D3C
:108B48008DF82830F3E700BFA439002090F84830AA
:108B5800022B00D0704790F86830022BFAD110B57C
:108B68000446C16CFFF7A4FF10B9002384F86830ED
:108B780010BD000010B5002407E0C4EBC4021301C7
:108B880003481844FFF7E2FF0134032CF5D910BD60
:108B9800BC39002008B5FFF743FAFFF7EBFF0120C7
:108BA80008BD10B50C4691F84830022B02D0784623
:108BB800FEF7C6FC022384F868302046FFF7C6FF9C
:108BC80010BD0000F0B58FB00446FFF703F8002889
:108BD80040F08D802046FFF729F80746A0B92046C7
:108BE800FEF71AFF054658B12046FEF7DFFF064696
:108BF8000F462846FEF7DAFFB94208BFB0422BD32A
:108C08007DB328460FB0F0BD02AD26460FCE0FC586
:108C18000FCE0FC596E80F0085E80F00BB788DF8DA
:108C280009307BB19DF8083073B19DF811104B1CC9
:108C380001219940013902A8FFF73AFFBB7813F0E8
:108C4800010F05D10025DCE77846FEF779FCECE753
:108C58002046FFF777FAF5E705212846FFF758FC85
:108C68000025667A731CE27D92B1082606FB03F69E
:108C780082B14FF48073B3421DD21F4B1B6813F0AF
:108C8800040F36D01D4B1B68002B06DC0025B8E707
:108C98000C26EBE74FF4C073EDE7194BD3F8043516
:108CA8000196184A009240F292321749012004F0C6
:108CB800D7FA0025A5E7E188A069FEF713FEE26967
:108CC8000146A08A05F044FD00289AD132460221C7
:108CD8002046FFF74BFA0546002892D1002120468E
:108CE800FFF7E6FE02210020FEF736FF89E70025A0
:108CF80087E7002585E700BF1C2E0020182E0020DE
:108D08000010014084410400734204002DE9F04141
:108D180082B00646884615461F461046FFF752FFA2
:108D2800002847D00446434B1B6813F0040F03D0B8
:108D3800414B1B68032B40DC2046FFF79BF9237B44
:108D4800012B48D0E16C2A7A01239340194231D192
:108D58000B43E364A8F104082B7AEA7D002A42D089
:108D68004FF0080C0CFB03FC617A8B423ED0002AC2
:108D780041D00823434540D1A269AB699A4209D240
:108D880004F10C0E0C350FCDAEE80F0095E803008A
:108D98008EE80300E06E4246311D60441AF0F3F994
:108DA800E56C237873B3637A5A1C01239340013B23
:108DB8009D422BD002B0BDE8F081204BD3F804359A
:108DC8002A7A01921E4A00924FF471721D490420BA
:108DD80004F046FAB0E794F86830002BB2D1204688
:108DE800FFF75EF9AEE74FF00C0CBBE70CEB08039E
:108DF800A4F84A30C0E70C23BCE704212046FFF75B
:108E080087FBD7E77846FEF79BFBCCE7E16C20466B
:108E1800FFF74EFE3B462246B4F84A10E06EFFF7D5
:108E2800A7FC01212046FEF727FF2046FFF73CFB61
:108E3800C0E700BF1C2E0020182E002000100140A3
:108E480094420400734204002DE9F04190B00028D8
:108E580042D08046002A41D01F4614460E4604AB35
:108E680000933B46FEF73CFF054618B1284610B074
:108E7800BDE8F08104A8FFF72FF905460028F5D1D1
:108E88002269E168208905F063FC0028EED10023FF
:108E98000293039302A960880EF054FE38B19DF83E
:108EA800113043F001038DF81130039B08939DF8AE
:108EB8001130002BDAD09DF8103033B93B4604AAA4
:108EC80031464046FFF761FCD0E73B4604AA3146ED
:108ED8004046FFF71BFFC9E70E25C7E70E25C5E784
:108EE800F8B500B30546164B1F68F7B90E463C4661
:108EF800B4420ED205EBC4035B68CBB115F834005D
:108F080010F0800F16D1B8B1FEF7D8FDB0B9013412
:108F1800EEE70C4B43F8375003EBC7035E607B1C4E
:108F2800074A136002E00E2700E004273846F8BD20
:108F38000E27FBE70B27F9E70F27F7E70F27F5E7DA
:108F48001039002014390020084B196861B110B598
:108F580001E021463CB10C680B79002BF9D003489D
:108F680004F0E7F8F5E710BD704700BF803B00202C
:108F780038B5054630B1104B1C68ACB10F4B012217
:108F88001A7004E07846FEF7DBFAF4E724683CB18F
:108F98002379002BFAD154F8043C28469847F5E782
:108FA800064B1B78022B00D038BDFFF7CDFF034BD3
:108FB80000221A70F8E700BF803B00207C3B0020AD
:108FC80010B5044630B100232372211D034804F074
:108FD80085F810BD7846FEF7B3FAF4E7803B002029
:108FE80010B5044650B10A4B1B78013BDBB2012B8C
:108FF80008D9211D074804F09CF810BD7846FEF7F3
:109008009FFAF0E7024B02221A7001232372F4E759
:109018007C3B0020803B00200A8883689B5A0733EA
:109028009BB223F0030313449BB20288043A934291
:1090380000D900230B80704710B582B004468368BE
:10904800CB1A02A921F8023DFFF7E6FFBDF806306A
:10905800A068184402B010BD0088043880B2704778
:1090680043888268D018D152012383707047826880
:1090780000239370438083807047073189B221F0C1
:10908800030189B2428883889A4204D29B1A994282
:109098001CDC0020704710B59A420FD90488A41A26
:1090A800A14215D98B4215D3032C03D983681344E5
:1090B80004229A7000234380184606E0826813440D
:1090C8009B784BB9FFF7D3FF002010BD04207047F1
:1090D8000020FAE70420F8E70420F6E738B504464C
:1090E8000D468368828813448B4202D07846FEF787
:1090F80027FA0023AB70211D2046FFF78DFFA288B9
:10910800A36813449B78042B00D038BD0023A380A8
:10911800FBE710B50C468368428813448B4202D0A3
:109128007846FEF70DFA0023A37010BD70B5064609
:1091380015460C46002944D0002E46D0B4F1005FF5
:1091480008D94FF08053D3F80C3103F50023B4EB62
:10915800832F0ED3B4F5000F08D94FF08053D3F8FE
:109168000C3103F50053B4EB832F02D37846FEF796
:10917800E7F96B1E2344B3F1005F08D94FF0805222
:10918800D2F80C2102F50022B3EB822F0ED3B3F5EF
:10919800000F08D94FF08052D2F80C2102F5005286
:1091A800B3EB822F02D37846FEF7CAF9042D10D903
:1091B800358000237380B380B460043D2580A3709C
:1091C80070BD7846FEF7BCF9B6E77846FEF7B8F901
:1091D800B4E77846FEF7B4F9EAE738B50446A0B133
:1091E8006288A36813449B78012B12D0EFF3108593
:1091F80072B6A388A16819448B78032B0DD020463A
:10920800FFF735FF05B962B638BD7846FEF798F91D
:10921800E6E77846FEF794F9E8E72046FFF70CFF03
:10922800A368C31A638000238370EBE72DE9F0413C
:109238000E4615460446D0B1EEB16288A3681344C1
:109248009B78012B1BD025B32046FFF705FFA842CA
:1092580021D3EFF3108872B629462046FFF70DFF99
:10926800074680B1B8F1000F16D162B614E078460F
:10927800FEF766F9E0E77846FEF762F9DDE778463B
:10928800FEF75EF9DFE729462046FFF7E9FE306082
:10929800E8E7092700E009273846BDE8F081F8B576
:1092A8000C4616460546E0B1FCB1A378012B20D147
:1092B8002388B34221D326B3EFF3108772B62680F2
:1092C8000223A370E9182846FFF7A6FE6B88AA8830
:1092D800934203D0AA68134400229A7007B962B671
:1092E800F8BD7846FEF72CF9DEE77846FEF728F950
:1092F800DBE77846FEF724F9DAE77846FEF720F947
:10930800D9E77846FEF71CF9D6E770B50D4604464E
:1093180080B19DB1EFF3108672B6A288A36813449A
:109328009A78042A0ED09A78022A13D0032A18D0E1
:10933800052013E07846FEF703F9EAE77846FEF7DA
:10934800FFF8E7E7211D2046FFF766FEA288A3681D
:109358001344E8E703229A702B60002006B962B62E
:1093680070BD7846FEF7ECF80020F7E738B50446FC
:1093780080B1EFF3108572B6A088A16801448B789C
:10938800042B0BD08878022814BF0020012005B9CF
:1093980062B638BD7846FEF7D3F8EAE72046FFF70D
:1093A8004BFE0146EEE738B5044630B1EFF31085C1
:1093B80072B6A088A168014407E07846FEF7C0F8B5
:1093C800F4E72046FFF738FE01468878C31EDBB273
:1093D800012BF6D9022814BF0020012005B962B676
:1093E80038BD70B50C46064678B194B1EFF31085D8
:1093F80072B6A378012B10D0032B13D12146304627
:10940800FFF76CFE05B962B670BD7846FEF798F8AE
:10941800EBE77846FEF794F8E8E721463046FFF791
:1094280078FEEFE77846FEF78BF8EBE710B5EFF339
:10943800108472B68388816819448B78042B06D00F
:109448008878B0FA80F0400904B962B610BDFFF719
:10945800F3FD0146F4E7000008B5064B98680022C2
:109468001A605A609A60DA601A615A619A6104F067
:1094780011FF08BD843B002000B585B00A4BDB68AE
:1094880002228DF8002001934FF480530293074A7B
:109498006946012001F07AF918B1002005B05DF89D
:1094A80004FB0120FAE700BF843B0020A03B00201A
:1094B80000B585B00A4B1B6802228DF80020019385
:1094C8004FF480530293074A6946012001F05EF980
:1094D80018B1002005B05DF804FB0120FAE700BFD1
:1094E800A43B0020A03B0020164BDA681379517981
:1094F8005B1A03F57F2303F6FF7302EB03339A42EB
:1095080005D002F580520F4BDA600320704700B592
:1095180085B00D4B1B6801208DF8000001930B4BA3
:109528000393042302930A4A694601F02FF918B1FC
:10953800002005B05DF804FB024B01221A760220D8
:10954800F7E700BF843B0020A43B0020A83B002095
:10955800A03B002000B585B00C4BDA680C4B1B68AB
:10956800043301208DF800000192039340F6FC7348
:109578000293084A694601F009F928B90120034B0A
:10958800187605B05DF804FB0020FAE7843B00205C
:10959800A43B0020A03B002000B585B00A4B1B6807
:1095A80001208DF800000193084B039304230293D4
:1095B800074A694601F0EAF818B1002005B05DF8DD
:1095C80004FB0120FAE700BFA43B0020903B0020E9
:1095D800A03B002010B584B0104BDA681478104B0B
:1095E8001B68043301208DF8000001930392029454
:1095F8000C4A694601F0CAF870B9094B1B6804F0B7
:10960800FC041C440434054B5C61D9680A780A449C
:109618001A61012004B010BD0020FBE7843B002044
:10962800A43B0020A03B002008B50023092B09D843
:10963800064A52F82320824201D00133F6E7044A51
:10964800536002E07846FDF77BFF08BDD042040076
:10965800843B002010B5214BDB6853B11F4B1B7EA8
:109668005BB91E4B5B68092B15D97846FDF768FF77
:1096780011E07846FDF764FFF0E77846FDF760FFF4
:10968800EFE7164B00225A60012C01D0032C23D19E
:10969800124B1B7E03BB114B5A68114B53F82230F7
:1096A8009847044602280DD00328EAD00128EBD1B8
:1096B8000A4A536801335360092BE5D97846FDF708
:1096C8003FFFE1E7054B1B7E1BB1044B02221A70DA
:1096D800DAE7FFF7C1FED7E710BD00BF843B0020E3
:1096E800D0420400104B1B681B685A1E12F1030F6E
:1096F80018D8C3F30B020AB10020704710B50B4A03
:10970800D3600023137653760124147093600848BD
:10971800FFF78AFF0749204601F026F8FFF79AFF6E
:10972800204610BD00207047A43B0020843B002049
:10973800819402004197020008B50B78032B06D0EC
:109748000B4B1B78012B06D0022B0BD008BD084B06
:1097580000221A76F4E7064B1B7E002BF6D1FFF7A2
:1097680079FFF3E70B78032BF0D1FFF775FEEDE7F0
:10977800843B002000B585B0174BDB6818784FF69E
:10978800FF7203F58051184405F0ECF8F0B1024679
:10979800114BD9680B780B44984219D00E4B5B7E5D
:1097A80093B10E4B01208DF800000192039304231E
:1097B80002930B4A694600F0E9FF58B90120064BAD
:1097C800187605B05DF804FB064BEBE70120F8E7D7
:1097D8000120F6E70020F4E7843B002078450400E8
:1097E800A03B00207445040008B5104BDB681878CE
:1097F800002203F58051184405F0B4F808B101209F
:1098080008BD0A4BDA68137951795B1A03F57F238F
:1098180003F6FF7302EB03339A4205D002F5805238
:10982800024BDA600320EBE70220E9E7843B0020E3
:10983800F0B585B0544BDE6872793379591E8A4287
:109848001AD006F580510D780D4450490968081D55
:109858000F7907449B1A03F57F2303F6FF731B0355
:1098680003F580531E446B88013B9BB247F6FE62AA
:10987800934260D92C461AE00120434B58767EE08B
:109888007846FDF75DFE15E024F47F6424F00F04AC
:1098980004F5805423781C44A64247D9A54247D2F0
:1098A8006388013B9BB247F6FE62934211D9238835
:1098B800002BE5D0238804EB830323F47F6222F096
:1098C8000F029342E0D06288B2F5FE4FDCD01C460E
:1098D800E2E725462FE07846FDF732FE15E024F44E
:1098E8007F6424F00F0404F5805423781C44A642B6
:1098F80020D9A5423BD26388013B9BB247F6FE6262
:10990800934211D92388002BE5D0238804EB8303E5
:1099180023F47F6222F00F029342E0D06288B2F50E
:10992800FE4FDCD01C46E2E7254604E0002502E0B5
:10993800002500E00025E5B1144B19686A8801F597
:109948008051384605F00EF8074690B101200E4BBD
:1099580018768DF8000001950D4B039304230293AC
:109968000C4A694600F012FF58B92C46CAE7002590
:10997800E1E7B5FA85F56D09034B5D76012005B081
:10998800F0BD0020FBE700BF843B0020A43B002083
:1099980070450400A03B00202DE9F04186B0674BDC
:1099A8001B692BB1654B5B6933B14FF0000846E08A
:1099B8007846FDF7C5FDF5E77846FDF7C1FDF4E704
:1099C8007846FDF7BDFD15E025F47F6525F00F0508
:1099D80005F580552B781D44AE421CD9AC421ED2E9
:1099E8006B88013B9BB247F6FE62934211D92B88E4
:1099F800002BE5D02B8805EB830323F47F6222F04C
:109A08000F029342E0D06A88B2F5FE4FDCD01D46C3
:109A1800E2E72C4600E000241CB100943FE000245B
:109A2800FAE700230093019B002B62D14FF0010855
:109A3800002C7DD0628847F6FF739A4278D0B8F13F
:109A4800000F79D13D4B5A6922F47F6727F00F0741
:109A5800BF1A07F580571C69DE68337972799B1A3B
:109A680003F57F2303F6FF731B0303F580531E449E
:109A7800002301936388013B9BB247F6FE62934241
:109A8800CBD92546B3E77846FDF75AFD22E024F402
:109A98007F6424F00F0404F5805423781C44A64204
:109AA800C1D92388019A02EB83029742BBD9009B54
:109AB800634023F47F6323F00F03002BB3D1638843
:109AC800013B9BB247F6FE618B42ACD801922388DA
:109AD800002BD8D0238804EB830323F47F6222F081
:109AE8000F029342D3D06288B2F5FE4FCFD01C4606
:109AF800D5E7124A526901208DF808000392009AAE
:109B0800059204930E4A02A900F040FE70B90B4971
:109B1800019B23F003024B6913444B6114B1074BBB
:109B28001C6185E77846FDF70BFDF8E7002000E0AB
:109B3800012006B0BDE8F0810120FAE7843B00204F
:109B4800A03B002008B54FF010235B69B3F1FF3F3D
:109B580003D04FF010235B6963B94FF0805251690D
:109B6800136903FB01F3A3F58053054A1360FFF75C
:109B7800B9FD08BD4FF010235B69A3F58053F2E7E8
:109B8800A43B002010B50446B0B1104B1B78CBB1F4
:109B98000E4BD968E3685879A3EB0032914213D38E
:109BA8001A79121A02F57F2202F6FF7203EB0233CA
:109BB800994205D9002006E07846FDF7C1FCE4E7A4
:109BC800012000E0002010BD0020FCE7843B0020BD
:109BD800024B1878003018BF01207047843B0020E2
:109BE80010B504460E4B1B78ABB92378032B02D073
:109BF8007846FDF7A5FC0A4B9C60E268DA60002213
:109C08005A601A76012018705A76064900F0ACFDA1
:109C1800FFF720FD10BD7846FDF792FCE5E700BF91
:109C2800843B002041970200014B1868704700BF31
:109C3800A43B002010B5044680B163681BB12368BB
:109C48000BB1A36813B97846FDF77AFCA3685A1ECE
:109C5800134207D10023E360236110BD7846FDF766
:109C68006FFCEAE77846FDF76BFCF3E770B5F0B1F7
:109C780004468268EAB1EFF3108572B60669C268D5
:109C8800964210D0084621686268A368013B1E40CE
:109C980006FB021108B119F076FA23690133236132
:109CA80065B962B606E03DB962B6052502E00E2543
:109CB80000E00925284670BD0525FBE70025F9E7E2
:109CC800C0F30B0333BB39B301F6FF71090B134B18
:109CD8000222C3F80425114BD3F80034002BFAD024
:109CE80000220AE00D4BC3F808050C4BD3F80034EA
:109CF800002BFAD000F5805001328A42F2D3074B8C
:109D08000022C3F80425054BD3F80034002BFAD001
:109D180000207047102070470920704700E001407C
:109D280010F0030F2FD111F0030F2FD182B312F0CF
:109D3800030F2FD110B49208174B0124C3F8044520
:109D4800154BD3F80034002BFAD002E0043004316C
:109D58002246541E52B10B68B3F1FF3FF6D00360A0
:109D68000D4BD3F80034002BFAD0EFE70A4B002153
:109D7800C3F80415084BD3F80034002BFAD010466A
:109D88005DF8044B70471022104670471022FBE71D
:109D98000922F9E70922F7E700E001404388012B8F
:109DA80005D0022B01D1043008600120704704302F
:109DB8004860FAE708B508220221084804F0DBF8F1
:109DC80038B1074A91684160127B027204F00CF9BD
:109DD80008BD044804F036FAFAE700BFB43B002097
:109DE800003C0020DC2D00200E4B1B78CBB910B5B1
:109DF8000D4B5C6804F50054B4F1807F00D910BDA8
:109E080004220121094804F0B6F830B14460054A3B
:109E18000121117004F0E8F8F1E7054804F012FA9E
:109E2800EDE77047143C0020003C0020B43B0020C4
:109E3800CC2D002010B5044608B1A04710BD7846C7
:109E4800FDF77EFBF9E7000008B501210C4804F096
:109E5800F3F820B902210A4804F0EEF828B10948BD
:109E680004F0F0F9FFF7C0FF08BD074A00231360AC
:109E780053609360D3601361044A1370F2E700BF24
:109E8800B43B0020FC2D0020003C0020D83B0020E3
:109E980000B58DB00B4B1B7B012B0ED0094A926885
:109EA80004928DF8083003900CA8022300F82C3D8A
:109EB800FFF75EF80DB05DF804FB024A9268013ABC
:109EC8000492EEE7003C002010B58CB00C4682B935
:109ED8004B88012B20D1134B1B7833B16268124B8E
:109EE8005A60104B00221A7016E07846FDF728FBDE
:109EF800F4E7032A12D12C22002101A819F06CF9E9
:109F080011238DF804300394084BDA6805921B6915
:109F1800069301A8FFF72CF80CB010BD7846FDF7A2
:109F28000FFBE8E7143C0020003C0020B43B002075
:109F380000B583B001F046FF0021009101916B4606
:109F4800144A154803F00CFF009BBBB1019AAAB153
:109F580018681249886018790873934201D91B79E7
:109F6800A3B112680D4B1A600C4B1A685A60FFF7C0
:109F78003BFF01F06BFF03B05DF804FB074B0022C9
:109F88001A609A601A73FFF715FFEDE700220A605E
:109F9800EAE700BFA59D0200B43B0020003C00207A
:109FA80008B504F0A9F9A0F5805008BD00B587B040
:109FB8000023009301930293039304930593FFF7FF
:109FC800EFFF009001230193064B0393694606486F
:109FD80004F0E9F810B907B05DF804FB034804F091
:109FE80031F9F8E7D19E0200B43B0020EC2D0020A7
:109FF80010B50B4B00241C605C609C60DC601C612D
:10A0080001F05EF9074B5860074A9A60074ADA6020
:10A018001C615C61064B1C70FFF7C8FF10BD00BFD8
:10A02800003C0020DC3B002069A10200008793036C
:10A03800153C002008B5084B1B7803B108BD07483C
:10A04800074B036000F058FE064801F0D1F8024BB8
:10A0580001221A70F2E700BFB03B0020F43B002059
:10A0680091A20200DC3B002010B501F0ABFE164BBC
:10A078001B7BFBB9144B9B7B0BBB134B1A8A41F21E
:10A0880082639A4204D8114B1B788BB1012300E0FC
:10A098000123B3B10C4B01221A7300241C829A6865
:10A0A80001329A60FFF786FE2046FFF7F1FE02E0D4
:10A0B8000023EEE7082401F0C9FE204610BD08245D
:10A0C800F9E70824F7E700BF003C0020153C002012
:10A0D80010B501F077FE204B5B7B9BB11E4B9B7B41
:10A0E800F3B91D4B1A8A41F282639A4204D81B4B7A
:10A0F8001B782BB1012300E001239BB1012302E06F
:10A108000023FAE700231C460BB3134B00225A73B3
:10A118001B7B4BB1012B0ED07846FDF711FA16E0E8
:10A128000023F0E70023EEE7FFF79EFF78B17846BB
:10A13800FDF706FA0BE0084B00201860586018730A
:10A148001882FFF7A5FEFFF735FEFFF74DFE01F079
:10A158007DFE204610BD00BF003C0020153C0020BD
:10A1680008B5214B1B7B7BB1012B20D07846FDF72E
:10A17800E7F91D4A138A013313821B4B5B8A13B11B
:10A18800013B194A538208BD174B1A8A41F2826370
:10A198009A4204D8154B1B783BB1012300E00123F8
:10A1A800002BE6D0FFF794FFE7E70023F8E70E4B14
:10A1B8001B8A41F28262934204D80C4A127872B127
:10A1C800012200E00122002AD3D042F2B0129342C9
:10A1D80007D9054B01225A73FFF77AFFCDE7002212
:10A1E800F1E7FFF775FFC4E7003C0020153C0020AD
:10A1F80010B5244B1B7B002B35D10446214B5B8AC1
:10A208002BBB1AB91F4B9B688B4205D3FAB11D4B68
:10A218009B6801338B421AD21A4B9B682A338B42B4
:10A2280023D3184B9B7B03BB164B996000221A6003
:10A238005A601A8242F6065159825A731A73FFF706
:10A24800B9FDFFF7D1FD2046FFF722FE0DE062B110
:10A258000C4B9B6801338B4207D10A4B01225A737E
:10A26800FFF736FF01E0012B00D010BD002AFCD11A
:10A27800044B9B688B42F8D1024B01225A73FFF7BB
:10A2880027FFF2E7003C00200378042B00D070473A
:10A2980043681B78002BFAD010B58468027E437E91
:10A2A800012A14BF00220122416904F11000FFF7BE
:10A2B8009FFF10BD10B5184B1A685B689A4225D2EB
:10A2C8000446154B1B7B012B13D0144B9A4212D218
:10A2D800114B1A685B68403B9A4214D2EFF3108026
:10A2E80072B60D4A1368591C1160236090B962B6A2
:10A2F80010BD0B4BEAE7084B01225A73FFF7E8FE43
:10A308000028EBD1E4E7FFF76FFDE7E7FFF76CFD07
:10A318000F20EDE70020EBE7003C0020FFFF7F0067
:10A3280000E0FF0008B568B90C4B1B6893B10B4AF5
:10A338001368013B136063B9094B00229A73FFF756
:10A34800C7FE06E0064B01229A73044A13680133DC
:10A35800136008BD7846FDF7F3F8E8E7AC3B00204A
:10A36800003C002000B58DB0ADF808008DF8102035
:10A3780003910CA8032300F82C3DFEF7F9FD0DB05E
:10A388005DF804FB014B9868704700BF003C002053
:10A39800054B1B7B012B02D0034B98687047024B7F
:10A3A80098680138704700BF003C0020044B9B6848
:10A3B800584010F0010F00D0013B1846704700BF0D
:10A3C800003C0020014B187B704700BF003C002078
:10A3D80038B50B4B1B788BB9094B01221A70094D04
:10A3E800A8602973FFF7E6FC0020FFF751FD002461
:10A3F8002C606C60FFF7F8FC204638BD0820FCE7AD
:10A40800D83B0020003C00202DE9F041002724E043
:10A418002449BC2303FB04F3CA5A0132CA5202215D
:10A42800284602F0CCFC01360221284602F097FCAF
:10A4380080B11C4ABC2303FB0423D3F80880B8F17D
:10A44800000FE5D0BC2303FB04F3D25A014638467B
:10A45800C047DDE78EB90137FFB2022F1FD83C464F
:10A46800BC2303FB07F308330E4D1D4404350221BA
:10A47800284602F074FC0026DAE70021284602F09C
:10A4880006FD0828E7D1074BBC2202FB0434A36869
:10A49800002BE0D00022044938469847DBE701202A
:10A4A800BDE8F081203C0020F842040008B50823EC
:10A4B80083731023437300F11C0343610323037365
:10A4C80000F1180303610C3002F0B3FC08BD000072
:10A4D80008B50378012B06D0022B07D07846FDF784
:10A4E8002FF8002001E04FF4A97008BD0048FCE7F0
:10A4F800645E010008B50278012A07D0022A13D049
:10A508007846FDF71DF84FF4FA7308E083685B1A84
:10A5180098084FF4A97303FB00F303F5FA7307488F
:10A52800984228BF184608BD83685B1A180B044B6D
:10A5380003FB00F303F5FA73F1E700BF6085010040
:10A54800645E010038B5044601210C3002F007FCB6
:10A55800054678B1084BC4F89C300023C4F8A030F5
:10A568006168FFF7C7FFC4F8A800C4F8AC4001232E
:10A5780084F8B830284638BDA1A6020010B50446B4
:10A58800FFF7E0FF20B104F19C000EF081F800B95C
:10A5980010BD7846FCF7D4FFFAE70000F8B5064688
:10A5A8000C46174615680378012B18D11249A1FBF0
:10A5B8000431C9098900B468641B8C4200D30C4675
:10A5C8008CB1706825F00305F168224629442844B7
:10A5D800FFF7A6FB58B93B681C443C60F8BD7846B9
:10A5E800FCF7AEFFE2E77846FCF7AAFFE9E7784612
:10A5F800FCF7A6FFEFE700BFEB5DF260F8B5074692
:10A608000C46164615680378022B16D1114BA3FB8E
:10A6180004231B0C1B03BC68641B9C4200D31C4610
:10A628007CB1786825F0030521462844FFF748FBEC
:10A6380058B933681C443460F8BD7846FCF780FF8D
:10A64800E4E77846FCF77CFFEBE77846FCF778FF11
:10A65800EFE700BFB77609BB38B505460C4611468B
:10A668002378012B06D0022B0FD07846FCF768FF21
:10A67800002304E0021D2046FFF790FFA3686868E6
:10A68800984214BF0020012038BD021D2046FFF764
:10A69800B5FFA368F3E700002DE9F8430F46D1F8AA
:10A6A800A850234B1B7863B90646A5F5FA7501F146
:10A6B8000C090121484602F052FB804640B10024B3
:10A6C80022E00EF021F8002387F8B830BDE8F883BF
:10A6D8007846FCF735FFF2E70EF016F801214846F8
:10A6E80002F06DFB00237B6087F8B830114B1868C7
:10A6F80001F000FC3846FFF741FFE7E74046FFF767
:10A70800E7FE2044A8420CD82A1B41463846FFF7EA
:10A71800A3FF0028E0D101F02FFA841BEED5341AEC
:10A72800ECE70DF0F1FF3846FFF728FFCEE700BF52
:10A738001C3C0020183C002010B5084801F0BAFB6A
:10A74800074B1860002406E0064BBC2000FB0430D1
:10A75800FFF7ACFE0134022CF6D910BD11A402009B
:10A76800183C0020203C002038B504460D4602283D
:10A7780005D8054BBC2202FB0434A56038BD7846D9
:10A78800FCF7DEFEF5E700BF203C00202DE9F8438A
:10A7980006460C461746022816D8CCB12378012B5A
:10A7A8001AD0022B3ED16368C3F30B03002B31D1BF
:10A7B800A368C3F30B03002B30D1A368002B34D15B
:10A7C8007846FCF7BDFE30E07846FCF7B9FEE4E7D2
:10A7D8007846FCF7B5FEE1E7636813F0030F0DD187
:10A7E800E36813F0030F0DD1A36813F0030F0DD125
:10A7F800A368D3B97846FCF7A3FE16E07846FCF7C1
:10A808009FFEEDE77846FCF79BFEEDE77846FCF700
:10A8180097FEEDE77846FCF793FEC9E77846FCF724
:10A828008FFECAE77846FCF78BFEEFF3108872B606
:10A83800BC2505FB06F505F108032A4D1D44043522
:10A848000021284602F08BFA814678B30021284679
:10A8580002F0B5FA20686168A268E368C9F80000E8
:10A86800C9F80410C9F80820C9F80C302FB11D4ADE
:10A87800BC2303FB06235B883B801A4ABC2303FBEB
:10A8880006235A8801325A8093F8B83083B9164B98
:10A898001B7813B10024A1460CE0124BBC2000FB2E
:10A8A8000630FFF74FFE8146002403E0042401E050
:10A8B8000024A146B8F1000F00D162B6B9F1000F2B
:10A8C80009D0BC2000FB06F6983606483044043010
:10A8D8000DF0DEFE10B92046BDE8F8837846FCF797
:10A8E8002FFEF8E7203C00201C3C002038B5044629
:10A8F800EFF3108572B610B9164B1B6873B18CB1A3
:10A90800144A136801331360124B1B68003318BFD5
:10A918000123114A137005B962B638BD7846FCF7B1
:10A928000FFEECE70B4B1C68013C1C600CB1EBE71D
:10A938000134022CE8D8094ABC2303FB042393F80A
:10A94800B830002BF4D1BC2000FB0420FFF716FE22
:10A95800EEE700BF543E00201C3C0020203C0020B5
:10A9680018B1830B024AD05C70470020704700BFC3
:10A978000843040012DF704700B583B01378A3B111
:10A98800022B14D1072110F8013C163B152B31D8A6
:10A99800DFE803F05930303030303030303030308C
:10A9A800303030303030302E0F3A517DEBE7002117
:10A9B800E9E7022901D007291CD110F8021C013946
:10A9C80001F0F2FEB0B1264B1B6813F0400F11D016
:10A9D800244B1B68012B0DDD234BD3F80435019064
:10A9E800224A009293222249022002F039FC01E017
:10A9F800022902D003B05DF804FB10F8021C0139EB
:10AA0800C9B213F02BFBF5E70229F3D110F8021CA9
:10AA18000139C9B203F026FF0028EBD0104B1B68A0
:10AA280013F0400FE6D00F4B1B68012BE2DD0E4BF5
:10AA3800D3F8043501900F4A0092A6220C4902204F
:10AA480002F00EFCD6E701884FF6E4639942D1D1B3
:10AA580010F8021C03390230FCF7C0FCCAE700BF3B
:10AA68001C2E0020182E00200010014098430400DE
:10AA78008B430400C443040070B58AB00EF0B4FBE5
:10AA880058B3064600238DF8103005AC05460FCDA7
:10AA98000FC42B682360727D052A04D9337D03F027
:10AAA8000F03072B20D1184B1B689BB104AB0393F2
:10AAB800337DC3F303038DF80430737D062B1DD952
:10AAC800063B8DF8053006F11D0302930E4B1B68FB
:10AAD80001A8984730460EF067FB0EF0A1FB80F006
:10AAE8000100C0B20AB070BD307D04AB063A06F171
:10AAF8001D0100F00F000DF0C9F8D4E700238DF810
:10AB080005300293E2E700BF5C3E00200B4B1B7848
:10AB1800032B00D0704700B58DB0084B04221A7083
:10AB28002C22002101A818F057FB1C238DF80430B3
:10AB380001A8FEF71DFA0DB05DF804FB583E002091
:10AB480070B582B0354B1B78002B5ED1002860D0E1
:10AB5800067A0F2E01D0062E5DD1044605F096FE2A
:10AB6800E06870B1FCF738FE0DF10700FFF702FF4F
:10AB7800054600284AD19DF80730012B04D002254C
:10AB880044E0FCF737FEEFE7FCF756FE00F01CFB4D
:10AB9800304601F0C5F8E07800F03CF900F0B8FE66
:10ABA8000DF0F8FC1E480EF0D7FB0DF00FFAFFF77A
:10ABB800C3FD04F049FF00F00BFD05F029FE05F088
:10ABC800F5FB204601F0FEFCFDF7F4FE04F03CFA2C
:10ABD800FCF704FC18B1062801D0054616E0114818
:10ABE8000DF036F82A200DF0C5F82B200DF0C2F82C
:10ABF80029200DF0BFF816200DF0BCF80A4B0022F2
:10AC08001A60064B01221A7000E00825284602B097
:10AC180070BD0E25FAE70725F8E700BF583E00206B
:10AC280081AA02000C2E00205C3E002010B582B0E4
:10AC38001C4B1B78012B0BD07BB3033B012B2CD86F
:10AC48000DF016FD044648BB164B02221A7025E08B
:10AC58000EF088FA01F0C8FCFDF7EEFEFCF7BEFB2B
:10AC68000446B8B1062815D00F4B1B6813F4804F63
:10AC780014D00E4B1B68012B10DD0D4BD3F8043597
:10AC880001900C4A009240F2A7120B49022002F0F0
:10AC9800E7FA03E001F070F8D2E70824204602B092
:10ACA80010BD00BF583E00201C2E0020182E00208A
:10ACB800001001400C4304008B43040008B50A4B04
:10ACC8001B78022B02D00823184608BD064B032226
:10ACD8001A7006480DF080FC03460028F4D0784628
:10ACE800FCF72EFC0023EFE7583E002015AB0200CE
:10ACF80008B5FDF7A5FE08BD08B5FEF761F908BD62
:10AD080008B5FEF76DF908BD08B500F0C7FD0020CD
:10AD180008BD08B507F0BAF808BD0000064A136870
:10AD280001331360B3F1704F02D0034B18687047BA
:10AD3800134601221A60F8E7603E002010B5044669
:10AD480018B100232360636010BD7846FCF7F8FB58
:10AD5800F7E738B50C46054668B184B1002363604F
:10AD6800EFF3108372B62A686AB16A6854606C603F
:10AD780003B962B638BD7846FCF7E2FBEDE77846E2
:10AD8800FCF7DEFBEAE72C60F1E710B5044658B1A2
:10AD9800EFF3108372B6206808B142682260226817
:10ADA80032B103B962B610BD7846FCF7C9FBEFE7CC
:10ADB8006260F6E710B5044608B1206810BD784611
:10ADC800FCF7BEFBF9E735DF70473CDF70473DDF36
:10ADD8007047000010B504464FF0FF30FFF7F3FF4F
:10ADE800FF210020FFF7F3FF21460020FFF7EDFFCA
:10ADF800BFF34F8F0549CA6802F4E062044B13435E
:10AE0800CB60BFF34F8F00BFFDE700BF00ED00E050
:10AE18000400FA05072814D8DFE800F0080C150428
:10AE2800110F0A066420704714207047FA207047F3
:10AE38001E2070474FF4FA707047322070474B203D
:10AE48007047FA207047962070470000024B5868F8
:10AE5800103840B2704700BF00ED00E003460028FC
:10AE68000FDB5B11084A52F82330424200F01F0002
:10AE780002F01F0258BF504223FA00F000F0010010
:10AE8800704700F11F03ECE700E100E046DF704780
:10AE9800F8B504460D464B1EDBB2012B09D800223B
:10AEA80022616261A261E2612046FFF7EFFF01269D
:10AEB80016E07846FCF744FBF1E7CA5CC818520074
:10AEC800D2B2407842EAD012CA5401339BB20E2B58
:10AED800F3DDCB7B5B00CB73002F08DB0136F6B2CA
:10AEE800AE420BD8214611F9207F0023EFE794F8F2
:10AEF8002F3083F0870384F82F30EFE7F8BD2DE972
:10AF0800F04190B084460C4696461F4602F10F0663
:10AF180036111FFA86F804AD0068DCF80410DCF876
:10AF28000820DCF80C300FC50EF00F05B8F1000F43
:10AF380002D085B1002300E0002398466BB10121BF
:10AF480004A8FFF7A5FFB8F1000F1BD0B0B2013875
:10AF5800000110230EE00123EFE70221F0E7013B97
:10AF68009BB22218D25C10A9194411F8101C4A404F
:10AF78000DF80320002BF2D100250C950D950E95A8
:10AF88000F9534E0B1B20139ADB22A4604EB011194
:10AF9800684618F0F8F880230DF805306B1C03E0BC
:10AFA80000220DF8032001330F2BF9DD10230AE0EE
:10AFB800013B9BB21DF8032010A9194411F8101C7D
:10AFC8004A400DF80320002BF2D1D5E7013B9BB294
:10AFD80010AA1A4412F8102C2118C95C4A4008A972
:10AFE800CA54002BF2D104A8FFF750FF0135B3B2C1
:10AFF800013BAB4202DD28011023F2E710230AE0EF
:10B00800013B9BB210AAD11811F8402C11F8101C62
:10B018004A4008A9CA54002BF2D104A8FFF736FF0A
:10B028000CAC0FCC38607960BA60FB6010B0BDE83A
:10B03800F081000010B50446134B1B684BB1406803
:10B04800114B1B685B68C31A002B02DB0E4B196897
:10B058000DE00D4B1A6862611C600B4A938801333E
:10B068009BB2938063B10123237010BD19464B69CD
:10B078001BB15A68121A002AF8DB63614C61ECE7CD
:10B088007846FCF75DFAEEE7683E002038B50546DD
:10B0980019E06369214A13600023636193889BB2B6
:10B0A800591E89B291800BB3A3681BB30223237086
:10B0B800A36821692846984700F002F905462378D5
:10B0C800DBB2022B1AD0154B1B6833B3134B1B682A
:10B0D8005B685B1B642B20D5104B1C682378DBB2A4
:10B0E800012BD6D07846FCF72BFAD2E77846FCF746
:10B0F80027FAD9E77846FCF723FAD7E7E26812B9C6
:10B1080000232370DFE76368134463605B1B642BD1
:10B11800F9D42046FFF78EFFD5E738BD683E0020FA
:10B1280010B50446144B1B68834207D0124B1B68AA
:10B13800D3B15A69A2420ED01346F9E743690E4AC1
:10B14800136093889BB2591E89B2918063B978467F
:10B15800FCF7F6F908E062695A6107498B889BB2E7
:10B168005A1E92B28A8013B10023237010BD78460C
:10B17800FCF7E6F9F8E700BF683E002008B5064B83
:10B188001B6833B1044B1B680449586800F04AF93E
:10B1980008BD00F0ABF9FBE7683E0020C1B1020032
:10B1A80008B500F08DF8FFF771FF00F089F8FFF798
:10B1B800E5FF012008BD000008B5024B186800F043
:10B1C80099FE08BD643E002008B5064B00221A60AF
:10B1D8005A60054800F06EFE044B186000F063F8F2
:10B1E80008BD00BF683E0020A9B10200643E0020EF
:10B1F80010B5044600F052FF80B19CB1A368ABB112
:10B208002378DBB2012B15D0002363612046FFF7BA
:10B2180011FF00F055F8FFF7B1FF10BD7846FCF7B5
:10B228008FF9EAE77846FCF78BF9E7E77846FCF709
:10B2380087F9E5E77846FCF783F9E5E710B50446B2
:10B2480000F02CFF50B16CB12046FFF769FF0023D6
:10B25800636100F035F8FFF791FF10BD7846FCF701
:10B268006FF9F0E77846FCF76BF9EDE738B5044677
:10B278000D4600F013FF70B18CB12046FFF750FF68
:10B288000023636165602046FFF7D4FE00F018F8DC
:10B29800FFF774FF38BD7846FCF752F9ECE77846BB
:10B2A800FCF74EF9E9E708B516F018FE00B108BD3D
:10B2B80016F092FD0028FAD07846FCF741F9F6E737
:10B2C8002DE9F008EFF3108172B61A4B1A681A4B81
:10B2D800D3F80445D3F80431012B25D001B962B65F
:10B2E80044EA0264204600216201E30E121B63EB6C
:10B2F80001035C0244EAD25455022E1844EB0107BC
:10B30800BD0145EA9665B401A21B65EB0703141855
:10B3180043EB010514F5804245F10003D00B40EAE8
:10B328004340BDE8F0087047034BD3F804450132A9
:10B33800D4E700BF703E00200010014010B50A4B52
:10B348004FF40032C3F84823C3F80823074B1B689F
:10B358002BB1064B1C68FFF7B3FFA04710BD78461A
:10B36800FCF7EEF8F5E700BF001001407C3E002036
:10B37800EFF3108172B6264B0022C3F80421254A48
:10B3880013680133136001B962B6234B1B68002BA5
:10B398003DD0214B1A68013A1A601B68002B36D140
:10B3A80003F1804303F58833D3F804251B4B1B684E
:10B3B8009A421ED2EFF3108272B6154BD3F80435B9
:10B3C8000133164909688B4210D3114BD3F8043561
:10B3D80002330F49C1F8443502B962B60C4B4FF439
:10B3E8000032C3F84423C3F8042370470B4B1B688F
:10B3F800EFE710B50A4B1B682BB1094B1C68FFF728
:10B408005FFFA04710BD7846FCF79AF8F5E770474C
:10B4180000100140703E0020743E0020783E00205D
:10B428007C3E00202DE9304882B004460023019379
:10B438000D4600293AD0274B1D60FFF741FF031B3B
:10B44800002B37DB00234FEA534C4FEAC33B224A19
:10B458000023224C00251BEB04004CEB050117F0E0
:10B46800EBFCEFF31083019372B61D4BD3F8043550
:10B47800022838BF0220C3F1FF1202F57F42824240
:10B488001AD30344164AC2F844354FF40033C2F8BD
:10B498004433C2F804330023124A1360124A13607B
:10B4A800019B03B962B602B0BDE830887846FCF764
:10B4B80047F8C0E7231AC6E7034403F17F43013383
:10B4C8001A0E013207490A6023F07F43064A1360C7
:10B4D800E6E700BF7C3E002040420F0020A10700A5
:10B4E80000100140743E0020783E0020074B4FF4C6
:10B4F8000032C3F84823C3F808230023044A136022
:10B50800044A1360044A1360704700BF00100140EA
:10B51800743E0020783E00207C3E002030DF7047DB
:10B5280031DF704710B402684368A2EB7312846875
:10B5380083EAF4330360C1680C44446011448160B9
:10B548001344C36018465DF8044B704770B582B069
:10B558000D46064608B100240BE07846FBF7F0FFDD
:10B56800F9E79DF807103019FFF7DAFF9DF8073063
:10B578001C44A5420DD90DF10700FFF7CFFF9DF838
:10B588000730002BF7D02A1B9342EAD98DF8072001
:10B59800E7E702B070BD000030B583B0054600246F
:10B5A80002A840F8044D0421FFF7D0FF074B2B6099
:10B5B800019B6B60AB60EB6003E02846FFF7B2FFCE
:10B5C8000134132CF9D903B030BD00BFED5EEAF1A8
:10B5D800704748DF704749DF70474ADF704700000F
:10B5E800044B01225A7143F2B0629A6043F69822E2
:10B5F800DA607047CC3E0020094B03221A74094ACE
:10B608005A611A6840F6D8639A4204D8054B40F646
:10B61800D8629A607047034B43F2B0629A607047F1
:10B62800AC3E0020CC3E002008B50F4B1B78022B07
:10B6380012D0032B08D0012B03D07846FBF780FFEC
:10B648000EE0022303740BE0084B00225A710849EC
:10B6580099600849D960827103230374034B4361DD
:10B66800014B00221A7008BDDD3E0020CC3E0020B0
:10B67800A0860100FF1FA10738B504460025057400
:10B68800012343710E4A13680133136000F0D2FAA4
:10B698000DF0B4F823680B4A1168283101FB03F157
:10B6A800094AA2FB0121A3EB9141084A78392846AF
:10B6B80000F03CFA00B938BD7846FBF741FFFAE7DD
:10B6C800E03E0020C83E002083DE1B4301B6020096
:10B6D80010B5044600238360C36003680D4A92686E
:10B6E8000260817991B10121017403B90A4B991A59
:10B6F8006161B1F57A7F01D39A4202D94FF47A7326
:10B708006361FFF76DFF0123A37110BDFFF7B4FF5D
:10B71800F7E700BFCC3E00208096980010B50C4695
:10B7280031B1C3680133C3604269036813440360DD
:10B7380083680133836001220274426952084261BE
:10B74800012B0DD0022B19D0426903681344174905
:10B758008B4222D840F6D7639A4221D800231DE0B5
:10B76800B2F5FA7F05D040F6D8639A42ECD8436127
:10B77800EAE7002CF7D100234361E5E7C368022B11
:10B7880006D0012BE0D1002CDED100234361DBE79A
:10B798000268064B9B1A4361D6E7002313B110BD1C
:10B7A8000123FBE7FFF768FFF9E700BF80969800E1
:10B7B80043791BB90D4B00221A70704710B5044627
:10B7C8000DF038F820680A4B1B68283300FB03F398
:10B7D800084AA2FB0323A0EB9340783800F05AFAFA
:10B7E80000236371014B00221A7010BDDC3E00205B
:10B7F800C83E002083DE1B4308B5254B01221A7181
:10B80800244B1B7813B1244B1B781BB3204B00220D
:10B818001A7404281AD8DFE800F00314110C070082
:10B828001B48FFF755FF1CE001211948FFF776FF79
:10B8380017E000211648FFF771FF12E00CF08AFFAD
:10B848000FE000F0B9F90CF0BFFF0AE07846FBF70B
:10B8580077FE06E000F090F90D4B18601846FFF7E8
:10B86800E3FE0B4B1B7C023BDBB2012B08D9084BD8
:10B878001B7C022B08D0064800230371103008BD3A
:10B888000348FFF795FFF2E7014B01221A76F2E72A
:10B89800AC3E0020DD3E0020DC3E002008B5043828
:10B8A800042814D8DFE800F0182614030E00164BFD
:10B8B8001B7E012B0BD1FFF78EFE40B17846FBF7BC
:10B8C8003FFE04E0104B00221A760CF0D7FF08BDAB
:10B8D8007846FBF735FEFAE7FFF782FE0B4840F69D
:10B8E800D8638360FFF779FE0028F0D07846FBF72D
:10B8F80027FEECE70548FFF770FE0028E7D07846FA
:10B90800FBF71EFEE3E700BFAC3E0020CC3E002064
:10B9180010B40E4A0023137013710121517143F2C0
:10B92800B064946043F69824D460094A1060094AC8
:10B938001370094A1370094A1360094A1371537145
:10B948001360137691715DF8044B7047CC3E00206C
:10B95800C83E0020DC3E0020DD3E0020E03E002006
:10B96800AC3E002008B5104B1B7E012B08D01BB144
:10B97800022B16D111200BE00C48FFF72AFE40B924
:10B988000B48FFF72AFE40B9074B02221A7600201F
:10B9980008BD7846FBF7D4FDF2E77846FBF7D0FD03
:10B9A800F2E70020F4E700BFAC3E002001B8020037
:10B9B800CC3E00200B4B1B7C023BDBB2012B0BD98E
:10B9C800094B1B78012B09D0022B09D0032B01D07E
:10B9D8000020704701207047012070470120704700
:10B9E80001207047AC3E0020DD3E0020014B186866
:10B9F800704700BFAC3E00200D4B5B790BB90020AF
:10BA0800704710B50A4B1C680A4B1B68283303FBA8
:10BA180004F3094AA2FB0323A4EB9344783C00F007
:10BA2800ABF80346201A00D410BD181BFCE700BF72
:10BA3800AC3E0020C83E002083DE1B43014B5879F2
:10BA4800704700BFAC3E0020014B1879704700BF1B
:10BA5800AC3E0020024B187E003018BF0120704712
:10BA6800AC3E0020EFF3108372B6054A527922B13A
:10BA7800044A4FF48071C2F8001103B962B67047E6
:10BA8800AC3E002000E100E008B5054B1B7E022B10
:10BA980000D008BD034B01221A70FFF7E3FFF8E757
:10BAA800AC3E0020DD3E002008B5074B1B7E022B74
:10BAB80000D008BD012805D00222044B1A70FFF7F8
:10BAC800D1FFF6E70322F8E7AC3E0020DD3E002078
